{
	"newvest.sol": {
		"AdvancedConstructor": {
			"abi": [
				{
					"inputs": [
						{
							"internalType": "address",
							"name": "_owner",
							"type": "address"
						},
						{
							"internalType": "string",
							"name": "_name",
							"type": "string"
						}
					],
					"stateMutability": "nonpayable",
					"type": "constructor"
				},
				{
					"inputs": [],
					"name": "contractName",
					"outputs": [
						{
							"internalType": "string",
							"name": "",
							"type": "string"
						}
					],
					"stateMutability": "view",
					"type": "function"
				},
				{
					"inputs": [],
					"name": "creationTime",
					"outputs": [
						{
							"internalType": "uint256",
							"name": "",
							"type": "uint256"
						}
					],
					"stateMutability": "view",
					"type": "function"
				},
				{
					"inputs": [],
					"name": "owner",
					"outputs": [
						{
							"internalType": "address",
							"name": "",
							"type": "address"
						}
					],
					"stateMutability": "view",
					"type": "function"
				}
			],
			"devdoc": {
				"kind": "dev",
				"methods": {},
				"version": 1
			},
			"evm": {
				"assembly": "    /* \"newvest.sol\":60:489  contract AdvancedConstructor {... */\n  mstore(0x40, 0x80)\n    /* \"newvest.sol\":267:486  constructor(address _owner, string memory _name) {... */\n  callvalue\n  dup1\n  iszero\n  tag_1\n  jumpi\n  revert(0x00, 0x00)\ntag_1:\n  pop\n  mload(0x40)\n  sub(codesize, bytecodeSize)\n  dup1\n  bytecodeSize\n  dup4\n  codecopy\n  dup2\n  dup2\n  add\n  0x40\n  mstore\n  dup2\n  add\n  swap1\n  tag_2\n  swap2\n  swap1\n  tag_3\n  jump\t// in\ntag_2:\n    /* \"newvest.sol\":353:354  0 */\n  0x00\n    /* \"newvest.sol\":335:355  _owner != address(0) */\n  0xffffffffffffffffffffffffffffffffffffffff\n  and\n    /* \"newvest.sol\":335:341  _owner */\n  dup3\n    /* \"newvest.sol\":335:355  _owner != address(0) */\n  0xffffffffffffffffffffffffffffffffffffffff\n  and\n  sub\n    /* \"newvest.sol\":327:381  require(_owner != address(0), \"Invalid owner address\") */\n  tag_6\n  jumpi\n  mload(0x40)\n  0x08c379a000000000000000000000000000000000000000000000000000000000\n  dup2\n  mstore\n  0x04\n  add\n  tag_7\n  swap1\n  tag_8\n  jump\t// in\ntag_7:\n  mload(0x40)\n  dup1\n  swap2\n  sub\n  swap1\n  revert\ntag_6:\n    /* \"newvest.sol\":400:406  _owner */\n  dup2\n    /* \"newvest.sol\":392:397  owner */\n  0x00\n  0x00\n    /* \"newvest.sol\":392:406  owner = _owner */\n  0x0100\n  exp\n  dup2\n  sload\n  dup2\n  0xffffffffffffffffffffffffffffffffffffffff\n  mul\n  not\n  and\n  swap1\n  dup4\n  0xffffffffffffffffffffffffffffffffffffffff\n  and\n  mul\n  or\n  swap1\n  sstore\n  pop\n    /* \"newvest.sol\":432:437  _name */\n  dup1\n    /* \"newvest.sol\":417:429  contractName */\n  0x01\n    /* \"newvest.sol\":417:437  contractName = _name */\n  swap1\n  dup2\n  tag_9\n  swap2\n  swap1\n  tag_10\n  jump\t// in\ntag_9:\n  pop\n    /* \"newvest.sol\":463:478  block.timestamp */\n  timestamp\n    /* \"newvest.sol\":448:460  creationTime */\n  0x02\n    /* \"newvest.sol\":448:478  creationTime = block.timestamp */\n  dup2\n  swap1\n  sstore\n  pop\n    /* \"newvest.sol\":267:486  constructor(address _owner, string memory _name) {... */\n  pop\n  pop\n    /* \"newvest.sol\":60:489  contract AdvancedConstructor {... */\n  jump(tag_11)\n    /* \"#utility.yul\":7:82   */\ntag_12:\n    /* \"#utility.yul\":40:46   */\n  0x00\n    /* \"#utility.yul\":73:75   */\n  0x40\n    /* \"#utility.yul\":67:76   */\n  mload\n    /* \"#utility.yul\":57:76   */\n  swap1\n  pop\n    /* \"#utility.yul\":7:82   */\n  swap1\n  jump\t// out\n    /* \"#utility.yul\":88:205   */\ntag_13:\n    /* \"#utility.yul\":197:198   */\n  0x00\n    /* \"#utility.yul\":194:195   */\n  0x00\n    /* \"#utility.yul\":187:199   */\n  revert\n    /* \"#utility.yul\":211:328   */\ntag_14:\n    /* \"#utility.yul\":320:321   */\n  0x00\n    /* \"#utility.yul\":317:318   */\n  0x00\n    /* \"#utility.yul\":310:322   */\n  revert\n    /* \"#utility.yul\":334:460   */\ntag_15:\n    /* \"#utility.yul\":371:378   */\n  0x00\n    /* \"#utility.yul\":411:453   */\n  0xffffffffffffffffffffffffffffffffffffffff\n    /* \"#utility.yul\":404:409   */\n  dup3\n    /* \"#utility.yul\":400:454   */\n  and\n    /* \"#utility.yul\":389:454   */\n  swap1\n  pop\n    /* \"#utility.yul\":334:460   */\n  swap2\n  swap1\n  pop\n  jump\t// out\n    /* \"#utility.yul\":466:562   */\ntag_16:\n    /* \"#utility.yul\":503:510   */\n  0x00\n    /* \"#utility.yul\":532:556   */\n  tag_57\n    /* \"#utility.yul\":550:555   */\n  dup3\n    /* \"#utility.yul\":532:556   */\n  tag_15\n  jump\t// in\ntag_57:\n    /* \"#utility.yul\":521:556   */\n  swap1\n  pop\n    /* \"#utility.yul\":466:562   */\n  swap2\n  swap1\n  pop\n  jump\t// out\n    /* \"#utility.yul\":568:690   */\ntag_17:\n    /* \"#utility.yul\":641:665   */\n  tag_59\n    /* \"#utility.yul\":659:664   */\n  dup2\n    /* \"#utility.yul\":641:665   */\n  tag_16\n  jump\t// in\ntag_59:\n    /* \"#utility.yul\":634:639   */\n  dup2\n    /* \"#utility.yul\":631:666   */\n  eq\n    /* \"#utility.yul\":621:684   */\n  tag_60\n  jumpi\n    /* \"#utility.yul\":680:681   */\n  0x00\n    /* \"#utility.yul\":677:678   */\n  0x00\n    /* \"#utility.yul\":670:682   */\n  revert\n    /* \"#utility.yul\":621:684   */\ntag_60:\n    /* \"#utility.yul\":568:690   */\n  pop\n  jump\t// out\n    /* \"#utility.yul\":696:839   */\ntag_18:\n    /* \"#utility.yul\":753:758   */\n  0x00\n    /* \"#utility.yul\":784:790   */\n  dup2\n    /* \"#utility.yul\":778:791   */\n  mload\n    /* \"#utility.yul\":769:791   */\n  swap1\n  pop\n    /* \"#utility.yul\":800:833   */\n  tag_62\n    /* \"#utility.yul\":827:832   */\n  dup2\n    /* \"#utility.yul\":800:833   */\n  tag_17\n  jump\t// in\ntag_62:\n    /* \"#utility.yul\":696:839   */\n  swap3\n  swap2\n  pop\n  pop\n  jump\t// out\n    /* \"#utility.yul\":845:962   */\ntag_19:\n    /* \"#utility.yul\":954:955   */\n  0x00\n    /* \"#utility.yul\":951:952   */\n  0x00\n    /* \"#utility.yul\":944:956   */\n  revert\n    /* \"#utility.yul\":968:1085   */\ntag_20:\n    /* \"#utility.yul\":1077:1078   */\n  0x00\n    /* \"#utility.yul\":1074:1075   */\n  0x00\n    /* \"#utility.yul\":1067:1079   */\n  revert\n    /* \"#utility.yul\":1091:1193   */\ntag_21:\n    /* \"#utility.yul\":1132:1138   */\n  0x00\n    /* \"#utility.yul\":1183:1185   */\n  0x1f\n    /* \"#utility.yul\":1179:1186   */\n  not\n    /* \"#utility.yul\":1174:1176   */\n  0x1f\n    /* \"#utility.yul\":1167:1172   */\n  dup4\n    /* \"#utility.yul\":1163:1177   */\n  add\n    /* \"#utility.yul\":1159:1187   */\n  and\n    /* \"#utility.yul\":1149:1187   */\n  swap1\n  pop\n    /* \"#utility.yul\":1091:1193   */\n  swap2\n  swap1\n  pop\n  jump\t// out\n    /* \"#utility.yul\":1199:1379   */\ntag_22:\n    /* \"#utility.yul\":1247:1324   */\n  0x4e487b7100000000000000000000000000000000000000000000000000000000\n    /* \"#utility.yul\":1244:1245   */\n  0x00\n    /* \"#utility.yul\":1237:1325   */\n  mstore\n    /* \"#utility.yul\":1344:1348   */\n  0x41\n    /* \"#utility.yul\":1341:1342   */\n  0x04\n    /* \"#utility.yul\":1334:1349   */\n  mstore\n    /* \"#utility.yul\":1368:1372   */\n  0x24\n    /* \"#utility.yul\":1365:1366   */\n  0x00\n    /* \"#utility.yul\":1358:1373   */\n  revert\n    /* \"#utility.yul\":1385:1666   */\ntag_23:\n    /* \"#utility.yul\":1468:1495   */\n  tag_68\n    /* \"#utility.yul\":1490:1494   */\n  dup3\n    /* \"#utility.yul\":1468:1495   */\n  tag_21\n  jump\t// in\ntag_68:\n    /* \"#utility.yul\":1460:1466   */\n  dup2\n    /* \"#utility.yul\":1456:1496   */\n  add\n    /* \"#utility.yul\":1598:1604   */\n  dup2\n    /* \"#utility.yul\":1586:1596   */\n  dup2\n    /* \"#utility.yul\":1583:1605   */\n  lt\n    /* \"#utility.yul\":1562:1580   */\n  0xffffffffffffffff\n    /* \"#utility.yul\":1550:1560   */\n  dup3\n    /* \"#utility.yul\":1547:1581   */\n  gt\n    /* \"#utility.yul\":1544:1606   */\n  or\n    /* \"#utility.yul\":1541:1629   */\n  iszero\n  tag_69\n  jumpi\n    /* \"#utility.yul\":1609:1627   */\n  tag_70\n  tag_22\n  jump\t// in\ntag_70:\n    /* \"#utility.yul\":1541:1629   */\ntag_69:\n    /* \"#utility.yul\":1649:1659   */\n  dup1\n    /* \"#utility.yul\":1645:1647   */\n  0x40\n    /* \"#utility.yul\":1638:1660   */\n  mstore\n    /* \"#utility.yul\":1428:1666   */\n  pop\n    /* \"#utility.yul\":1385:1666   */\n  pop\n  pop\n  jump\t// out\n    /* \"#utility.yul\":1672:1801   */\ntag_24:\n    /* \"#utility.yul\":1706:1712   */\n  0x00\n    /* \"#utility.yul\":1733:1753   */\n  tag_72\n  tag_12\n  jump\t// in\ntag_72:\n    /* \"#utility.yul\":1723:1753   */\n  swap1\n  pop\n    /* \"#utility.yul\":1762:1795   */\n  tag_73\n    /* \"#utility.yul\":1790:1794   */\n  dup3\n    /* \"#utility.yul\":1782:1788   */\n  dup3\n    /* \"#utility.yul\":1762:1795   */\n  tag_23\n  jump\t// in\ntag_73:\n    /* \"#utility.yul\":1672:1801   */\n  swap2\n  swap1\n  pop\n  jump\t// out\n    /* \"#utility.yul\":1807:2115   */\ntag_25:\n    /* \"#utility.yul\":1869:1873   */\n  0x00\n    /* \"#utility.yul\":1959:1977   */\n  0xffffffffffffffff\n    /* \"#utility.yul\":1951:1957   */\n  dup3\n    /* \"#utility.yul\":1948:1978   */\n  gt\n    /* \"#utility.yul\":1945:2001   */\n  iszero\n  tag_75\n  jumpi\n    /* \"#utility.yul\":1981:1999   */\n  tag_76\n  tag_22\n  jump\t// in\ntag_76:\n    /* \"#utility.yul\":1945:2001   */\ntag_75:\n    /* \"#utility.yul\":2019:2048   */\n  tag_77\n    /* \"#utility.yul\":2041:2047   */\n  dup3\n    /* \"#utility.yul\":2019:2048   */\n  tag_21\n  jump\t// in\ntag_77:\n    /* \"#utility.yul\":2011:2048   */\n  swap1\n  pop\n    /* \"#utility.yul\":2103:2107   */\n  0x20\n    /* \"#utility.yul\":2097:2101   */\n  dup2\n    /* \"#utility.yul\":2093:2108   */\n  add\n    /* \"#utility.yul\":2085:2108   */\n  swap1\n  pop\n    /* \"#utility.yul\":1807:2115   */\n  swap2\n  swap1\n  pop\n  jump\t// out\n    /* \"#utility.yul\":2121:2260   */\ntag_26:\n    /* \"#utility.yul\":2210:2216   */\n  dup3\n    /* \"#utility.yul\":2205:2208   */\n  dup2\n    /* \"#utility.yul\":2200:2203   */\n  dup4\n    /* \"#utility.yul\":2194:2217   */\n  mcopy\n    /* \"#utility.yul\":2251:2252   */\n  0x00\n    /* \"#utility.yul\":2242:2248   */\n  dup4\n    /* \"#utility.yul\":2237:2240   */\n  dup4\n    /* \"#utility.yul\":2233:2249   */\n  add\n    /* \"#utility.yul\":2226:2253   */\n  mstore\n    /* \"#utility.yul\":2121:2260   */\n  pop\n  pop\n  pop\n  jump\t// out\n    /* \"#utility.yul\":2266:2700   */\ntag_27:\n    /* \"#utility.yul\":2355:2360   */\n  0x00\n    /* \"#utility.yul\":2380:2446   */\n  tag_80\n    /* \"#utility.yul\":2396:2445   */\n  tag_81\n    /* \"#utility.yul\":2438:2444   */\n  dup5\n    /* \"#utility.yul\":2396:2445   */\n  tag_25\n  jump\t// in\ntag_81:\n    /* \"#utility.yul\":2380:2446   */\n  tag_24\n  jump\t// in\ntag_80:\n    /* \"#utility.yul\":2371:2446   */\n  swap1\n  pop\n    /* \"#utility.yul\":2469:2475   */\n  dup3\n    /* \"#utility.yul\":2462:2467   */\n  dup2\n    /* \"#utility.yul\":2455:2476   */\n  mstore\n    /* \"#utility.yul\":2507:2511   */\n  0x20\n    /* \"#utility.yul\":2500:2505   */\n  dup2\n    /* \"#utility.yul\":2496:2512   */\n  add\n    /* \"#utility.yul\":2545:2548   */\n  dup5\n    /* \"#utility.yul\":2536:2542   */\n  dup5\n    /* \"#utility.yul\":2531:2534   */\n  dup5\n    /* \"#utility.yul\":2527:2543   */\n  add\n    /* \"#utility.yul\":2524:2549   */\n  gt\n    /* \"#utility.yul\":2521:2633   */\n  iszero\n  tag_82\n  jumpi\n    /* \"#utility.yul\":2552:2631   */\n  tag_83\n  tag_20\n  jump\t// in\ntag_83:\n    /* \"#utility.yul\":2521:2633   */\ntag_82:\n    /* \"#utility.yul\":2642:2694   */\n  tag_84\n    /* \"#utility.yul\":2687:2693   */\n  dup5\n    /* \"#utility.yul\":2682:2685   */\n  dup3\n    /* \"#utility.yul\":2677:2680   */\n  dup6\n    /* \"#utility.yul\":2642:2694   */\n  tag_26\n  jump\t// in\ntag_84:\n    /* \"#utility.yul\":2361:2700   */\n  pop\n    /* \"#utility.yul\":2266:2700   */\n  swap4\n  swap3\n  pop\n  pop\n  pop\n  jump\t// out\n    /* \"#utility.yul\":2720:3075   */\ntag_28:\n    /* \"#utility.yul\":2787:2792   */\n  0x00\n    /* \"#utility.yul\":2836:2839   */\n  dup3\n    /* \"#utility.yul\":2829:2833   */\n  0x1f\n    /* \"#utility.yul\":2821:2827   */\n  dup4\n    /* \"#utility.yul\":2817:2834   */\n  add\n    /* \"#utility.yul\":2813:2840   */\n  slt\n    /* \"#utility.yul\":2803:2925   */\n  tag_86\n  jumpi\n    /* \"#utility.yul\":2844:2923   */\n  tag_87\n  tag_19\n  jump\t// in\ntag_87:\n    /* \"#utility.yul\":2803:2925   */\ntag_86:\n    /* \"#utility.yul\":2954:2960   */\n  dup2\n    /* \"#utility.yul\":2948:2961   */\n  mload\n    /* \"#utility.yul\":2979:3069   */\n  tag_88\n    /* \"#utility.yul\":3065:3068   */\n  dup5\n    /* \"#utility.yul\":3057:3063   */\n  dup3\n    /* \"#utility.yul\":3050:3054   */\n  0x20\n    /* \"#utility.yul\":3042:3048   */\n  dup7\n    /* \"#utility.yul\":3038:3055   */\n  add\n    /* \"#utility.yul\":2979:3069   */\n  tag_27\n  jump\t// in\ntag_88:\n    /* \"#utility.yul\":2970:3069   */\n  swap2\n  pop\n    /* \"#utility.yul\":2793:3075   */\n  pop\n    /* \"#utility.yul\":2720:3075   */\n  swap3\n  swap2\n  pop\n  pop\n  jump\t// out\n    /* \"#utility.yul\":3081:3761   */\ntag_3:\n    /* \"#utility.yul\":3170:3176   */\n  0x00\n    /* \"#utility.yul\":3178:3184   */\n  0x00\n    /* \"#utility.yul\":3227:3229   */\n  0x40\n    /* \"#utility.yul\":3215:3224   */\n  dup4\n    /* \"#utility.yul\":3206:3213   */\n  dup6\n    /* \"#utility.yul\":3202:3225   */\n  sub\n    /* \"#utility.yul\":3198:3230   */\n  slt\n    /* \"#utility.yul\":3195:3314   */\n  iszero\n  tag_90\n  jumpi\n    /* \"#utility.yul\":3233:3312   */\n  tag_91\n  tag_13\n  jump\t// in\ntag_91:\n    /* \"#utility.yul\":3195:3314   */\ntag_90:\n    /* \"#utility.yul\":3353:3354   */\n  0x00\n    /* \"#utility.yul\":3378:3442   */\n  tag_92\n    /* \"#utility.yul\":3434:3441   */\n  dup6\n    /* \"#utility.yul\":3425:3431   */\n  dup3\n    /* \"#utility.yul\":3414:3423   */\n  dup7\n    /* \"#utility.yul\":3410:3432   */\n  add\n    /* \"#utility.yul\":3378:3442   */\n  tag_18\n  jump\t// in\ntag_92:\n    /* \"#utility.yul\":3368:3442   */\n  swap3\n  pop\n    /* \"#utility.yul\":3324:3452   */\n  pop\n    /* \"#utility.yul\":3512:3514   */\n  0x20\n    /* \"#utility.yul\":3501:3510   */\n  dup4\n    /* \"#utility.yul\":3497:3515   */\n  add\n    /* \"#utility.yul\":3491:3516   */\n  mload\n    /* \"#utility.yul\":3543:3561   */\n  0xffffffffffffffff\n    /* \"#utility.yul\":3535:3541   */\n  dup2\n    /* \"#utility.yul\":3532:3562   */\n  gt\n    /* \"#utility.yul\":3529:3646   */\n  iszero\n  tag_93\n  jumpi\n    /* \"#utility.yul\":3565:3644   */\n  tag_94\n  tag_14\n  jump\t// in\ntag_94:\n    /* \"#utility.yul\":3529:3646   */\ntag_93:\n    /* \"#utility.yul\":3670:3744   */\n  tag_95\n    /* \"#utility.yul\":3736:3743   */\n  dup6\n    /* \"#utility.yul\":3727:3733   */\n  dup3\n    /* \"#utility.yul\":3716:3725   */\n  dup7\n    /* \"#utility.yul\":3712:3734   */\n  add\n    /* \"#utility.yul\":3670:3744   */\n  tag_28\n  jump\t// in\ntag_95:\n    /* \"#utility.yul\":3660:3744   */\n  swap2\n  pop\n    /* \"#utility.yul\":3462:3754   */\n  pop\n    /* \"#utility.yul\":3081:3761   */\n  swap3\n  pop\n  swap3\n  swap1\n  pop\n  jump\t// out\n    /* \"#utility.yul\":3767:3936   */\ntag_29:\n    /* \"#utility.yul\":3851:3862   */\n  0x00\n    /* \"#utility.yul\":3885:3891   */\n  dup3\n    /* \"#utility.yul\":3880:3883   */\n  dup3\n    /* \"#utility.yul\":3873:3892   */\n  mstore\n    /* \"#utility.yul\":3925:3929   */\n  0x20\n    /* \"#utility.yul\":3920:3923   */\n  dup3\n    /* \"#utility.yul\":3916:3930   */\n  add\n    /* \"#utility.yul\":3901:3930   */\n  swap1\n  pop\n    /* \"#utility.yul\":3767:3936   */\n  swap3\n  swap2\n  pop\n  pop\n  jump\t// out\n    /* \"#utility.yul\":3942:4113   */\ntag_30:\n    /* \"#utility.yul\":4082:4105   */\n  0x496e76616c6964206f776e657220616464726573730000000000000000000000\n    /* \"#utility.yul\":4078:4079   */\n  0x00\n    /* \"#utility.yul\":4070:4076   */\n  dup3\n    /* \"#utility.yul\":4066:4080   */\n  add\n    /* \"#utility.yul\":4059:4106   */\n  mstore\n    /* \"#utility.yul\":3942:4113   */\n  pop\n  jump\t// out\n    /* \"#utility.yul\":4119:4485   */\ntag_31:\n    /* \"#utility.yul\":4261:4264   */\n  0x00\n    /* \"#utility.yul\":4282:4349   */\n  tag_99\n    /* \"#utility.yul\":4346:4348   */\n  0x15\n    /* \"#utility.yul\":4341:4344   */\n  dup4\n    /* \"#utility.yul\":4282:4349   */\n  tag_29\n  jump\t// in\ntag_99:\n    /* \"#utility.yul\":4275:4349   */\n  swap2\n  pop\n    /* \"#utility.yul\":4358:4451   */\n  tag_100\n    /* \"#utility.yul\":4447:4450   */\n  dup3\n    /* \"#utility.yul\":4358:4451   */\n  tag_30\n  jump\t// in\ntag_100:\n    /* \"#utility.yul\":4476:4478   */\n  0x20\n    /* \"#utility.yul\":4471:4474   */\n  dup3\n    /* \"#utility.yul\":4467:4479   */\n  add\n    /* \"#utility.yul\":4460:4479   */\n  swap1\n  pop\n    /* \"#utility.yul\":4119:4485   */\n  swap2\n  swap1\n  pop\n  jump\t// out\n    /* \"#utility.yul\":4491:4910   */\ntag_8:\n    /* \"#utility.yul\":4657:4661   */\n  0x00\n    /* \"#utility.yul\":4695:4697   */\n  0x20\n    /* \"#utility.yul\":4684:4693   */\n  dup3\n    /* \"#utility.yul\":4680:4698   */\n  add\n    /* \"#utility.yul\":4672:4698   */\n  swap1\n  pop\n    /* \"#utility.yul\":4744:4753   */\n  dup2\n    /* \"#utility.yul\":4738:4742   */\n  dup2\n    /* \"#utility.yul\":4734:4754   */\n  sub\n    /* \"#utility.yul\":4730:4731   */\n  0x00\n    /* \"#utility.yul\":4719:4728   */\n  dup4\n    /* \"#utility.yul\":4715:4732   */\n  add\n    /* \"#utility.yul\":4708:4755   */\n  mstore\n    /* \"#utility.yul\":4772:4903   */\n  tag_102\n    /* \"#utility.yul\":4898:4902   */\n  dup2\n    /* \"#utility.yul\":4772:4903   */\n  tag_31\n  jump\t// in\ntag_102:\n    /* \"#utility.yul\":4764:4903   */\n  swap1\n  pop\n    /* \"#utility.yul\":4491:4910   */\n  swap2\n  swap1\n  pop\n  jump\t// out\n    /* \"#utility.yul\":4916:5015   */\ntag_32:\n    /* \"#utility.yul\":4968:4974   */\n  0x00\n    /* \"#utility.yul\":5002:5007   */\n  dup2\n    /* \"#utility.yul\":4996:5008   */\n  mload\n    /* \"#utility.yul\":4986:5008   */\n  swap1\n  pop\n    /* \"#utility.yul\":4916:5015   */\n  swap2\n  swap1\n  pop\n  jump\t// out\n    /* \"#utility.yul\":5021:5201   */\ntag_33:\n    /* \"#utility.yul\":5069:5146   */\n  0x4e487b7100000000000000000000000000000000000000000000000000000000\n    /* \"#utility.yul\":5066:5067   */\n  0x00\n    /* \"#utility.yul\":5059:5147   */\n  mstore\n    /* \"#utility.yul\":5166:5170   */\n  0x22\n    /* \"#utility.yul\":5163:5164   */\n  0x04\n    /* \"#utility.yul\":5156:5171   */\n  mstore\n    /* \"#utility.yul\":5190:5194   */\n  0x24\n    /* \"#utility.yul\":5187:5188   */\n  0x00\n    /* \"#utility.yul\":5180:5195   */\n  revert\n    /* \"#utility.yul\":5207:5527   */\ntag_34:\n    /* \"#utility.yul\":5251:5257   */\n  0x00\n    /* \"#utility.yul\":5288:5289   */\n  0x02\n    /* \"#utility.yul\":5282:5286   */\n  dup3\n    /* \"#utility.yul\":5278:5290   */\n  div\n    /* \"#utility.yul\":5268:5290   */\n  swap1\n  pop\n    /* \"#utility.yul\":5335:5336   */\n  0x01\n    /* \"#utility.yul\":5329:5333   */\n  dup3\n    /* \"#utility.yul\":5325:5337   */\n  and\n    /* \"#utility.yul\":5356:5374   */\n  dup1\n    /* \"#utility.yul\":5346:5427   */\n  tag_106\n  jumpi\n    /* \"#utility.yul\":5412:5416   */\n  0x7f\n    /* \"#utility.yul\":5404:5410   */\n  dup3\n    /* \"#utility.yul\":5400:5417   */\n  and\n    /* \"#utility.yul\":5390:5417   */\n  swap2\n  pop\n    /* \"#utility.yul\":5346:5427   */\ntag_106:\n    /* \"#utility.yul\":5474:5476   */\n  0x20\n    /* \"#utility.yul\":5466:5472   */\n  dup3\n    /* \"#utility.yul\":5463:5477   */\n  lt\n    /* \"#utility.yul\":5443:5461   */\n  dup2\n    /* \"#utility.yul\":5440:5478   */\n  sub\n    /* \"#utility.yul\":5437:5521   */\n  tag_107\n  jumpi\n    /* \"#utility.yul\":5493:5511   */\n  tag_108\n  tag_33\n  jump\t// in\ntag_108:\n    /* \"#utility.yul\":5437:5521   */\ntag_107:\n    /* \"#utility.yul\":5258:5527   */\n  pop\n    /* \"#utility.yul\":5207:5527   */\n  swap2\n  swap1\n  pop\n  jump\t// out\n    /* \"#utility.yul\":5533:5674   */\ntag_35:\n    /* \"#utility.yul\":5582:5586   */\n  0x00\n    /* \"#utility.yul\":5605:5608   */\n  dup2\n    /* \"#utility.yul\":5597:5608   */\n  swap1\n  pop\n    /* \"#utility.yul\":5628:5631   */\n  dup2\n    /* \"#utility.yul\":5625:5626   */\n  0x00\n    /* \"#utility.yul\":5618:5632   */\n  mstore\n    /* \"#utility.yul\":5662:5666   */\n  0x20\n    /* \"#utility.yul\":5659:5660   */\n  0x00\n    /* \"#utility.yul\":5649:5667   */\n  keccak256\n    /* \"#utility.yul\":5641:5667   */\n  swap1\n  pop\n    /* \"#utility.yul\":5533:5674   */\n  swap2\n  swap1\n  pop\n  jump\t// out\n    /* \"#utility.yul\":5680:5773   */\ntag_36:\n    /* \"#utility.yul\":5717:5723   */\n  0x00\n    /* \"#utility.yul\":5764:5766   */\n  0x20\n    /* \"#utility.yul\":5759:5761   */\n  0x1f\n    /* \"#utility.yul\":5752:5757   */\n  dup4\n    /* \"#utility.yul\":5748:5762   */\n  add\n    /* \"#utility.yul\":5744:5767   */\n  div\n    /* \"#utility.yul\":5734:5767   */\n  swap1\n  pop\n    /* \"#utility.yul\":5680:5773   */\n  swap2\n  swap1\n  pop\n  jump\t// out\n    /* \"#utility.yul\":5779:5886   */\ntag_37:\n    /* \"#utility.yul\":5823:5831   */\n  0x00\n    /* \"#utility.yul\":5873:5878   */\n  dup3\n    /* \"#utility.yul\":5867:5871   */\n  dup3\n    /* \"#utility.yul\":5863:5879   */\n  shl\n    /* \"#utility.yul\":5842:5879   */\n  swap1\n  pop\n    /* \"#utility.yul\":5779:5886   */\n  swap3\n  swap2\n  pop\n  pop\n  jump\t// out\n    /* \"#utility.yul\":5892:6285   */\ntag_38:\n    /* \"#utility.yul\":5961:5967   */\n  0x00\n    /* \"#utility.yul\":6011:6012   */\n  0x08\n    /* \"#utility.yul\":5999:6009   */\n  dup4\n    /* \"#utility.yul\":5995:6013   */\n  mul\n    /* \"#utility.yul\":6034:6131   */\n  tag_113\n    /* \"#utility.yul\":6064:6130   */\n  0xffffffffffffffffffffffffffffffffffffffffffffffffffffffffffffffff\n    /* \"#utility.yul\":6053:6062   */\n  dup3\n    /* \"#utility.yul\":6034:6131   */\n  tag_37\n  jump\t// in\ntag_113:\n    /* \"#utility.yul\":6152:6191   */\n  tag_114\n    /* \"#utility.yul\":6182:6190   */\n  dup7\n    /* \"#utility.yul\":6171:6180   */\n  dup4\n    /* \"#utility.yul\":6152:6191   */\n  tag_37\n  jump\t// in\ntag_114:\n    /* \"#utility.yul\":6140:6191   */\n  swap6\n  pop\n    /* \"#utility.yul\":6224:6228   */\n  dup1\n    /* \"#utility.yul\":6220:6229   */\n  not\n    /* \"#utility.yul\":6213:6218   */\n  dup5\n    /* \"#utility.yul\":6209:6230   */\n  and\n    /* \"#utility.yul\":6200:6230   */\n  swap4\n  pop\n    /* \"#utility.yul\":6273:6277   */\n  dup1\n    /* \"#utility.yul\":6263:6271   */\n  dup7\n    /* \"#utility.yul\":6259:6278   */\n  and\n    /* \"#utility.yul\":6252:6257   */\n  dup5\n    /* \"#utility.yul\":6249:6279   */\n  or\n    /* \"#utility.yul\":6239:6279   */\n  swap3\n  pop\n    /* \"#utility.yul\":5968:6285   */\n  pop\n  pop\n    /* \"#utility.yul\":5892:6285   */\n  swap4\n  swap3\n  pop\n  pop\n  pop\n  jump\t// out\n    /* \"#utility.yul\":6291:6368   */\ntag_39:\n    /* \"#utility.yul\":6328:6335   */\n  0x00\n    /* \"#utility.yul\":6357:6362   */\n  dup2\n    /* \"#utility.yul\":6346:6362   */\n  swap1\n  pop\n    /* \"#utility.yul\":6291:6368   */\n  swap2\n  swap1\n  pop\n  jump\t// out\n    /* \"#utility.yul\":6374:6434   */\ntag_40:\n    /* \"#utility.yul\":6402:6405   */\n  0x00\n    /* \"#utility.yul\":6423:6428   */\n  dup2\n    /* \"#utility.yul\":6416:6428   */\n  swap1\n  pop\n    /* \"#utility.yul\":6374:6434   */\n  swap2\n  swap1\n  pop\n  jump\t// out\n    /* \"#utility.yul\":6440:6582   */\ntag_41:\n    /* \"#utility.yul\":6490:6499   */\n  0x00\n    /* \"#utility.yul\":6523:6576   */\n  tag_118\n    /* \"#utility.yul\":6541:6575   */\n  tag_119\n    /* \"#utility.yul\":6550:6574   */\n  tag_120\n    /* \"#utility.yul\":6568:6573   */\n  dup5\n    /* \"#utility.yul\":6550:6574   */\n  tag_39\n  jump\t// in\ntag_120:\n    /* \"#utility.yul\":6541:6575   */\n  tag_40\n  jump\t// in\ntag_119:\n    /* \"#utility.yul\":6523:6576   */\n  tag_39\n  jump\t// in\ntag_118:\n    /* \"#utility.yul\":6510:6576   */\n  swap1\n  pop\n    /* \"#utility.yul\":6440:6582   */\n  swap2\n  swap1\n  pop\n  jump\t// out\n    /* \"#utility.yul\":6588:6663   */\ntag_42:\n    /* \"#utility.yul\":6631:6634   */\n  0x00\n    /* \"#utility.yul\":6652:6657   */\n  dup2\n    /* \"#utility.yul\":6645:6657   */\n  swap1\n  pop\n    /* \"#utility.yul\":6588:6663   */\n  swap2\n  swap1\n  pop\n  jump\t// out\n    /* \"#utility.yul\":6669:6938   */\ntag_43:\n    /* \"#utility.yul\":6779:6818   */\n  tag_123\n    /* \"#utility.yul\":6810:6817   */\n  dup4\n    /* \"#utility.yul\":6779:6818   */\n  tag_41\n  jump\t// in\ntag_123:\n    /* \"#utility.yul\":6840:6931   */\n  tag_124\n    /* \"#utility.yul\":6889:6930   */\n  tag_125\n    /* \"#utility.yul\":6913:6929   */\n  dup3\n    /* \"#utility.yul\":6889:6930   */\n  tag_42\n  jump\t// in\ntag_125:\n    /* \"#utility.yul\":6881:6887   */\n  dup5\n    /* \"#utility.yul\":6874:6878   */\n  dup5\n    /* \"#utility.yul\":6868:6879   */\n  sload\n    /* \"#utility.yul\":6840:6931   */\n  tag_38\n  jump\t// in\ntag_124:\n    /* \"#utility.yul\":6834:6838   */\n  dup3\n    /* \"#utility.yul\":6827:6932   */\n  sstore\n    /* \"#utility.yul\":6745:6938   */\n  pop\n    /* \"#utility.yul\":6669:6938   */\n  pop\n  pop\n  pop\n  jump\t// out\n    /* \"#utility.yul\":6944:7017   */\ntag_44:\n    /* \"#utility.yul\":6989:6992   */\n  0x00\n    /* \"#utility.yul\":7010:7011   */\n  0x00\n    /* \"#utility.yul\":7003:7011   */\n  swap1\n  pop\n    /* \"#utility.yul\":6944:7017   */\n  swap1\n  jump\t// out\n    /* \"#utility.yul\":7023:7212   */\ntag_45:\n    /* \"#utility.yul\":7100:7132   */\n  tag_128\n  tag_44\n  jump\t// in\ntag_128:\n    /* \"#utility.yul\":7141:7206   */\n  tag_129\n    /* \"#utility.yul\":7199:7205   */\n  dup2\n    /* \"#utility.yul\":7191:7197   */\n  dup5\n    /* \"#utility.yul\":7185:7189   */\n  dup5\n    /* \"#utility.yul\":7141:7206   */\n  tag_43\n  jump\t// in\ntag_129:\n    /* \"#utility.yul\":7076:7212   */\n  pop\n    /* \"#utility.yul\":7023:7212   */\n  pop\n  pop\n  jump\t// out\n    /* \"#utility.yul\":7218:7404   */\ntag_46:\n    /* \"#utility.yul\":7278:7398   */\ntag_131:\n    /* \"#utility.yul\":7295:7298   */\n  dup2\n    /* \"#utility.yul\":7288:7293   */\n  dup2\n    /* \"#utility.yul\":7285:7299   */\n  lt\n    /* \"#utility.yul\":7278:7398   */\n  iszero\n  tag_133\n  jumpi\n    /* \"#utility.yul\":7349:7388   */\n  tag_134\n    /* \"#utility.yul\":7386:7387   */\n  0x00\n    /* \"#utility.yul\":7379:7384   */\n  dup3\n    /* \"#utility.yul\":7349:7388   */\n  tag_45\n  jump\t// in\ntag_134:\n    /* \"#utility.yul\":7322:7323   */\n  0x01\n    /* \"#utility.yul\":7315:7320   */\n  dup2\n    /* \"#utility.yul\":7311:7324   */\n  add\n    /* \"#utility.yul\":7302:7324   */\n  swap1\n  pop\n    /* \"#utility.yul\":7278:7398   */\n  jump(tag_131)\ntag_133:\n    /* \"#utility.yul\":7218:7404   */\n  pop\n  pop\n  jump\t// out\n    /* \"#utility.yul\":7410:7953   */\ntag_47:\n    /* \"#utility.yul\":7511:7513   */\n  0x1f\n    /* \"#utility.yul\":7506:7509   */\n  dup3\n    /* \"#utility.yul\":7503:7514   */\n  gt\n    /* \"#utility.yul\":7500:7946   */\n  iszero\n  tag_136\n  jumpi\n    /* \"#utility.yul\":7545:7583   */\n  tag_137\n    /* \"#utility.yul\":7577:7582   */\n  dup2\n    /* \"#utility.yul\":7545:7583   */\n  tag_35\n  jump\t// in\ntag_137:\n    /* \"#utility.yul\":7629:7658   */\n  tag_138\n    /* \"#utility.yul\":7647:7657   */\n  dup5\n    /* \"#utility.yul\":7629:7658   */\n  tag_36\n  jump\t// in\ntag_138:\n    /* \"#utility.yul\":7619:7627   */\n  dup2\n    /* \"#utility.yul\":7615:7659   */\n  add\n    /* \"#utility.yul\":7812:7814   */\n  0x20\n    /* \"#utility.yul\":7800:7810   */\n  dup6\n    /* \"#utility.yul\":7797:7815   */\n  lt\n    /* \"#utility.yul\":7794:7843   */\n  iszero\n  tag_139\n  jumpi\n    /* \"#utility.yul\":7833:7841   */\n  dup2\n    /* \"#utility.yul\":7818:7841   */\n  swap1\n  pop\n    /* \"#utility.yul\":7794:7843   */\ntag_139:\n    /* \"#utility.yul\":7856:7936   */\n  tag_140\n    /* \"#utility.yul\":7912:7934   */\n  tag_141\n    /* \"#utility.yul\":7930:7933   */\n  dup6\n    /* \"#utility.yul\":7912:7934   */\n  tag_36\n  jump\t// in\ntag_141:\n    /* \"#utility.yul\":7902:7910   */\n  dup4\n    /* \"#utility.yul\":7898:7935   */\n  add\n    /* \"#utility.yul\":7885:7896   */\n  dup3\n    /* \"#utility.yul\":7856:7936   */\n  tag_46\n  jump\t// in\ntag_140:\n    /* \"#utility.yul\":7515:7946   */\n  pop\n  pop\n    /* \"#utility.yul\":7500:7946   */\ntag_136:\n    /* \"#utility.yul\":7410:7953   */\n  pop\n  pop\n  pop\n  jump\t// out\n    /* \"#utility.yul\":7959:8076   */\ntag_48:\n    /* \"#utility.yul\":8013:8021   */\n  0x00\n    /* \"#utility.yul\":8063:8068   */\n  dup3\n    /* \"#utility.yul\":8057:8061   */\n  dup3\n    /* \"#utility.yul\":8053:8069   */\n  shr\n    /* \"#utility.yul\":8032:8069   */\n  swap1\n  pop\n    /* \"#utility.yul\":7959:8076   */\n  swap3\n  swap2\n  pop\n  pop\n  jump\t// out\n    /* \"#utility.yul\":8082:8251   */\ntag_49:\n    /* \"#utility.yul\":8126:8132   */\n  0x00\n    /* \"#utility.yul\":8159:8210   */\n  tag_144\n    /* \"#utility.yul\":8207:8208   */\n  0x00\n    /* \"#utility.yul\":8203:8209   */\n  not\n    /* \"#utility.yul\":8195:8200   */\n  dup5\n    /* \"#utility.yul\":8192:8193   */\n  0x08\n    /* \"#utility.yul\":8188:8201   */\n  mul\n    /* \"#utility.yul\":8159:8210   */\n  tag_48\n  jump\t// in\ntag_144:\n    /* \"#utility.yul\":8155:8211   */\n  not\n    /* \"#utility.yul\":8240:8244   */\n  dup1\n    /* \"#utility.yul\":8234:8238   */\n  dup4\n    /* \"#utility.yul\":8230:8245   */\n  and\n    /* \"#utility.yul\":8220:8245   */\n  swap2\n  pop\n    /* \"#utility.yul\":8133:8251   */\n  pop\n    /* \"#utility.yul\":8082:8251   */\n  swap3\n  swap2\n  pop\n  pop\n  jump\t// out\n    /* \"#utility.yul\":8256:8551   */\ntag_50:\n    /* \"#utility.yul\":8332:8336   */\n  0x00\n    /* \"#utility.yul\":8478:8507   */\n  tag_146\n    /* \"#utility.yul\":8503:8506   */\n  dup4\n    /* \"#utility.yul\":8497:8501   */\n  dup4\n    /* \"#utility.yul\":8478:8507   */\n  tag_49\n  jump\t// in\ntag_146:\n    /* \"#utility.yul\":8470:8507   */\n  swap2\n  pop\n    /* \"#utility.yul\":8540:8543   */\n  dup3\n    /* \"#utility.yul\":8537:8538   */\n  0x02\n    /* \"#utility.yul\":8533:8544   */\n  mul\n    /* \"#utility.yul\":8527:8531   */\n  dup3\n    /* \"#utility.yul\":8524:8545   */\n  or\n    /* \"#utility.yul\":8516:8545   */\n  swap1\n  pop\n    /* \"#utility.yul\":8256:8551   */\n  swap3\n  swap2\n  pop\n  pop\n  jump\t// out\n    /* \"#utility.yul\":8556:9951   */\ntag_10:\n    /* \"#utility.yul\":8673:8710   */\n  tag_148\n    /* \"#utility.yul\":8706:8709   */\n  dup3\n    /* \"#utility.yul\":8673:8710   */\n  tag_32\n  jump\t// in\ntag_148:\n    /* \"#utility.yul\":8775:8793   */\n  0xffffffffffffffff\n    /* \"#utility.yul\":8767:8773   */\n  dup2\n    /* \"#utility.yul\":8764:8794   */\n  gt\n    /* \"#utility.yul\":8761:8817   */\n  iszero\n  tag_149\n  jumpi\n    /* \"#utility.yul\":8797:8815   */\n  tag_150\n  tag_22\n  jump\t// in\ntag_150:\n    /* \"#utility.yul\":8761:8817   */\ntag_149:\n    /* \"#utility.yul\":8841:8879   */\n  tag_151\n    /* \"#utility.yul\":8873:8877   */\n  dup3\n    /* \"#utility.yul\":8867:8878   */\n  sload\n    /* \"#utility.yul\":8841:8879   */\n  tag_34\n  jump\t// in\ntag_151:\n    /* \"#utility.yul\":8926:8993   */\n  tag_152\n    /* \"#utility.yul\":8986:8992   */\n  dup3\n    /* \"#utility.yul\":8978:8984   */\n  dup3\n    /* \"#utility.yul\":8972:8976   */\n  dup6\n    /* \"#utility.yul\":8926:8993   */\n  tag_47\n  jump\t// in\ntag_152:\n    /* \"#utility.yul\":9020:9021   */\n  0x00\n    /* \"#utility.yul\":9044:9048   */\n  0x20\n    /* \"#utility.yul\":9031:9048   */\n  swap1\n  pop\n    /* \"#utility.yul\":9076:9078   */\n  0x1f\n    /* \"#utility.yul\":9068:9074   */\n  dup4\n    /* \"#utility.yul\":9065:9079   */\n  gt\n    /* \"#utility.yul\":9093:9094   */\n  0x01\n    /* \"#utility.yul\":9088:9706   */\n  dup2\n  eq\n  tag_154\n  jumpi\n    /* \"#utility.yul\":9750:9751   */\n  0x00\n    /* \"#utility.yul\":9767:9773   */\n  dup5\n    /* \"#utility.yul\":9764:9841   */\n  iszero\n  tag_155\n  jumpi\n    /* \"#utility.yul\":9816:9825   */\n  dup3\n    /* \"#utility.yul\":9811:9814   */\n  dup8\n    /* \"#utility.yul\":9807:9826   */\n  add\n    /* \"#utility.yul\":9801:9827   */\n  mload\n    /* \"#utility.yul\":9792:9827   */\n  swap1\n  pop\n    /* \"#utility.yul\":9764:9841   */\ntag_155:\n    /* \"#utility.yul\":9867:9934   */\n  tag_156\n    /* \"#utility.yul\":9927:9933   */\n  dup6\n    /* \"#utility.yul\":9920:9925   */\n  dup3\n    /* \"#utility.yul\":9867:9934   */\n  tag_50\n  jump\t// in\ntag_156:\n    /* \"#utility.yul\":9861:9865   */\n  dup7\n    /* \"#utility.yul\":9854:9935   */\n  sstore\n    /* \"#utility.yul\":9723:9945   */\n  pop\n    /* \"#utility.yul\":9058:9945   */\n  jump(tag_153)\n    /* \"#utility.yul\":9088:9706   */\ntag_154:\n    /* \"#utility.yul\":9140:9144   */\n  0x1f\n    /* \"#utility.yul\":9136:9145   */\n  not\n    /* \"#utility.yul\":9128:9134   */\n  dup5\n    /* \"#utility.yul\":9124:9146   */\n  and\n    /* \"#utility.yul\":9174:9211   */\n  tag_157\n    /* \"#utility.yul\":9206:9210   */\n  dup7\n    /* \"#utility.yul\":9174:9211   */\n  tag_35\n  jump\t// in\ntag_157:\n    /* \"#utility.yul\":9233:9234   */\n  0x00\n    /* \"#utility.yul\":9247:9455   */\ntag_158:\n    /* \"#utility.yul\":9261:9268   */\n  dup3\n    /* \"#utility.yul\":9258:9259   */\n  dup2\n    /* \"#utility.yul\":9255:9269   */\n  lt\n    /* \"#utility.yul\":9247:9455   */\n  iszero\n  tag_160\n  jumpi\n    /* \"#utility.yul\":9340:9349   */\n  dup5\n    /* \"#utility.yul\":9335:9338   */\n  dup10\n    /* \"#utility.yul\":9331:9350   */\n  add\n    /* \"#utility.yul\":9325:9351   */\n  mload\n    /* \"#utility.yul\":9317:9323   */\n  dup3\n    /* \"#utility.yul\":9310:9352   */\n  sstore\n    /* \"#utility.yul\":9391:9392   */\n  0x01\n    /* \"#utility.yul\":9383:9389   */\n  dup3\n    /* \"#utility.yul\":9379:9393   */\n  add\n    /* \"#utility.yul\":9369:9393   */\n  swap2\n  pop\n    /* \"#utility.yul\":9438:9440   */\n  0x20\n    /* \"#utility.yul\":9427:9436   */\n  dup6\n    /* \"#utility.yul\":9423:9441   */\n  add\n    /* \"#utility.yul\":9410:9441   */\n  swap5\n  pop\n    /* \"#utility.yul\":9284:9288   */\n  0x20\n    /* \"#utility.yul\":9281:9282   */\n  dup2\n    /* \"#utility.yul\":9277:9289   */\n  add\n    /* \"#utility.yul\":9272:9289   */\n  swap1\n  pop\n    /* \"#utility.yul\":9247:9455   */\n  jump(tag_158)\ntag_160:\n    /* \"#utility.yul\":9483:9489   */\n  dup7\n    /* \"#utility.yul\":9474:9481   */\n  dup4\n    /* \"#utility.yul\":9471:9490   */\n  lt\n    /* \"#utility.yul\":9468:9647   */\n  iszero\n  tag_161\n  jumpi\n    /* \"#utility.yul\":9541:9550   */\n  dup5\n    /* \"#utility.yul\":9536:9539   */\n  dup10\n    /* \"#utility.yul\":9532:9551   */\n  add\n    /* \"#utility.yul\":9526:9552   */\n  mload\n    /* \"#utility.yul\":9584:9632   */\n  tag_162\n    /* \"#utility.yul\":9626:9630   */\n  0x1f\n    /* \"#utility.yul\":9618:9624   */\n  dup10\n    /* \"#utility.yul\":9614:9631   */\n  and\n    /* \"#utility.yul\":9603:9612   */\n  dup3\n    /* \"#utility.yul\":9584:9632   */\n  tag_49\n  jump\t// in\ntag_162:\n    /* \"#utility.yul\":9576:9582   */\n  dup4\n    /* \"#utility.yul\":9569:9633   */\n  sstore\n    /* \"#utility.yul\":9491:9647   */\n  pop\n    /* \"#utility.yul\":9468:9647   */\ntag_161:\n    /* \"#utility.yul\":9693:9694   */\n  0x01\n    /* \"#utility.yul\":9689:9690   */\n  0x02\n    /* \"#utility.yul\":9681:9687   */\n  dup9\n    /* \"#utility.yul\":9677:9691   */\n  mul\n    /* \"#utility.yul\":9673:9695   */\n  add\n    /* \"#utility.yul\":9667:9671   */\n  dup9\n    /* \"#utility.yul\":9660:9696   */\n  sstore\n    /* \"#utility.yul\":9095:9706   */\n  pop\n  pop\n  pop\n    /* \"#utility.yul\":9058:9945   */\ntag_153:\n  pop\n    /* \"#utility.yul\":8648:9951   */\n  pop\n  pop\n  pop\n    /* \"#utility.yul\":8556:9951   */\n  pop\n  pop\n  jump\t// out\n    /* \"newvest.sol\":60:489  contract AdvancedConstructor {... */\ntag_11:\n  dataSize(sub_0)\n  dup1\n  dataOffset(sub_0)\n  0x00\n  codecopy\n  0x00\n  return\nstop\n\nsub_0: assembly {\n        /* \"newvest.sol\":60:489  contract AdvancedConstructor {... */\n      mstore(0x40, 0x80)\n      callvalue\n      dup1\n      iszero\n      tag_1\n      jumpi\n      revert(0x00, 0x00)\n    tag_1:\n      pop\n      jumpi(tag_2, lt(calldatasize, 0x04))\n      shr(0xe0, calldataload(0x00))\n      dup1\n      0x75d0c0dc\n      eq\n      tag_3\n      jumpi\n      dup1\n      0x8da5cb5b\n      eq\n      tag_4\n      jumpi\n      dup1\n      0xd8270dce\n      eq\n      tag_5\n      jumpi\n    tag_2:\n      revert(0x00, 0x00)\n        /* \"newvest.sol\":123:149  string public contractName */\n    tag_3:\n      tag_6\n      tag_7\n      jump\t// in\n    tag_6:\n      mload(0x40)\n      tag_8\n      swap2\n      swap1\n      tag_9\n      jump\t// in\n    tag_8:\n      mload(0x40)\n      dup1\n      swap2\n      sub\n      swap1\n      return\n        /* \"newvest.sol\":96:116  address public owner */\n    tag_4:\n      tag_10\n      tag_11\n      jump\t// in\n    tag_10:\n      mload(0x40)\n      tag_12\n      swap2\n      swap1\n      tag_13\n      jump\t// in\n    tag_12:\n      mload(0x40)\n      dup1\n      swap2\n      sub\n      swap1\n      return\n        /* \"newvest.sol\":156:183  uint256 public creationTime */\n    tag_5:\n      tag_14\n      tag_15\n      jump\t// in\n    tag_14:\n      mload(0x40)\n      tag_16\n      swap2\n      swap1\n      tag_17\n      jump\t// in\n    tag_16:\n      mload(0x40)\n      dup1\n      swap2\n      sub\n      swap1\n      return\n        /* \"newvest.sol\":123:149  string public contractName */\n    tag_7:\n      0x01\n      dup1\n      sload\n      tag_18\n      swap1\n      tag_19\n      jump\t// in\n    tag_18:\n      dup1\n      0x1f\n      add\n      0x20\n      dup1\n      swap2\n      div\n      mul\n      0x20\n      add\n      mload(0x40)\n      swap1\n      dup2\n      add\n      0x40\n      mstore\n      dup1\n      swap3\n      swap2\n      swap1\n      dup2\n      dup2\n      mstore\n      0x20\n      add\n      dup3\n      dup1\n      sload\n      tag_20\n      swap1\n      tag_19\n      jump\t// in\n    tag_20:\n      dup1\n      iszero\n      tag_21\n      jumpi\n      dup1\n      0x1f\n      lt\n      tag_22\n      jumpi\n      0x0100\n      dup1\n      dup4\n      sload\n      div\n      mul\n      dup4\n      mstore\n      swap2\n      0x20\n      add\n      swap2\n      jump(tag_21)\n    tag_22:\n      dup3\n      add\n      swap2\n      swap1\n      0x00\n      mstore\n      keccak256(0x00, 0x20)\n      swap1\n    tag_23:\n      dup2\n      sload\n      dup2\n      mstore\n      swap1\n      0x01\n      add\n      swap1\n      0x20\n      add\n      dup1\n      dup4\n      gt\n      tag_23\n      jumpi\n      dup3\n      swap1\n      sub\n      0x1f\n      and\n      dup3\n      add\n      swap2\n    tag_21:\n      pop\n      pop\n      pop\n      pop\n      pop\n      dup2\n      jump\t// out\n        /* \"newvest.sol\":96:116  address public owner */\n    tag_11:\n      0x00\n      0x00\n      swap1\n      sload\n      swap1\n      0x0100\n      exp\n      swap1\n      div\n      0xffffffffffffffffffffffffffffffffffffffff\n      and\n      dup2\n      jump\t// out\n        /* \"newvest.sol\":156:183  uint256 public creationTime */\n    tag_15:\n      sload(0x02)\n      dup2\n      jump\t// out\n        /* \"#utility.yul\":7:106   */\n    tag_24:\n        /* \"#utility.yul\":59:65   */\n      0x00\n        /* \"#utility.yul\":93:98   */\n      dup2\n        /* \"#utility.yul\":87:99   */\n      mload\n        /* \"#utility.yul\":77:99   */\n      swap1\n      pop\n        /* \"#utility.yul\":7:106   */\n      swap2\n      swap1\n      pop\n      jump\t// out\n        /* \"#utility.yul\":112:281   */\n    tag_25:\n        /* \"#utility.yul\":196:207   */\n      0x00\n        /* \"#utility.yul\":230:236   */\n      dup3\n        /* \"#utility.yul\":225:228   */\n      dup3\n        /* \"#utility.yul\":218:237   */\n      mstore\n        /* \"#utility.yul\":270:274   */\n      0x20\n        /* \"#utility.yul\":265:268   */\n      dup3\n        /* \"#utility.yul\":261:275   */\n      add\n        /* \"#utility.yul\":246:275   */\n      swap1\n      pop\n        /* \"#utility.yul\":112:281   */\n      swap3\n      swap2\n      pop\n      pop\n      jump\t// out\n        /* \"#utility.yul\":287:426   */\n    tag_26:\n        /* \"#utility.yul\":376:382   */\n      dup3\n        /* \"#utility.yul\":371:374   */\n      dup2\n        /* \"#utility.yul\":366:369   */\n      dup4\n        /* \"#utility.yul\":360:383   */\n      mcopy\n        /* \"#utility.yul\":417:418   */\n      0x00\n        /* \"#utility.yul\":408:414   */\n      dup4\n        /* \"#utility.yul\":403:406   */\n      dup4\n        /* \"#utility.yul\":399:415   */\n      add\n        /* \"#utility.yul\":392:419   */\n      mstore\n        /* \"#utility.yul\":287:426   */\n      pop\n      pop\n      pop\n      jump\t// out\n        /* \"#utility.yul\":432:534   */\n    tag_27:\n        /* \"#utility.yul\":473:479   */\n      0x00\n        /* \"#utility.yul\":524:526   */\n      0x1f\n        /* \"#utility.yul\":520:527   */\n      not\n        /* \"#utility.yul\":515:517   */\n      0x1f\n        /* \"#utility.yul\":508:513   */\n      dup4\n        /* \"#utility.yul\":504:518   */\n      add\n        /* \"#utility.yul\":500:528   */\n      and\n        /* \"#utility.yul\":490:528   */\n      swap1\n      pop\n        /* \"#utility.yul\":432:534   */\n      swap2\n      swap1\n      pop\n      jump\t// out\n        /* \"#utility.yul\":540:917   */\n    tag_28:\n        /* \"#utility.yul\":628:631   */\n      0x00\n        /* \"#utility.yul\":656:695   */\n      tag_41\n        /* \"#utility.yul\":689:694   */\n      dup3\n        /* \"#utility.yul\":656:695   */\n      tag_24\n      jump\t// in\n    tag_41:\n        /* \"#utility.yul\":711:782   */\n      tag_42\n        /* \"#utility.yul\":775:781   */\n      dup2\n        /* \"#utility.yul\":770:773   */\n      dup6\n        /* \"#utility.yul\":711:782   */\n      tag_25\n      jump\t// in\n    tag_42:\n        /* \"#utility.yul\":704:782   */\n      swap4\n      pop\n        /* \"#utility.yul\":791:856   */\n      tag_43\n        /* \"#utility.yul\":849:855   */\n      dup2\n        /* \"#utility.yul\":844:847   */\n      dup6\n        /* \"#utility.yul\":837:841   */\n      0x20\n        /* \"#utility.yul\":830:835   */\n      dup7\n        /* \"#utility.yul\":826:842   */\n      add\n        /* \"#utility.yul\":791:856   */\n      tag_26\n      jump\t// in\n    tag_43:\n        /* \"#utility.yul\":881:910   */\n      tag_44\n        /* \"#utility.yul\":903:909   */\n      dup2\n        /* \"#utility.yul\":881:910   */\n      tag_27\n      jump\t// in\n    tag_44:\n        /* \"#utility.yul\":876:879   */\n      dup5\n        /* \"#utility.yul\":872:911   */\n      add\n        /* \"#utility.yul\":865:911   */\n      swap2\n      pop\n        /* \"#utility.yul\":632:917   */\n      pop\n        /* \"#utility.yul\":540:917   */\n      swap3\n      swap2\n      pop\n      pop\n      jump\t// out\n        /* \"#utility.yul\":923:1236   */\n    tag_9:\n        /* \"#utility.yul\":1036:1040   */\n      0x00\n        /* \"#utility.yul\":1074:1076   */\n      0x20\n        /* \"#utility.yul\":1063:1072   */\n      dup3\n        /* \"#utility.yul\":1059:1077   */\n      add\n        /* \"#utility.yul\":1051:1077   */\n      swap1\n      pop\n        /* \"#utility.yul\":1123:1132   */\n      dup2\n        /* \"#utility.yul\":1117:1121   */\n      dup2\n        /* \"#utility.yul\":1113:1133   */\n      sub\n        /* \"#utility.yul\":1109:1110   */\n      0x00\n        /* \"#utility.yul\":1098:1107   */\n      dup4\n        /* \"#utility.yul\":1094:1111   */\n      add\n        /* \"#utility.yul\":1087:1134   */\n      mstore\n        /* \"#utility.yul\":1151:1229   */\n      tag_46\n        /* \"#utility.yul\":1224:1228   */\n      dup2\n        /* \"#utility.yul\":1215:1221   */\n      dup5\n        /* \"#utility.yul\":1151:1229   */\n      tag_28\n      jump\t// in\n    tag_46:\n        /* \"#utility.yul\":1143:1229   */\n      swap1\n      pop\n        /* \"#utility.yul\":923:1236   */\n      swap3\n      swap2\n      pop\n      pop\n      jump\t// out\n        /* \"#utility.yul\":1242:1368   */\n    tag_29:\n        /* \"#utility.yul\":1279:1286   */\n      0x00\n        /* \"#utility.yul\":1319:1361   */\n      0xffffffffffffffffffffffffffffffffffffffff\n        /* \"#utility.yul\":1312:1317   */\n      dup3\n        /* \"#utility.yul\":1308:1362   */\n      and\n        /* \"#utility.yul\":1297:1362   */\n      swap1\n      pop\n        /* \"#utility.yul\":1242:1368   */\n      swap2\n      swap1\n      pop\n      jump\t// out\n        /* \"#utility.yul\":1374:1470   */\n    tag_30:\n        /* \"#utility.yul\":1411:1418   */\n      0x00\n        /* \"#utility.yul\":1440:1464   */\n      tag_49\n        /* \"#utility.yul\":1458:1463   */\n      dup3\n        /* \"#utility.yul\":1440:1464   */\n      tag_29\n      jump\t// in\n    tag_49:\n        /* \"#utility.yul\":1429:1464   */\n      swap1\n      pop\n        /* \"#utility.yul\":1374:1470   */\n      swap2\n      swap1\n      pop\n      jump\t// out\n        /* \"#utility.yul\":1476:1594   */\n    tag_31:\n        /* \"#utility.yul\":1563:1587   */\n      tag_51\n        /* \"#utility.yul\":1581:1586   */\n      dup2\n        /* \"#utility.yul\":1563:1587   */\n      tag_30\n      jump\t// in\n    tag_51:\n        /* \"#utility.yul\":1558:1561   */\n      dup3\n        /* \"#utility.yul\":1551:1588   */\n      mstore\n        /* \"#utility.yul\":1476:1594   */\n      pop\n      pop\n      jump\t// out\n        /* \"#utility.yul\":1600:1822   */\n    tag_13:\n        /* \"#utility.yul\":1693:1697   */\n      0x00\n        /* \"#utility.yul\":1731:1733   */\n      0x20\n        /* \"#utility.yul\":1720:1729   */\n      dup3\n        /* \"#utility.yul\":1716:1734   */\n      add\n        /* \"#utility.yul\":1708:1734   */\n      swap1\n      pop\n        /* \"#utility.yul\":1744:1815   */\n      tag_53\n        /* \"#utility.yul\":1812:1813   */\n      0x00\n        /* \"#utility.yul\":1801:1810   */\n      dup4\n        /* \"#utility.yul\":1797:1814   */\n      add\n        /* \"#utility.yul\":1788:1794   */\n      dup5\n        /* \"#utility.yul\":1744:1815   */\n      tag_31\n      jump\t// in\n    tag_53:\n        /* \"#utility.yul\":1600:1822   */\n      swap3\n      swap2\n      pop\n      pop\n      jump\t// out\n        /* \"#utility.yul\":1828:1905   */\n    tag_32:\n        /* \"#utility.yul\":1865:1872   */\n      0x00\n        /* \"#utility.yul\":1894:1899   */\n      dup2\n        /* \"#utility.yul\":1883:1899   */\n      swap1\n      pop\n        /* \"#utility.yul\":1828:1905   */\n      swap2\n      swap1\n      pop\n      jump\t// out\n        /* \"#utility.yul\":1911:2029   */\n    tag_33:\n        /* \"#utility.yul\":1998:2022   */\n      tag_56\n        /* \"#utility.yul\":2016:2021   */\n      dup2\n        /* \"#utility.yul\":1998:2022   */\n      tag_32\n      jump\t// in\n    tag_56:\n        /* \"#utility.yul\":1993:1996   */\n      dup3\n        /* \"#utility.yul\":1986:2023   */\n      mstore\n        /* \"#utility.yul\":1911:2029   */\n      pop\n      pop\n      jump\t// out\n        /* \"#utility.yul\":2035:2257   */\n    tag_17:\n        /* \"#utility.yul\":2128:2132   */\n      0x00\n        /* \"#utility.yul\":2166:2168   */\n      0x20\n        /* \"#utility.yul\":2155:2164   */\n      dup3\n        /* \"#utility.yul\":2151:2169   */\n      add\n        /* \"#utility.yul\":2143:2169   */\n      swap1\n      pop\n        /* \"#utility.yul\":2179:2250   */\n      tag_58\n        /* \"#utility.yul\":2247:2248   */\n      0x00\n        /* \"#utility.yul\":2236:2245   */\n      dup4\n        /* \"#utility.yul\":2232:2249   */\n      add\n        /* \"#utility.yul\":2223:2229   */\n      dup5\n        /* \"#utility.yul\":2179:2250   */\n      tag_33\n      jump\t// in\n    tag_58:\n        /* \"#utility.yul\":2035:2257   */\n      swap3\n      swap2\n      pop\n      pop\n      jump\t// out\n        /* \"#utility.yul\":2263:2443   */\n    tag_34:\n        /* \"#utility.yul\":2311:2388   */\n      0x4e487b7100000000000000000000000000000000000000000000000000000000\n        /* \"#utility.yul\":2308:2309   */\n      0x00\n        /* \"#utility.yul\":2301:2389   */\n      mstore\n        /* \"#utility.yul\":2408:2412   */\n      0x22\n        /* \"#utility.yul\":2405:2406   */\n      0x04\n        /* \"#utility.yul\":2398:2413   */\n      mstore\n        /* \"#utility.yul\":2432:2436   */\n      0x24\n        /* \"#utility.yul\":2429:2430   */\n      0x00\n        /* \"#utility.yul\":2422:2437   */\n      revert\n        /* \"#utility.yul\":2449:2769   */\n    tag_19:\n        /* \"#utility.yul\":2493:2499   */\n      0x00\n        /* \"#utility.yul\":2530:2531   */\n      0x02\n        /* \"#utility.yul\":2524:2528   */\n      dup3\n        /* \"#utility.yul\":2520:2532   */\n      div\n        /* \"#utility.yul\":2510:2532   */\n      swap1\n      pop\n        /* \"#utility.yul\":2577:2578   */\n      0x01\n        /* \"#utility.yul\":2571:2575   */\n      dup3\n        /* \"#utility.yul\":2567:2579   */\n      and\n        /* \"#utility.yul\":2598:2616   */\n      dup1\n        /* \"#utility.yul\":2588:2669   */\n      tag_61\n      jumpi\n        /* \"#utility.yul\":2654:2658   */\n      0x7f\n        /* \"#utility.yul\":2646:2652   */\n      dup3\n        /* \"#utility.yul\":2642:2659   */\n      and\n        /* \"#utility.yul\":2632:2659   */\n      swap2\n      pop\n        /* \"#utility.yul\":2588:2669   */\n    tag_61:\n        /* \"#utility.yul\":2716:2718   */\n      0x20\n        /* \"#utility.yul\":2708:2714   */\n      dup3\n        /* \"#utility.yul\":2705:2719   */\n      lt\n        /* \"#utility.yul\":2685:2703   */\n      dup2\n        /* \"#utility.yul\":2682:2720   */\n      sub\n        /* \"#utility.yul\":2679:2763   */\n      tag_62\n      jumpi\n        /* \"#utility.yul\":2735:2753   */\n      tag_63\n      tag_34\n      jump\t// in\n    tag_63:\n        /* \"#utility.yul\":2679:2763   */\n    tag_62:\n        /* \"#utility.yul\":2500:2769   */\n      pop\n        /* \"#utility.yul\":2449:2769   */\n      swap2\n      swap1\n      pop\n      jump\t// out\n\n    auxdata: 0xa2646970667358221220d2bacfe184589f149632dedf2a5be1af49e50f82db8b14b589e86836fcd5bbc264736f6c634300081e0033\n}\n",
				"bytecode": {
					"linkReferences": {},
					"object": "608060405234801561000f575f5ffd5b50604051610960380380610960833981810160405281019061003191906102a3565b5f73ffffffffffffffffffffffffffffffffffffffff168273ffffffffffffffffffffffffffffffffffffffff160361009f576040517f08c379a000000000000000000000000000000000000000000000000000000000815260040161009690610357565b60405180910390fd5b815f5f6101000a81548173ffffffffffffffffffffffffffffffffffffffff021916908373ffffffffffffffffffffffffffffffffffffffff16021790555080600190816100ed9190610585565b50426002819055505050610654565b5f604051905090565b5f5ffd5b5f5ffd5b5f73ffffffffffffffffffffffffffffffffffffffff82169050919050565b5f6101368261010d565b9050919050565b6101468161012c565b8114610150575f5ffd5b50565b5f815190506101618161013d565b92915050565b5f5ffd5b5f5ffd5b5f601f19601f8301169050919050565b7f4e487b71000000000000000000000000000000000000000000000000000000005f52604160045260245ffd5b6101b58261016f565b810181811067ffffffffffffffff821117156101d4576101d361017f565b5b80604052505050565b5f6101e66100fc565b90506101f282826101ac565b919050565b5f67ffffffffffffffff8211156102115761021061017f565b5b61021a8261016f565b9050602081019050919050565b8281835e5f83830152505050565b5f610247610242846101f7565b6101dd565b9050828152602081018484840111156102635761026261016b565b5b61026e848285610227565b509392505050565b5f82601f83011261028a57610289610167565b5b815161029a848260208601610235565b91505092915050565b5f5f604083850312156102b9576102b8610105565b5b5f6102c685828601610153565b925050602083015167ffffffffffffffff8111156102e7576102e6610109565b5b6102f385828601610276565b9150509250929050565b5f82825260208201905092915050565b7f496e76616c6964206f776e6572206164647265737300000000000000000000005f82015250565b5f6103416015836102fd565b915061034c8261030d565b602082019050919050565b5f6020820190508181035f83015261036e81610335565b9050919050565b5f81519050919050565b7f4e487b71000000000000000000000000000000000000000000000000000000005f52602260045260245ffd5b5f60028204905060018216806103c357607f821691505b6020821081036103d6576103d561037f565b5b50919050565b5f819050815f5260205f209050919050565b5f6020601f8301049050919050565b5f82821b905092915050565b5f600883026104387fffffffffffffffffffffffffffffffffffffffffffffffffffffffffffffffff826103fd565b61044286836103fd565b95508019841693508086168417925050509392505050565b5f819050919050565b5f819050919050565b5f61048661048161047c8461045a565b610463565b61045a565b9050919050565b5f819050919050565b61049f8361046c565b6104b36104ab8261048d565b848454610409565b825550505050565b5f5f905090565b6104ca6104bb565b6104d5818484610496565b505050565b5b818110156104f8576104ed5f826104c2565b6001810190506104db565b5050565b601f82111561053d5761050e816103dc565b610517846103ee565b81016020851015610526578190505b61053a610532856103ee565b8301826104da565b50505b505050565b5f82821c905092915050565b5f61055d5f1984600802610542565b1980831691505092915050565b5f610575838361054e565b9150826002028217905092915050565b61058e82610375565b67ffffffffffffffff8111156105a7576105a661017f565b5b6105b182546103ac565b6105bc8282856104fc565b5f60209050601f8311600181146105ed575f84156105db578287015190505b6105e5858261056a565b86555061064c565b601f1984166105fb866103dc565b5f5b82811015610622578489015182556001820191506020850194506020810190506105fd565b8683101561063f578489015161063b601f89168261054e565b8355505b6001600288020188555050505b505050505050565b6102ff806106615f395ff3fe608060405234801561000f575f5ffd5b506004361061003f575f3560e01c806375d0c0dc146100435780638da5cb5b14610061578063d8270dce1461007f575b5f5ffd5b61004b61009d565b60405161005891906101c3565b60405180910390f35b610069610129565b6040516100769190610222565b60405180910390f35b61008761014d565b6040516100949190610253565b60405180910390f35b600180546100aa90610299565b80601f01602080910402602001604051908101604052809291908181526020018280546100d690610299565b80156101215780601f106100f857610100808354040283529160200191610121565b820191905f5260205f20905b81548152906001019060200180831161010457829003601f168201915b505050505081565b5f5f9054906101000a900473ffffffffffffffffffffffffffffffffffffffff1681565b60025481565b5f81519050919050565b5f82825260208201905092915050565b8281835e5f83830152505050565b5f601f19601f8301169050919050565b5f61019582610153565b61019f818561015d565b93506101af81856020860161016d565b6101b88161017b565b840191505092915050565b5f6020820190508181035f8301526101db818461018b565b905092915050565b5f73ffffffffffffffffffffffffffffffffffffffff82169050919050565b5f61020c826101e3565b9050919050565b61021c81610202565b82525050565b5f6020820190506102355f830184610213565b92915050565b5f819050919050565b61024d8161023b565b82525050565b5f6020820190506102665f830184610244565b92915050565b7f4e487b71000000000000000000000000000000000000000000000000000000005f52602260045260245ffd5b5f60028204905060018216806102b057607f821691505b6020821081036102c3576102c261026c565b5b5091905056fea2646970667358221220d2bacfe184589f149632dedf2a5be1af49e50f82db8b14b589e86836fcd5bbc264736f6c634300081e0033",
					"opcodes": "PUSH1 0x80 PUSH1 0x40 MSTORE CALLVALUE DUP1 ISZERO PUSH2 0xF JUMPI PUSH0 PUSH0 REVERT JUMPDEST POP PUSH1 0x40 MLOAD PUSH2 0x960 CODESIZE SUB DUP1 PUSH2 0x960 DUP4 CODECOPY DUP2 DUP2 ADD PUSH1 0x40 MSTORE DUP2 ADD SWAP1 PUSH2 0x31 SWAP2 SWAP1 PUSH2 0x2A3 JUMP JUMPDEST PUSH0 PUSH20 0xFFFFFFFFFFFFFFFFFFFFFFFFFFFFFFFFFFFFFFFF AND DUP3 PUSH20 0xFFFFFFFFFFFFFFFFFFFFFFFFFFFFFFFFFFFFFFFF AND SUB PUSH2 0x9F JUMPI PUSH1 0x40 MLOAD PUSH32 0x8C379A000000000000000000000000000000000000000000000000000000000 DUP2 MSTORE PUSH1 0x4 ADD PUSH2 0x96 SWAP1 PUSH2 0x357 JUMP JUMPDEST PUSH1 0x40 MLOAD DUP1 SWAP2 SUB SWAP1 REVERT JUMPDEST DUP2 PUSH0 PUSH0 PUSH2 0x100 EXP DUP2 SLOAD DUP2 PUSH20 0xFFFFFFFFFFFFFFFFFFFFFFFFFFFFFFFFFFFFFFFF MUL NOT AND SWAP1 DUP4 PUSH20 0xFFFFFFFFFFFFFFFFFFFFFFFFFFFFFFFFFFFFFFFF AND MUL OR SWAP1 SSTORE POP DUP1 PUSH1 0x1 SWAP1 DUP2 PUSH2 0xED SWAP2 SWAP1 PUSH2 0x585 JUMP JUMPDEST POP TIMESTAMP PUSH1 0x2 DUP2 SWAP1 SSTORE POP POP POP PUSH2 0x654 JUMP JUMPDEST PUSH0 PUSH1 0x40 MLOAD SWAP1 POP SWAP1 JUMP JUMPDEST PUSH0 PUSH0 REVERT JUMPDEST PUSH0 PUSH0 REVERT JUMPDEST PUSH0 PUSH20 0xFFFFFFFFFFFFFFFFFFFFFFFFFFFFFFFFFFFFFFFF DUP3 AND SWAP1 POP SWAP2 SWAP1 POP JUMP JUMPDEST PUSH0 PUSH2 0x136 DUP3 PUSH2 0x10D JUMP JUMPDEST SWAP1 POP SWAP2 SWAP1 POP JUMP JUMPDEST PUSH2 0x146 DUP2 PUSH2 0x12C JUMP JUMPDEST DUP2 EQ PUSH2 0x150 JUMPI PUSH0 PUSH0 REVERT JUMPDEST POP JUMP JUMPDEST PUSH0 DUP2 MLOAD SWAP1 POP PUSH2 0x161 DUP2 PUSH2 0x13D JUMP JUMPDEST SWAP3 SWAP2 POP POP JUMP JUMPDEST PUSH0 PUSH0 REVERT JUMPDEST PUSH0 PUSH0 REVERT JUMPDEST PUSH0 PUSH1 0x1F NOT PUSH1 0x1F DUP4 ADD AND SWAP1 POP SWAP2 SWAP1 POP JUMP JUMPDEST PUSH32 0x4E487B7100000000000000000000000000000000000000000000000000000000 PUSH0 MSTORE PUSH1 0x41 PUSH1 0x4 MSTORE PUSH1 0x24 PUSH0 REVERT JUMPDEST PUSH2 0x1B5 DUP3 PUSH2 0x16F JUMP JUMPDEST DUP2 ADD DUP2 DUP2 LT PUSH8 0xFFFFFFFFFFFFFFFF DUP3 GT OR ISZERO PUSH2 0x1D4 JUMPI PUSH2 0x1D3 PUSH2 0x17F JUMP JUMPDEST JUMPDEST DUP1 PUSH1 0x40 MSTORE POP POP POP JUMP JUMPDEST PUSH0 PUSH2 0x1E6 PUSH2 0xFC JUMP JUMPDEST SWAP1 POP PUSH2 0x1F2 DUP3 DUP3 PUSH2 0x1AC JUMP JUMPDEST SWAP2 SWAP1 POP JUMP JUMPDEST PUSH0 PUSH8 0xFFFFFFFFFFFFFFFF DUP3 GT ISZERO PUSH2 0x211 JUMPI PUSH2 0x210 PUSH2 0x17F JUMP JUMPDEST JUMPDEST PUSH2 0x21A DUP3 PUSH2 0x16F JUMP JUMPDEST SWAP1 POP PUSH1 0x20 DUP2 ADD SWAP1 POP SWAP2 SWAP1 POP JUMP JUMPDEST DUP3 DUP2 DUP4 MCOPY PUSH0 DUP4 DUP4 ADD MSTORE POP POP POP JUMP JUMPDEST PUSH0 PUSH2 0x247 PUSH2 0x242 DUP5 PUSH2 0x1F7 JUMP JUMPDEST PUSH2 0x1DD JUMP JUMPDEST SWAP1 POP DUP3 DUP2 MSTORE PUSH1 0x20 DUP2 ADD DUP5 DUP5 DUP5 ADD GT ISZERO PUSH2 0x263 JUMPI PUSH2 0x262 PUSH2 0x16B JUMP JUMPDEST JUMPDEST PUSH2 0x26E DUP5 DUP3 DUP6 PUSH2 0x227 JUMP JUMPDEST POP SWAP4 SWAP3 POP POP POP JUMP JUMPDEST PUSH0 DUP3 PUSH1 0x1F DUP4 ADD SLT PUSH2 0x28A JUMPI PUSH2 0x289 PUSH2 0x167 JUMP JUMPDEST JUMPDEST DUP2 MLOAD PUSH2 0x29A DUP5 DUP3 PUSH1 0x20 DUP7 ADD PUSH2 0x235 JUMP JUMPDEST SWAP2 POP POP SWAP3 SWAP2 POP POP JUMP JUMPDEST PUSH0 PUSH0 PUSH1 0x40 DUP4 DUP6 SUB SLT ISZERO PUSH2 0x2B9 JUMPI PUSH2 0x2B8 PUSH2 0x105 JUMP JUMPDEST JUMPDEST PUSH0 PUSH2 0x2C6 DUP6 DUP3 DUP7 ADD PUSH2 0x153 JUMP JUMPDEST SWAP3 POP POP PUSH1 0x20 DUP4 ADD MLOAD PUSH8 0xFFFFFFFFFFFFFFFF DUP2 GT ISZERO PUSH2 0x2E7 JUMPI PUSH2 0x2E6 PUSH2 0x109 JUMP JUMPDEST JUMPDEST PUSH2 0x2F3 DUP6 DUP3 DUP7 ADD PUSH2 0x276 JUMP JUMPDEST SWAP2 POP POP SWAP3 POP SWAP3 SWAP1 POP JUMP JUMPDEST PUSH0 DUP3 DUP3 MSTORE PUSH1 0x20 DUP3 ADD SWAP1 POP SWAP3 SWAP2 POP POP JUMP JUMPDEST PUSH32 0x496E76616C6964206F776E657220616464726573730000000000000000000000 PUSH0 DUP3 ADD MSTORE POP JUMP JUMPDEST PUSH0 PUSH2 0x341 PUSH1 0x15 DUP4 PUSH2 0x2FD JUMP JUMPDEST SWAP2 POP PUSH2 0x34C DUP3 PUSH2 0x30D JUMP JUMPDEST PUSH1 0x20 DUP3 ADD SWAP1 POP SWAP2 SWAP1 POP JUMP JUMPDEST PUSH0 PUSH1 0x20 DUP3 ADD SWAP1 POP DUP2 DUP2 SUB PUSH0 DUP4 ADD MSTORE PUSH2 0x36E DUP2 PUSH2 0x335 JUMP JUMPDEST SWAP1 POP SWAP2 SWAP1 POP JUMP JUMPDEST PUSH0 DUP2 MLOAD SWAP1 POP SWAP2 SWAP1 POP JUMP JUMPDEST PUSH32 0x4E487B7100000000000000000000000000000000000000000000000000000000 PUSH0 MSTORE PUSH1 0x22 PUSH1 0x4 MSTORE PUSH1 0x24 PUSH0 REVERT JUMPDEST PUSH0 PUSH1 0x2 DUP3 DIV SWAP1 POP PUSH1 0x1 DUP3 AND DUP1 PUSH2 0x3C3 JUMPI PUSH1 0x7F DUP3 AND SWAP2 POP JUMPDEST PUSH1 0x20 DUP3 LT DUP2 SUB PUSH2 0x3D6 JUMPI PUSH2 0x3D5 PUSH2 0x37F JUMP JUMPDEST JUMPDEST POP SWAP2 SWAP1 POP JUMP JUMPDEST PUSH0 DUP2 SWAP1 POP DUP2 PUSH0 MSTORE PUSH1 0x20 PUSH0 KECCAK256 SWAP1 POP SWAP2 SWAP1 POP JUMP JUMPDEST PUSH0 PUSH1 0x20 PUSH1 0x1F DUP4 ADD DIV SWAP1 POP SWAP2 SWAP1 POP JUMP JUMPDEST PUSH0 DUP3 DUP3 SHL SWAP1 POP SWAP3 SWAP2 POP POP JUMP JUMPDEST PUSH0 PUSH1 0x8 DUP4 MUL PUSH2 0x438 PUSH32 0xFFFFFFFFFFFFFFFFFFFFFFFFFFFFFFFFFFFFFFFFFFFFFFFFFFFFFFFFFFFFFFFF DUP3 PUSH2 0x3FD JUMP JUMPDEST PUSH2 0x442 DUP7 DUP4 PUSH2 0x3FD JUMP JUMPDEST SWAP6 POP DUP1 NOT DUP5 AND SWAP4 POP DUP1 DUP7 AND DUP5 OR SWAP3 POP POP POP SWAP4 SWAP3 POP POP POP JUMP JUMPDEST PUSH0 DUP2 SWAP1 POP SWAP2 SWAP1 POP JUMP JUMPDEST PUSH0 DUP2 SWAP1 POP SWAP2 SWAP1 POP JUMP JUMPDEST PUSH0 PUSH2 0x486 PUSH2 0x481 PUSH2 0x47C DUP5 PUSH2 0x45A JUMP JUMPDEST PUSH2 0x463 JUMP JUMPDEST PUSH2 0x45A JUMP JUMPDEST SWAP1 POP SWAP2 SWAP1 POP JUMP JUMPDEST PUSH0 DUP2 SWAP1 POP SWAP2 SWAP1 POP JUMP JUMPDEST PUSH2 0x49F DUP4 PUSH2 0x46C JUMP JUMPDEST PUSH2 0x4B3 PUSH2 0x4AB DUP3 PUSH2 0x48D JUMP JUMPDEST DUP5 DUP5 SLOAD PUSH2 0x409 JUMP JUMPDEST DUP3 SSTORE POP POP POP POP JUMP JUMPDEST PUSH0 PUSH0 SWAP1 POP SWAP1 JUMP JUMPDEST PUSH2 0x4CA PUSH2 0x4BB JUMP JUMPDEST PUSH2 0x4D5 DUP2 DUP5 DUP5 PUSH2 0x496 JUMP JUMPDEST POP POP POP JUMP JUMPDEST JUMPDEST DUP2 DUP2 LT ISZERO PUSH2 0x4F8 JUMPI PUSH2 0x4ED PUSH0 DUP3 PUSH2 0x4C2 JUMP JUMPDEST PUSH1 0x1 DUP2 ADD SWAP1 POP PUSH2 0x4DB JUMP JUMPDEST POP POP JUMP JUMPDEST PUSH1 0x1F DUP3 GT ISZERO PUSH2 0x53D JUMPI PUSH2 0x50E DUP2 PUSH2 0x3DC JUMP JUMPDEST PUSH2 0x517 DUP5 PUSH2 0x3EE JUMP JUMPDEST DUP2 ADD PUSH1 0x20 DUP6 LT ISZERO PUSH2 0x526 JUMPI DUP2 SWAP1 POP JUMPDEST PUSH2 0x53A PUSH2 0x532 DUP6 PUSH2 0x3EE JUMP JUMPDEST DUP4 ADD DUP3 PUSH2 0x4DA JUMP JUMPDEST POP POP JUMPDEST POP POP POP JUMP JUMPDEST PUSH0 DUP3 DUP3 SHR SWAP1 POP SWAP3 SWAP2 POP POP JUMP JUMPDEST PUSH0 PUSH2 0x55D PUSH0 NOT DUP5 PUSH1 0x8 MUL PUSH2 0x542 JUMP JUMPDEST NOT DUP1 DUP4 AND SWAP2 POP POP SWAP3 SWAP2 POP POP JUMP JUMPDEST PUSH0 PUSH2 0x575 DUP4 DUP4 PUSH2 0x54E JUMP JUMPDEST SWAP2 POP DUP3 PUSH1 0x2 MUL DUP3 OR SWAP1 POP SWAP3 SWAP2 POP POP JUMP JUMPDEST PUSH2 0x58E DUP3 PUSH2 0x375 JUMP JUMPDEST PUSH8 0xFFFFFFFFFFFFFFFF DUP2 GT ISZERO PUSH2 0x5A7 JUMPI PUSH2 0x5A6 PUSH2 0x17F JUMP JUMPDEST JUMPDEST PUSH2 0x5B1 DUP3 SLOAD PUSH2 0x3AC JUMP JUMPDEST PUSH2 0x5BC DUP3 DUP3 DUP6 PUSH2 0x4FC JUMP JUMPDEST PUSH0 PUSH1 0x20 SWAP1 POP PUSH1 0x1F DUP4 GT PUSH1 0x1 DUP2 EQ PUSH2 0x5ED JUMPI PUSH0 DUP5 ISZERO PUSH2 0x5DB JUMPI DUP3 DUP8 ADD MLOAD SWAP1 POP JUMPDEST PUSH2 0x5E5 DUP6 DUP3 PUSH2 0x56A JUMP JUMPDEST DUP7 SSTORE POP PUSH2 0x64C JUMP JUMPDEST PUSH1 0x1F NOT DUP5 AND PUSH2 0x5FB DUP7 PUSH2 0x3DC JUMP JUMPDEST PUSH0 JUMPDEST DUP3 DUP2 LT ISZERO PUSH2 0x622 JUMPI DUP5 DUP10 ADD MLOAD DUP3 SSTORE PUSH1 0x1 DUP3 ADD SWAP2 POP PUSH1 0x20 DUP6 ADD SWAP5 POP PUSH1 0x20 DUP2 ADD SWAP1 POP PUSH2 0x5FD JUMP JUMPDEST DUP7 DUP4 LT ISZERO PUSH2 0x63F JUMPI DUP5 DUP10 ADD MLOAD PUSH2 0x63B PUSH1 0x1F DUP10 AND DUP3 PUSH2 0x54E JUMP JUMPDEST DUP4 SSTORE POP JUMPDEST PUSH1 0x1 PUSH1 0x2 DUP9 MUL ADD DUP9 SSTORE POP POP POP JUMPDEST POP POP POP POP POP POP JUMP JUMPDEST PUSH2 0x2FF DUP1 PUSH2 0x661 PUSH0 CODECOPY PUSH0 RETURN INVALID PUSH1 0x80 PUSH1 0x40 MSTORE CALLVALUE DUP1 ISZERO PUSH2 0xF JUMPI PUSH0 PUSH0 REVERT JUMPDEST POP PUSH1 0x4 CALLDATASIZE LT PUSH2 0x3F JUMPI PUSH0 CALLDATALOAD PUSH1 0xE0 SHR DUP1 PUSH4 0x75D0C0DC EQ PUSH2 0x43 JUMPI DUP1 PUSH4 0x8DA5CB5B EQ PUSH2 0x61 JUMPI DUP1 PUSH4 0xD8270DCE EQ PUSH2 0x7F JUMPI JUMPDEST PUSH0 PUSH0 REVERT JUMPDEST PUSH2 0x4B PUSH2 0x9D JUMP JUMPDEST PUSH1 0x40 MLOAD PUSH2 0x58 SWAP2 SWAP1 PUSH2 0x1C3 JUMP JUMPDEST PUSH1 0x40 MLOAD DUP1 SWAP2 SUB SWAP1 RETURN JUMPDEST PUSH2 0x69 PUSH2 0x129 JUMP JUMPDEST PUSH1 0x40 MLOAD PUSH2 0x76 SWAP2 SWAP1 PUSH2 0x222 JUMP JUMPDEST PUSH1 0x40 MLOAD DUP1 SWAP2 SUB SWAP1 RETURN JUMPDEST PUSH2 0x87 PUSH2 0x14D JUMP JUMPDEST PUSH1 0x40 MLOAD PUSH2 0x94 SWAP2 SWAP1 PUSH2 0x253 JUMP JUMPDEST PUSH1 0x40 MLOAD DUP1 SWAP2 SUB SWAP1 RETURN JUMPDEST PUSH1 0x1 DUP1 SLOAD PUSH2 0xAA SWAP1 PUSH2 0x299 JUMP JUMPDEST DUP1 PUSH1 0x1F ADD PUSH1 0x20 DUP1 SWAP2 DIV MUL PUSH1 0x20 ADD PUSH1 0x40 MLOAD SWAP1 DUP2 ADD PUSH1 0x40 MSTORE DUP1 SWAP3 SWAP2 SWAP1 DUP2 DUP2 MSTORE PUSH1 0x20 ADD DUP3 DUP1 SLOAD PUSH2 0xD6 SWAP1 PUSH2 0x299 JUMP JUMPDEST DUP1 ISZERO PUSH2 0x121 JUMPI DUP1 PUSH1 0x1F LT PUSH2 0xF8 JUMPI PUSH2 0x100 DUP1 DUP4 SLOAD DIV MUL DUP4 MSTORE SWAP2 PUSH1 0x20 ADD SWAP2 PUSH2 0x121 JUMP JUMPDEST DUP3 ADD SWAP2 SWAP1 PUSH0 MSTORE PUSH1 0x20 PUSH0 KECCAK256 SWAP1 JUMPDEST DUP2 SLOAD DUP2 MSTORE SWAP1 PUSH1 0x1 ADD SWAP1 PUSH1 0x20 ADD DUP1 DUP4 GT PUSH2 0x104 JUMPI DUP3 SWAP1 SUB PUSH1 0x1F AND DUP3 ADD SWAP2 JUMPDEST POP POP POP POP POP DUP2 JUMP JUMPDEST PUSH0 PUSH0 SWAP1 SLOAD SWAP1 PUSH2 0x100 EXP SWAP1 DIV PUSH20 0xFFFFFFFFFFFFFFFFFFFFFFFFFFFFFFFFFFFFFFFF AND DUP2 JUMP JUMPDEST PUSH1 0x2 SLOAD DUP2 JUMP JUMPDEST PUSH0 DUP2 MLOAD SWAP1 POP SWAP2 SWAP1 POP JUMP JUMPDEST PUSH0 DUP3 DUP3 MSTORE PUSH1 0x20 DUP3 ADD SWAP1 POP SWAP3 SWAP2 POP POP JUMP JUMPDEST DUP3 DUP2 DUP4 MCOPY PUSH0 DUP4 DUP4 ADD MSTORE POP POP POP JUMP JUMPDEST PUSH0 PUSH1 0x1F NOT PUSH1 0x1F DUP4 ADD AND SWAP1 POP SWAP2 SWAP1 POP JUMP JUMPDEST PUSH0 PUSH2 0x195 DUP3 PUSH2 0x153 JUMP JUMPDEST PUSH2 0x19F DUP2 DUP6 PUSH2 0x15D JUMP JUMPDEST SWAP4 POP PUSH2 0x1AF DUP2 DUP6 PUSH1 0x20 DUP7 ADD PUSH2 0x16D JUMP JUMPDEST PUSH2 0x1B8 DUP2 PUSH2 0x17B JUMP JUMPDEST DUP5 ADD SWAP2 POP POP SWAP3 SWAP2 POP POP JUMP JUMPDEST PUSH0 PUSH1 0x20 DUP3 ADD SWAP1 POP DUP2 DUP2 SUB PUSH0 DUP4 ADD MSTORE PUSH2 0x1DB DUP2 DUP5 PUSH2 0x18B JUMP JUMPDEST SWAP1 POP SWAP3 SWAP2 POP POP JUMP JUMPDEST PUSH0 PUSH20 0xFFFFFFFFFFFFFFFFFFFFFFFFFFFFFFFFFFFFFFFF DUP3 AND SWAP1 POP SWAP2 SWAP1 POP JUMP JUMPDEST PUSH0 PUSH2 0x20C DUP3 PUSH2 0x1E3 JUMP JUMPDEST SWAP1 POP SWAP2 SWAP1 POP JUMP JUMPDEST PUSH2 0x21C DUP2 PUSH2 0x202 JUMP JUMPDEST DUP3 MSTORE POP POP JUMP JUMPDEST PUSH0 PUSH1 0x20 DUP3 ADD SWAP1 POP PUSH2 0x235 PUSH0 DUP4 ADD DUP5 PUSH2 0x213 JUMP JUMPDEST SWAP3 SWAP2 POP POP JUMP JUMPDEST PUSH0 DUP2 SWAP1 POP SWAP2 SWAP1 POP JUMP JUMPDEST PUSH2 0x24D DUP2 PUSH2 0x23B JUMP JUMPDEST DUP3 MSTORE POP POP JUMP JUMPDEST PUSH0 PUSH1 0x20 DUP3 ADD SWAP1 POP PUSH2 0x266 PUSH0 DUP4 ADD DUP5 PUSH2 0x244 JUMP JUMPDEST SWAP3 SWAP2 POP POP JUMP JUMPDEST PUSH32 0x4E487B7100000000000000000000000000000000000000000000000000000000 PUSH0 MSTORE PUSH1 0x22 PUSH1 0x4 MSTORE PUSH1 0x24 PUSH0 REVERT JUMPDEST PUSH0 PUSH1 0x2 DUP3 DIV SWAP1 POP PUSH1 0x1 DUP3 AND DUP1 PUSH2 0x2B0 JUMPI PUSH1 0x7F DUP3 AND SWAP2 POP JUMPDEST PUSH1 0x20 DUP3 LT DUP2 SUB PUSH2 0x2C3 JUMPI PUSH2 0x2C2 PUSH2 0x26C JUMP JUMPDEST JUMPDEST POP SWAP2 SWAP1 POP JUMP INVALID LOG2 PUSH5 0x6970667358 0x22 SLT KECCAK256 0xD2 0xBA 0xCF RJUMPI 0x8458 SWAP16 EQ SWAP7 ORIGIN 0xDE 0xDF 0x2A JUMPDEST RJUMPI 0xAF49 JUMPF 0xF82 0xDB DUP12 EQ 0xB5 DUP10 0xE8 PUSH9 0x36FCD5BBC264736F6C PUSH4 0x4300081E STOP CALLER "
				},
				"gasEstimates": {
					"creation": {
						"codeDepositCost": "153400",
						"executionCost": "infinite",
						"totalCost": "infinite"
					},
					"external": {
						"contractName()": "infinite",
						"creationTime()": "2447",
						"owner()": "2507"
					}
				},
				"methodIdentifiers": {
					"contractName()": "75d0c0dc",
					"creationTime()": "d8270dce",
					"owner()": "8da5cb5b"
				}
			},
			"storageLayout": {
				"storage": [
					{
						"astId": 3,
						"contract": "newvest.sol:AdvancedConstructor",
						"label": "owner",
						"offset": 0,
						"slot": "0",
						"type": "t_address"
					},
					{
						"astId": 5,
						"contract": "newvest.sol:AdvancedConstructor",
						"label": "contractName",
						"offset": 0,
						"slot": "1",
						"type": "t_string_storage"
					},
					{
						"astId": 7,
						"contract": "newvest.sol:AdvancedConstructor",
						"label": "creationTime",
						"offset": 0,
						"slot": "2",
						"type": "t_uint256"
					}
				],
				"types": {
					"t_address": {
						"encoding": "inplace",
						"label": "address",
						"numberOfBytes": "20"
					},
					"t_string_storage": {
						"encoding": "bytes",
						"label": "string",
						"numberOfBytes": "32"
					},
					"t_uint256": {
						"encoding": "inplace",
						"label": "uint256",
						"numberOfBytes": "32"
					}
				}
			},
			"userdoc": {
				"kind": "user",
				"methods": {},
				"version": 1
			}
		}
	}
}