{
	"depositefunction.sol": {
		"Bank": {
			"abi": [
				{
					"inputs": [],
					"stateMutability": "nonpayable",
					"type": "constructor"
				},
				{
					"inputs": [],
					"name": "balance",
					"outputs": [
						{
							"internalType": "uint256",
							"name": "",
							"type": "uint256"
						}
					],
					"stateMutability": "view",
					"type": "function"
				},
				{
					"inputs": [
						{
							"internalType": "uint256",
							"name": "amount",
							"type": "uint256"
						}
					],
					"name": "deposit",
					"outputs": [],
					"stateMutability": "nonpayable",
					"type": "function"
				}
			],
			"devdoc": {
				"kind": "dev",
				"methods": {},
				"version": 1
			},
			"evm": {
				"assembly": "    /* \"depositefunction.sol\":57:464  contract Bank {... */\n  mstore(0x40, 0x80)\n    /* \"depositefunction.sol\":150:192  constructor() {... */\n  callvalue\n  dup1\n  iszero\n  tag_1\n  jumpi\n  revert(0x00, 0x00)\ntag_1:\n  pop\n    /* \"depositefunction.sol\":184:185  0 */\n  0x00\n    /* \"depositefunction.sol\":174:181  balance */\n  0x00\n    /* \"depositefunction.sol\":174:185  balance = 0 */\n  dup2\n  swap1\n  sstore\n  pop\n    /* \"depositefunction.sol\":57:464  contract Bank {... */\n  dataSize(sub_0)\n  dup1\n  dataOffset(sub_0)\n  0x00\n  codecopy\n  0x00\n  return\nstop\n\nsub_0: assembly {\n        /* \"depositefunction.sol\":57:464  contract Bank {... */\n      mstore(0x40, 0x80)\n      callvalue\n      dup1\n      iszero\n      tag_1\n      jumpi\n      revert(0x00, 0x00)\n    tag_1:\n      pop\n      jumpi(tag_2, lt(calldatasize, 0x04))\n      shr(0xe0, calldataload(0x00))\n      dup1\n      0xb69ef8a8\n      eq\n      tag_3\n      jumpi\n      dup1\n      0xb6b55f25\n      eq\n      tag_4\n      jumpi\n    tag_2:\n      revert(0x00, 0x00)\n        /* \"depositefunction.sol\":77:99  uint256 public balance */\n    tag_3:\n      tag_5\n      tag_6\n      jump\t// in\n    tag_5:\n      mload(0x40)\n      tag_7\n      swap2\n      swap1\n      tag_8\n      jump\t// in\n    tag_7:\n      mload(0x40)\n      dup1\n      swap2\n      sub\n      swap1\n      return\n        /* \"depositefunction.sol\":198:462  function deposit(uint256 amount) public {... */\n    tag_4:\n      tag_9\n      0x04\n      dup1\n      calldatasize\n      sub\n      dup2\n      add\n      swap1\n      tag_10\n      swap2\n      swap1\n      tag_11\n      jump\t// in\n    tag_10:\n      tag_12\n      jump\t// in\n    tag_9:\n      stop\n        /* \"depositefunction.sol\":77:99  uint256 public balance */\n    tag_6:\n      sload(0x00)\n      dup2\n      jump\t// out\n        /* \"depositefunction.sol\":198:462  function deposit(uint256 amount) public {... */\n    tag_12:\n        /* \"depositefunction.sol\":248:266  uint256 oldBalance */\n      0x00\n        /* \"depositefunction.sol\":269:276  balance */\n      sload(0x00)\n        /* \"depositefunction.sol\":248:276  uint256 oldBalance = balance */\n      swap1\n      pop\n        /* \"depositefunction.sol\":286:304  uint256 newBalance */\n      0x00\n        /* \"depositefunction.sol\":317:323  amount */\n      dup3\n        /* \"depositefunction.sol\":307:314  balance */\n      sload(0x00)\n        /* \"depositefunction.sol\":307:323  balance + amount */\n      tag_14\n      swap2\n      swap1\n      tag_15\n      jump\t// in\n    tag_14:\n        /* \"depositefunction.sol\":286:323  uint256 newBalance = balance + amount */\n      swap1\n      pop\n        /* \"depositefunction.sol\":356:366  oldBalance */\n      dup2\n        /* \"depositefunction.sol\":342:352  newBalance */\n      dup2\n        /* \"depositefunction.sol\":342:366  newBalance >= oldBalance */\n      lt\n      iszero\n        /* \"depositefunction.sol\":334:385  require(newBalance >= oldBalance, \"Overflow error\") */\n      tag_16\n      jumpi\n      mload(0x40)\n      0x08c379a000000000000000000000000000000000000000000000000000000000\n      dup2\n      mstore\n      0x04\n      add\n      tag_17\n      swap1\n      tag_18\n      jump\t// in\n    tag_17:\n      mload(0x40)\n      dup1\n      swap2\n      sub\n      swap1\n      revert\n    tag_16:\n        /* \"depositefunction.sol\":406:416  newBalance */\n      dup1\n        /* \"depositefunction.sol\":396:403  balance */\n      0x00\n        /* \"depositefunction.sol\":396:416  balance = newBalance */\n      dup2\n      swap1\n      sstore\n      pop\n        /* \"depositefunction.sol\":444:454  oldBalance */\n      dup2\n        /* \"depositefunction.sol\":433:440  balance */\n      sload(0x00)\n        /* \"depositefunction.sol\":433:454  balance >= oldBalance */\n      lt\n      iszero\n        /* \"depositefunction.sol\":426:455  assert(balance >= oldBalance) */\n      tag_19\n      jumpi\n      tag_20\n      tag_21\n      jump\t// in\n    tag_20:\n    tag_19:\n        /* \"depositefunction.sol\":238:462  {... */\n      pop\n      pop\n        /* \"depositefunction.sol\":198:462  function deposit(uint256 amount) public {... */\n      pop\n      jump\t// out\n        /* \"#utility.yul\":7:84   */\n    tag_22:\n        /* \"#utility.yul\":44:51   */\n      0x00\n        /* \"#utility.yul\":73:78   */\n      dup2\n        /* \"#utility.yul\":62:78   */\n      swap1\n      pop\n        /* \"#utility.yul\":7:84   */\n      swap2\n      swap1\n      pop\n      jump\t// out\n        /* \"#utility.yul\":90:208   */\n    tag_23:\n        /* \"#utility.yul\":177:201   */\n      tag_36\n        /* \"#utility.yul\":195:200   */\n      dup2\n        /* \"#utility.yul\":177:201   */\n      tag_22\n      jump\t// in\n    tag_36:\n        /* \"#utility.yul\":172:175   */\n      dup3\n        /* \"#utility.yul\":165:202   */\n      mstore\n        /* \"#utility.yul\":90:208   */\n      pop\n      pop\n      jump\t// out\n        /* \"#utility.yul\":214:436   */\n    tag_8:\n        /* \"#utility.yul\":307:311   */\n      0x00\n        /* \"#utility.yul\":345:347   */\n      0x20\n        /* \"#utility.yul\":334:343   */\n      dup3\n        /* \"#utility.yul\":330:348   */\n      add\n        /* \"#utility.yul\":322:348   */\n      swap1\n      pop\n        /* \"#utility.yul\":358:429   */\n      tag_38\n        /* \"#utility.yul\":426:427   */\n      0x00\n        /* \"#utility.yul\":415:424   */\n      dup4\n        /* \"#utility.yul\":411:428   */\n      add\n        /* \"#utility.yul\":402:408   */\n      dup5\n        /* \"#utility.yul\":358:429   */\n      tag_23\n      jump\t// in\n    tag_38:\n        /* \"#utility.yul\":214:436   */\n      swap3\n      swap2\n      pop\n      pop\n      jump\t// out\n        /* \"#utility.yul\":523:640   */\n    tag_25:\n        /* \"#utility.yul\":632:633   */\n      0x00\n        /* \"#utility.yul\":629:630   */\n      0x00\n        /* \"#utility.yul\":622:634   */\n      revert\n        /* \"#utility.yul\":769:891   */\n    tag_27:\n        /* \"#utility.yul\":842:866   */\n      tag_43\n        /* \"#utility.yul\":860:865   */\n      dup2\n        /* \"#utility.yul\":842:866   */\n      tag_22\n      jump\t// in\n    tag_43:\n        /* \"#utility.yul\":835:840   */\n      dup2\n        /* \"#utility.yul\":832:867   */\n      eq\n        /* \"#utility.yul\":822:885   */\n      tag_44\n      jumpi\n        /* \"#utility.yul\":881:882   */\n      0x00\n        /* \"#utility.yul\":878:879   */\n      0x00\n        /* \"#utility.yul\":871:883   */\n      revert\n        /* \"#utility.yul\":822:885   */\n    tag_44:\n        /* \"#utility.yul\":769:891   */\n      pop\n      jump\t// out\n        /* \"#utility.yul\":897:1036   */\n    tag_28:\n        /* \"#utility.yul\":943:948   */\n      0x00\n        /* \"#utility.yul\":981:987   */\n      dup2\n        /* \"#utility.yul\":968:988   */\n      calldataload\n        /* \"#utility.yul\":959:988   */\n      swap1\n      pop\n        /* \"#utility.yul\":997:1030   */\n      tag_46\n        /* \"#utility.yul\":1024:1029   */\n      dup2\n        /* \"#utility.yul\":997:1030   */\n      tag_27\n      jump\t// in\n    tag_46:\n        /* \"#utility.yul\":897:1036   */\n      swap3\n      swap2\n      pop\n      pop\n      jump\t// out\n        /* \"#utility.yul\":1042:1371   */\n    tag_11:\n        /* \"#utility.yul\":1101:1107   */\n      0x00\n        /* \"#utility.yul\":1150:1152   */\n      0x20\n        /* \"#utility.yul\":1138:1147   */\n      dup3\n        /* \"#utility.yul\":1129:1136   */\n      dup5\n        /* \"#utility.yul\":1125:1148   */\n      sub\n        /* \"#utility.yul\":1121:1153   */\n      slt\n        /* \"#utility.yul\":1118:1237   */\n      iszero\n      tag_48\n      jumpi\n        /* \"#utility.yul\":1156:1235   */\n      tag_49\n      tag_25\n      jump\t// in\n    tag_49:\n        /* \"#utility.yul\":1118:1237   */\n    tag_48:\n        /* \"#utility.yul\":1276:1277   */\n      0x00\n        /* \"#utility.yul\":1301:1354   */\n      tag_50\n        /* \"#utility.yul\":1346:1353   */\n      dup5\n        /* \"#utility.yul\":1337:1343   */\n      dup3\n        /* \"#utility.yul\":1326:1335   */\n      dup6\n        /* \"#utility.yul\":1322:1344   */\n      add\n        /* \"#utility.yul\":1301:1354   */\n      tag_28\n      jump\t// in\n    tag_50:\n        /* \"#utility.yul\":1291:1354   */\n      swap2\n      pop\n        /* \"#utility.yul\":1247:1364   */\n      pop\n        /* \"#utility.yul\":1042:1371   */\n      swap3\n      swap2\n      pop\n      pop\n      jump\t// out\n        /* \"#utility.yul\":1377:1557   */\n    tag_29:\n        /* \"#utility.yul\":1425:1502   */\n      0x4e487b7100000000000000000000000000000000000000000000000000000000\n        /* \"#utility.yul\":1422:1423   */\n      0x00\n        /* \"#utility.yul\":1415:1503   */\n      mstore\n        /* \"#utility.yul\":1522:1526   */\n      0x11\n        /* \"#utility.yul\":1519:1520   */\n      0x04\n        /* \"#utility.yul\":1512:1527   */\n      mstore\n        /* \"#utility.yul\":1546:1550   */\n      0x24\n        /* \"#utility.yul\":1543:1544   */\n      0x00\n        /* \"#utility.yul\":1536:1551   */\n      revert\n        /* \"#utility.yul\":1563:1754   */\n    tag_15:\n        /* \"#utility.yul\":1603:1606   */\n      0x00\n        /* \"#utility.yul\":1622:1642   */\n      tag_53\n        /* \"#utility.yul\":1640:1641   */\n      dup3\n        /* \"#utility.yul\":1622:1642   */\n      tag_22\n      jump\t// in\n    tag_53:\n        /* \"#utility.yul\":1617:1642   */\n      swap2\n      pop\n        /* \"#utility.yul\":1656:1676   */\n      tag_54\n        /* \"#utility.yul\":1674:1675   */\n      dup4\n        /* \"#utility.yul\":1656:1676   */\n      tag_22\n      jump\t// in\n    tag_54:\n        /* \"#utility.yul\":1651:1676   */\n      swap3\n      pop\n        /* \"#utility.yul\":1699:1700   */\n      dup3\n        /* \"#utility.yul\":1696:1697   */\n      dup3\n        /* \"#utility.yul\":1692:1701   */\n      add\n        /* \"#utility.yul\":1685:1701   */\n      swap1\n      pop\n        /* \"#utility.yul\":1720:1723   */\n      dup1\n        /* \"#utility.yul\":1717:1718   */\n      dup3\n        /* \"#utility.yul\":1714:1724   */\n      gt\n        /* \"#utility.yul\":1711:1747   */\n      iszero\n      tag_55\n      jumpi\n        /* \"#utility.yul\":1727:1745   */\n      tag_56\n      tag_29\n      jump\t// in\n    tag_56:\n        /* \"#utility.yul\":1711:1747   */\n    tag_55:\n        /* \"#utility.yul\":1563:1754   */\n      swap3\n      swap2\n      pop\n      pop\n      jump\t// out\n        /* \"#utility.yul\":1760:1929   */\n    tag_30:\n        /* \"#utility.yul\":1844:1855   */\n      0x00\n        /* \"#utility.yul\":1878:1884   */\n      dup3\n        /* \"#utility.yul\":1873:1876   */\n      dup3\n        /* \"#utility.yul\":1866:1885   */\n      mstore\n        /* \"#utility.yul\":1918:1922   */\n      0x20\n        /* \"#utility.yul\":1913:1916   */\n      dup3\n        /* \"#utility.yul\":1909:1923   */\n      add\n        /* \"#utility.yul\":1894:1923   */\n      swap1\n      pop\n        /* \"#utility.yul\":1760:1929   */\n      swap3\n      swap2\n      pop\n      pop\n      jump\t// out\n        /* \"#utility.yul\":1935:2099   */\n    tag_31:\n        /* \"#utility.yul\":2075:2091   */\n      0x4f766572666c6f77206572726f72000000000000000000000000000000000000\n        /* \"#utility.yul\":2071:2072   */\n      0x00\n        /* \"#utility.yul\":2063:2069   */\n      dup3\n        /* \"#utility.yul\":2059:2073   */\n      add\n        /* \"#utility.yul\":2052:2092   */\n      mstore\n        /* \"#utility.yul\":1935:2099   */\n      pop\n      jump\t// out\n        /* \"#utility.yul\":2105:2471   */\n    tag_32:\n        /* \"#utility.yul\":2247:2250   */\n      0x00\n        /* \"#utility.yul\":2268:2335   */\n      tag_60\n        /* \"#utility.yul\":2332:2334   */\n      0x0e\n        /* \"#utility.yul\":2327:2330   */\n      dup4\n        /* \"#utility.yul\":2268:2335   */\n      tag_30\n      jump\t// in\n    tag_60:\n        /* \"#utility.yul\":2261:2335   */\n      swap2\n      pop\n        /* \"#utility.yul\":2344:2437   */\n      tag_61\n        /* \"#utility.yul\":2433:2436   */\n      dup3\n        /* \"#utility.yul\":2344:2437   */\n      tag_31\n      jump\t// in\n    tag_61:\n        /* \"#utility.yul\":2462:2464   */\n      0x20\n        /* \"#utility.yul\":2457:2460   */\n      dup3\n        /* \"#utility.yul\":2453:2465   */\n      add\n        /* \"#utility.yul\":2446:2465   */\n      swap1\n      pop\n        /* \"#utility.yul\":2105:2471   */\n      swap2\n      swap1\n      pop\n      jump\t// out\n        /* \"#utility.yul\":2477:2896   */\n    tag_18:\n        /* \"#utility.yul\":2643:2647   */\n      0x00\n        /* \"#utility.yul\":2681:2683   */\n      0x20\n        /* \"#utility.yul\":2670:2679   */\n      dup3\n        /* \"#utility.yul\":2666:2684   */\n      add\n        /* \"#utility.yul\":2658:2684   */\n      swap1\n      pop\n        /* \"#utility.yul\":2730:2739   */\n      dup2\n        /* \"#utility.yul\":2724:2728   */\n      dup2\n        /* \"#utility.yul\":2720:2740   */\n      sub\n        /* \"#utility.yul\":2716:2717   */\n      0x00\n        /* \"#utility.yul\":2705:2714   */\n      dup4\n        /* \"#utility.yul\":2701:2718   */\n      add\n        /* \"#utility.yul\":2694:2741   */\n      mstore\n        /* \"#utility.yul\":2758:2889   */\n      tag_63\n        /* \"#utility.yul\":2884:2888   */\n      dup2\n        /* \"#utility.yul\":2758:2889   */\n      tag_32\n      jump\t// in\n    tag_63:\n        /* \"#utility.yul\":2750:2889   */\n      swap1\n      pop\n        /* \"#utility.yul\":2477:2896   */\n      swap2\n      swap1\n      pop\n      jump\t// out\n        /* \"#utility.yul\":2902:3082   */\n    tag_21:\n        /* \"#utility.yul\":2950:3027   */\n      0x4e487b7100000000000000000000000000000000000000000000000000000000\n        /* \"#utility.yul\":2947:2948   */\n      0x00\n        /* \"#utility.yul\":2940:3028   */\n      mstore\n        /* \"#utility.yul\":3047:3051   */\n      0x01\n        /* \"#utility.yul\":3044:3045   */\n      0x04\n        /* \"#utility.yul\":3037:3052   */\n      mstore\n        /* \"#utility.yul\":3071:3075   */\n      0x24\n        /* \"#utility.yul\":3068:3069   */\n      0x00\n        /* \"#utility.yul\":3061:3076   */\n      revert\n\n    auxdata: 0xa264697066735822122060678fcf80ce68d7d7b792d7430b4e96ea3eba33235702ece71af27ddd14a86964736f6c634300081e0033\n}\n",
				"bytecode": {
					"linkReferences": {},
					"object": "6080604052348015600e575f5ffd5b505f5f819055506102b1806100225f395ff3fe608060405234801561000f575f5ffd5b5060043610610034575f3560e01c8063b69ef8a814610038578063b6b55f2514610056575b5f5ffd5b610040610072565b60405161004d9190610104565b60405180910390f35b610070600480360381019061006b919061014b565b610077565b005b5f5481565b5f5f5490505f825f5461008a91906101a3565b9050818110156100cf576040517f08c379a00000000000000000000000000000000000000000000000000000000081526004016100c690610230565b60405180910390fd5b805f81905550815f5410156100e7576100e661024e565b5b505050565b5f819050919050565b6100fe816100ec565b82525050565b5f6020820190506101175f8301846100f5565b92915050565b5f5ffd5b61012a816100ec565b8114610134575f5ffd5b50565b5f8135905061014581610121565b92915050565b5f602082840312156101605761015f61011d565b5b5f61016d84828501610137565b91505092915050565b7f4e487b71000000000000000000000000000000000000000000000000000000005f52601160045260245ffd5b5f6101ad826100ec565b91506101b8836100ec565b92508282019050808211156101d0576101cf610176565b5b92915050565b5f82825260208201905092915050565b7f4f766572666c6f77206572726f720000000000000000000000000000000000005f82015250565b5f61021a600e836101d6565b9150610225826101e6565b602082019050919050565b5f6020820190508181035f8301526102478161020e565b9050919050565b7f4e487b71000000000000000000000000000000000000000000000000000000005f52600160045260245ffdfea264697066735822122060678fcf80ce68d7d7b792d7430b4e96ea3eba33235702ece71af27ddd14a86964736f6c634300081e0033",
					"opcodes": "PUSH1 0x80 PUSH1 0x40 MSTORE CALLVALUE DUP1 ISZERO PUSH1 0xE JUMPI PUSH0 PUSH0 REVERT JUMPDEST POP PUSH0 PUSH0 DUP2 SWAP1 SSTORE POP PUSH2 0x2B1 DUP1 PUSH2 0x22 PUSH0 CODECOPY PUSH0 RETURN INVALID PUSH1 0x80 PUSH1 0x40 MSTORE CALLVALUE DUP1 ISZERO PUSH2 0xF JUMPI PUSH0 PUSH0 REVERT JUMPDEST POP PUSH1 0x4 CALLDATASIZE LT PUSH2 0x34 JUMPI PUSH0 CALLDATALOAD PUSH1 0xE0 SHR DUP1 PUSH4 0xB69EF8A8 EQ PUSH2 0x38 JUMPI DUP1 PUSH4 0xB6B55F25 EQ PUSH2 0x56 JUMPI JUMPDEST PUSH0 PUSH0 REVERT JUMPDEST PUSH2 0x40 PUSH2 0x72 JUMP JUMPDEST PUSH1 0x40 MLOAD PUSH2 0x4D SWAP2 SWAP1 PUSH2 0x104 JUMP JUMPDEST PUSH1 0x40 MLOAD DUP1 SWAP2 SUB SWAP1 RETURN JUMPDEST PUSH2 0x70 PUSH1 0x4 DUP1 CALLDATASIZE SUB DUP2 ADD SWAP1 PUSH2 0x6B SWAP2 SWAP1 PUSH2 0x14B JUMP JUMPDEST PUSH2 0x77 JUMP JUMPDEST STOP JUMPDEST PUSH0 SLOAD DUP2 JUMP JUMPDEST PUSH0 PUSH0 SLOAD SWAP1 POP PUSH0 DUP3 PUSH0 SLOAD PUSH2 0x8A SWAP2 SWAP1 PUSH2 0x1A3 JUMP JUMPDEST SWAP1 POP DUP2 DUP2 LT ISZERO PUSH2 0xCF JUMPI PUSH1 0x40 MLOAD PUSH32 0x8C379A000000000000000000000000000000000000000000000000000000000 DUP2 MSTORE PUSH1 0x4 ADD PUSH2 0xC6 SWAP1 PUSH2 0x230 JUMP JUMPDEST PUSH1 0x40 MLOAD DUP1 SWAP2 SUB SWAP1 REVERT JUMPDEST DUP1 PUSH0 DUP2 SWAP1 SSTORE POP DUP2 PUSH0 SLOAD LT ISZERO PUSH2 0xE7 JUMPI PUSH2 0xE6 PUSH2 0x24E JUMP JUMPDEST JUMPDEST POP POP POP JUMP JUMPDEST PUSH0 DUP2 SWAP1 POP SWAP2 SWAP1 POP JUMP JUMPDEST PUSH2 0xFE DUP2 PUSH2 0xEC JUMP JUMPDEST DUP3 MSTORE POP POP JUMP JUMPDEST PUSH0 PUSH1 0x20 DUP3 ADD SWAP1 POP PUSH2 0x117 PUSH0 DUP4 ADD DUP5 PUSH2 0xF5 JUMP JUMPDEST SWAP3 SWAP2 POP POP JUMP JUMPDEST PUSH0 PUSH0 REVERT JUMPDEST PUSH2 0x12A DUP2 PUSH2 0xEC JUMP JUMPDEST DUP2 EQ PUSH2 0x134 JUMPI PUSH0 PUSH0 REVERT JUMPDEST POP JUMP JUMPDEST PUSH0 DUP2 CALLDATALOAD SWAP1 POP PUSH2 0x145 DUP2 PUSH2 0x121 JUMP JUMPDEST SWAP3 SWAP2 POP POP JUMP JUMPDEST PUSH0 PUSH1 0x20 DUP3 DUP5 SUB SLT ISZERO PUSH2 0x160 JUMPI PUSH2 0x15F PUSH2 0x11D JUMP JUMPDEST JUMPDEST PUSH0 PUSH2 0x16D DUP5 DUP3 DUP6 ADD PUSH2 0x137 JUMP JUMPDEST SWAP2 POP POP SWAP3 SWAP2 POP POP JUMP JUMPDEST PUSH32 0x4E487B7100000000000000000000000000000000000000000000000000000000 PUSH0 MSTORE PUSH1 0x11 PUSH1 0x4 MSTORE PUSH1 0x24 PUSH0 REVERT JUMPDEST PUSH0 PUSH2 0x1AD DUP3 PUSH2 0xEC JUMP JUMPDEST SWAP2 POP PUSH2 0x1B8 DUP4 PUSH2 0xEC JUMP JUMPDEST SWAP3 POP DUP3 DUP3 ADD SWAP1 POP DUP1 DUP3 GT ISZERO PUSH2 0x1D0 JUMPI PUSH2 0x1CF PUSH2 0x176 JUMP JUMPDEST JUMPDEST SWAP3 SWAP2 POP POP JUMP JUMPDEST PUSH0 DUP3 DUP3 MSTORE PUSH1 0x20 DUP3 ADD SWAP1 POP SWAP3 SWAP2 POP POP JUMP JUMPDEST PUSH32 0x4F766572666C6F77206572726F72000000000000000000000000000000000000 PUSH0 DUP3 ADD MSTORE POP JUMP JUMPDEST PUSH0 PUSH2 0x21A PUSH1 0xE DUP4 PUSH2 0x1D6 JUMP JUMPDEST SWAP2 POP PUSH2 0x225 DUP3 PUSH2 0x1E6 JUMP JUMPDEST PUSH1 0x20 DUP3 ADD SWAP1 POP SWAP2 SWAP1 POP JUMP JUMPDEST PUSH0 PUSH1 0x20 DUP3 ADD SWAP1 POP DUP2 DUP2 SUB PUSH0 DUP4 ADD MSTORE PUSH2 0x247 DUP2 PUSH2 0x20E JUMP JUMPDEST SWAP1 POP SWAP2 SWAP1 POP JUMP JUMPDEST PUSH32 0x4E487B7100000000000000000000000000000000000000000000000000000000 PUSH0 MSTORE PUSH1 0x1 PUSH1 0x4 MSTORE PUSH1 0x24 PUSH0 REVERT INVALID LOG2 PUSH5 0x6970667358 0x22 SLT KECCAK256 PUSH1 0x67 DUP16 0xCF DUP1 0xCE PUSH9 0xD7D7B792D7430B4E96 0xEA RETURNDATACOPY 0xBA CALLER 0x23 JUMPI MUL EOFCREATE 0xE7 BYTE CALLCODE PUSH30 0xDD14A86964736F6C634300081E0033000000000000000000000000000000 "
				},
				"gasEstimates": {
					"creation": {
						"codeDepositCost": "137800",
						"executionCost": "5193",
						"totalCost": "142993"
					},
					"external": {
						"balance()": "2402",
						"deposit(uint256)": "infinite"
					}
				},
				"methodIdentifiers": {
					"balance()": "b69ef8a8",
					"deposit(uint256)": "b6b55f25"
				}
			},
			"storageLayout": {
				"storage": [
					{
						"astId": 3,
						"contract": "depositefunction.sol:Bank",
						"label": "balance",
						"offset": 0,
						"slot": "0",
						"type": "t_uint256"
					}
				],
				"types": {
					"t_uint256": {
						"encoding": "inplace",
						"label": "uint256",
						"numberOfBytes": "32"
					}
				}
			},
			"userdoc": {
				"kind": "user",
				"methods": {},
				"version": 1
			}
		}
	}
}