{
	"bookstruk.sol": {
		"Library": {
			"abi": [
				{
					"inputs": [
						{
							"internalType": "string",
							"name": "_title",
							"type": "string"
						},
						{
							"internalType": "bool",
							"name": "_isFiction",
							"type": "bool"
						}
					],
					"name": "addBookDirect",
					"outputs": [],
					"stateMutability": "nonpayable",
					"type": "function"
				},
				{
					"inputs": [
						{
							"internalType": "string",
							"name": "_title",
							"type": "string"
						}
					],
					"name": "addBookEmpty",
					"outputs": [],
					"stateMutability": "nonpayable",
					"type": "function"
				},
				{
					"inputs": [
						{
							"internalType": "string",
							"name": "_title",
							"type": "string"
						},
						{
							"internalType": "bool",
							"name": "_isFiction",
							"type": "bool"
						}
					],
					"name": "addBookKeyValue",
					"outputs": [],
					"stateMutability": "nonpayable",
					"type": "function"
				},
				{
					"inputs": [
						{
							"internalType": "uint256",
							"name": "",
							"type": "uint256"
						}
					],
					"name": "books",
					"outputs": [
						{
							"internalType": "string",
							"name": "title",
							"type": "string"
						},
						{
							"internalType": "bool",
							"name": "isFiction",
							"type": "bool"
						}
					],
					"stateMutability": "view",
					"type": "function"
				},
				{
					"inputs": [
						{
							"internalType": "uint256",
							"name": "index",
							"type": "uint256"
						}
					],
					"name": "getBook",
					"outputs": [
						{
							"internalType": "string",
							"name": "",
							"type": "string"
						},
						{
							"internalType": "bool",
							"name": "",
							"type": "bool"
						}
					],
					"stateMutability": "view",
					"type": "function"
				},
				{
					"inputs": [
						{
							"internalType": "uint256",
							"name": "index",
							"type": "uint256"
						}
					],
					"name": "toggleIsFiction",
					"outputs": [],
					"stateMutability": "nonpayable",
					"type": "function"
				},
				{
					"inputs": [
						{
							"internalType": "uint256",
							"name": "index",
							"type": "uint256"
						},
						{
							"internalType": "string",
							"name": "newTitle",
							"type": "string"
						}
					],
					"name": "updateBookTitle",
					"outputs": [],
					"stateMutability": "nonpayable",
					"type": "function"
				}
			],
			"devdoc": {
				"kind": "dev",
				"methods": {},
				"version": 1
			},
			"evm": {
				"assembly": "    /* \"bookstruk.sol\":60:1755  contract Library {... */\n  mstore(0x40, 0x80)\n  callvalue\n  dup1\n  iszero\n  tag_1\n  jumpi\n  revert(0x00, 0x00)\ntag_1:\n  pop\n  dataSize(sub_0)\n  dup1\n  dataOffset(sub_0)\n  0x00\n  codecopy\n  0x00\n  return\nstop\n\nsub_0: assembly {\n        /* \"bookstruk.sol\":60:1755  contract Library {... */\n      mstore(0x40, 0x80)\n      callvalue\n      dup1\n      iszero\n      tag_1\n      jumpi\n      revert(0x00, 0x00)\n    tag_1:\n      pop\n      jumpi(tag_2, lt(calldatasize, 0x04))\n      shr(0xe0, calldataload(0x00))\n      dup1\n      0x99855195\n      gt\n      tag_10\n      jumpi\n      dup1\n      0x99855195\n      eq\n      tag_6\n      jumpi\n      dup1\n      0xc4aabd40\n      eq\n      tag_7\n      jumpi\n      dup1\n      0xcb417346\n      eq\n      tag_8\n      jumpi\n      dup1\n      0xe0ff5b8b\n      eq\n      tag_9\n      jumpi\n      jump(tag_2)\n    tag_10:\n      dup1\n      0x4ffb8b85\n      eq\n      tag_3\n      jumpi\n      dup1\n      0x63861f91\n      eq\n      tag_4\n      jumpi\n      dup1\n      0x68744046\n      eq\n      tag_5\n      jumpi\n    tag_2:\n      revert(0x00, 0x00)\n        /* \"bookstruk.sol\":1333:1512  function updateBookTitle(uint index, string memory newTitle) public {... */\n    tag_3:\n      tag_11\n      0x04\n      dup1\n      calldatasize\n      sub\n      dup2\n      add\n      swap1\n      tag_12\n      swap2\n      swap1\n      tag_13\n      jump\t// in\n    tag_12:\n      tag_14\n      jump\t// in\n    tag_11:\n      stop\n        /* \"bookstruk.sol\":1578:1752  function toggleIsFiction(uint index) public {... */\n    tag_4:\n      tag_15\n      0x04\n      dup1\n      calldatasize\n      sub\n      dup2\n      add\n      swap1\n      tag_16\n      swap2\n      swap1\n      tag_17\n      jump\t// in\n    tag_16:\n      tag_18\n      jump\t// in\n    tag_15:\n      stop\n        /* \"bookstruk.sol\":220:239  Book[] public books */\n    tag_5:\n      tag_19\n      0x04\n      dup1\n      calldatasize\n      sub\n      dup2\n      add\n      swap1\n      tag_20\n      swap2\n      swap1\n      tag_17\n      jump\t// in\n    tag_20:\n      tag_21\n      jump\t// in\n    tag_19:\n      mload(0x40)\n      tag_22\n      swap3\n      swap2\n      swap1\n      tag_23\n      jump\t// in\n    tag_22:\n      mload(0x40)\n      dup1\n      swap2\n      sub\n      swap1\n      return\n        /* \"bookstruk.sol\":833:1025  function addBookEmpty(string memory _title) public {... */\n    tag_6:\n      tag_24\n      0x04\n      dup1\n      calldatasize\n      sub\n      dup2\n      add\n      swap1\n      tag_25\n      swap2\n      swap1\n      tag_26\n      jump\t// in\n    tag_25:\n      tag_27\n      jump\t// in\n    tag_24:\n      stop\n        /* \"bookstruk.sol\":541:754  function addBookKeyValue(string memory _title, bool _isFiction) public {... */\n    tag_7:\n      tag_28\n      0x04\n      dup1\n      calldatasize\n      sub\n      dup2\n      add\n      swap1\n      tag_29\n      swap2\n      swap1\n      tag_30\n      jump\t// in\n    tag_29:\n      tag_31\n      jump\t// in\n    tag_28:\n      stop\n        /* \"bookstruk.sol\":307:471  function addBookDirect(string memory _title, bool _isFiction) public {... */\n    tag_8:\n      tag_32\n      0x04\n      dup1\n      calldatasize\n      sub\n      dup2\n      add\n      swap1\n      tag_33\n      swap2\n      swap1\n      tag_30\n      jump\t// in\n    tag_33:\n      tag_34\n      jump\t// in\n    tag_32:\n      stop\n        /* \"bookstruk.sol\":1079:1283  function getBook(uint index) public view returns (string memory, bool) {... */\n    tag_9:\n      tag_35\n      0x04\n      dup1\n      calldatasize\n      sub\n      dup2\n      add\n      swap1\n      tag_36\n      swap2\n      swap1\n      tag_17\n      jump\t// in\n    tag_36:\n      tag_37\n      jump\t// in\n    tag_35:\n      mload(0x40)\n      tag_38\n      swap3\n      swap2\n      swap1\n      tag_23\n      jump\t// in\n    tag_38:\n      mload(0x40)\n      dup1\n      swap2\n      sub\n      swap1\n      return\n        /* \"bookstruk.sol\":1333:1512  function updateBookTitle(uint index, string memory newTitle) public {... */\n    tag_14:\n        /* \"bookstruk.sol\":1428:1433  books */\n      0x00\n        /* \"bookstruk.sol\":1428:1440  books.length */\n      dup1\n      sload\n      swap1\n      pop\n        /* \"bookstruk.sol\":1420:1425  index */\n      dup3\n        /* \"bookstruk.sol\":1420:1440  index < books.length */\n      lt\n        /* \"bookstruk.sol\":1412:1464  require(index < books.length, \"Index out of bounds\") */\n      tag_40\n      jumpi\n      mload(0x40)\n      0x08c379a000000000000000000000000000000000000000000000000000000000\n      dup2\n      mstore\n      0x04\n      add\n      tag_41\n      swap1\n      tag_42\n      jump\t// in\n    tag_41:\n      mload(0x40)\n      dup1\n      swap2\n      sub\n      swap1\n      revert\n    tag_40:\n        /* \"bookstruk.sol\":1496:1504  newTitle */\n      dup1\n        /* \"bookstruk.sol\":1475:1480  books */\n      0x00\n        /* \"bookstruk.sol\":1481:1486  index */\n      dup4\n        /* \"bookstruk.sol\":1475:1487  books[index] */\n      dup2\n      sload\n      dup2\n      lt\n      tag_43\n      jumpi\n      tag_44\n      tag_45\n      jump\t// in\n    tag_44:\n    tag_43:\n      swap1\n      0x00\n      mstore\n      keccak256(0x00, 0x20)\n      swap1\n      0x02\n      mul\n      add\n        /* \"bookstruk.sol\":1475:1493  books[index].title */\n      0x00\n      add\n        /* \"bookstruk.sol\":1475:1504  books[index].title = newTitle */\n      swap1\n      dup2\n      tag_47\n      swap2\n      swap1\n      tag_48\n      jump\t// in\n    tag_47:\n      pop\n        /* \"bookstruk.sol\":1333:1512  function updateBookTitle(uint index, string memory newTitle) public {... */\n      pop\n      pop\n      jump\t// out\n        /* \"bookstruk.sol\":1578:1752  function toggleIsFiction(uint index) public {... */\n    tag_18:\n        /* \"bookstruk.sol\":1649:1654  books */\n      0x00\n        /* \"bookstruk.sol\":1649:1661  books.length */\n      dup1\n      sload\n      swap1\n      pop\n        /* \"bookstruk.sol\":1641:1646  index */\n      dup2\n        /* \"bookstruk.sol\":1641:1661  index < books.length */\n      lt\n        /* \"bookstruk.sol\":1633:1685  require(index < books.length, \"Index out of bounds\") */\n      tag_50\n      jumpi\n      mload(0x40)\n      0x08c379a000000000000000000000000000000000000000000000000000000000\n      dup2\n      mstore\n      0x04\n      add\n      tag_51\n      swap1\n      tag_42\n      jump\t// in\n    tag_51:\n      mload(0x40)\n      dup1\n      swap2\n      sub\n      swap1\n      revert\n    tag_50:\n        /* \"bookstruk.sol\":1722:1727  books */\n      0x00\n        /* \"bookstruk.sol\":1728:1733  index */\n      dup2\n        /* \"bookstruk.sol\":1722:1734  books[index] */\n      dup2\n      sload\n      dup2\n      lt\n      tag_52\n      jumpi\n      tag_53\n      tag_45\n      jump\t// in\n    tag_53:\n    tag_52:\n      swap1\n      0x00\n      mstore\n      keccak256(0x00, 0x20)\n      swap1\n      0x02\n      mul\n      add\n        /* \"bookstruk.sol\":1722:1744  books[index].isFiction */\n      0x01\n      add\n      0x00\n      swap1\n      sload\n      swap1\n      0x0100\n      exp\n      swap1\n      div\n      0xff\n      and\n        /* \"bookstruk.sol\":1721:1744  !books[index].isFiction */\n      iszero\n        /* \"bookstruk.sol\":1696:1701  books */\n      0x00\n        /* \"bookstruk.sol\":1702:1707  index */\n      dup3\n        /* \"bookstruk.sol\":1696:1708  books[index] */\n      dup2\n      sload\n      dup2\n      lt\n      tag_55\n      jumpi\n      tag_56\n      tag_45\n      jump\t// in\n    tag_56:\n    tag_55:\n      swap1\n      0x00\n      mstore\n      keccak256(0x00, 0x20)\n      swap1\n      0x02\n      mul\n      add\n        /* \"bookstruk.sol\":1696:1718  books[index].isFiction */\n      0x01\n      add\n      0x00\n        /* \"bookstruk.sol\":1696:1744  books[index].isFiction = !books[index].isFiction */\n      0x0100\n      exp\n      dup2\n      sload\n      dup2\n      0xff\n      mul\n      not\n      and\n      swap1\n      dup4\n      iszero\n      iszero\n      mul\n      or\n      swap1\n      sstore\n      pop\n        /* \"bookstruk.sol\":1578:1752  function toggleIsFiction(uint index) public {... */\n      pop\n      jump\t// out\n        /* \"bookstruk.sol\":220:239  Book[] public books */\n    tag_21:\n      0x00\n      dup2\n      dup2\n      sload\n      dup2\n      lt\n      tag_58\n      jumpi\n      0x00\n      dup1\n      revert\n    tag_58:\n      swap1\n      0x00\n      mstore\n      keccak256(0x00, 0x20)\n      swap1\n      0x02\n      mul\n      add\n      0x00\n      swap2\n      pop\n      swap1\n      pop\n      dup1\n      0x00\n      add\n      dup1\n      sload\n      tag_60\n      swap1\n      tag_61\n      jump\t// in\n    tag_60:\n      dup1\n      0x1f\n      add\n      0x20\n      dup1\n      swap2\n      div\n      mul\n      0x20\n      add\n      mload(0x40)\n      swap1\n      dup2\n      add\n      0x40\n      mstore\n      dup1\n      swap3\n      swap2\n      swap1\n      dup2\n      dup2\n      mstore\n      0x20\n      add\n      dup3\n      dup1\n      sload\n      tag_62\n      swap1\n      tag_61\n      jump\t// in\n    tag_62:\n      dup1\n      iszero\n      tag_63\n      jumpi\n      dup1\n      0x1f\n      lt\n      tag_64\n      jumpi\n      0x0100\n      dup1\n      dup4\n      sload\n      div\n      mul\n      dup4\n      mstore\n      swap2\n      0x20\n      add\n      swap2\n      jump(tag_63)\n    tag_64:\n      dup3\n      add\n      swap2\n      swap1\n      0x00\n      mstore\n      keccak256(0x00, 0x20)\n      swap1\n    tag_65:\n      dup2\n      sload\n      dup2\n      mstore\n      swap1\n      0x01\n      add\n      swap1\n      0x20\n      add\n      dup1\n      dup4\n      gt\n      tag_65\n      jumpi\n      dup3\n      swap1\n      sub\n      0x1f\n      and\n      dup3\n      add\n      swap2\n    tag_63:\n      pop\n      pop\n      pop\n      pop\n      pop\n      swap1\n      dup1\n      0x01\n      add\n      0x00\n      swap1\n      sload\n      swap1\n      0x0100\n      exp\n      swap1\n      div\n      0xff\n      and\n      swap1\n      pop\n      dup3\n      jump\t// out\n        /* \"bookstruk.sol\":833:1025  function addBookEmpty(string memory _title) public {... */\n    tag_27:\n        /* \"bookstruk.sol\":895:914  Book memory newBook */\n      tag_67\n      tag_68\n      jump\t// in\n    tag_67:\n        /* \"bookstruk.sol\":941:947  _title */\n      dup2\n        /* \"bookstruk.sol\":925:932  newBook */\n      dup2\n        /* \"bookstruk.sol\":925:938  newBook.title */\n      0x00\n      add\n        /* \"bookstruk.sol\":925:947  newBook.title = _title */\n      dup2\n      swap1\n      mstore\n      pop\n        /* \"bookstruk.sol\":998:1003  books */\n      0x00\n        /* \"bookstruk.sol\":1009:1016  newBook */\n      dup2\n        /* \"bookstruk.sol\":998:1017  books.push(newBook) */\n      swap1\n      dup1\n      0x01\n      dup2\n      sload\n      add\n      dup1\n      dup3\n      sstore\n      dup1\n      swap2\n      pop\n      pop\n      0x01\n      swap1\n      sub\n      swap1\n      0x00\n      mstore\n      keccak256(0x00, 0x20)\n      swap1\n      0x02\n      mul\n      add\n      0x00\n      swap1\n      swap2\n      swap1\n      swap2\n      swap1\n      swap2\n      pop\n      0x00\n      dup3\n      add\n      mload\n      dup2\n      0x00\n      add\n      swap1\n      dup2\n      tag_70\n      swap2\n      swap1\n      tag_48\n      jump\t// in\n    tag_70:\n      pop\n      0x20\n      dup3\n      add\n      mload\n      dup2\n      0x01\n      add\n      exp(0x0100, 0x00)\n      dup2\n      sload\n      dup2\n      0xff\n      mul\n      not\n      and\n      swap1\n      dup4\n      iszero\n      iszero\n      mul\n      or\n      swap1\n      sstore\n      pop\n      pop\n      pop\n        /* \"bookstruk.sol\":884:1025  {... */\n      pop\n        /* \"bookstruk.sol\":833:1025  function addBookEmpty(string memory _title) public {... */\n      pop\n      jump\t// out\n        /* \"bookstruk.sol\":541:754  function addBookKeyValue(string memory _title, bool _isFiction) public {... */\n    tag_31:\n        /* \"bookstruk.sol\":623:642  Book memory newBook */\n      tag_72\n      tag_68\n      jump\t// in\n    tag_72:\n        /* \"bookstruk.sol\":669:675  _title */\n      dup3\n        /* \"bookstruk.sol\":653:660  newBook */\n      dup2\n        /* \"bookstruk.sol\":653:666  newBook.title */\n      0x00\n      add\n        /* \"bookstruk.sol\":653:675  newBook.title = _title */\n      dup2\n      swap1\n      mstore\n      pop\n        /* \"bookstruk.sol\":706:716  _isFiction */\n      dup2\n        /* \"bookstruk.sol\":686:693  newBook */\n      dup2\n        /* \"bookstruk.sol\":686:703  newBook.isFiction */\n      0x20\n      add\n        /* \"bookstruk.sol\":686:716  newBook.isFiction = _isFiction */\n      swap1\n      iszero\n      iszero\n      swap1\n      dup2\n      iszero\n      iszero\n      dup2\n      mstore\n      pop\n      pop\n        /* \"bookstruk.sol\":727:732  books */\n      0x00\n        /* \"bookstruk.sol\":738:745  newBook */\n      dup2\n        /* \"bookstruk.sol\":727:746  books.push(newBook) */\n      swap1\n      dup1\n      0x01\n      dup2\n      sload\n      add\n      dup1\n      dup3\n      sstore\n      dup1\n      swap2\n      pop\n      pop\n      0x01\n      swap1\n      sub\n      swap1\n      0x00\n      mstore\n      keccak256(0x00, 0x20)\n      swap1\n      0x02\n      mul\n      add\n      0x00\n      swap1\n      swap2\n      swap1\n      swap2\n      swap1\n      swap2\n      pop\n      0x00\n      dup3\n      add\n      mload\n      dup2\n      0x00\n      add\n      swap1\n      dup2\n      tag_74\n      swap2\n      swap1\n      tag_48\n      jump\t// in\n    tag_74:\n      pop\n      0x20\n      dup3\n      add\n      mload\n      dup2\n      0x01\n      add\n      exp(0x0100, 0x00)\n      dup2\n      sload\n      dup2\n      0xff\n      mul\n      not\n      and\n      swap1\n      dup4\n      iszero\n      iszero\n      mul\n      or\n      swap1\n      sstore\n      pop\n      pop\n      pop\n        /* \"bookstruk.sol\":612:754  {... */\n      pop\n        /* \"bookstruk.sol\":541:754  function addBookKeyValue(string memory _title, bool _isFiction) public {... */\n      pop\n      pop\n      jump\t// out\n        /* \"bookstruk.sol\":307:471  function addBookDirect(string memory _title, bool _isFiction) public {... */\n    tag_34:\n        /* \"bookstruk.sol\":387:406  Book memory newBook */\n      0x00\n        /* \"bookstruk.sol\":409:433  Book(_title, _isFiction) */\n      mload(0x40)\n      dup1\n      0x40\n      add\n      0x40\n      mstore\n      dup1\n        /* \"bookstruk.sol\":414:420  _title */\n      dup5\n        /* \"bookstruk.sol\":409:433  Book(_title, _isFiction) */\n      dup2\n      mstore\n      0x20\n      add\n        /* \"bookstruk.sol\":422:432  _isFiction */\n      dup4\n        /* \"bookstruk.sol\":409:433  Book(_title, _isFiction) */\n      iszero\n      iszero\n      dup2\n      mstore\n      pop\n        /* \"bookstruk.sol\":387:433  Book memory newBook = Book(_title, _isFiction) */\n      swap1\n      pop\n        /* \"bookstruk.sol\":444:449  books */\n      0x00\n        /* \"bookstruk.sol\":455:462  newBook */\n      dup2\n        /* \"bookstruk.sol\":444:463  books.push(newBook) */\n      swap1\n      dup1\n      0x01\n      dup2\n      sload\n      add\n      dup1\n      dup3\n      sstore\n      dup1\n      swap2\n      pop\n      pop\n      0x01\n      swap1\n      sub\n      swap1\n      0x00\n      mstore\n      keccak256(0x00, 0x20)\n      swap1\n      0x02\n      mul\n      add\n      0x00\n      swap1\n      swap2\n      swap1\n      swap2\n      swap1\n      swap2\n      pop\n      0x00\n      dup3\n      add\n      mload\n      dup2\n      0x00\n      add\n      swap1\n      dup2\n      tag_77\n      swap2\n      swap1\n      tag_48\n      jump\t// in\n    tag_77:\n      pop\n      0x20\n      dup3\n      add\n      mload\n      dup2\n      0x01\n      add\n      exp(0x0100, 0x00)\n      dup2\n      sload\n      dup2\n      0xff\n      mul\n      not\n      and\n      swap1\n      dup4\n      iszero\n      iszero\n      mul\n      or\n      swap1\n      sstore\n      pop\n      pop\n      pop\n        /* \"bookstruk.sol\":376:471  {... */\n      pop\n        /* \"bookstruk.sol\":307:471  function addBookDirect(string memory _title, bool _isFiction) public {... */\n      pop\n      pop\n      jump\t// out\n        /* \"bookstruk.sol\":1079:1283  function getBook(uint index) public view returns (string memory, bool) {... */\n    tag_37:\n        /* \"bookstruk.sol\":1129:1142  string memory */\n      0x60\n        /* \"bookstruk.sol\":1144:1148  bool */\n      0x00\n        /* \"bookstruk.sol\":1177:1182  books */\n      0x00\n        /* \"bookstruk.sol\":1177:1189  books.length */\n      dup1\n      sload\n      swap1\n      pop\n        /* \"bookstruk.sol\":1169:1174  index */\n      dup4\n        /* \"bookstruk.sol\":1169:1189  index < books.length */\n      lt\n        /* \"bookstruk.sol\":1161:1213  require(index < books.length, \"Index out of bounds\") */\n      tag_79\n      jumpi\n      mload(0x40)\n      0x08c379a000000000000000000000000000000000000000000000000000000000\n      dup2\n      mstore\n      0x04\n      add\n      tag_80\n      swap1\n      tag_42\n      jump\t// in\n    tag_80:\n      mload(0x40)\n      dup1\n      swap2\n      sub\n      swap1\n      revert\n    tag_79:\n        /* \"bookstruk.sol\":1232:1237  books */\n      0x00\n        /* \"bookstruk.sol\":1238:1243  index */\n      dup4\n        /* \"bookstruk.sol\":1232:1244  books[index] */\n      dup2\n      sload\n      dup2\n      lt\n      tag_81\n      jumpi\n      tag_82\n      tag_45\n      jump\t// in\n    tag_82:\n    tag_81:\n      swap1\n      0x00\n      mstore\n      keccak256(0x00, 0x20)\n      swap1\n      0x02\n      mul\n      add\n        /* \"bookstruk.sol\":1232:1250  books[index].title */\n      0x00\n      add\n        /* \"bookstruk.sol\":1252:1257  books */\n      0x00\n        /* \"bookstruk.sol\":1258:1263  index */\n      dup5\n        /* \"bookstruk.sol\":1252:1264  books[index] */\n      dup2\n      sload\n      dup2\n      lt\n      tag_84\n      jumpi\n      tag_85\n      tag_45\n      jump\t// in\n    tag_85:\n    tag_84:\n      swap1\n      0x00\n      mstore\n      keccak256(0x00, 0x20)\n      swap1\n      0x02\n      mul\n      add\n        /* \"bookstruk.sol\":1252:1274  books[index].isFiction */\n      0x01\n      add\n      0x00\n      swap1\n      sload\n      swap1\n      0x0100\n      exp\n      swap1\n      div\n      0xff\n      and\n        /* \"bookstruk.sol\":1224:1275  return (books[index].title, books[index].isFiction) */\n      dup2\n      dup1\n      sload\n      tag_87\n      swap1\n      tag_61\n      jump\t// in\n    tag_87:\n      dup1\n      0x1f\n      add\n      0x20\n      dup1\n      swap2\n      div\n      mul\n      0x20\n      add\n      mload(0x40)\n      swap1\n      dup2\n      add\n      0x40\n      mstore\n      dup1\n      swap3\n      swap2\n      swap1\n      dup2\n      dup2\n      mstore\n      0x20\n      add\n      dup3\n      dup1\n      sload\n      tag_88\n      swap1\n      tag_61\n      jump\t// in\n    tag_88:\n      dup1\n      iszero\n      tag_89\n      jumpi\n      dup1\n      0x1f\n      lt\n      tag_90\n      jumpi\n      0x0100\n      dup1\n      dup4\n      sload\n      div\n      mul\n      dup4\n      mstore\n      swap2\n      0x20\n      add\n      swap2\n      jump(tag_89)\n    tag_90:\n      dup3\n      add\n      swap2\n      swap1\n      0x00\n      mstore\n      keccak256(0x00, 0x20)\n      swap1\n    tag_91:\n      dup2\n      sload\n      dup2\n      mstore\n      swap1\n      0x01\n      add\n      swap1\n      0x20\n      add\n      dup1\n      dup4\n      gt\n      tag_91\n      jumpi\n      dup3\n      swap1\n      sub\n      0x1f\n      and\n      dup3\n      add\n      swap2\n    tag_89:\n      pop\n      pop\n      pop\n      pop\n      pop\n      swap2\n      pop\n      swap2\n      pop\n      swap2\n      pop\n        /* \"bookstruk.sol\":1079:1283  function getBook(uint index) public view returns (string memory, bool) {... */\n      swap2\n      pop\n      swap2\n      jump\t// out\n    tag_68:\n      mload(0x40)\n      dup1\n      0x40\n      add\n      0x40\n      mstore\n      dup1\n      0x60\n      dup2\n      mstore\n      0x20\n      add\n      iszero(iszero(0x00))\n      dup2\n      mstore\n      pop\n      swap1\n      jump\t// out\n        /* \"#utility.yul\":7:82   */\n    tag_92:\n        /* \"#utility.yul\":40:46   */\n      0x00\n        /* \"#utility.yul\":73:75   */\n      0x40\n        /* \"#utility.yul\":67:76   */\n      mload\n        /* \"#utility.yul\":57:76   */\n      swap1\n      pop\n        /* \"#utility.yul\":7:82   */\n      swap1\n      jump\t// out\n        /* \"#utility.yul\":88:205   */\n    tag_93:\n        /* \"#utility.yul\":197:198   */\n      0x00\n        /* \"#utility.yul\":194:195   */\n      0x00\n        /* \"#utility.yul\":187:199   */\n      revert\n        /* \"#utility.yul\":211:328   */\n    tag_94:\n        /* \"#utility.yul\":320:321   */\n      0x00\n        /* \"#utility.yul\":317:318   */\n      0x00\n        /* \"#utility.yul\":310:322   */\n      revert\n        /* \"#utility.yul\":334:411   */\n    tag_95:\n        /* \"#utility.yul\":371:378   */\n      0x00\n        /* \"#utility.yul\":400:405   */\n      dup2\n        /* \"#utility.yul\":389:405   */\n      swap1\n      pop\n        /* \"#utility.yul\":334:411   */\n      swap2\n      swap1\n      pop\n      jump\t// out\n        /* \"#utility.yul\":417:539   */\n    tag_96:\n        /* \"#utility.yul\":490:514   */\n      tag_140\n        /* \"#utility.yul\":508:513   */\n      dup2\n        /* \"#utility.yul\":490:514   */\n      tag_95\n      jump\t// in\n    tag_140:\n        /* \"#utility.yul\":483:488   */\n      dup2\n        /* \"#utility.yul\":480:515   */\n      eq\n        /* \"#utility.yul\":470:533   */\n      tag_141\n      jumpi\n        /* \"#utility.yul\":529:530   */\n      0x00\n        /* \"#utility.yul\":526:527   */\n      0x00\n        /* \"#utility.yul\":519:531   */\n      revert\n        /* \"#utility.yul\":470:533   */\n    tag_141:\n        /* \"#utility.yul\":417:539   */\n      pop\n      jump\t// out\n        /* \"#utility.yul\":545:684   */\n    tag_97:\n        /* \"#utility.yul\":591:596   */\n      0x00\n        /* \"#utility.yul\":629:635   */\n      dup2\n        /* \"#utility.yul\":616:636   */\n      calldataload\n        /* \"#utility.yul\":607:636   */\n      swap1\n      pop\n        /* \"#utility.yul\":645:678   */\n      tag_143\n        /* \"#utility.yul\":672:677   */\n      dup2\n        /* \"#utility.yul\":645:678   */\n      tag_96\n      jump\t// in\n    tag_143:\n        /* \"#utility.yul\":545:684   */\n      swap3\n      swap2\n      pop\n      pop\n      jump\t// out\n        /* \"#utility.yul\":690:807   */\n    tag_98:\n        /* \"#utility.yul\":799:800   */\n      0x00\n        /* \"#utility.yul\":796:797   */\n      0x00\n        /* \"#utility.yul\":789:801   */\n      revert\n        /* \"#utility.yul\":813:930   */\n    tag_99:\n        /* \"#utility.yul\":922:923   */\n      0x00\n        /* \"#utility.yul\":919:920   */\n      0x00\n        /* \"#utility.yul\":912:924   */\n      revert\n        /* \"#utility.yul\":936:1038   */\n    tag_100:\n        /* \"#utility.yul\":977:983   */\n      0x00\n        /* \"#utility.yul\":1028:1030   */\n      0x1f\n        /* \"#utility.yul\":1024:1031   */\n      not\n        /* \"#utility.yul\":1019:1021   */\n      0x1f\n        /* \"#utility.yul\":1012:1017   */\n      dup4\n        /* \"#utility.yul\":1008:1022   */\n      add\n        /* \"#utility.yul\":1004:1032   */\n      and\n        /* \"#utility.yul\":994:1032   */\n      swap1\n      pop\n        /* \"#utility.yul\":936:1038   */\n      swap2\n      swap1\n      pop\n      jump\t// out\n        /* \"#utility.yul\":1044:1224   */\n    tag_101:\n        /* \"#utility.yul\":1092:1169   */\n      0x4e487b7100000000000000000000000000000000000000000000000000000000\n        /* \"#utility.yul\":1089:1090   */\n      0x00\n        /* \"#utility.yul\":1082:1170   */\n      mstore\n        /* \"#utility.yul\":1189:1193   */\n      0x41\n        /* \"#utility.yul\":1186:1187   */\n      0x04\n        /* \"#utility.yul\":1179:1194   */\n      mstore\n        /* \"#utility.yul\":1213:1217   */\n      0x24\n        /* \"#utility.yul\":1210:1211   */\n      0x00\n        /* \"#utility.yul\":1203:1218   */\n      revert\n        /* \"#utility.yul\":1230:1511   */\n    tag_102:\n        /* \"#utility.yul\":1313:1340   */\n      tag_149\n        /* \"#utility.yul\":1335:1339   */\n      dup3\n        /* \"#utility.yul\":1313:1340   */\n      tag_100\n      jump\t// in\n    tag_149:\n        /* \"#utility.yul\":1305:1311   */\n      dup2\n        /* \"#utility.yul\":1301:1341   */\n      add\n        /* \"#utility.yul\":1443:1449   */\n      dup2\n        /* \"#utility.yul\":1431:1441   */\n      dup2\n        /* \"#utility.yul\":1428:1450   */\n      lt\n        /* \"#utility.yul\":1407:1425   */\n      0xffffffffffffffff\n        /* \"#utility.yul\":1395:1405   */\n      dup3\n        /* \"#utility.yul\":1392:1426   */\n      gt\n        /* \"#utility.yul\":1389:1451   */\n      or\n        /* \"#utility.yul\":1386:1474   */\n      iszero\n      tag_150\n      jumpi\n        /* \"#utility.yul\":1454:1472   */\n      tag_151\n      tag_101\n      jump\t// in\n    tag_151:\n        /* \"#utility.yul\":1386:1474   */\n    tag_150:\n        /* \"#utility.yul\":1494:1504   */\n      dup1\n        /* \"#utility.yul\":1490:1492   */\n      0x40\n        /* \"#utility.yul\":1483:1505   */\n      mstore\n        /* \"#utility.yul\":1273:1511   */\n      pop\n        /* \"#utility.yul\":1230:1511   */\n      pop\n      pop\n      jump\t// out\n        /* \"#utility.yul\":1517:1646   */\n    tag_103:\n        /* \"#utility.yul\":1551:1557   */\n      0x00\n        /* \"#utility.yul\":1578:1598   */\n      tag_153\n      tag_92\n      jump\t// in\n    tag_153:\n        /* \"#utility.yul\":1568:1598   */\n      swap1\n      pop\n        /* \"#utility.yul\":1607:1640   */\n      tag_154\n        /* \"#utility.yul\":1635:1639   */\n      dup3\n        /* \"#utility.yul\":1627:1633   */\n      dup3\n        /* \"#utility.yul\":1607:1640   */\n      tag_102\n      jump\t// in\n    tag_154:\n        /* \"#utility.yul\":1517:1646   */\n      swap2\n      swap1\n      pop\n      jump\t// out\n        /* \"#utility.yul\":1652:1960   */\n    tag_104:\n        /* \"#utility.yul\":1714:1718   */\n      0x00\n        /* \"#utility.yul\":1804:1822   */\n      0xffffffffffffffff\n        /* \"#utility.yul\":1796:1802   */\n      dup3\n        /* \"#utility.yul\":1793:1823   */\n      gt\n        /* \"#utility.yul\":1790:1846   */\n      iszero\n      tag_156\n      jumpi\n        /* \"#utility.yul\":1826:1844   */\n      tag_157\n      tag_101\n      jump\t// in\n    tag_157:\n        /* \"#utility.yul\":1790:1846   */\n    tag_156:\n        /* \"#utility.yul\":1864:1893   */\n      tag_158\n        /* \"#utility.yul\":1886:1892   */\n      dup3\n        /* \"#utility.yul\":1864:1893   */\n      tag_100\n      jump\t// in\n    tag_158:\n        /* \"#utility.yul\":1856:1893   */\n      swap1\n      pop\n        /* \"#utility.yul\":1948:1952   */\n      0x20\n        /* \"#utility.yul\":1942:1946   */\n      dup2\n        /* \"#utility.yul\":1938:1953   */\n      add\n        /* \"#utility.yul\":1930:1953   */\n      swap1\n      pop\n        /* \"#utility.yul\":1652:1960   */\n      swap2\n      swap1\n      pop\n      jump\t// out\n        /* \"#utility.yul\":1966:2114   */\n    tag_105:\n        /* \"#utility.yul\":2064:2070   */\n      dup3\n        /* \"#utility.yul\":2059:2062   */\n      dup2\n        /* \"#utility.yul\":2054:2057   */\n      dup4\n        /* \"#utility.yul\":2041:2071   */\n      calldatacopy\n        /* \"#utility.yul\":2105:2106   */\n      0x00\n        /* \"#utility.yul\":2096:2102   */\n      dup4\n        /* \"#utility.yul\":2091:2094   */\n      dup4\n        /* \"#utility.yul\":2087:2103   */\n      add\n        /* \"#utility.yul\":2080:2107   */\n      mstore\n        /* \"#utility.yul\":1966:2114   */\n      pop\n      pop\n      pop\n      jump\t// out\n        /* \"#utility.yul\":2120:2545   */\n    tag_106:\n        /* \"#utility.yul\":2198:2203   */\n      0x00\n        /* \"#utility.yul\":2223:2289   */\n      tag_161\n        /* \"#utility.yul\":2239:2288   */\n      tag_162\n        /* \"#utility.yul\":2281:2287   */\n      dup5\n        /* \"#utility.yul\":2239:2288   */\n      tag_104\n      jump\t// in\n    tag_162:\n        /* \"#utility.yul\":2223:2289   */\n      tag_103\n      jump\t// in\n    tag_161:\n        /* \"#utility.yul\":2214:2289   */\n      swap1\n      pop\n        /* \"#utility.yul\":2312:2318   */\n      dup3\n        /* \"#utility.yul\":2305:2310   */\n      dup2\n        /* \"#utility.yul\":2298:2319   */\n      mstore\n        /* \"#utility.yul\":2350:2354   */\n      0x20\n        /* \"#utility.yul\":2343:2348   */\n      dup2\n        /* \"#utility.yul\":2339:2355   */\n      add\n        /* \"#utility.yul\":2388:2391   */\n      dup5\n        /* \"#utility.yul\":2379:2385   */\n      dup5\n        /* \"#utility.yul\":2374:2377   */\n      dup5\n        /* \"#utility.yul\":2370:2386   */\n      add\n        /* \"#utility.yul\":2367:2392   */\n      gt\n        /* \"#utility.yul\":2364:2476   */\n      iszero\n      tag_163\n      jumpi\n        /* \"#utility.yul\":2395:2474   */\n      tag_164\n      tag_99\n      jump\t// in\n    tag_164:\n        /* \"#utility.yul\":2364:2476   */\n    tag_163:\n        /* \"#utility.yul\":2485:2539   */\n      tag_165\n        /* \"#utility.yul\":2532:2538   */\n      dup5\n        /* \"#utility.yul\":2527:2530   */\n      dup3\n        /* \"#utility.yul\":2522:2525   */\n      dup6\n        /* \"#utility.yul\":2485:2539   */\n      tag_105\n      jump\t// in\n    tag_165:\n        /* \"#utility.yul\":2204:2545   */\n      pop\n        /* \"#utility.yul\":2120:2545   */\n      swap4\n      swap3\n      pop\n      pop\n      pop\n      jump\t// out\n        /* \"#utility.yul\":2565:2905   */\n    tag_107:\n        /* \"#utility.yul\":2621:2626   */\n      0x00\n        /* \"#utility.yul\":2670:2673   */\n      dup3\n        /* \"#utility.yul\":2663:2667   */\n      0x1f\n        /* \"#utility.yul\":2655:2661   */\n      dup4\n        /* \"#utility.yul\":2651:2668   */\n      add\n        /* \"#utility.yul\":2647:2674   */\n      slt\n        /* \"#utility.yul\":2637:2759   */\n      tag_167\n      jumpi\n        /* \"#utility.yul\":2678:2757   */\n      tag_168\n      tag_98\n      jump\t// in\n    tag_168:\n        /* \"#utility.yul\":2637:2759   */\n    tag_167:\n        /* \"#utility.yul\":2795:2801   */\n      dup2\n        /* \"#utility.yul\":2782:2802   */\n      calldataload\n        /* \"#utility.yul\":2820:2899   */\n      tag_169\n        /* \"#utility.yul\":2895:2898   */\n      dup5\n        /* \"#utility.yul\":2887:2893   */\n      dup3\n        /* \"#utility.yul\":2880:2884   */\n      0x20\n        /* \"#utility.yul\":2872:2878   */\n      dup7\n        /* \"#utility.yul\":2868:2885   */\n      add\n        /* \"#utility.yul\":2820:2899   */\n      tag_106\n      jump\t// in\n    tag_169:\n        /* \"#utility.yul\":2811:2899   */\n      swap2\n      pop\n        /* \"#utility.yul\":2627:2905   */\n      pop\n        /* \"#utility.yul\":2565:2905   */\n      swap3\n      swap2\n      pop\n      pop\n      jump\t// out\n        /* \"#utility.yul\":2911:3565   */\n    tag_13:\n        /* \"#utility.yul\":2989:2995   */\n      0x00\n        /* \"#utility.yul\":2997:3003   */\n      0x00\n        /* \"#utility.yul\":3046:3048   */\n      0x40\n        /* \"#utility.yul\":3034:3043   */\n      dup4\n        /* \"#utility.yul\":3025:3032   */\n      dup6\n        /* \"#utility.yul\":3021:3044   */\n      sub\n        /* \"#utility.yul\":3017:3049   */\n      slt\n        /* \"#utility.yul\":3014:3133   */\n      iszero\n      tag_171\n      jumpi\n        /* \"#utility.yul\":3052:3131   */\n      tag_172\n      tag_93\n      jump\t// in\n    tag_172:\n        /* \"#utility.yul\":3014:3133   */\n    tag_171:\n        /* \"#utility.yul\":3172:3173   */\n      0x00\n        /* \"#utility.yul\":3197:3250   */\n      tag_173\n        /* \"#utility.yul\":3242:3249   */\n      dup6\n        /* \"#utility.yul\":3233:3239   */\n      dup3\n        /* \"#utility.yul\":3222:3231   */\n      dup7\n        /* \"#utility.yul\":3218:3240   */\n      add\n        /* \"#utility.yul\":3197:3250   */\n      tag_97\n      jump\t// in\n    tag_173:\n        /* \"#utility.yul\":3187:3250   */\n      swap3\n      pop\n        /* \"#utility.yul\":3143:3260   */\n      pop\n        /* \"#utility.yul\":3327:3329   */\n      0x20\n        /* \"#utility.yul\":3316:3325   */\n      dup4\n        /* \"#utility.yul\":3312:3330   */\n      add\n        /* \"#utility.yul\":3299:3331   */\n      calldataload\n        /* \"#utility.yul\":3358:3376   */\n      0xffffffffffffffff\n        /* \"#utility.yul\":3350:3356   */\n      dup2\n        /* \"#utility.yul\":3347:3377   */\n      gt\n        /* \"#utility.yul\":3344:3461   */\n      iszero\n      tag_174\n      jumpi\n        /* \"#utility.yul\":3380:3459   */\n      tag_175\n      tag_94\n      jump\t// in\n    tag_175:\n        /* \"#utility.yul\":3344:3461   */\n    tag_174:\n        /* \"#utility.yul\":3485:3548   */\n      tag_176\n        /* \"#utility.yul\":3540:3547   */\n      dup6\n        /* \"#utility.yul\":3531:3537   */\n      dup3\n        /* \"#utility.yul\":3520:3529   */\n      dup7\n        /* \"#utility.yul\":3516:3538   */\n      add\n        /* \"#utility.yul\":3485:3548   */\n      tag_107\n      jump\t// in\n    tag_176:\n        /* \"#utility.yul\":3475:3548   */\n      swap2\n      pop\n        /* \"#utility.yul\":3270:3558   */\n      pop\n        /* \"#utility.yul\":2911:3565   */\n      swap3\n      pop\n      swap3\n      swap1\n      pop\n      jump\t// out\n        /* \"#utility.yul\":3571:3900   */\n    tag_17:\n        /* \"#utility.yul\":3630:3636   */\n      0x00\n        /* \"#utility.yul\":3679:3681   */\n      0x20\n        /* \"#utility.yul\":3667:3676   */\n      dup3\n        /* \"#utility.yul\":3658:3665   */\n      dup5\n        /* \"#utility.yul\":3654:3677   */\n      sub\n        /* \"#utility.yul\":3650:3682   */\n      slt\n        /* \"#utility.yul\":3647:3766   */\n      iszero\n      tag_178\n      jumpi\n        /* \"#utility.yul\":3685:3764   */\n      tag_179\n      tag_93\n      jump\t// in\n    tag_179:\n        /* \"#utility.yul\":3647:3766   */\n    tag_178:\n        /* \"#utility.yul\":3805:3806   */\n      0x00\n        /* \"#utility.yul\":3830:3883   */\n      tag_180\n        /* \"#utility.yul\":3875:3882   */\n      dup5\n        /* \"#utility.yul\":3866:3872   */\n      dup3\n        /* \"#utility.yul\":3855:3864   */\n      dup6\n        /* \"#utility.yul\":3851:3873   */\n      add\n        /* \"#utility.yul\":3830:3883   */\n      tag_97\n      jump\t// in\n    tag_180:\n        /* \"#utility.yul\":3820:3883   */\n      swap2\n      pop\n        /* \"#utility.yul\":3776:3893   */\n      pop\n        /* \"#utility.yul\":3571:3900   */\n      swap3\n      swap2\n      pop\n      pop\n      jump\t// out\n        /* \"#utility.yul\":3906:4005   */\n    tag_108:\n        /* \"#utility.yul\":3958:3964   */\n      0x00\n        /* \"#utility.yul\":3992:3997   */\n      dup2\n        /* \"#utility.yul\":3986:3998   */\n      mload\n        /* \"#utility.yul\":3976:3998   */\n      swap1\n      pop\n        /* \"#utility.yul\":3906:4005   */\n      swap2\n      swap1\n      pop\n      jump\t// out\n        /* \"#utility.yul\":4011:4180   */\n    tag_109:\n        /* \"#utility.yul\":4095:4106   */\n      0x00\n        /* \"#utility.yul\":4129:4135   */\n      dup3\n        /* \"#utility.yul\":4124:4127   */\n      dup3\n        /* \"#utility.yul\":4117:4136   */\n      mstore\n        /* \"#utility.yul\":4169:4173   */\n      0x20\n        /* \"#utility.yul\":4164:4167   */\n      dup3\n        /* \"#utility.yul\":4160:4174   */\n      add\n        /* \"#utility.yul\":4145:4174   */\n      swap1\n      pop\n        /* \"#utility.yul\":4011:4180   */\n      swap3\n      swap2\n      pop\n      pop\n      jump\t// out\n        /* \"#utility.yul\":4186:4325   */\n    tag_110:\n        /* \"#utility.yul\":4275:4281   */\n      dup3\n        /* \"#utility.yul\":4270:4273   */\n      dup2\n        /* \"#utility.yul\":4265:4268   */\n      dup4\n        /* \"#utility.yul\":4259:4282   */\n      mcopy\n        /* \"#utility.yul\":4316:4317   */\n      0x00\n        /* \"#utility.yul\":4307:4313   */\n      dup4\n        /* \"#utility.yul\":4302:4305   */\n      dup4\n        /* \"#utility.yul\":4298:4314   */\n      add\n        /* \"#utility.yul\":4291:4318   */\n      mstore\n        /* \"#utility.yul\":4186:4325   */\n      pop\n      pop\n      pop\n      jump\t// out\n        /* \"#utility.yul\":4331:4708   */\n    tag_111:\n        /* \"#utility.yul\":4419:4422   */\n      0x00\n        /* \"#utility.yul\":4447:4486   */\n      tag_185\n        /* \"#utility.yul\":4480:4485   */\n      dup3\n        /* \"#utility.yul\":4447:4486   */\n      tag_108\n      jump\t// in\n    tag_185:\n        /* \"#utility.yul\":4502:4573   */\n      tag_186\n        /* \"#utility.yul\":4566:4572   */\n      dup2\n        /* \"#utility.yul\":4561:4564   */\n      dup6\n        /* \"#utility.yul\":4502:4573   */\n      tag_109\n      jump\t// in\n    tag_186:\n        /* \"#utility.yul\":4495:4573   */\n      swap4\n      pop\n        /* \"#utility.yul\":4582:4647   */\n      tag_187\n        /* \"#utility.yul\":4640:4646   */\n      dup2\n        /* \"#utility.yul\":4635:4638   */\n      dup6\n        /* \"#utility.yul\":4628:4632   */\n      0x20\n        /* \"#utility.yul\":4621:4626   */\n      dup7\n        /* \"#utility.yul\":4617:4633   */\n      add\n        /* \"#utility.yul\":4582:4647   */\n      tag_110\n      jump\t// in\n    tag_187:\n        /* \"#utility.yul\":4672:4701   */\n      tag_188\n        /* \"#utility.yul\":4694:4700   */\n      dup2\n        /* \"#utility.yul\":4672:4701   */\n      tag_100\n      jump\t// in\n    tag_188:\n        /* \"#utility.yul\":4667:4670   */\n      dup5\n        /* \"#utility.yul\":4663:4702   */\n      add\n        /* \"#utility.yul\":4656:4702   */\n      swap2\n      pop\n        /* \"#utility.yul\":4423:4708   */\n      pop\n        /* \"#utility.yul\":4331:4708   */\n      swap3\n      swap2\n      pop\n      pop\n      jump\t// out\n        /* \"#utility.yul\":4714:4804   */\n    tag_112:\n        /* \"#utility.yul\":4748:4755   */\n      0x00\n        /* \"#utility.yul\":4791:4796   */\n      dup2\n        /* \"#utility.yul\":4784:4797   */\n      iszero\n        /* \"#utility.yul\":4777:4798   */\n      iszero\n        /* \"#utility.yul\":4766:4798   */\n      swap1\n      pop\n        /* \"#utility.yul\":4714:4804   */\n      swap2\n      swap1\n      pop\n      jump\t// out\n        /* \"#utility.yul\":4810:4919   */\n    tag_113:\n        /* \"#utility.yul\":4891:4912   */\n      tag_191\n        /* \"#utility.yul\":4906:4911   */\n      dup2\n        /* \"#utility.yul\":4891:4912   */\n      tag_112\n      jump\t// in\n    tag_191:\n        /* \"#utility.yul\":4886:4889   */\n      dup3\n        /* \"#utility.yul\":4879:4913   */\n      mstore\n        /* \"#utility.yul\":4810:4919   */\n      pop\n      pop\n      jump\t// out\n        /* \"#utility.yul\":4925:5336   */\n    tag_23:\n        /* \"#utility.yul\":5060:5064   */\n      0x00\n        /* \"#utility.yul\":5098:5100   */\n      0x40\n        /* \"#utility.yul\":5087:5096   */\n      dup3\n        /* \"#utility.yul\":5083:5101   */\n      add\n        /* \"#utility.yul\":5075:5101   */\n      swap1\n      pop\n        /* \"#utility.yul\":5147:5156   */\n      dup2\n        /* \"#utility.yul\":5141:5145   */\n      dup2\n        /* \"#utility.yul\":5137:5157   */\n      sub\n        /* \"#utility.yul\":5133:5134   */\n      0x00\n        /* \"#utility.yul\":5122:5131   */\n      dup4\n        /* \"#utility.yul\":5118:5135   */\n      add\n        /* \"#utility.yul\":5111:5158   */\n      mstore\n        /* \"#utility.yul\":5175:5253   */\n      tag_193\n        /* \"#utility.yul\":5248:5252   */\n      dup2\n        /* \"#utility.yul\":5239:5245   */\n      dup6\n        /* \"#utility.yul\":5175:5253   */\n      tag_111\n      jump\t// in\n    tag_193:\n        /* \"#utility.yul\":5167:5253   */\n      swap1\n      pop\n        /* \"#utility.yul\":5263:5329   */\n      tag_194\n        /* \"#utility.yul\":5325:5327   */\n      0x20\n        /* \"#utility.yul\":5314:5323   */\n      dup4\n        /* \"#utility.yul\":5310:5328   */\n      add\n        /* \"#utility.yul\":5301:5307   */\n      dup5\n        /* \"#utility.yul\":5263:5329   */\n      tag_113\n      jump\t// in\n    tag_194:\n        /* \"#utility.yul\":4925:5336   */\n      swap4\n      swap3\n      pop\n      pop\n      pop\n      jump\t// out\n        /* \"#utility.yul\":5342:5851   */\n    tag_26:\n        /* \"#utility.yul\":5411:5417   */\n      0x00\n        /* \"#utility.yul\":5460:5462   */\n      0x20\n        /* \"#utility.yul\":5448:5457   */\n      dup3\n        /* \"#utility.yul\":5439:5446   */\n      dup5\n        /* \"#utility.yul\":5435:5458   */\n      sub\n        /* \"#utility.yul\":5431:5463   */\n      slt\n        /* \"#utility.yul\":5428:5547   */\n      iszero\n      tag_196\n      jumpi\n        /* \"#utility.yul\":5466:5545   */\n      tag_197\n      tag_93\n      jump\t// in\n    tag_197:\n        /* \"#utility.yul\":5428:5547   */\n    tag_196:\n        /* \"#utility.yul\":5614:5615   */\n      0x00\n        /* \"#utility.yul\":5603:5612   */\n      dup3\n        /* \"#utility.yul\":5599:5616   */\n      add\n        /* \"#utility.yul\":5586:5617   */\n      calldataload\n        /* \"#utility.yul\":5644:5662   */\n      0xffffffffffffffff\n        /* \"#utility.yul\":5636:5642   */\n      dup2\n        /* \"#utility.yul\":5633:5663   */\n      gt\n        /* \"#utility.yul\":5630:5747   */\n      iszero\n      tag_198\n      jumpi\n        /* \"#utility.yul\":5666:5745   */\n      tag_199\n      tag_94\n      jump\t// in\n    tag_199:\n        /* \"#utility.yul\":5630:5747   */\n    tag_198:\n        /* \"#utility.yul\":5771:5834   */\n      tag_200\n        /* \"#utility.yul\":5826:5833   */\n      dup5\n        /* \"#utility.yul\":5817:5823   */\n      dup3\n        /* \"#utility.yul\":5806:5815   */\n      dup6\n        /* \"#utility.yul\":5802:5824   */\n      add\n        /* \"#utility.yul\":5771:5834   */\n      tag_107\n      jump\t// in\n    tag_200:\n        /* \"#utility.yul\":5761:5834   */\n      swap2\n      pop\n        /* \"#utility.yul\":5557:5844   */\n      pop\n        /* \"#utility.yul\":5342:5851   */\n      swap3\n      swap2\n      pop\n      pop\n      jump\t// out\n        /* \"#utility.yul\":5857:5973   */\n    tag_114:\n        /* \"#utility.yul\":5927:5948   */\n      tag_202\n        /* \"#utility.yul\":5942:5947   */\n      dup2\n        /* \"#utility.yul\":5927:5948   */\n      tag_112\n      jump\t// in\n    tag_202:\n        /* \"#utility.yul\":5920:5925   */\n      dup2\n        /* \"#utility.yul\":5917:5949   */\n      eq\n        /* \"#utility.yul\":5907:5967   */\n      tag_203\n      jumpi\n        /* \"#utility.yul\":5963:5964   */\n      0x00\n        /* \"#utility.yul\":5960:5961   */\n      0x00\n        /* \"#utility.yul\":5953:5965   */\n      revert\n        /* \"#utility.yul\":5907:5967   */\n    tag_203:\n        /* \"#utility.yul\":5857:5973   */\n      pop\n      jump\t// out\n        /* \"#utility.yul\":5979:6112   */\n    tag_115:\n        /* \"#utility.yul\":6022:6027   */\n      0x00\n        /* \"#utility.yul\":6060:6066   */\n      dup2\n        /* \"#utility.yul\":6047:6067   */\n      calldataload\n        /* \"#utility.yul\":6038:6067   */\n      swap1\n      pop\n        /* \"#utility.yul\":6076:6106   */\n      tag_205\n        /* \"#utility.yul\":6100:6105   */\n      dup2\n        /* \"#utility.yul\":6076:6106   */\n      tag_114\n      jump\t// in\n    tag_205:\n        /* \"#utility.yul\":5979:6112   */\n      swap3\n      swap2\n      pop\n      pop\n      jump\t// out\n        /* \"#utility.yul\":6118:6766   */\n    tag_30:\n        /* \"#utility.yul\":6193:6199   */\n      0x00\n        /* \"#utility.yul\":6201:6207   */\n      0x00\n        /* \"#utility.yul\":6250:6252   */\n      0x40\n        /* \"#utility.yul\":6238:6247   */\n      dup4\n        /* \"#utility.yul\":6229:6236   */\n      dup6\n        /* \"#utility.yul\":6225:6248   */\n      sub\n        /* \"#utility.yul\":6221:6253   */\n      slt\n        /* \"#utility.yul\":6218:6337   */\n      iszero\n      tag_207\n      jumpi\n        /* \"#utility.yul\":6256:6335   */\n      tag_208\n      tag_93\n      jump\t// in\n    tag_208:\n        /* \"#utility.yul\":6218:6337   */\n    tag_207:\n        /* \"#utility.yul\":6404:6405   */\n      0x00\n        /* \"#utility.yul\":6393:6402   */\n      dup4\n        /* \"#utility.yul\":6389:6406   */\n      add\n        /* \"#utility.yul\":6376:6407   */\n      calldataload\n        /* \"#utility.yul\":6434:6452   */\n      0xffffffffffffffff\n        /* \"#utility.yul\":6426:6432   */\n      dup2\n        /* \"#utility.yul\":6423:6453   */\n      gt\n        /* \"#utility.yul\":6420:6537   */\n      iszero\n      tag_209\n      jumpi\n        /* \"#utility.yul\":6456:6535   */\n      tag_210\n      tag_94\n      jump\t// in\n    tag_210:\n        /* \"#utility.yul\":6420:6537   */\n    tag_209:\n        /* \"#utility.yul\":6561:6624   */\n      tag_211\n        /* \"#utility.yul\":6616:6623   */\n      dup6\n        /* \"#utility.yul\":6607:6613   */\n      dup3\n        /* \"#utility.yul\":6596:6605   */\n      dup7\n        /* \"#utility.yul\":6592:6614   */\n      add\n        /* \"#utility.yul\":6561:6624   */\n      tag_107\n      jump\t// in\n    tag_211:\n        /* \"#utility.yul\":6551:6624   */\n      swap3\n      pop\n        /* \"#utility.yul\":6347:6634   */\n      pop\n        /* \"#utility.yul\":6673:6675   */\n      0x20\n        /* \"#utility.yul\":6699:6749   */\n      tag_212\n        /* \"#utility.yul\":6741:6748   */\n      dup6\n        /* \"#utility.yul\":6732:6738   */\n      dup3\n        /* \"#utility.yul\":6721:6730   */\n      dup7\n        /* \"#utility.yul\":6717:6739   */\n      add\n        /* \"#utility.yul\":6699:6749   */\n      tag_115\n      jump\t// in\n    tag_212:\n        /* \"#utility.yul\":6689:6749   */\n      swap2\n      pop\n        /* \"#utility.yul\":6644:6759   */\n      pop\n        /* \"#utility.yul\":6118:6766   */\n      swap3\n      pop\n      swap3\n      swap1\n      pop\n      jump\t// out\n        /* \"#utility.yul\":6772:6941   */\n    tag_116:\n        /* \"#utility.yul\":6912:6933   */\n      0x496e646578206f7574206f6620626f756e647300000000000000000000000000\n        /* \"#utility.yul\":6908:6909   */\n      0x00\n        /* \"#utility.yul\":6900:6906   */\n      dup3\n        /* \"#utility.yul\":6896:6910   */\n      add\n        /* \"#utility.yul\":6889:6934   */\n      mstore\n        /* \"#utility.yul\":6772:6941   */\n      pop\n      jump\t// out\n        /* \"#utility.yul\":6947:7313   */\n    tag_117:\n        /* \"#utility.yul\":7089:7092   */\n      0x00\n        /* \"#utility.yul\":7110:7177   */\n      tag_215\n        /* \"#utility.yul\":7174:7176   */\n      0x13\n        /* \"#utility.yul\":7169:7172   */\n      dup4\n        /* \"#utility.yul\":7110:7177   */\n      tag_109\n      jump\t// in\n    tag_215:\n        /* \"#utility.yul\":7103:7177   */\n      swap2\n      pop\n        /* \"#utility.yul\":7186:7279   */\n      tag_216\n        /* \"#utility.yul\":7275:7278   */\n      dup3\n        /* \"#utility.yul\":7186:7279   */\n      tag_116\n      jump\t// in\n    tag_216:\n        /* \"#utility.yul\":7304:7306   */\n      0x20\n        /* \"#utility.yul\":7299:7302   */\n      dup3\n        /* \"#utility.yul\":7295:7307   */\n      add\n        /* \"#utility.yul\":7288:7307   */\n      swap1\n      pop\n        /* \"#utility.yul\":6947:7313   */\n      swap2\n      swap1\n      pop\n      jump\t// out\n        /* \"#utility.yul\":7319:7738   */\n    tag_42:\n        /* \"#utility.yul\":7485:7489   */\n      0x00\n        /* \"#utility.yul\":7523:7525   */\n      0x20\n        /* \"#utility.yul\":7512:7521   */\n      dup3\n        /* \"#utility.yul\":7508:7526   */\n      add\n        /* \"#utility.yul\":7500:7526   */\n      swap1\n      pop\n        /* \"#utility.yul\":7572:7581   */\n      dup2\n        /* \"#utility.yul\":7566:7570   */\n      dup2\n        /* \"#utility.yul\":7562:7582   */\n      sub\n        /* \"#utility.yul\":7558:7559   */\n      0x00\n        /* \"#utility.yul\":7547:7556   */\n      dup4\n        /* \"#utility.yul\":7543:7560   */\n      add\n        /* \"#utility.yul\":7536:7583   */\n      mstore\n        /* \"#utility.yul\":7600:7731   */\n      tag_218\n        /* \"#utility.yul\":7726:7730   */\n      dup2\n        /* \"#utility.yul\":7600:7731   */\n      tag_117\n      jump\t// in\n    tag_218:\n        /* \"#utility.yul\":7592:7731   */\n      swap1\n      pop\n        /* \"#utility.yul\":7319:7738   */\n      swap2\n      swap1\n      pop\n      jump\t// out\n        /* \"#utility.yul\":7744:7924   */\n    tag_45:\n        /* \"#utility.yul\":7792:7869   */\n      0x4e487b7100000000000000000000000000000000000000000000000000000000\n        /* \"#utility.yul\":7789:7790   */\n      0x00\n        /* \"#utility.yul\":7782:7870   */\n      mstore\n        /* \"#utility.yul\":7889:7893   */\n      0x32\n        /* \"#utility.yul\":7886:7887   */\n      0x04\n        /* \"#utility.yul\":7879:7894   */\n      mstore\n        /* \"#utility.yul\":7913:7917   */\n      0x24\n        /* \"#utility.yul\":7910:7911   */\n      0x00\n        /* \"#utility.yul\":7903:7918   */\n      revert\n        /* \"#utility.yul\":7930:8110   */\n    tag_118:\n        /* \"#utility.yul\":7978:8055   */\n      0x4e487b7100000000000000000000000000000000000000000000000000000000\n        /* \"#utility.yul\":7975:7976   */\n      0x00\n        /* \"#utility.yul\":7968:8056   */\n      mstore\n        /* \"#utility.yul\":8075:8079   */\n      0x22\n        /* \"#utility.yul\":8072:8073   */\n      0x04\n        /* \"#utility.yul\":8065:8080   */\n      mstore\n        /* \"#utility.yul\":8099:8103   */\n      0x24\n        /* \"#utility.yul\":8096:8097   */\n      0x00\n        /* \"#utility.yul\":8089:8104   */\n      revert\n        /* \"#utility.yul\":8116:8436   */\n    tag_61:\n        /* \"#utility.yul\":8160:8166   */\n      0x00\n        /* \"#utility.yul\":8197:8198   */\n      0x02\n        /* \"#utility.yul\":8191:8195   */\n      dup3\n        /* \"#utility.yul\":8187:8199   */\n      div\n        /* \"#utility.yul\":8177:8199   */\n      swap1\n      pop\n        /* \"#utility.yul\":8244:8245   */\n      0x01\n        /* \"#utility.yul\":8238:8242   */\n      dup3\n        /* \"#utility.yul\":8234:8246   */\n      and\n        /* \"#utility.yul\":8265:8283   */\n      dup1\n        /* \"#utility.yul\":8255:8336   */\n      tag_222\n      jumpi\n        /* \"#utility.yul\":8321:8325   */\n      0x7f\n        /* \"#utility.yul\":8313:8319   */\n      dup3\n        /* \"#utility.yul\":8309:8326   */\n      and\n        /* \"#utility.yul\":8299:8326   */\n      swap2\n      pop\n        /* \"#utility.yul\":8255:8336   */\n    tag_222:\n        /* \"#utility.yul\":8383:8385   */\n      0x20\n        /* \"#utility.yul\":8375:8381   */\n      dup3\n        /* \"#utility.yul\":8372:8386   */\n      lt\n        /* \"#utility.yul\":8352:8370   */\n      dup2\n        /* \"#utility.yul\":8349:8387   */\n      sub\n        /* \"#utility.yul\":8346:8430   */\n      tag_223\n      jumpi\n        /* \"#utility.yul\":8402:8420   */\n      tag_224\n      tag_118\n      jump\t// in\n    tag_224:\n        /* \"#utility.yul\":8346:8430   */\n    tag_223:\n        /* \"#utility.yul\":8167:8436   */\n      pop\n        /* \"#utility.yul\":8116:8436   */\n      swap2\n      swap1\n      pop\n      jump\t// out\n        /* \"#utility.yul\":8442:8583   */\n    tag_119:\n        /* \"#utility.yul\":8491:8495   */\n      0x00\n        /* \"#utility.yul\":8514:8517   */\n      dup2\n        /* \"#utility.yul\":8506:8517   */\n      swap1\n      pop\n        /* \"#utility.yul\":8537:8540   */\n      dup2\n        /* \"#utility.yul\":8534:8535   */\n      0x00\n        /* \"#utility.yul\":8527:8541   */\n      mstore\n        /* \"#utility.yul\":8571:8575   */\n      0x20\n        /* \"#utility.yul\":8568:8569   */\n      0x00\n        /* \"#utility.yul\":8558:8576   */\n      keccak256\n        /* \"#utility.yul\":8550:8576   */\n      swap1\n      pop\n        /* \"#utility.yul\":8442:8583   */\n      swap2\n      swap1\n      pop\n      jump\t// out\n        /* \"#utility.yul\":8589:8682   */\n    tag_120:\n        /* \"#utility.yul\":8626:8632   */\n      0x00\n        /* \"#utility.yul\":8673:8675   */\n      0x20\n        /* \"#utility.yul\":8668:8670   */\n      0x1f\n        /* \"#utility.yul\":8661:8666   */\n      dup4\n        /* \"#utility.yul\":8657:8671   */\n      add\n        /* \"#utility.yul\":8653:8676   */\n      div\n        /* \"#utility.yul\":8643:8676   */\n      swap1\n      pop\n        /* \"#utility.yul\":8589:8682   */\n      swap2\n      swap1\n      pop\n      jump\t// out\n        /* \"#utility.yul\":8688:8795   */\n    tag_121:\n        /* \"#utility.yul\":8732:8740   */\n      0x00\n        /* \"#utility.yul\":8782:8787   */\n      dup3\n        /* \"#utility.yul\":8776:8780   */\n      dup3\n        /* \"#utility.yul\":8772:8788   */\n      shl\n        /* \"#utility.yul\":8751:8788   */\n      swap1\n      pop\n        /* \"#utility.yul\":8688:8795   */\n      swap3\n      swap2\n      pop\n      pop\n      jump\t// out\n        /* \"#utility.yul\":8801:9194   */\n    tag_122:\n        /* \"#utility.yul\":8870:8876   */\n      0x00\n        /* \"#utility.yul\":8920:8921   */\n      0x08\n        /* \"#utility.yul\":8908:8918   */\n      dup4\n        /* \"#utility.yul\":8904:8922   */\n      mul\n        /* \"#utility.yul\":8943:9040   */\n      tag_229\n        /* \"#utility.yul\":8973:9039   */\n      0xffffffffffffffffffffffffffffffffffffffffffffffffffffffffffffffff\n        /* \"#utility.yul\":8962:8971   */\n      dup3\n        /* \"#utility.yul\":8943:9040   */\n      tag_121\n      jump\t// in\n    tag_229:\n        /* \"#utility.yul\":9061:9100   */\n      tag_230\n        /* \"#utility.yul\":9091:9099   */\n      dup7\n        /* \"#utility.yul\":9080:9089   */\n      dup4\n        /* \"#utility.yul\":9061:9100   */\n      tag_121\n      jump\t// in\n    tag_230:\n        /* \"#utility.yul\":9049:9100   */\n      swap6\n      pop\n        /* \"#utility.yul\":9133:9137   */\n      dup1\n        /* \"#utility.yul\":9129:9138   */\n      not\n        /* \"#utility.yul\":9122:9127   */\n      dup5\n        /* \"#utility.yul\":9118:9139   */\n      and\n        /* \"#utility.yul\":9109:9139   */\n      swap4\n      pop\n        /* \"#utility.yul\":9182:9186   */\n      dup1\n        /* \"#utility.yul\":9172:9180   */\n      dup7\n        /* \"#utility.yul\":9168:9187   */\n      and\n        /* \"#utility.yul\":9161:9166   */\n      dup5\n        /* \"#utility.yul\":9158:9188   */\n      or\n        /* \"#utility.yul\":9148:9188   */\n      swap3\n      pop\n        /* \"#utility.yul\":8877:9194   */\n      pop\n      pop\n        /* \"#utility.yul\":8801:9194   */\n      swap4\n      swap3\n      pop\n      pop\n      pop\n      jump\t// out\n        /* \"#utility.yul\":9200:9260   */\n    tag_123:\n        /* \"#utility.yul\":9228:9231   */\n      0x00\n        /* \"#utility.yul\":9249:9254   */\n      dup2\n        /* \"#utility.yul\":9242:9254   */\n      swap1\n      pop\n        /* \"#utility.yul\":9200:9260   */\n      swap2\n      swap1\n      pop\n      jump\t// out\n        /* \"#utility.yul\":9266:9408   */\n    tag_124:\n        /* \"#utility.yul\":9316:9325   */\n      0x00\n        /* \"#utility.yul\":9349:9402   */\n      tag_233\n        /* \"#utility.yul\":9367:9401   */\n      tag_234\n        /* \"#utility.yul\":9376:9400   */\n      tag_235\n        /* \"#utility.yul\":9394:9399   */\n      dup5\n        /* \"#utility.yul\":9376:9400   */\n      tag_95\n      jump\t// in\n    tag_235:\n        /* \"#utility.yul\":9367:9401   */\n      tag_123\n      jump\t// in\n    tag_234:\n        /* \"#utility.yul\":9349:9402   */\n      tag_95\n      jump\t// in\n    tag_233:\n        /* \"#utility.yul\":9336:9402   */\n      swap1\n      pop\n        /* \"#utility.yul\":9266:9408   */\n      swap2\n      swap1\n      pop\n      jump\t// out\n        /* \"#utility.yul\":9414:9489   */\n    tag_125:\n        /* \"#utility.yul\":9457:9460   */\n      0x00\n        /* \"#utility.yul\":9478:9483   */\n      dup2\n        /* \"#utility.yul\":9471:9483   */\n      swap1\n      pop\n        /* \"#utility.yul\":9414:9489   */\n      swap2\n      swap1\n      pop\n      jump\t// out\n        /* \"#utility.yul\":9495:9764   */\n    tag_126:\n        /* \"#utility.yul\":9605:9644   */\n      tag_238\n        /* \"#utility.yul\":9636:9643   */\n      dup4\n        /* \"#utility.yul\":9605:9644   */\n      tag_124\n      jump\t// in\n    tag_238:\n        /* \"#utility.yul\":9666:9757   */\n      tag_239\n        /* \"#utility.yul\":9715:9756   */\n      tag_240\n        /* \"#utility.yul\":9739:9755   */\n      dup3\n        /* \"#utility.yul\":9715:9756   */\n      tag_125\n      jump\t// in\n    tag_240:\n        /* \"#utility.yul\":9707:9713   */\n      dup5\n        /* \"#utility.yul\":9700:9704   */\n      dup5\n        /* \"#utility.yul\":9694:9705   */\n      sload\n        /* \"#utility.yul\":9666:9757   */\n      tag_122\n      jump\t// in\n    tag_239:\n        /* \"#utility.yul\":9660:9664   */\n      dup3\n        /* \"#utility.yul\":9653:9758   */\n      sstore\n        /* \"#utility.yul\":9571:9764   */\n      pop\n        /* \"#utility.yul\":9495:9764   */\n      pop\n      pop\n      pop\n      jump\t// out\n        /* \"#utility.yul\":9770:9843   */\n    tag_127:\n        /* \"#utility.yul\":9815:9818   */\n      0x00\n        /* \"#utility.yul\":9836:9837   */\n      0x00\n        /* \"#utility.yul\":9829:9837   */\n      swap1\n      pop\n        /* \"#utility.yul\":9770:9843   */\n      swap1\n      jump\t// out\n        /* \"#utility.yul\":9849:10038   */\n    tag_128:\n        /* \"#utility.yul\":9926:9958   */\n      tag_243\n      tag_127\n      jump\t// in\n    tag_243:\n        /* \"#utility.yul\":9967:10032   */\n      tag_244\n        /* \"#utility.yul\":10025:10031   */\n      dup2\n        /* \"#utility.yul\":10017:10023   */\n      dup5\n        /* \"#utility.yul\":10011:10015   */\n      dup5\n        /* \"#utility.yul\":9967:10032   */\n      tag_126\n      jump\t// in\n    tag_244:\n        /* \"#utility.yul\":9902:10038   */\n      pop\n        /* \"#utility.yul\":9849:10038   */\n      pop\n      pop\n      jump\t// out\n        /* \"#utility.yul\":10044:10230   */\n    tag_129:\n        /* \"#utility.yul\":10104:10224   */\n    tag_246:\n        /* \"#utility.yul\":10121:10124   */\n      dup2\n        /* \"#utility.yul\":10114:10119   */\n      dup2\n        /* \"#utility.yul\":10111:10125   */\n      lt\n        /* \"#utility.yul\":10104:10224   */\n      iszero\n      tag_248\n      jumpi\n        /* \"#utility.yul\":10175:10214   */\n      tag_249\n        /* \"#utility.yul\":10212:10213   */\n      0x00\n        /* \"#utility.yul\":10205:10210   */\n      dup3\n        /* \"#utility.yul\":10175:10214   */\n      tag_128\n      jump\t// in\n    tag_249:\n        /* \"#utility.yul\":10148:10149   */\n      0x01\n        /* \"#utility.yul\":10141:10146   */\n      dup2\n        /* \"#utility.yul\":10137:10150   */\n      add\n        /* \"#utility.yul\":10128:10150   */\n      swap1\n      pop\n        /* \"#utility.yul\":10104:10224   */\n      jump(tag_246)\n    tag_248:\n        /* \"#utility.yul\":10044:10230   */\n      pop\n      pop\n      jump\t// out\n        /* \"#utility.yul\":10236:10779   */\n    tag_130:\n        /* \"#utility.yul\":10337:10339   */\n      0x1f\n        /* \"#utility.yul\":10332:10335   */\n      dup3\n        /* \"#utility.yul\":10329:10340   */\n      gt\n        /* \"#utility.yul\":10326:10772   */\n      iszero\n      tag_251\n      jumpi\n        /* \"#utility.yul\":10371:10409   */\n      tag_252\n        /* \"#utility.yul\":10403:10408   */\n      dup2\n        /* \"#utility.yul\":10371:10409   */\n      tag_119\n      jump\t// in\n    tag_252:\n        /* \"#utility.yul\":10455:10484   */\n      tag_253\n        /* \"#utility.yul\":10473:10483   */\n      dup5\n        /* \"#utility.yul\":10455:10484   */\n      tag_120\n      jump\t// in\n    tag_253:\n        /* \"#utility.yul\":10445:10453   */\n      dup2\n        /* \"#utility.yul\":10441:10485   */\n      add\n        /* \"#utility.yul\":10638:10640   */\n      0x20\n        /* \"#utility.yul\":10626:10636   */\n      dup6\n        /* \"#utility.yul\":10623:10641   */\n      lt\n        /* \"#utility.yul\":10620:10669   */\n      iszero\n      tag_254\n      jumpi\n        /* \"#utility.yul\":10659:10667   */\n      dup2\n        /* \"#utility.yul\":10644:10667   */\n      swap1\n      pop\n        /* \"#utility.yul\":10620:10669   */\n    tag_254:\n        /* \"#utility.yul\":10682:10762   */\n      tag_255\n        /* \"#utility.yul\":10738:10760   */\n      tag_256\n        /* \"#utility.yul\":10756:10759   */\n      dup6\n        /* \"#utility.yul\":10738:10760   */\n      tag_120\n      jump\t// in\n    tag_256:\n        /* \"#utility.yul\":10728:10736   */\n      dup4\n        /* \"#utility.yul\":10724:10761   */\n      add\n        /* \"#utility.yul\":10711:10722   */\n      dup3\n        /* \"#utility.yul\":10682:10762   */\n      tag_129\n      jump\t// in\n    tag_255:\n        /* \"#utility.yul\":10341:10772   */\n      pop\n      pop\n        /* \"#utility.yul\":10326:10772   */\n    tag_251:\n        /* \"#utility.yul\":10236:10779   */\n      pop\n      pop\n      pop\n      jump\t// out\n        /* \"#utility.yul\":10785:10902   */\n    tag_131:\n        /* \"#utility.yul\":10839:10847   */\n      0x00\n        /* \"#utility.yul\":10889:10894   */\n      dup3\n        /* \"#utility.yul\":10883:10887   */\n      dup3\n        /* \"#utility.yul\":10879:10895   */\n      shr\n        /* \"#utility.yul\":10858:10895   */\n      swap1\n      pop\n        /* \"#utility.yul\":10785:10902   */\n      swap3\n      swap2\n      pop\n      pop\n      jump\t// out\n        /* \"#utility.yul\":10908:11077   */\n    tag_132:\n        /* \"#utility.yul\":10952:10958   */\n      0x00\n        /* \"#utility.yul\":10985:11036   */\n      tag_259\n        /* \"#utility.yul\":11033:11034   */\n      0x00\n        /* \"#utility.yul\":11029:11035   */\n      not\n        /* \"#utility.yul\":11021:11026   */\n      dup5\n        /* \"#utility.yul\":11018:11019   */\n      0x08\n        /* \"#utility.yul\":11014:11027   */\n      mul\n        /* \"#utility.yul\":10985:11036   */\n      tag_131\n      jump\t// in\n    tag_259:\n        /* \"#utility.yul\":10981:11037   */\n      not\n        /* \"#utility.yul\":11066:11070   */\n      dup1\n        /* \"#utility.yul\":11060:11064   */\n      dup4\n        /* \"#utility.yul\":11056:11071   */\n      and\n        /* \"#utility.yul\":11046:11071   */\n      swap2\n      pop\n        /* \"#utility.yul\":10959:11077   */\n      pop\n        /* \"#utility.yul\":10908:11077   */\n      swap3\n      swap2\n      pop\n      pop\n      jump\t// out\n        /* \"#utility.yul\":11082:11377   */\n    tag_133:\n        /* \"#utility.yul\":11158:11162   */\n      0x00\n        /* \"#utility.yul\":11304:11333   */\n      tag_261\n        /* \"#utility.yul\":11329:11332   */\n      dup4\n        /* \"#utility.yul\":11323:11327   */\n      dup4\n        /* \"#utility.yul\":11304:11333   */\n      tag_132\n      jump\t// in\n    tag_261:\n        /* \"#utility.yul\":11296:11333   */\n      swap2\n      pop\n        /* \"#utility.yul\":11366:11369   */\n      dup3\n        /* \"#utility.yul\":11363:11364   */\n      0x02\n        /* \"#utility.yul\":11359:11370   */\n      mul\n        /* \"#utility.yul\":11353:11357   */\n      dup3\n        /* \"#utility.yul\":11350:11371   */\n      or\n        /* \"#utility.yul\":11342:11371   */\n      swap1\n      pop\n        /* \"#utility.yul\":11082:11377   */\n      swap3\n      swap2\n      pop\n      pop\n      jump\t// out\n        /* \"#utility.yul\":11382:12777   */\n    tag_48:\n        /* \"#utility.yul\":11499:11536   */\n      tag_263\n        /* \"#utility.yul\":11532:11535   */\n      dup3\n        /* \"#utility.yul\":11499:11536   */\n      tag_108\n      jump\t// in\n    tag_263:\n        /* \"#utility.yul\":11601:11619   */\n      0xffffffffffffffff\n        /* \"#utility.yul\":11593:11599   */\n      dup2\n        /* \"#utility.yul\":11590:11620   */\n      gt\n        /* \"#utility.yul\":11587:11643   */\n      iszero\n      tag_264\n      jumpi\n        /* \"#utility.yul\":11623:11641   */\n      tag_265\n      tag_101\n      jump\t// in\n    tag_265:\n        /* \"#utility.yul\":11587:11643   */\n    tag_264:\n        /* \"#utility.yul\":11667:11705   */\n      tag_266\n        /* \"#utility.yul\":11699:11703   */\n      dup3\n        /* \"#utility.yul\":11693:11704   */\n      sload\n        /* \"#utility.yul\":11667:11705   */\n      tag_61\n      jump\t// in\n    tag_266:\n        /* \"#utility.yul\":11752:11819   */\n      tag_267\n        /* \"#utility.yul\":11812:11818   */\n      dup3\n        /* \"#utility.yul\":11804:11810   */\n      dup3\n        /* \"#utility.yul\":11798:11802   */\n      dup6\n        /* \"#utility.yul\":11752:11819   */\n      tag_130\n      jump\t// in\n    tag_267:\n        /* \"#utility.yul\":11846:11847   */\n      0x00\n        /* \"#utility.yul\":11870:11874   */\n      0x20\n        /* \"#utility.yul\":11857:11874   */\n      swap1\n      pop\n        /* \"#utility.yul\":11902:11904   */\n      0x1f\n        /* \"#utility.yul\":11894:11900   */\n      dup4\n        /* \"#utility.yul\":11891:11905   */\n      gt\n        /* \"#utility.yul\":11919:11920   */\n      0x01\n        /* \"#utility.yul\":11914:12532   */\n      dup2\n      eq\n      tag_269\n      jumpi\n        /* \"#utility.yul\":12576:12577   */\n      0x00\n        /* \"#utility.yul\":12593:12599   */\n      dup5\n        /* \"#utility.yul\":12590:12667   */\n      iszero\n      tag_270\n      jumpi\n        /* \"#utility.yul\":12642:12651   */\n      dup3\n        /* \"#utility.yul\":12637:12640   */\n      dup8\n        /* \"#utility.yul\":12633:12652   */\n      add\n        /* \"#utility.yul\":12627:12653   */\n      mload\n        /* \"#utility.yul\":12618:12653   */\n      swap1\n      pop\n        /* \"#utility.yul\":12590:12667   */\n    tag_270:\n        /* \"#utility.yul\":12693:12760   */\n      tag_271\n        /* \"#utility.yul\":12753:12759   */\n      dup6\n        /* \"#utility.yul\":12746:12751   */\n      dup3\n        /* \"#utility.yul\":12693:12760   */\n      tag_133\n      jump\t// in\n    tag_271:\n        /* \"#utility.yul\":12687:12691   */\n      dup7\n        /* \"#utility.yul\":12680:12761   */\n      sstore\n        /* \"#utility.yul\":12549:12771   */\n      pop\n        /* \"#utility.yul\":11884:12771   */\n      jump(tag_268)\n        /* \"#utility.yul\":11914:12532   */\n    tag_269:\n        /* \"#utility.yul\":11966:11970   */\n      0x1f\n        /* \"#utility.yul\":11962:11971   */\n      not\n        /* \"#utility.yul\":11954:11960   */\n      dup5\n        /* \"#utility.yul\":11950:11972   */\n      and\n        /* \"#utility.yul\":12000:12037   */\n      tag_272\n        /* \"#utility.yul\":12032:12036   */\n      dup7\n        /* \"#utility.yul\":12000:12037   */\n      tag_119\n      jump\t// in\n    tag_272:\n        /* \"#utility.yul\":12059:12060   */\n      0x00\n        /* \"#utility.yul\":12073:12281   */\n    tag_273:\n        /* \"#utility.yul\":12087:12094   */\n      dup3\n        /* \"#utility.yul\":12084:12085   */\n      dup2\n        /* \"#utility.yul\":12081:12095   */\n      lt\n        /* \"#utility.yul\":12073:12281   */\n      iszero\n      tag_275\n      jumpi\n        /* \"#utility.yul\":12166:12175   */\n      dup5\n        /* \"#utility.yul\":12161:12164   */\n      dup10\n        /* \"#utility.yul\":12157:12176   */\n      add\n        /* \"#utility.yul\":12151:12177   */\n      mload\n        /* \"#utility.yul\":12143:12149   */\n      dup3\n        /* \"#utility.yul\":12136:12178   */\n      sstore\n        /* \"#utility.yul\":12217:12218   */\n      0x01\n        /* \"#utility.yul\":12209:12215   */\n      dup3\n        /* \"#utility.yul\":12205:12219   */\n      add\n        /* \"#utility.yul\":12195:12219   */\n      swap2\n      pop\n        /* \"#utility.yul\":12264:12266   */\n      0x20\n        /* \"#utility.yul\":12253:12262   */\n      dup6\n        /* \"#utility.yul\":12249:12267   */\n      add\n        /* \"#utility.yul\":12236:12267   */\n      swap5\n      pop\n        /* \"#utility.yul\":12110:12114   */\n      0x20\n        /* \"#utility.yul\":12107:12108   */\n      dup2\n        /* \"#utility.yul\":12103:12115   */\n      add\n        /* \"#utility.yul\":12098:12115   */\n      swap1\n      pop\n        /* \"#utility.yul\":12073:12281   */\n      jump(tag_273)\n    tag_275:\n        /* \"#utility.yul\":12309:12315   */\n      dup7\n        /* \"#utility.yul\":12300:12307   */\n      dup4\n        /* \"#utility.yul\":12297:12316   */\n      lt\n        /* \"#utility.yul\":12294:12473   */\n      iszero\n      tag_276\n      jumpi\n        /* \"#utility.yul\":12367:12376   */\n      dup5\n        /* \"#utility.yul\":12362:12365   */\n      dup10\n        /* \"#utility.yul\":12358:12377   */\n      add\n        /* \"#utility.yul\":12352:12378   */\n      mload\n        /* \"#utility.yul\":12410:12458   */\n      tag_277\n        /* \"#utility.yul\":12452:12456   */\n      0x1f\n        /* \"#utility.yul\":12444:12450   */\n      dup10\n        /* \"#utility.yul\":12440:12457   */\n      and\n        /* \"#utility.yul\":12429:12438   */\n      dup3\n        /* \"#utility.yul\":12410:12458   */\n      tag_132\n      jump\t// in\n    tag_277:\n        /* \"#utility.yul\":12402:12408   */\n      dup4\n        /* \"#utility.yul\":12395:12459   */\n      sstore\n        /* \"#utility.yul\":12317:12473   */\n      pop\n        /* \"#utility.yul\":12294:12473   */\n    tag_276:\n        /* \"#utility.yul\":12519:12520   */\n      0x01\n        /* \"#utility.yul\":12515:12516   */\n      0x02\n        /* \"#utility.yul\":12507:12513   */\n      dup9\n        /* \"#utility.yul\":12503:12517   */\n      mul\n        /* \"#utility.yul\":12499:12521   */\n      add\n        /* \"#utility.yul\":12493:12497   */\n      dup9\n        /* \"#utility.yul\":12486:12522   */\n      sstore\n        /* \"#utility.yul\":11921:12532   */\n      pop\n      pop\n      pop\n        /* \"#utility.yul\":11884:12771   */\n    tag_268:\n      pop\n        /* \"#utility.yul\":11474:12777   */\n      pop\n      pop\n      pop\n        /* \"#utility.yul\":11382:12777   */\n      pop\n      pop\n      jump\t// out\n\n    auxdata: 0xa26469706673582212205d0cd7e9852000629eb614e0b2bc647befd67339e91970eb149eb55ba23a127f64736f6c634300081e0033\n}\n",
				"bytecode": {
					"linkReferences": {},
					"object": "6080604052348015600e575f5ffd5b50610d1c8061001c5f395ff3fe608060405234801561000f575f5ffd5b506004361061007b575f3560e01c8063998551951161005957806399855195146100e8578063c4aabd4014610104578063cb41734614610120578063e0ff5b8b1461013c5761007b565b80634ffb8b851461007f57806363861f911461009b57806368744046146100b7575b5f5ffd5b6100996004803603810190610094919061078d565b61016d565b005b6100b560048036038101906100b091906107e7565b6101e6565b005b6100d160048036038101906100cc91906107e7565b610297565b6040516100df92919061088c565b60405180910390f35b61010260048036038101906100fd91906108ba565b610357565b005b61011e6004803603810190610119919061092b565b6103c8565b005b61013a6004803603810190610135919061092b565b61044a565b005b610156600480360381019061015191906107e7565b6104c6565b60405161016492919061088c565b60405180910390f35b5f8054905082106101b3576040517f08c379a00000000000000000000000000000000000000000000000000000000081526004016101aa906109cf565b60405180910390fd5b805f83815481106101c7576101c66109ed565b5b905f5260205f2090600202015f0190816101e19190610c17565b505050565b5f80549050811061022c576040517f08c379a0000000000000000000000000000000000000000000000000000000008152600401610223906109cf565b60405180910390fd5b5f818154811061023f5761023e6109ed565b5b905f5260205f2090600202016001015f9054906101000a900460ff16155f828154811061026f5761026e6109ed565b5b905f5260205f2090600202016001015f6101000a81548160ff02191690831515021790555050565b5f81815481106102a5575f80fd5b905f5260205f2090600202015f91509050805f0180546102c490610a47565b80601f01602080910402602001604051908101604052809291908181526020018280546102f090610a47565b801561033b5780601f106103125761010080835404028352916020019161033b565b820191905f5260205f20905b81548152906001019060200180831161031e57829003601f168201915b505050505090806001015f9054906101000a900460ff16905082565b61035f6105f2565b81815f01819052505f81908060018154018082558091505060019003905f5260205f2090600202015f909190919091505f820151815f0190816103a29190610c17565b506020820151816001015f6101000a81548160ff02191690831515021790555050505050565b6103d06105f2565b82815f0181905250818160200190151590811515815250505f81908060018154018082558091505060019003905f5260205f2090600202015f909190919091505f820151815f0190816104239190610c17565b506020820151816001015f6101000a81548160ff0219169083151502179055505050505050565b5f604051806040016040528084815260200183151581525090505f81908060018154018082558091505060019003905f5260205f2090600202015f909190919091505f820151815f01908161049f9190610c17565b506020820151816001015f6101000a81548160ff0219169083151502179055505050505050565b60605f5f80549050831061050f576040517f08c379a0000000000000000000000000000000000000000000000000000000008152600401610506906109cf565b60405180910390fd5b5f8381548110610522576105216109ed565b5b905f5260205f2090600202015f015f8481548110610543576105426109ed565b5b905f5260205f2090600202016001015f9054906101000a900460ff1681805461056b90610a47565b80601f016020809104026020016040519081016040528092919081815260200182805461059790610a47565b80156105e25780601f106105b9576101008083540402835291602001916105e2565b820191905f5260205f20905b8154815290600101906020018083116105c557829003601f168201915b5050505050915091509150915091565b6040518060400160405280606081526020015f151581525090565b5f604051905090565b5f5ffd5b5f5ffd5b5f819050919050565b6106308161061e565b811461063a575f5ffd5b50565b5f8135905061064b81610627565b92915050565b5f5ffd5b5f5ffd5b5f601f19601f8301169050919050565b7f4e487b71000000000000000000000000000000000000000000000000000000005f52604160045260245ffd5b61069f82610659565b810181811067ffffffffffffffff821117156106be576106bd610669565b5b80604052505050565b5f6106d061060d565b90506106dc8282610696565b919050565b5f67ffffffffffffffff8211156106fb576106fa610669565b5b61070482610659565b9050602081019050919050565b828183375f83830152505050565b5f61073161072c846106e1565b6106c7565b90508281526020810184848401111561074d5761074c610655565b5b610758848285610711565b509392505050565b5f82601f83011261077457610773610651565b5b813561078484826020860161071f565b91505092915050565b5f5f604083850312156107a3576107a2610616565b5b5f6107b08582860161063d565b925050602083013567ffffffffffffffff8111156107d1576107d061061a565b5b6107dd85828601610760565b9150509250929050565b5f602082840312156107fc576107fb610616565b5b5f6108098482850161063d565b91505092915050565b5f81519050919050565b5f82825260208201905092915050565b8281835e5f83830152505050565b5f61084482610812565b61084e818561081c565b935061085e81856020860161082c565b61086781610659565b840191505092915050565b5f8115159050919050565b61088681610872565b82525050565b5f6040820190508181035f8301526108a4818561083a565b90506108b3602083018461087d565b9392505050565b5f602082840312156108cf576108ce610616565b5b5f82013567ffffffffffffffff8111156108ec576108eb61061a565b5b6108f884828501610760565b91505092915050565b61090a81610872565b8114610914575f5ffd5b50565b5f8135905061092581610901565b92915050565b5f5f6040838503121561094157610940610616565b5b5f83013567ffffffffffffffff81111561095e5761095d61061a565b5b61096a85828601610760565b925050602061097b85828601610917565b9150509250929050565b7f496e646578206f7574206f6620626f756e6473000000000000000000000000005f82015250565b5f6109b960138361081c565b91506109c482610985565b602082019050919050565b5f6020820190508181035f8301526109e6816109ad565b9050919050565b7f4e487b71000000000000000000000000000000000000000000000000000000005f52603260045260245ffd5b7f4e487b71000000000000000000000000000000000000000000000000000000005f52602260045260245ffd5b5f6002820490506001821680610a5e57607f821691505b602082108103610a7157610a70610a1a565b5b50919050565b5f819050815f5260205f209050919050565b5f6020601f8301049050919050565b5f82821b905092915050565b5f60088302610ad37fffffffffffffffffffffffffffffffffffffffffffffffffffffffffffffffff82610a98565b610add8683610a98565b95508019841693508086168417925050509392505050565b5f819050919050565b5f610b18610b13610b0e8461061e565b610af5565b61061e565b9050919050565b5f819050919050565b610b3183610afe565b610b45610b3d82610b1f565b848454610aa4565b825550505050565b5f5f905090565b610b5c610b4d565b610b67818484610b28565b505050565b5b81811015610b8a57610b7f5f82610b54565b600181019050610b6d565b5050565b601f821115610bcf57610ba081610a77565b610ba984610a89565b81016020851015610bb8578190505b610bcc610bc485610a89565b830182610b6c565b50505b505050565b5f82821c905092915050565b5f610bef5f1984600802610bd4565b1980831691505092915050565b5f610c078383610be0565b9150826002028217905092915050565b610c2082610812565b67ffffffffffffffff811115610c3957610c38610669565b5b610c438254610a47565b610c4e828285610b8e565b5f60209050601f831160018114610c7f575f8415610c6d578287015190505b610c778582610bfc565b865550610cde565b601f198416610c8d86610a77565b5f5b82811015610cb457848901518255600182019150602085019450602081019050610c8f565b86831015610cd15784890151610ccd601f891682610be0565b8355505b6001600288020188555050505b50505050505056fea26469706673582212205d0cd7e9852000629eb614e0b2bc647befd67339e91970eb149eb55ba23a127f64736f6c634300081e0033",
					"opcodes": "PUSH1 0x80 PUSH1 0x40 MSTORE CALLVALUE DUP1 ISZERO PUSH1 0xE JUMPI PUSH0 PUSH0 REVERT JUMPDEST POP PUSH2 0xD1C DUP1 PUSH2 0x1C PUSH0 CODECOPY PUSH0 RETURN INVALID PUSH1 0x80 PUSH1 0x40 MSTORE CALLVALUE DUP1 ISZERO PUSH2 0xF JUMPI PUSH0 PUSH0 REVERT JUMPDEST POP PUSH1 0x4 CALLDATASIZE LT PUSH2 0x7B JUMPI PUSH0 CALLDATALOAD PUSH1 0xE0 SHR DUP1 PUSH4 0x99855195 GT PUSH2 0x59 JUMPI DUP1 PUSH4 0x99855195 EQ PUSH2 0xE8 JUMPI DUP1 PUSH4 0xC4AABD40 EQ PUSH2 0x104 JUMPI DUP1 PUSH4 0xCB417346 EQ PUSH2 0x120 JUMPI DUP1 PUSH4 0xE0FF5B8B EQ PUSH2 0x13C JUMPI PUSH2 0x7B JUMP JUMPDEST DUP1 PUSH4 0x4FFB8B85 EQ PUSH2 0x7F JUMPI DUP1 PUSH4 0x63861F91 EQ PUSH2 0x9B JUMPI DUP1 PUSH4 0x68744046 EQ PUSH2 0xB7 JUMPI JUMPDEST PUSH0 PUSH0 REVERT JUMPDEST PUSH2 0x99 PUSH1 0x4 DUP1 CALLDATASIZE SUB DUP2 ADD SWAP1 PUSH2 0x94 SWAP2 SWAP1 PUSH2 0x78D JUMP JUMPDEST PUSH2 0x16D JUMP JUMPDEST STOP JUMPDEST PUSH2 0xB5 PUSH1 0x4 DUP1 CALLDATASIZE SUB DUP2 ADD SWAP1 PUSH2 0xB0 SWAP2 SWAP1 PUSH2 0x7E7 JUMP JUMPDEST PUSH2 0x1E6 JUMP JUMPDEST STOP JUMPDEST PUSH2 0xD1 PUSH1 0x4 DUP1 CALLDATASIZE SUB DUP2 ADD SWAP1 PUSH2 0xCC SWAP2 SWAP1 PUSH2 0x7E7 JUMP JUMPDEST PUSH2 0x297 JUMP JUMPDEST PUSH1 0x40 MLOAD PUSH2 0xDF SWAP3 SWAP2 SWAP1 PUSH2 0x88C JUMP JUMPDEST PUSH1 0x40 MLOAD DUP1 SWAP2 SUB SWAP1 RETURN JUMPDEST PUSH2 0x102 PUSH1 0x4 DUP1 CALLDATASIZE SUB DUP2 ADD SWAP1 PUSH2 0xFD SWAP2 SWAP1 PUSH2 0x8BA JUMP JUMPDEST PUSH2 0x357 JUMP JUMPDEST STOP JUMPDEST PUSH2 0x11E PUSH1 0x4 DUP1 CALLDATASIZE SUB DUP2 ADD SWAP1 PUSH2 0x119 SWAP2 SWAP1 PUSH2 0x92B JUMP JUMPDEST PUSH2 0x3C8 JUMP JUMPDEST STOP JUMPDEST PUSH2 0x13A PUSH1 0x4 DUP1 CALLDATASIZE SUB DUP2 ADD SWAP1 PUSH2 0x135 SWAP2 SWAP1 PUSH2 0x92B JUMP JUMPDEST PUSH2 0x44A JUMP JUMPDEST STOP JUMPDEST PUSH2 0x156 PUSH1 0x4 DUP1 CALLDATASIZE SUB DUP2 ADD SWAP1 PUSH2 0x151 SWAP2 SWAP1 PUSH2 0x7E7 JUMP JUMPDEST PUSH2 0x4C6 JUMP JUMPDEST PUSH1 0x40 MLOAD PUSH2 0x164 SWAP3 SWAP2 SWAP1 PUSH2 0x88C JUMP JUMPDEST PUSH1 0x40 MLOAD DUP1 SWAP2 SUB SWAP1 RETURN JUMPDEST PUSH0 DUP1 SLOAD SWAP1 POP DUP3 LT PUSH2 0x1B3 JUMPI PUSH1 0x40 MLOAD PUSH32 0x8C379A000000000000000000000000000000000000000000000000000000000 DUP2 MSTORE PUSH1 0x4 ADD PUSH2 0x1AA SWAP1 PUSH2 0x9CF JUMP JUMPDEST PUSH1 0x40 MLOAD DUP1 SWAP2 SUB SWAP1 REVERT JUMPDEST DUP1 PUSH0 DUP4 DUP2 SLOAD DUP2 LT PUSH2 0x1C7 JUMPI PUSH2 0x1C6 PUSH2 0x9ED JUMP JUMPDEST JUMPDEST SWAP1 PUSH0 MSTORE PUSH1 0x20 PUSH0 KECCAK256 SWAP1 PUSH1 0x2 MUL ADD PUSH0 ADD SWAP1 DUP2 PUSH2 0x1E1 SWAP2 SWAP1 PUSH2 0xC17 JUMP JUMPDEST POP POP POP JUMP JUMPDEST PUSH0 DUP1 SLOAD SWAP1 POP DUP2 LT PUSH2 0x22C JUMPI PUSH1 0x40 MLOAD PUSH32 0x8C379A000000000000000000000000000000000000000000000000000000000 DUP2 MSTORE PUSH1 0x4 ADD PUSH2 0x223 SWAP1 PUSH2 0x9CF JUMP JUMPDEST PUSH1 0x40 MLOAD DUP1 SWAP2 SUB SWAP1 REVERT JUMPDEST PUSH0 DUP2 DUP2 SLOAD DUP2 LT PUSH2 0x23F JUMPI PUSH2 0x23E PUSH2 0x9ED JUMP JUMPDEST JUMPDEST SWAP1 PUSH0 MSTORE PUSH1 0x20 PUSH0 KECCAK256 SWAP1 PUSH1 0x2 MUL ADD PUSH1 0x1 ADD PUSH0 SWAP1 SLOAD SWAP1 PUSH2 0x100 EXP SWAP1 DIV PUSH1 0xFF AND ISZERO PUSH0 DUP3 DUP2 SLOAD DUP2 LT PUSH2 0x26F JUMPI PUSH2 0x26E PUSH2 0x9ED JUMP JUMPDEST JUMPDEST SWAP1 PUSH0 MSTORE PUSH1 0x20 PUSH0 KECCAK256 SWAP1 PUSH1 0x2 MUL ADD PUSH1 0x1 ADD PUSH0 PUSH2 0x100 EXP DUP2 SLOAD DUP2 PUSH1 0xFF MUL NOT AND SWAP1 DUP4 ISZERO ISZERO MUL OR SWAP1 SSTORE POP POP JUMP JUMPDEST PUSH0 DUP2 DUP2 SLOAD DUP2 LT PUSH2 0x2A5 JUMPI PUSH0 DUP1 REVERT JUMPDEST SWAP1 PUSH0 MSTORE PUSH1 0x20 PUSH0 KECCAK256 SWAP1 PUSH1 0x2 MUL ADD PUSH0 SWAP2 POP SWAP1 POP DUP1 PUSH0 ADD DUP1 SLOAD PUSH2 0x2C4 SWAP1 PUSH2 0xA47 JUMP JUMPDEST DUP1 PUSH1 0x1F ADD PUSH1 0x20 DUP1 SWAP2 DIV MUL PUSH1 0x20 ADD PUSH1 0x40 MLOAD SWAP1 DUP2 ADD PUSH1 0x40 MSTORE DUP1 SWAP3 SWAP2 SWAP1 DUP2 DUP2 MSTORE PUSH1 0x20 ADD DUP3 DUP1 SLOAD PUSH2 0x2F0 SWAP1 PUSH2 0xA47 JUMP JUMPDEST DUP1 ISZERO PUSH2 0x33B JUMPI DUP1 PUSH1 0x1F LT PUSH2 0x312 JUMPI PUSH2 0x100 DUP1 DUP4 SLOAD DIV MUL DUP4 MSTORE SWAP2 PUSH1 0x20 ADD SWAP2 PUSH2 0x33B JUMP JUMPDEST DUP3 ADD SWAP2 SWAP1 PUSH0 MSTORE PUSH1 0x20 PUSH0 KECCAK256 SWAP1 JUMPDEST DUP2 SLOAD DUP2 MSTORE SWAP1 PUSH1 0x1 ADD SWAP1 PUSH1 0x20 ADD DUP1 DUP4 GT PUSH2 0x31E JUMPI DUP3 SWAP1 SUB PUSH1 0x1F AND DUP3 ADD SWAP2 JUMPDEST POP POP POP POP POP SWAP1 DUP1 PUSH1 0x1 ADD PUSH0 SWAP1 SLOAD SWAP1 PUSH2 0x100 EXP SWAP1 DIV PUSH1 0xFF AND SWAP1 POP DUP3 JUMP JUMPDEST PUSH2 0x35F PUSH2 0x5F2 JUMP JUMPDEST DUP2 DUP2 PUSH0 ADD DUP2 SWAP1 MSTORE POP PUSH0 DUP2 SWAP1 DUP1 PUSH1 0x1 DUP2 SLOAD ADD DUP1 DUP3 SSTORE DUP1 SWAP2 POP POP PUSH1 0x1 SWAP1 SUB SWAP1 PUSH0 MSTORE PUSH1 0x20 PUSH0 KECCAK256 SWAP1 PUSH1 0x2 MUL ADD PUSH0 SWAP1 SWAP2 SWAP1 SWAP2 SWAP1 SWAP2 POP PUSH0 DUP3 ADD MLOAD DUP2 PUSH0 ADD SWAP1 DUP2 PUSH2 0x3A2 SWAP2 SWAP1 PUSH2 0xC17 JUMP JUMPDEST POP PUSH1 0x20 DUP3 ADD MLOAD DUP2 PUSH1 0x1 ADD PUSH0 PUSH2 0x100 EXP DUP2 SLOAD DUP2 PUSH1 0xFF MUL NOT AND SWAP1 DUP4 ISZERO ISZERO MUL OR SWAP1 SSTORE POP POP POP POP POP JUMP JUMPDEST PUSH2 0x3D0 PUSH2 0x5F2 JUMP JUMPDEST DUP3 DUP2 PUSH0 ADD DUP2 SWAP1 MSTORE POP DUP2 DUP2 PUSH1 0x20 ADD SWAP1 ISZERO ISZERO SWAP1 DUP2 ISZERO ISZERO DUP2 MSTORE POP POP PUSH0 DUP2 SWAP1 DUP1 PUSH1 0x1 DUP2 SLOAD ADD DUP1 DUP3 SSTORE DUP1 SWAP2 POP POP PUSH1 0x1 SWAP1 SUB SWAP1 PUSH0 MSTORE PUSH1 0x20 PUSH0 KECCAK256 SWAP1 PUSH1 0x2 MUL ADD PUSH0 SWAP1 SWAP2 SWAP1 SWAP2 SWAP1 SWAP2 POP PUSH0 DUP3 ADD MLOAD DUP2 PUSH0 ADD SWAP1 DUP2 PUSH2 0x423 SWAP2 SWAP1 PUSH2 0xC17 JUMP JUMPDEST POP PUSH1 0x20 DUP3 ADD MLOAD DUP2 PUSH1 0x1 ADD PUSH0 PUSH2 0x100 EXP DUP2 SLOAD DUP2 PUSH1 0xFF MUL NOT AND SWAP1 DUP4 ISZERO ISZERO MUL OR SWAP1 SSTORE POP POP POP POP POP POP JUMP JUMPDEST PUSH0 PUSH1 0x40 MLOAD DUP1 PUSH1 0x40 ADD PUSH1 0x40 MSTORE DUP1 DUP5 DUP2 MSTORE PUSH1 0x20 ADD DUP4 ISZERO ISZERO DUP2 MSTORE POP SWAP1 POP PUSH0 DUP2 SWAP1 DUP1 PUSH1 0x1 DUP2 SLOAD ADD DUP1 DUP3 SSTORE DUP1 SWAP2 POP POP PUSH1 0x1 SWAP1 SUB SWAP1 PUSH0 MSTORE PUSH1 0x20 PUSH0 KECCAK256 SWAP1 PUSH1 0x2 MUL ADD PUSH0 SWAP1 SWAP2 SWAP1 SWAP2 SWAP1 SWAP2 POP PUSH0 DUP3 ADD MLOAD DUP2 PUSH0 ADD SWAP1 DUP2 PUSH2 0x49F SWAP2 SWAP1 PUSH2 0xC17 JUMP JUMPDEST POP PUSH1 0x20 DUP3 ADD MLOAD DUP2 PUSH1 0x1 ADD PUSH0 PUSH2 0x100 EXP DUP2 SLOAD DUP2 PUSH1 0xFF MUL NOT AND SWAP1 DUP4 ISZERO ISZERO MUL OR SWAP1 SSTORE POP POP POP POP POP POP JUMP JUMPDEST PUSH1 0x60 PUSH0 PUSH0 DUP1 SLOAD SWAP1 POP DUP4 LT PUSH2 0x50F JUMPI PUSH1 0x40 MLOAD PUSH32 0x8C379A000000000000000000000000000000000000000000000000000000000 DUP2 MSTORE PUSH1 0x4 ADD PUSH2 0x506 SWAP1 PUSH2 0x9CF JUMP JUMPDEST PUSH1 0x40 MLOAD DUP1 SWAP2 SUB SWAP1 REVERT JUMPDEST PUSH0 DUP4 DUP2 SLOAD DUP2 LT PUSH2 0x522 JUMPI PUSH2 0x521 PUSH2 0x9ED JUMP JUMPDEST JUMPDEST SWAP1 PUSH0 MSTORE PUSH1 0x20 PUSH0 KECCAK256 SWAP1 PUSH1 0x2 MUL ADD PUSH0 ADD PUSH0 DUP5 DUP2 SLOAD DUP2 LT PUSH2 0x543 JUMPI PUSH2 0x542 PUSH2 0x9ED JUMP JUMPDEST JUMPDEST SWAP1 PUSH0 MSTORE PUSH1 0x20 PUSH0 KECCAK256 SWAP1 PUSH1 0x2 MUL ADD PUSH1 0x1 ADD PUSH0 SWAP1 SLOAD SWAP1 PUSH2 0x100 EXP SWAP1 DIV PUSH1 0xFF AND DUP2 DUP1 SLOAD PUSH2 0x56B SWAP1 PUSH2 0xA47 JUMP JUMPDEST DUP1 PUSH1 0x1F ADD PUSH1 0x20 DUP1 SWAP2 DIV MUL PUSH1 0x20 ADD PUSH1 0x40 MLOAD SWAP1 DUP2 ADD PUSH1 0x40 MSTORE DUP1 SWAP3 SWAP2 SWAP1 DUP2 DUP2 MSTORE PUSH1 0x20 ADD DUP3 DUP1 SLOAD PUSH2 0x597 SWAP1 PUSH2 0xA47 JUMP JUMPDEST DUP1 ISZERO PUSH2 0x5E2 JUMPI DUP1 PUSH1 0x1F LT PUSH2 0x5B9 JUMPI PUSH2 0x100 DUP1 DUP4 SLOAD DIV MUL DUP4 MSTORE SWAP2 PUSH1 0x20 ADD SWAP2 PUSH2 0x5E2 JUMP JUMPDEST DUP3 ADD SWAP2 SWAP1 PUSH0 MSTORE PUSH1 0x20 PUSH0 KECCAK256 SWAP1 JUMPDEST DUP2 SLOAD DUP2 MSTORE SWAP1 PUSH1 0x1 ADD SWAP1 PUSH1 0x20 ADD DUP1 DUP4 GT PUSH2 0x5C5 JUMPI DUP3 SWAP1 SUB PUSH1 0x1F AND DUP3 ADD SWAP2 JUMPDEST POP POP POP POP POP SWAP2 POP SWAP2 POP SWAP2 POP SWAP2 POP SWAP2 JUMP JUMPDEST PUSH1 0x40 MLOAD DUP1 PUSH1 0x40 ADD PUSH1 0x40 MSTORE DUP1 PUSH1 0x60 DUP2 MSTORE PUSH1 0x20 ADD PUSH0 ISZERO ISZERO DUP2 MSTORE POP SWAP1 JUMP JUMPDEST PUSH0 PUSH1 0x40 MLOAD SWAP1 POP SWAP1 JUMP JUMPDEST PUSH0 PUSH0 REVERT JUMPDEST PUSH0 PUSH0 REVERT JUMPDEST PUSH0 DUP2 SWAP1 POP SWAP2 SWAP1 POP JUMP JUMPDEST PUSH2 0x630 DUP2 PUSH2 0x61E JUMP JUMPDEST DUP2 EQ PUSH2 0x63A JUMPI PUSH0 PUSH0 REVERT JUMPDEST POP JUMP JUMPDEST PUSH0 DUP2 CALLDATALOAD SWAP1 POP PUSH2 0x64B DUP2 PUSH2 0x627 JUMP JUMPDEST SWAP3 SWAP2 POP POP JUMP JUMPDEST PUSH0 PUSH0 REVERT JUMPDEST PUSH0 PUSH0 REVERT JUMPDEST PUSH0 PUSH1 0x1F NOT PUSH1 0x1F DUP4 ADD AND SWAP1 POP SWAP2 SWAP1 POP JUMP JUMPDEST PUSH32 0x4E487B7100000000000000000000000000000000000000000000000000000000 PUSH0 MSTORE PUSH1 0x41 PUSH1 0x4 MSTORE PUSH1 0x24 PUSH0 REVERT JUMPDEST PUSH2 0x69F DUP3 PUSH2 0x659 JUMP JUMPDEST DUP2 ADD DUP2 DUP2 LT PUSH8 0xFFFFFFFFFFFFFFFF DUP3 GT OR ISZERO PUSH2 0x6BE JUMPI PUSH2 0x6BD PUSH2 0x669 JUMP JUMPDEST JUMPDEST DUP1 PUSH1 0x40 MSTORE POP POP POP JUMP JUMPDEST PUSH0 PUSH2 0x6D0 PUSH2 0x60D JUMP JUMPDEST SWAP1 POP PUSH2 0x6DC DUP3 DUP3 PUSH2 0x696 JUMP JUMPDEST SWAP2 SWAP1 POP JUMP JUMPDEST PUSH0 PUSH8 0xFFFFFFFFFFFFFFFF DUP3 GT ISZERO PUSH2 0x6FB JUMPI PUSH2 0x6FA PUSH2 0x669 JUMP JUMPDEST JUMPDEST PUSH2 0x704 DUP3 PUSH2 0x659 JUMP JUMPDEST SWAP1 POP PUSH1 0x20 DUP2 ADD SWAP1 POP SWAP2 SWAP1 POP JUMP JUMPDEST DUP3 DUP2 DUP4 CALLDATACOPY PUSH0 DUP4 DUP4 ADD MSTORE POP POP POP JUMP JUMPDEST PUSH0 PUSH2 0x731 PUSH2 0x72C DUP5 PUSH2 0x6E1 JUMP JUMPDEST PUSH2 0x6C7 JUMP JUMPDEST SWAP1 POP DUP3 DUP2 MSTORE PUSH1 0x20 DUP2 ADD DUP5 DUP5 DUP5 ADD GT ISZERO PUSH2 0x74D JUMPI PUSH2 0x74C PUSH2 0x655 JUMP JUMPDEST JUMPDEST PUSH2 0x758 DUP5 DUP3 DUP6 PUSH2 0x711 JUMP JUMPDEST POP SWAP4 SWAP3 POP POP POP JUMP JUMPDEST PUSH0 DUP3 PUSH1 0x1F DUP4 ADD SLT PUSH2 0x774 JUMPI PUSH2 0x773 PUSH2 0x651 JUMP JUMPDEST JUMPDEST DUP2 CALLDATALOAD PUSH2 0x784 DUP5 DUP3 PUSH1 0x20 DUP7 ADD PUSH2 0x71F JUMP JUMPDEST SWAP2 POP POP SWAP3 SWAP2 POP POP JUMP JUMPDEST PUSH0 PUSH0 PUSH1 0x40 DUP4 DUP6 SUB SLT ISZERO PUSH2 0x7A3 JUMPI PUSH2 0x7A2 PUSH2 0x616 JUMP JUMPDEST JUMPDEST PUSH0 PUSH2 0x7B0 DUP6 DUP3 DUP7 ADD PUSH2 0x63D JUMP JUMPDEST SWAP3 POP POP PUSH1 0x20 DUP4 ADD CALLDATALOAD PUSH8 0xFFFFFFFFFFFFFFFF DUP2 GT ISZERO PUSH2 0x7D1 JUMPI PUSH2 0x7D0 PUSH2 0x61A JUMP JUMPDEST JUMPDEST PUSH2 0x7DD DUP6 DUP3 DUP7 ADD PUSH2 0x760 JUMP JUMPDEST SWAP2 POP POP SWAP3 POP SWAP3 SWAP1 POP JUMP JUMPDEST PUSH0 PUSH1 0x20 DUP3 DUP5 SUB SLT ISZERO PUSH2 0x7FC JUMPI PUSH2 0x7FB PUSH2 0x616 JUMP JUMPDEST JUMPDEST PUSH0 PUSH2 0x809 DUP5 DUP3 DUP6 ADD PUSH2 0x63D JUMP JUMPDEST SWAP2 POP POP SWAP3 SWAP2 POP POP JUMP JUMPDEST PUSH0 DUP2 MLOAD SWAP1 POP SWAP2 SWAP1 POP JUMP JUMPDEST PUSH0 DUP3 DUP3 MSTORE PUSH1 0x20 DUP3 ADD SWAP1 POP SWAP3 SWAP2 POP POP JUMP JUMPDEST DUP3 DUP2 DUP4 MCOPY PUSH0 DUP4 DUP4 ADD MSTORE POP POP POP JUMP JUMPDEST PUSH0 PUSH2 0x844 DUP3 PUSH2 0x812 JUMP JUMPDEST PUSH2 0x84E DUP2 DUP6 PUSH2 0x81C JUMP JUMPDEST SWAP4 POP PUSH2 0x85E DUP2 DUP6 PUSH1 0x20 DUP7 ADD PUSH2 0x82C JUMP JUMPDEST PUSH2 0x867 DUP2 PUSH2 0x659 JUMP JUMPDEST DUP5 ADD SWAP2 POP POP SWAP3 SWAP2 POP POP JUMP JUMPDEST PUSH0 DUP2 ISZERO ISZERO SWAP1 POP SWAP2 SWAP1 POP JUMP JUMPDEST PUSH2 0x886 DUP2 PUSH2 0x872 JUMP JUMPDEST DUP3 MSTORE POP POP JUMP JUMPDEST PUSH0 PUSH1 0x40 DUP3 ADD SWAP1 POP DUP2 DUP2 SUB PUSH0 DUP4 ADD MSTORE PUSH2 0x8A4 DUP2 DUP6 PUSH2 0x83A JUMP JUMPDEST SWAP1 POP PUSH2 0x8B3 PUSH1 0x20 DUP4 ADD DUP5 PUSH2 0x87D JUMP JUMPDEST SWAP4 SWAP3 POP POP POP JUMP JUMPDEST PUSH0 PUSH1 0x20 DUP3 DUP5 SUB SLT ISZERO PUSH2 0x8CF JUMPI PUSH2 0x8CE PUSH2 0x616 JUMP JUMPDEST JUMPDEST PUSH0 DUP3 ADD CALLDATALOAD PUSH8 0xFFFFFFFFFFFFFFFF DUP2 GT ISZERO PUSH2 0x8EC JUMPI PUSH2 0x8EB PUSH2 0x61A JUMP JUMPDEST JUMPDEST PUSH2 0x8F8 DUP5 DUP3 DUP6 ADD PUSH2 0x760 JUMP JUMPDEST SWAP2 POP POP SWAP3 SWAP2 POP POP JUMP JUMPDEST PUSH2 0x90A DUP2 PUSH2 0x872 JUMP JUMPDEST DUP2 EQ PUSH2 0x914 JUMPI PUSH0 PUSH0 REVERT JUMPDEST POP JUMP JUMPDEST PUSH0 DUP2 CALLDATALOAD SWAP1 POP PUSH2 0x925 DUP2 PUSH2 0x901 JUMP JUMPDEST SWAP3 SWAP2 POP POP JUMP JUMPDEST PUSH0 PUSH0 PUSH1 0x40 DUP4 DUP6 SUB SLT ISZERO PUSH2 0x941 JUMPI PUSH2 0x940 PUSH2 0x616 JUMP JUMPDEST JUMPDEST PUSH0 DUP4 ADD CALLDATALOAD PUSH8 0xFFFFFFFFFFFFFFFF DUP2 GT ISZERO PUSH2 0x95E JUMPI PUSH2 0x95D PUSH2 0x61A JUMP JUMPDEST JUMPDEST PUSH2 0x96A DUP6 DUP3 DUP7 ADD PUSH2 0x760 JUMP JUMPDEST SWAP3 POP POP PUSH1 0x20 PUSH2 0x97B DUP6 DUP3 DUP7 ADD PUSH2 0x917 JUMP JUMPDEST SWAP2 POP POP SWAP3 POP SWAP3 SWAP1 POP JUMP JUMPDEST PUSH32 0x496E646578206F7574206F6620626F756E647300000000000000000000000000 PUSH0 DUP3 ADD MSTORE POP JUMP JUMPDEST PUSH0 PUSH2 0x9B9 PUSH1 0x13 DUP4 PUSH2 0x81C JUMP JUMPDEST SWAP2 POP PUSH2 0x9C4 DUP3 PUSH2 0x985 JUMP JUMPDEST PUSH1 0x20 DUP3 ADD SWAP1 POP SWAP2 SWAP1 POP JUMP JUMPDEST PUSH0 PUSH1 0x20 DUP3 ADD SWAP1 POP DUP2 DUP2 SUB PUSH0 DUP4 ADD MSTORE PUSH2 0x9E6 DUP2 PUSH2 0x9AD JUMP JUMPDEST SWAP1 POP SWAP2 SWAP1 POP JUMP JUMPDEST PUSH32 0x4E487B7100000000000000000000000000000000000000000000000000000000 PUSH0 MSTORE PUSH1 0x32 PUSH1 0x4 MSTORE PUSH1 0x24 PUSH0 REVERT JUMPDEST PUSH32 0x4E487B7100000000000000000000000000000000000000000000000000000000 PUSH0 MSTORE PUSH1 0x22 PUSH1 0x4 MSTORE PUSH1 0x24 PUSH0 REVERT JUMPDEST PUSH0 PUSH1 0x2 DUP3 DIV SWAP1 POP PUSH1 0x1 DUP3 AND DUP1 PUSH2 0xA5E JUMPI PUSH1 0x7F DUP3 AND SWAP2 POP JUMPDEST PUSH1 0x20 DUP3 LT DUP2 SUB PUSH2 0xA71 JUMPI PUSH2 0xA70 PUSH2 0xA1A JUMP JUMPDEST JUMPDEST POP SWAP2 SWAP1 POP JUMP JUMPDEST PUSH0 DUP2 SWAP1 POP DUP2 PUSH0 MSTORE PUSH1 0x20 PUSH0 KECCAK256 SWAP1 POP SWAP2 SWAP1 POP JUMP JUMPDEST PUSH0 PUSH1 0x20 PUSH1 0x1F DUP4 ADD DIV SWAP1 POP SWAP2 SWAP1 POP JUMP JUMPDEST PUSH0 DUP3 DUP3 SHL SWAP1 POP SWAP3 SWAP2 POP POP JUMP JUMPDEST PUSH0 PUSH1 0x8 DUP4 MUL PUSH2 0xAD3 PUSH32 0xFFFFFFFFFFFFFFFFFFFFFFFFFFFFFFFFFFFFFFFFFFFFFFFFFFFFFFFFFFFFFFFF DUP3 PUSH2 0xA98 JUMP JUMPDEST PUSH2 0xADD DUP7 DUP4 PUSH2 0xA98 JUMP JUMPDEST SWAP6 POP DUP1 NOT DUP5 AND SWAP4 POP DUP1 DUP7 AND DUP5 OR SWAP3 POP POP POP SWAP4 SWAP3 POP POP POP JUMP JUMPDEST PUSH0 DUP2 SWAP1 POP SWAP2 SWAP1 POP JUMP JUMPDEST PUSH0 PUSH2 0xB18 PUSH2 0xB13 PUSH2 0xB0E DUP5 PUSH2 0x61E JUMP JUMPDEST PUSH2 0xAF5 JUMP JUMPDEST PUSH2 0x61E JUMP JUMPDEST SWAP1 POP SWAP2 SWAP1 POP JUMP JUMPDEST PUSH0 DUP2 SWAP1 POP SWAP2 SWAP1 POP JUMP JUMPDEST PUSH2 0xB31 DUP4 PUSH2 0xAFE JUMP JUMPDEST PUSH2 0xB45 PUSH2 0xB3D DUP3 PUSH2 0xB1F JUMP JUMPDEST DUP5 DUP5 SLOAD PUSH2 0xAA4 JUMP JUMPDEST DUP3 SSTORE POP POP POP POP JUMP JUMPDEST PUSH0 PUSH0 SWAP1 POP SWAP1 JUMP JUMPDEST PUSH2 0xB5C PUSH2 0xB4D JUMP JUMPDEST PUSH2 0xB67 DUP2 DUP5 DUP5 PUSH2 0xB28 JUMP JUMPDEST POP POP POP JUMP JUMPDEST JUMPDEST DUP2 DUP2 LT ISZERO PUSH2 0xB8A JUMPI PUSH2 0xB7F PUSH0 DUP3 PUSH2 0xB54 JUMP JUMPDEST PUSH1 0x1 DUP2 ADD SWAP1 POP PUSH2 0xB6D JUMP JUMPDEST POP POP JUMP JUMPDEST PUSH1 0x1F DUP3 GT ISZERO PUSH2 0xBCF JUMPI PUSH2 0xBA0 DUP2 PUSH2 0xA77 JUMP JUMPDEST PUSH2 0xBA9 DUP5 PUSH2 0xA89 JUMP JUMPDEST DUP2 ADD PUSH1 0x20 DUP6 LT ISZERO PUSH2 0xBB8 JUMPI DUP2 SWAP1 POP JUMPDEST PUSH2 0xBCC PUSH2 0xBC4 DUP6 PUSH2 0xA89 JUMP JUMPDEST DUP4 ADD DUP3 PUSH2 0xB6C JUMP JUMPDEST POP POP JUMPDEST POP POP POP JUMP JUMPDEST PUSH0 DUP3 DUP3 SHR SWAP1 POP SWAP3 SWAP2 POP POP JUMP JUMPDEST PUSH0 PUSH2 0xBEF PUSH0 NOT DUP5 PUSH1 0x8 MUL PUSH2 0xBD4 JUMP JUMPDEST NOT DUP1 DUP4 AND SWAP2 POP POP SWAP3 SWAP2 POP POP JUMP JUMPDEST PUSH0 PUSH2 0xC07 DUP4 DUP4 PUSH2 0xBE0 JUMP JUMPDEST SWAP2 POP DUP3 PUSH1 0x2 MUL DUP3 OR SWAP1 POP SWAP3 SWAP2 POP POP JUMP JUMPDEST PUSH2 0xC20 DUP3 PUSH2 0x812 JUMP JUMPDEST PUSH8 0xFFFFFFFFFFFFFFFF DUP2 GT ISZERO PUSH2 0xC39 JUMPI PUSH2 0xC38 PUSH2 0x669 JUMP JUMPDEST JUMPDEST PUSH2 0xC43 DUP3 SLOAD PUSH2 0xA47 JUMP JUMPDEST PUSH2 0xC4E DUP3 DUP3 DUP6 PUSH2 0xB8E JUMP JUMPDEST PUSH0 PUSH1 0x20 SWAP1 POP PUSH1 0x1F DUP4 GT PUSH1 0x1 DUP2 EQ PUSH2 0xC7F JUMPI PUSH0 DUP5 ISZERO PUSH2 0xC6D JUMPI DUP3 DUP8 ADD MLOAD SWAP1 POP JUMPDEST PUSH2 0xC77 DUP6 DUP3 PUSH2 0xBFC JUMP JUMPDEST DUP7 SSTORE POP PUSH2 0xCDE JUMP JUMPDEST PUSH1 0x1F NOT DUP5 AND PUSH2 0xC8D DUP7 PUSH2 0xA77 JUMP JUMPDEST PUSH0 JUMPDEST DUP3 DUP2 LT ISZERO PUSH2 0xCB4 JUMPI DUP5 DUP10 ADD MLOAD DUP3 SSTORE PUSH1 0x1 DUP3 ADD SWAP2 POP PUSH1 0x20 DUP6 ADD SWAP5 POP PUSH1 0x20 DUP2 ADD SWAP1 POP PUSH2 0xC8F JUMP JUMPDEST DUP7 DUP4 LT ISZERO PUSH2 0xCD1 JUMPI DUP5 DUP10 ADD MLOAD PUSH2 0xCCD PUSH1 0x1F DUP10 AND DUP3 PUSH2 0xBE0 JUMP JUMPDEST DUP4 SSTORE POP JUMPDEST PUSH1 0x1 PUSH1 0x2 DUP9 MUL ADD DUP9 SSTORE POP POP POP JUMPDEST POP POP POP POP POP POP JUMP INVALID LOG2 PUSH5 0x6970667358 0x22 SLT KECCAK256 TSTORE 0xC 0xD7 0xE9 DUP6 KECCAK256 STOP PUSH3 0x9EB614 RJUMP 0xB2BC PUSH5 0x7BEFD67339 0xE9 NOT PUSH17 0xEB149EB55BA23A127F64736F6C63430008 0x1E STOP CALLER "
				},
				"gasEstimates": {
					"creation": {
						"codeDepositCost": "671200",
						"executionCost": "700",
						"totalCost": "671900"
					},
					"external": {
						"addBookDirect(string,bool)": "infinite",
						"addBookEmpty(string)": "infinite",
						"addBookKeyValue(string,bool)": "infinite",
						"books(uint256)": "infinite",
						"getBook(uint256)": "infinite",
						"toggleIsFiction(uint256)": "33346",
						"updateBookTitle(uint256,string)": "infinite"
					}
				},
				"methodIdentifiers": {
					"addBookDirect(string,bool)": "cb417346",
					"addBookEmpty(string)": "99855195",
					"addBookKeyValue(string,bool)": "c4aabd40",
					"books(uint256)": "68744046",
					"getBook(uint256)": "e0ff5b8b",
					"toggleIsFiction(uint256)": "63861f91",
					"updateBookTitle(uint256,string)": "4ffb8b85"
				}
			},
			"storageLayout": {
				"storage": [
					{
						"astId": 10,
						"contract": "bookstruk.sol:Library",
						"label": "books",
						"offset": 0,
						"slot": "0",
						"type": "t_array(t_struct(Book)6_storage)dyn_storage"
					}
				],
				"types": {
					"t_array(t_struct(Book)6_storage)dyn_storage": {
						"base": "t_struct(Book)6_storage",
						"encoding": "dynamic_array",
						"label": "struct Library.Book[]",
						"numberOfBytes": "32"
					},
					"t_bool": {
						"encoding": "inplace",
						"label": "bool",
						"numberOfBytes": "1"
					},
					"t_string_storage": {
						"encoding": "bytes",
						"label": "string",
						"numberOfBytes": "32"
					},
					"t_struct(Book)6_storage": {
						"encoding": "inplace",
						"label": "struct Library.Book",
						"members": [
							{
								"astId": 3,
								"contract": "bookstruk.sol:Library",
								"label": "title",
								"offset": 0,
								"slot": "0",
								"type": "t_string_storage"
							},
							{
								"astId": 5,
								"contract": "bookstruk.sol:Library",
								"label": "isFiction",
								"offset": 0,
								"slot": "1",
								"type": "t_bool"
							}
						],
						"numberOfBytes": "64"
					}
				}
			},
			"userdoc": {
				"kind": "user",
				"methods": {},
				"version": 1
			}
		}
	}
}