{
	"stringutils.sol": {
		"StringManipulator": {
			"abi": [
				{
					"inputs": [
						{
							"internalType": "string",
							"name": "a",
							"type": "string"
						},
						{
							"internalType": "string",
							"name": "b",
							"type": "string"
						}
					],
					"name": "getConcatenatedString",
					"outputs": [
						{
							"internalType": "string",
							"name": "",
							"type": "string"
						}
					],
					"stateMutability": "pure",
					"type": "function"
				},
				{
					"inputs": [
						{
							"internalType": "string",
							"name": "str",
							"type": "string"
						},
						{
							"internalType": "uint256",
							"name": "start",
							"type": "uint256"
						},
						{
							"internalType": "uint256",
							"name": "end",
							"type": "uint256"
						}
					],
					"name": "getSlicedString",
					"outputs": [
						{
							"internalType": "string",
							"name": "",
							"type": "string"
						}
					],
					"stateMutability": "pure",
					"type": "function"
				},
				{
					"inputs": [
						{
							"internalType": "string",
							"name": "str",
							"type": "string"
						}
					],
					"name": "getStringLength",
					"outputs": [
						{
							"internalType": "uint256",
							"name": "",
							"type": "uint256"
						}
					],
					"stateMutability": "pure",
					"type": "function"
				}
			],
			"devdoc": {
				"kind": "dev",
				"methods": {},
				"version": 1
			},
			"evm": {
				"assembly": "    /* \"stringutils.sol\":681:1120  contract StringManipulator {... */\n  mstore(0x40, 0x80)\n  callvalue\n  dup1\n  iszero\n  tag_1\n  jumpi\n  revert(0x00, 0x00)\ntag_1:\n  pop\n  dataSize(sub_0)\n  dup1\n  dataOffset(sub_0)\n  0x00\n  codecopy\n  0x00\n  return\nstop\n\nsub_0: assembly {\n        /* \"stringutils.sol\":681:1120  contract StringManipulator {... */\n      mstore(0x40, 0x80)\n      callvalue\n      dup1\n      iszero\n      tag_1\n      jumpi\n      revert(0x00, 0x00)\n    tag_1:\n      pop\n      jumpi(tag_2, lt(calldatasize, 0x04))\n      shr(0xe0, calldataload(0x00))\n      dup1\n      0x65c19af0\n      eq\n      tag_3\n      jumpi\n      dup1\n      0xdf49c851\n      eq\n      tag_4\n      jumpi\n      dup1\n      0xf045a522\n      eq\n      tag_5\n      jumpi\n    tag_2:\n      revert(0x00, 0x00)\n        /* \"stringutils.sol\":1020:1117  function getStringLength(string memory str) public pure returns (uint) {... */\n    tag_3:\n      tag_6\n      0x04\n      dup1\n      calldatasize\n      sub\n      dup2\n      add\n      swap1\n      tag_7\n      swap2\n      swap1\n      tag_8\n      jump\t// in\n    tag_7:\n      tag_9\n      jump\t// in\n    tag_6:\n      mload(0x40)\n      tag_10\n      swap2\n      swap1\n      tag_11\n      jump\t// in\n    tag_10:\n      mload(0x40)\n      dup1\n      swap2\n      sub\n      swap1\n      return\n        /* \"stringutils.sol\":744:875  function getConcatenatedString(string memory a, string memory b) public pure returns (string memory) {... */\n    tag_4:\n      tag_12\n      0x04\n      dup1\n      calldatasize\n      sub\n      dup2\n      add\n      swap1\n      tag_13\n      swap2\n      swap1\n      tag_14\n      jump\t// in\n    tag_13:\n      tag_15\n      jump\t// in\n    tag_12:\n      mload(0x40)\n      tag_16\n      swap2\n      swap1\n      tag_17\n      jump\t// in\n    tag_16:\n      mload(0x40)\n      dup1\n      swap2\n      sub\n      swap1\n      return\n        /* \"stringutils.sol\":879:1016  function getSlicedString(string memory str, uint start, uint end) public pure returns (string memory) {... */\n    tag_5:\n      tag_18\n      0x04\n      dup1\n      calldatasize\n      sub\n      dup2\n      add\n      swap1\n      tag_19\n      swap2\n      swap1\n      tag_20\n      jump\t// in\n    tag_19:\n      tag_21\n      jump\t// in\n    tag_18:\n      mload(0x40)\n      tag_22\n      swap2\n      swap1\n      tag_17\n      jump\t// in\n    tag_22:\n      mload(0x40)\n      dup1\n      swap2\n      sub\n      swap1\n      return\n        /* \"stringutils.sol\":1020:1117  function getStringLength(string memory str) public pure returns (uint) {... */\n    tag_9:\n        /* \"stringutils.sol\":1085:1089  uint */\n      0x00\n        /* \"stringutils.sol\":1101:1113  str.length() */\n      tag_24\n        /* \"stringutils.sol\":1101:1104  str */\n      dup3\n        /* \"stringutils.sol\":1101:1111  str.length */\n      tag_25\n        /* \"stringutils.sol\":1101:1113  str.length() */\n      jump\t// in\n    tag_24:\n        /* \"stringutils.sol\":1094:1113  return str.length() */\n      swap1\n      pop\n        /* \"stringutils.sol\":1020:1117  function getStringLength(string memory str) public pure returns (uint) {... */\n      swap2\n      swap1\n      pop\n      jump\t// out\n        /* \"stringutils.sol\":744:875  function getConcatenatedString(string memory a, string memory b) public pure returns (string memory) {... */\n    tag_15:\n        /* \"stringutils.sol\":830:843  string memory */\n      0x60\n        /* \"stringutils.sol\":855:871  a.concatenate(b) */\n      tag_27\n        /* \"stringutils.sol\":869:870  b */\n      dup3\n        /* \"stringutils.sol\":855:856  a */\n      dup5\n        /* \"stringutils.sol\":855:868  a.concatenate */\n      tag_28\n      swap1\n        /* \"stringutils.sol\":855:871  a.concatenate(b) */\n      swap2\n      swap1\n      0xffffffff\n      and\n      jump\t// in\n    tag_27:\n        /* \"stringutils.sol\":848:871  return a.concatenate(b) */\n      swap1\n      pop\n        /* \"stringutils.sol\":744:875  function getConcatenatedString(string memory a, string memory b) public pure returns (string memory) {... */\n      swap3\n      swap2\n      pop\n      pop\n      jump\t// out\n        /* \"stringutils.sol\":879:1016  function getSlicedString(string memory str, uint start, uint end) public pure returns (string memory) {... */\n    tag_21:\n        /* \"stringutils.sol\":966:979  string memory */\n      0x60\n        /* \"stringutils.sol\":991:1012  str.slice(start, end) */\n      tag_30\n        /* \"stringutils.sol\":1001:1006  start */\n      dup4\n        /* \"stringutils.sol\":1008:1011  end */\n      dup4\n        /* \"stringutils.sol\":991:994  str */\n      dup7\n        /* \"stringutils.sol\":991:1000  str.slice */\n      tag_31\n      swap1\n        /* \"stringutils.sol\":991:1012  str.slice(start, end) */\n      swap3\n      swap2\n      swap1\n      0xffffffff\n      and\n      jump\t// in\n    tag_30:\n        /* \"stringutils.sol\":984:1012  return str.slice(start, end) */\n      swap1\n      pop\n        /* \"stringutils.sol\":879:1016  function getSlicedString(string memory str, uint start, uint end) public pure returns (string memory) {... */\n      swap4\n      swap3\n      pop\n      pop\n      pop\n      jump\t// out\n        /* \"stringutils.sol\":579:674  function length(string memory str) internal pure returns (uint) {... */\n    tag_25:\n        /* \"stringutils.sol\":637:641  uint */\n      0x00\n        /* \"stringutils.sol\":659:662  str */\n      dup2\n        /* \"stringutils.sol\":653:670  bytes(str).length */\n      mload\n        /* \"stringutils.sol\":646:670  return bytes(str).length */\n      swap1\n      pop\n        /* \"stringutils.sol\":579:674  function length(string memory str) internal pure returns (uint) {... */\n      swap2\n      swap1\n      pop\n      jump\t// out\n        /* \"stringutils.sol\":83:220  function concatenate(string memory a, string memory b) internal pure returns (string memory) {... */\n    tag_28:\n        /* \"stringutils.sol\":161:174  string memory */\n      0x60\n        /* \"stringutils.sol\":210:211  a */\n      dup3\n        /* \"stringutils.sol\":213:214  b */\n      dup3\n        /* \"stringutils.sol\":193:215  abi.encodePacked(a, b) */\n      add(0x20, mload(0x40))\n      tag_34\n      swap3\n      swap2\n      swap1\n      tag_35\n      jump\t// in\n    tag_34:\n      mload(0x40)\n      0x20\n      dup2\n      dup4\n      sub\n      sub\n      dup2\n      mstore\n      swap1\n      0x40\n      mstore\n        /* \"stringutils.sol\":179:216  return string(abi.encodePacked(a, b)) */\n      swap1\n      pop\n        /* \"stringutils.sol\":83:220  function concatenate(string memory a, string memory b) internal pure returns (string memory) {... */\n      swap3\n      swap2\n      pop\n      pop\n      jump\t// out\n        /* \"stringutils.sol\":224:575  function slice(string memory str, uint start, uint end) internal pure returns (string memory) {... */\n    tag_31:\n        /* \"stringutils.sol\":303:316  string memory */\n      0x60\n        /* \"stringutils.sol\":321:342  bytes memory strBytes */\n      0x00\n        /* \"stringutils.sol\":351:354  str */\n      dup5\n        /* \"stringutils.sol\":321:355  bytes memory strBytes = bytes(str) */\n      swap1\n      pop\n        /* \"stringutils.sol\":374:377  end */\n      dup3\n        /* \"stringutils.sol\":366:371  start */\n      dup5\n        /* \"stringutils.sol\":366:377  start < end */\n      lt\n        /* \"stringutils.sol\":366:403  start < end && end <= strBytes.length */\n      dup1\n      iszero\n      tag_37\n      jumpi\n      pop\n        /* \"stringutils.sol\":388:396  strBytes */\n      dup1\n        /* \"stringutils.sol\":388:403  strBytes.length */\n      mload\n        /* \"stringutils.sol\":381:384  end */\n      dup4\n        /* \"stringutils.sol\":381:403  end <= strBytes.length */\n      gt\n      iszero\n        /* \"stringutils.sol\":366:403  start < end && end <= strBytes.length */\n    tag_37:\n        /* \"stringutils.sol\":358:423  require(start < end && end <= strBytes.length, \"Invalid indices\") */\n      tag_38\n      jumpi\n      mload(0x40)\n      0x08c379a000000000000000000000000000000000000000000000000000000000\n      dup2\n      mstore\n      0x04\n      add\n      tag_39\n      swap1\n      tag_40\n      jump\t// in\n    tag_39:\n      mload(0x40)\n      dup1\n      swap2\n      sub\n      swap1\n      revert\n    tag_38:\n        /* \"stringutils.sol\":428:447  bytes memory result */\n      0x00\n        /* \"stringutils.sol\":466:471  start */\n      dup5\n        /* \"stringutils.sol\":460:463  end */\n      dup5\n        /* \"stringutils.sol\":460:471  end - start */\n      tag_41\n      swap2\n      swap1\n      tag_42\n      jump\t// in\n    tag_41:\n        /* \"stringutils.sol\":450:472  new bytes(end - start) */\n      0xffffffffffffffff\n      dup2\n      gt\n      iszero\n      tag_43\n      jumpi\n      tag_44\n      tag_45\n      jump\t// in\n    tag_44:\n    tag_43:\n      mload(0x40)\n      swap1\n      dup1\n      dup3\n      mstore\n      dup1\n      0x1f\n      add\n      not(0x1f)\n      and\n      0x20\n      add\n      dup3\n      add\n      0x40\n      mstore\n      dup1\n      iszero\n      tag_46\n      jumpi\n      dup2\n      0x20\n      add\n      0x01\n      dup3\n      mul\n      dup1\n      calldatasize\n      dup4\n      calldatacopy\n      dup1\n      dup3\n      add\n      swap2\n      pop\n      pop\n      swap1\n      pop\n    tag_46:\n      pop\n        /* \"stringutils.sol\":428:472  bytes memory result = new bytes(end - start) */\n      swap1\n      pop\n        /* \"stringutils.sol\":480:486  uint i */\n      0x00\n        /* \"stringutils.sol\":489:494  start */\n      dup6\n        /* \"stringutils.sol\":480:494  uint i = start */\n      swap1\n      pop\n        /* \"stringutils.sol\":475:548  for (uint i = start; i < end; i++) {... */\n    tag_47:\n        /* \"stringutils.sol\":500:503  end */\n      dup5\n        /* \"stringutils.sol\":496:497  i */\n      dup2\n        /* \"stringutils.sol\":496:503  i < end */\n      lt\n        /* \"stringutils.sol\":475:548  for (uint i = start; i < end; i++) {... */\n      iszero\n      tag_48\n      jumpi\n        /* \"stringutils.sol\":533:541  strBytes */\n      dup3\n        /* \"stringutils.sol\":542:543  i */\n      dup2\n        /* \"stringutils.sol\":533:544  strBytes[i] */\n      dup2\n      mload\n      dup2\n      lt\n      tag_50\n      jumpi\n      tag_51\n      tag_52\n      jump\t// in\n    tag_51:\n    tag_50:\n      0x20\n      add\n      add\n      mload\n      0xf8\n      shr\n      0xf8\n      shl\n        /* \"stringutils.sol\":513:519  result */\n      dup3\n        /* \"stringutils.sol\":524:529  start */\n      dup8\n        /* \"stringutils.sol\":520:521  i */\n      dup4\n        /* \"stringutils.sol\":520:529  i - start */\n      tag_53\n      swap2\n      swap1\n      tag_42\n      jump\t// in\n    tag_53:\n        /* \"stringutils.sol\":513:530  result[i - start] */\n      dup2\n      mload\n      dup2\n      lt\n      tag_54\n      jumpi\n      tag_55\n      tag_52\n      jump\t// in\n    tag_55:\n    tag_54:\n      0x20\n      add\n      add\n        /* \"stringutils.sol\":513:544  result[i - start] = strBytes[i] */\n      swap1\n      not(0xffffffffffffffffffffffffffffffffffffffffffffffffffffffffffffff)\n      and\n      swap1\n      dup2\n      0x00\n      byte\n      swap1\n      mstore8\n      pop\n        /* \"stringutils.sol\":505:508  i++ */\n      dup1\n      dup1\n      0x01\n      add\n      swap2\n      pop\n      pop\n        /* \"stringutils.sol\":475:548  for (uint i = start; i < end; i++) {... */\n      jump(tag_47)\n    tag_48:\n      pop\n        /* \"stringutils.sol\":564:570  result */\n      dup1\n        /* \"stringutils.sol\":550:571  return string(result) */\n      swap3\n      pop\n      pop\n      pop\n        /* \"stringutils.sol\":224:575  function slice(string memory str, uint start, uint end) internal pure returns (string memory) {... */\n      swap4\n      swap3\n      pop\n      pop\n      pop\n      jump\t// out\n        /* \"#utility.yul\":7:82   */\n    tag_56:\n        /* \"#utility.yul\":40:46   */\n      0x00\n        /* \"#utility.yul\":73:75   */\n      0x40\n        /* \"#utility.yul\":67:76   */\n      mload\n        /* \"#utility.yul\":57:76   */\n      swap1\n      pop\n        /* \"#utility.yul\":7:82   */\n      swap1\n      jump\t// out\n        /* \"#utility.yul\":88:205   */\n    tag_57:\n        /* \"#utility.yul\":197:198   */\n      0x00\n        /* \"#utility.yul\":194:195   */\n      0x00\n        /* \"#utility.yul\":187:199   */\n      revert\n        /* \"#utility.yul\":211:328   */\n    tag_58:\n        /* \"#utility.yul\":320:321   */\n      0x00\n        /* \"#utility.yul\":317:318   */\n      0x00\n        /* \"#utility.yul\":310:322   */\n      revert\n        /* \"#utility.yul\":334:451   */\n    tag_59:\n        /* \"#utility.yul\":443:444   */\n      0x00\n        /* \"#utility.yul\":440:441   */\n      0x00\n        /* \"#utility.yul\":433:445   */\n      revert\n        /* \"#utility.yul\":457:574   */\n    tag_60:\n        /* \"#utility.yul\":566:567   */\n      0x00\n        /* \"#utility.yul\":563:564   */\n      0x00\n        /* \"#utility.yul\":556:568   */\n      revert\n        /* \"#utility.yul\":580:682   */\n    tag_61:\n        /* \"#utility.yul\":621:627   */\n      0x00\n        /* \"#utility.yul\":672:674   */\n      0x1f\n        /* \"#utility.yul\":668:675   */\n      not\n        /* \"#utility.yul\":663:665   */\n      0x1f\n        /* \"#utility.yul\":656:661   */\n      dup4\n        /* \"#utility.yul\":652:666   */\n      add\n        /* \"#utility.yul\":648:676   */\n      and\n        /* \"#utility.yul\":638:676   */\n      swap1\n      pop\n        /* \"#utility.yul\":580:682   */\n      swap2\n      swap1\n      pop\n      jump\t// out\n        /* \"#utility.yul\":688:868   */\n    tag_45:\n        /* \"#utility.yul\":736:813   */\n      0x4e487b7100000000000000000000000000000000000000000000000000000000\n        /* \"#utility.yul\":733:734   */\n      0x00\n        /* \"#utility.yul\":726:814   */\n      mstore\n        /* \"#utility.yul\":833:837   */\n      0x41\n        /* \"#utility.yul\":830:831   */\n      0x04\n        /* \"#utility.yul\":823:838   */\n      mstore\n        /* \"#utility.yul\":857:861   */\n      0x24\n        /* \"#utility.yul\":854:855   */\n      0x00\n        /* \"#utility.yul\":847:862   */\n      revert\n        /* \"#utility.yul\":874:1155   */\n    tag_62:\n        /* \"#utility.yul\":957:984   */\n      tag_90\n        /* \"#utility.yul\":979:983   */\n      dup3\n        /* \"#utility.yul\":957:984   */\n      tag_61\n      jump\t// in\n    tag_90:\n        /* \"#utility.yul\":949:955   */\n      dup2\n        /* \"#utility.yul\":945:985   */\n      add\n        /* \"#utility.yul\":1087:1093   */\n      dup2\n        /* \"#utility.yul\":1075:1085   */\n      dup2\n        /* \"#utility.yul\":1072:1094   */\n      lt\n        /* \"#utility.yul\":1051:1069   */\n      0xffffffffffffffff\n        /* \"#utility.yul\":1039:1049   */\n      dup3\n        /* \"#utility.yul\":1036:1070   */\n      gt\n        /* \"#utility.yul\":1033:1095   */\n      or\n        /* \"#utility.yul\":1030:1118   */\n      iszero\n      tag_91\n      jumpi\n        /* \"#utility.yul\":1098:1116   */\n      tag_92\n      tag_45\n      jump\t// in\n    tag_92:\n        /* \"#utility.yul\":1030:1118   */\n    tag_91:\n        /* \"#utility.yul\":1138:1148   */\n      dup1\n        /* \"#utility.yul\":1134:1136   */\n      0x40\n        /* \"#utility.yul\":1127:1149   */\n      mstore\n        /* \"#utility.yul\":917:1155   */\n      pop\n        /* \"#utility.yul\":874:1155   */\n      pop\n      pop\n      jump\t// out\n        /* \"#utility.yul\":1161:1290   */\n    tag_63:\n        /* \"#utility.yul\":1195:1201   */\n      0x00\n        /* \"#utility.yul\":1222:1242   */\n      tag_94\n      tag_56\n      jump\t// in\n    tag_94:\n        /* \"#utility.yul\":1212:1242   */\n      swap1\n      pop\n        /* \"#utility.yul\":1251:1284   */\n      tag_95\n        /* \"#utility.yul\":1279:1283   */\n      dup3\n        /* \"#utility.yul\":1271:1277   */\n      dup3\n        /* \"#utility.yul\":1251:1284   */\n      tag_62\n      jump\t// in\n    tag_95:\n        /* \"#utility.yul\":1161:1290   */\n      swap2\n      swap1\n      pop\n      jump\t// out\n        /* \"#utility.yul\":1296:1604   */\n    tag_64:\n        /* \"#utility.yul\":1358:1362   */\n      0x00\n        /* \"#utility.yul\":1448:1466   */\n      0xffffffffffffffff\n        /* \"#utility.yul\":1440:1446   */\n      dup3\n        /* \"#utility.yul\":1437:1467   */\n      gt\n        /* \"#utility.yul\":1434:1490   */\n      iszero\n      tag_97\n      jumpi\n        /* \"#utility.yul\":1470:1488   */\n      tag_98\n      tag_45\n      jump\t// in\n    tag_98:\n        /* \"#utility.yul\":1434:1490   */\n    tag_97:\n        /* \"#utility.yul\":1508:1537   */\n      tag_99\n        /* \"#utility.yul\":1530:1536   */\n      dup3\n        /* \"#utility.yul\":1508:1537   */\n      tag_61\n      jump\t// in\n    tag_99:\n        /* \"#utility.yul\":1500:1537   */\n      swap1\n      pop\n        /* \"#utility.yul\":1592:1596   */\n      0x20\n        /* \"#utility.yul\":1586:1590   */\n      dup2\n        /* \"#utility.yul\":1582:1597   */\n      add\n        /* \"#utility.yul\":1574:1597   */\n      swap1\n      pop\n        /* \"#utility.yul\":1296:1604   */\n      swap2\n      swap1\n      pop\n      jump\t// out\n        /* \"#utility.yul\":1610:1758   */\n    tag_65:\n        /* \"#utility.yul\":1708:1714   */\n      dup3\n        /* \"#utility.yul\":1703:1706   */\n      dup2\n        /* \"#utility.yul\":1698:1701   */\n      dup4\n        /* \"#utility.yul\":1685:1715   */\n      calldatacopy\n        /* \"#utility.yul\":1749:1750   */\n      0x00\n        /* \"#utility.yul\":1740:1746   */\n      dup4\n        /* \"#utility.yul\":1735:1738   */\n      dup4\n        /* \"#utility.yul\":1731:1747   */\n      add\n        /* \"#utility.yul\":1724:1751   */\n      mstore\n        /* \"#utility.yul\":1610:1758   */\n      pop\n      pop\n      pop\n      jump\t// out\n        /* \"#utility.yul\":1764:2189   */\n    tag_66:\n        /* \"#utility.yul\":1842:1847   */\n      0x00\n        /* \"#utility.yul\":1867:1933   */\n      tag_102\n        /* \"#utility.yul\":1883:1932   */\n      tag_103\n        /* \"#utility.yul\":1925:1931   */\n      dup5\n        /* \"#utility.yul\":1883:1932   */\n      tag_64\n      jump\t// in\n    tag_103:\n        /* \"#utility.yul\":1867:1933   */\n      tag_63\n      jump\t// in\n    tag_102:\n        /* \"#utility.yul\":1858:1933   */\n      swap1\n      pop\n        /* \"#utility.yul\":1956:1962   */\n      dup3\n        /* \"#utility.yul\":1949:1954   */\n      dup2\n        /* \"#utility.yul\":1942:1963   */\n      mstore\n        /* \"#utility.yul\":1994:1998   */\n      0x20\n        /* \"#utility.yul\":1987:1992   */\n      dup2\n        /* \"#utility.yul\":1983:1999   */\n      add\n        /* \"#utility.yul\":2032:2035   */\n      dup5\n        /* \"#utility.yul\":2023:2029   */\n      dup5\n        /* \"#utility.yul\":2018:2021   */\n      dup5\n        /* \"#utility.yul\":2014:2030   */\n      add\n        /* \"#utility.yul\":2011:2036   */\n      gt\n        /* \"#utility.yul\":2008:2120   */\n      iszero\n      tag_104\n      jumpi\n        /* \"#utility.yul\":2039:2118   */\n      tag_105\n      tag_60\n      jump\t// in\n    tag_105:\n        /* \"#utility.yul\":2008:2120   */\n    tag_104:\n        /* \"#utility.yul\":2129:2183   */\n      tag_106\n        /* \"#utility.yul\":2176:2182   */\n      dup5\n        /* \"#utility.yul\":2171:2174   */\n      dup3\n        /* \"#utility.yul\":2166:2169   */\n      dup6\n        /* \"#utility.yul\":2129:2183   */\n      tag_65\n      jump\t// in\n    tag_106:\n        /* \"#utility.yul\":1848:2189   */\n      pop\n        /* \"#utility.yul\":1764:2189   */\n      swap4\n      swap3\n      pop\n      pop\n      pop\n      jump\t// out\n        /* \"#utility.yul\":2209:2549   */\n    tag_67:\n        /* \"#utility.yul\":2265:2270   */\n      0x00\n        /* \"#utility.yul\":2314:2317   */\n      dup3\n        /* \"#utility.yul\":2307:2311   */\n      0x1f\n        /* \"#utility.yul\":2299:2305   */\n      dup4\n        /* \"#utility.yul\":2295:2312   */\n      add\n        /* \"#utility.yul\":2291:2318   */\n      slt\n        /* \"#utility.yul\":2281:2403   */\n      tag_108\n      jumpi\n        /* \"#utility.yul\":2322:2401   */\n      tag_109\n      tag_59\n      jump\t// in\n    tag_109:\n        /* \"#utility.yul\":2281:2403   */\n    tag_108:\n        /* \"#utility.yul\":2439:2445   */\n      dup2\n        /* \"#utility.yul\":2426:2446   */\n      calldataload\n        /* \"#utility.yul\":2464:2543   */\n      tag_110\n        /* \"#utility.yul\":2539:2542   */\n      dup5\n        /* \"#utility.yul\":2531:2537   */\n      dup3\n        /* \"#utility.yul\":2524:2528   */\n      0x20\n        /* \"#utility.yul\":2516:2522   */\n      dup7\n        /* \"#utility.yul\":2512:2529   */\n      add\n        /* \"#utility.yul\":2464:2543   */\n      tag_66\n      jump\t// in\n    tag_110:\n        /* \"#utility.yul\":2455:2543   */\n      swap2\n      pop\n        /* \"#utility.yul\":2271:2549   */\n      pop\n        /* \"#utility.yul\":2209:2549   */\n      swap3\n      swap2\n      pop\n      pop\n      jump\t// out\n        /* \"#utility.yul\":2555:3064   */\n    tag_8:\n        /* \"#utility.yul\":2624:2630   */\n      0x00\n        /* \"#utility.yul\":2673:2675   */\n      0x20\n        /* \"#utility.yul\":2661:2670   */\n      dup3\n        /* \"#utility.yul\":2652:2659   */\n      dup5\n        /* \"#utility.yul\":2648:2671   */\n      sub\n        /* \"#utility.yul\":2644:2676   */\n      slt\n        /* \"#utility.yul\":2641:2760   */\n      iszero\n      tag_112\n      jumpi\n        /* \"#utility.yul\":2679:2758   */\n      tag_113\n      tag_57\n      jump\t// in\n    tag_113:\n        /* \"#utility.yul\":2641:2760   */\n    tag_112:\n        /* \"#utility.yul\":2827:2828   */\n      0x00\n        /* \"#utility.yul\":2816:2825   */\n      dup3\n        /* \"#utility.yul\":2812:2829   */\n      add\n        /* \"#utility.yul\":2799:2830   */\n      calldataload\n        /* \"#utility.yul\":2857:2875   */\n      0xffffffffffffffff\n        /* \"#utility.yul\":2849:2855   */\n      dup2\n        /* \"#utility.yul\":2846:2876   */\n      gt\n        /* \"#utility.yul\":2843:2960   */\n      iszero\n      tag_114\n      jumpi\n        /* \"#utility.yul\":2879:2958   */\n      tag_115\n      tag_58\n      jump\t// in\n    tag_115:\n        /* \"#utility.yul\":2843:2960   */\n    tag_114:\n        /* \"#utility.yul\":2984:3047   */\n      tag_116\n        /* \"#utility.yul\":3039:3046   */\n      dup5\n        /* \"#utility.yul\":3030:3036   */\n      dup3\n        /* \"#utility.yul\":3019:3028   */\n      dup6\n        /* \"#utility.yul\":3015:3037   */\n      add\n        /* \"#utility.yul\":2984:3047   */\n      tag_67\n      jump\t// in\n    tag_116:\n        /* \"#utility.yul\":2974:3047   */\n      swap2\n      pop\n        /* \"#utility.yul\":2770:3057   */\n      pop\n        /* \"#utility.yul\":2555:3064   */\n      swap3\n      swap2\n      pop\n      pop\n      jump\t// out\n        /* \"#utility.yul\":3070:3147   */\n    tag_68:\n        /* \"#utility.yul\":3107:3114   */\n      0x00\n        /* \"#utility.yul\":3136:3141   */\n      dup2\n        /* \"#utility.yul\":3125:3141   */\n      swap1\n      pop\n        /* \"#utility.yul\":3070:3147   */\n      swap2\n      swap1\n      pop\n      jump\t// out\n        /* \"#utility.yul\":3153:3271   */\n    tag_69:\n        /* \"#utility.yul\":3240:3264   */\n      tag_119\n        /* \"#utility.yul\":3258:3263   */\n      dup2\n        /* \"#utility.yul\":3240:3264   */\n      tag_68\n      jump\t// in\n    tag_119:\n        /* \"#utility.yul\":3235:3238   */\n      dup3\n        /* \"#utility.yul\":3228:3265   */\n      mstore\n        /* \"#utility.yul\":3153:3271   */\n      pop\n      pop\n      jump\t// out\n        /* \"#utility.yul\":3277:3499   */\n    tag_11:\n        /* \"#utility.yul\":3370:3374   */\n      0x00\n        /* \"#utility.yul\":3408:3410   */\n      0x20\n        /* \"#utility.yul\":3397:3406   */\n      dup3\n        /* \"#utility.yul\":3393:3411   */\n      add\n        /* \"#utility.yul\":3385:3411   */\n      swap1\n      pop\n        /* \"#utility.yul\":3421:3492   */\n      tag_121\n        /* \"#utility.yul\":3489:3490   */\n      0x00\n        /* \"#utility.yul\":3478:3487   */\n      dup4\n        /* \"#utility.yul\":3474:3491   */\n      add\n        /* \"#utility.yul\":3465:3471   */\n      dup5\n        /* \"#utility.yul\":3421:3492   */\n      tag_69\n      jump\t// in\n    tag_121:\n        /* \"#utility.yul\":3277:3499   */\n      swap3\n      swap2\n      pop\n      pop\n      jump\t// out\n        /* \"#utility.yul\":3505:4339   */\n    tag_14:\n        /* \"#utility.yul\":3593:3599   */\n      0x00\n        /* \"#utility.yul\":3601:3607   */\n      0x00\n        /* \"#utility.yul\":3650:3652   */\n      0x40\n        /* \"#utility.yul\":3638:3647   */\n      dup4\n        /* \"#utility.yul\":3629:3636   */\n      dup6\n        /* \"#utility.yul\":3625:3648   */\n      sub\n        /* \"#utility.yul\":3621:3653   */\n      slt\n        /* \"#utility.yul\":3618:3737   */\n      iszero\n      tag_123\n      jumpi\n        /* \"#utility.yul\":3656:3735   */\n      tag_124\n      tag_57\n      jump\t// in\n    tag_124:\n        /* \"#utility.yul\":3618:3737   */\n    tag_123:\n        /* \"#utility.yul\":3804:3805   */\n      0x00\n        /* \"#utility.yul\":3793:3802   */\n      dup4\n        /* \"#utility.yul\":3789:3806   */\n      add\n        /* \"#utility.yul\":3776:3807   */\n      calldataload\n        /* \"#utility.yul\":3834:3852   */\n      0xffffffffffffffff\n        /* \"#utility.yul\":3826:3832   */\n      dup2\n        /* \"#utility.yul\":3823:3853   */\n      gt\n        /* \"#utility.yul\":3820:3937   */\n      iszero\n      tag_125\n      jumpi\n        /* \"#utility.yul\":3856:3935   */\n      tag_126\n      tag_58\n      jump\t// in\n    tag_126:\n        /* \"#utility.yul\":3820:3937   */\n    tag_125:\n        /* \"#utility.yul\":3961:4024   */\n      tag_127\n        /* \"#utility.yul\":4016:4023   */\n      dup6\n        /* \"#utility.yul\":4007:4013   */\n      dup3\n        /* \"#utility.yul\":3996:4005   */\n      dup7\n        /* \"#utility.yul\":3992:4014   */\n      add\n        /* \"#utility.yul\":3961:4024   */\n      tag_67\n      jump\t// in\n    tag_127:\n        /* \"#utility.yul\":3951:4024   */\n      swap3\n      pop\n        /* \"#utility.yul\":3747:4034   */\n      pop\n        /* \"#utility.yul\":4101:4103   */\n      0x20\n        /* \"#utility.yul\":4090:4099   */\n      dup4\n        /* \"#utility.yul\":4086:4104   */\n      add\n        /* \"#utility.yul\":4073:4105   */\n      calldataload\n        /* \"#utility.yul\":4132:4150   */\n      0xffffffffffffffff\n        /* \"#utility.yul\":4124:4130   */\n      dup2\n        /* \"#utility.yul\":4121:4151   */\n      gt\n        /* \"#utility.yul\":4118:4235   */\n      iszero\n      tag_128\n      jumpi\n        /* \"#utility.yul\":4154:4233   */\n      tag_129\n      tag_58\n      jump\t// in\n    tag_129:\n        /* \"#utility.yul\":4118:4235   */\n    tag_128:\n        /* \"#utility.yul\":4259:4322   */\n      tag_130\n        /* \"#utility.yul\":4314:4321   */\n      dup6\n        /* \"#utility.yul\":4305:4311   */\n      dup3\n        /* \"#utility.yul\":4294:4303   */\n      dup7\n        /* \"#utility.yul\":4290:4312   */\n      add\n        /* \"#utility.yul\":4259:4322   */\n      tag_67\n      jump\t// in\n    tag_130:\n        /* \"#utility.yul\":4249:4322   */\n      swap2\n      pop\n        /* \"#utility.yul\":4044:4332   */\n      pop\n        /* \"#utility.yul\":3505:4339   */\n      swap3\n      pop\n      swap3\n      swap1\n      pop\n      jump\t// out\n        /* \"#utility.yul\":4345:4444   */\n    tag_70:\n        /* \"#utility.yul\":4397:4403   */\n      0x00\n        /* \"#utility.yul\":4431:4436   */\n      dup2\n        /* \"#utility.yul\":4425:4437   */\n      mload\n        /* \"#utility.yul\":4415:4437   */\n      swap1\n      pop\n        /* \"#utility.yul\":4345:4444   */\n      swap2\n      swap1\n      pop\n      jump\t// out\n        /* \"#utility.yul\":4450:4619   */\n    tag_71:\n        /* \"#utility.yul\":4534:4545   */\n      0x00\n        /* \"#utility.yul\":4568:4574   */\n      dup3\n        /* \"#utility.yul\":4563:4566   */\n      dup3\n        /* \"#utility.yul\":4556:4575   */\n      mstore\n        /* \"#utility.yul\":4608:4612   */\n      0x20\n        /* \"#utility.yul\":4603:4606   */\n      dup3\n        /* \"#utility.yul\":4599:4613   */\n      add\n        /* \"#utility.yul\":4584:4613   */\n      swap1\n      pop\n        /* \"#utility.yul\":4450:4619   */\n      swap3\n      swap2\n      pop\n      pop\n      jump\t// out\n        /* \"#utility.yul\":4625:4764   */\n    tag_72:\n        /* \"#utility.yul\":4714:4720   */\n      dup3\n        /* \"#utility.yul\":4709:4712   */\n      dup2\n        /* \"#utility.yul\":4704:4707   */\n      dup4\n        /* \"#utility.yul\":4698:4721   */\n      mcopy\n        /* \"#utility.yul\":4755:4756   */\n      0x00\n        /* \"#utility.yul\":4746:4752   */\n      dup4\n        /* \"#utility.yul\":4741:4744   */\n      dup4\n        /* \"#utility.yul\":4737:4753   */\n      add\n        /* \"#utility.yul\":4730:4757   */\n      mstore\n        /* \"#utility.yul\":4625:4764   */\n      pop\n      pop\n      pop\n      jump\t// out\n        /* \"#utility.yul\":4770:5147   */\n    tag_73:\n        /* \"#utility.yul\":4858:4861   */\n      0x00\n        /* \"#utility.yul\":4886:4925   */\n      tag_135\n        /* \"#utility.yul\":4919:4924   */\n      dup3\n        /* \"#utility.yul\":4886:4925   */\n      tag_70\n      jump\t// in\n    tag_135:\n        /* \"#utility.yul\":4941:5012   */\n      tag_136\n        /* \"#utility.yul\":5005:5011   */\n      dup2\n        /* \"#utility.yul\":5000:5003   */\n      dup6\n        /* \"#utility.yul\":4941:5012   */\n      tag_71\n      jump\t// in\n    tag_136:\n        /* \"#utility.yul\":4934:5012   */\n      swap4\n      pop\n        /* \"#utility.yul\":5021:5086   */\n      tag_137\n        /* \"#utility.yul\":5079:5085   */\n      dup2\n        /* \"#utility.yul\":5074:5077   */\n      dup6\n        /* \"#utility.yul\":5067:5071   */\n      0x20\n        /* \"#utility.yul\":5060:5065   */\n      dup7\n        /* \"#utility.yul\":5056:5072   */\n      add\n        /* \"#utility.yul\":5021:5086   */\n      tag_72\n      jump\t// in\n    tag_137:\n        /* \"#utility.yul\":5111:5140   */\n      tag_138\n        /* \"#utility.yul\":5133:5139   */\n      dup2\n        /* \"#utility.yul\":5111:5140   */\n      tag_61\n      jump\t// in\n    tag_138:\n        /* \"#utility.yul\":5106:5109   */\n      dup5\n        /* \"#utility.yul\":5102:5141   */\n      add\n        /* \"#utility.yul\":5095:5141   */\n      swap2\n      pop\n        /* \"#utility.yul\":4862:5147   */\n      pop\n        /* \"#utility.yul\":4770:5147   */\n      swap3\n      swap2\n      pop\n      pop\n      jump\t// out\n        /* \"#utility.yul\":5153:5466   */\n    tag_17:\n        /* \"#utility.yul\":5266:5270   */\n      0x00\n        /* \"#utility.yul\":5304:5306   */\n      0x20\n        /* \"#utility.yul\":5293:5302   */\n      dup3\n        /* \"#utility.yul\":5289:5307   */\n      add\n        /* \"#utility.yul\":5281:5307   */\n      swap1\n      pop\n        /* \"#utility.yul\":5353:5362   */\n      dup2\n        /* \"#utility.yul\":5347:5351   */\n      dup2\n        /* \"#utility.yul\":5343:5363   */\n      sub\n        /* \"#utility.yul\":5339:5340   */\n      0x00\n        /* \"#utility.yul\":5328:5337   */\n      dup4\n        /* \"#utility.yul\":5324:5341   */\n      add\n        /* \"#utility.yul\":5317:5364   */\n      mstore\n        /* \"#utility.yul\":5381:5459   */\n      tag_140\n        /* \"#utility.yul\":5454:5458   */\n      dup2\n        /* \"#utility.yul\":5445:5451   */\n      dup5\n        /* \"#utility.yul\":5381:5459   */\n      tag_73\n      jump\t// in\n    tag_140:\n        /* \"#utility.yul\":5373:5459   */\n      swap1\n      pop\n        /* \"#utility.yul\":5153:5466   */\n      swap3\n      swap2\n      pop\n      pop\n      jump\t// out\n        /* \"#utility.yul\":5472:5594   */\n    tag_74:\n        /* \"#utility.yul\":5545:5569   */\n      tag_142\n        /* \"#utility.yul\":5563:5568   */\n      dup2\n        /* \"#utility.yul\":5545:5569   */\n      tag_68\n      jump\t// in\n    tag_142:\n        /* \"#utility.yul\":5538:5543   */\n      dup2\n        /* \"#utility.yul\":5535:5570   */\n      eq\n        /* \"#utility.yul\":5525:5588   */\n      tag_143\n      jumpi\n        /* \"#utility.yul\":5584:5585   */\n      0x00\n        /* \"#utility.yul\":5581:5582   */\n      0x00\n        /* \"#utility.yul\":5574:5586   */\n      revert\n        /* \"#utility.yul\":5525:5588   */\n    tag_143:\n        /* \"#utility.yul\":5472:5594   */\n      pop\n      jump\t// out\n        /* \"#utility.yul\":5600:5739   */\n    tag_75:\n        /* \"#utility.yul\":5646:5651   */\n      0x00\n        /* \"#utility.yul\":5684:5690   */\n      dup2\n        /* \"#utility.yul\":5671:5691   */\n      calldataload\n        /* \"#utility.yul\":5662:5691   */\n      swap1\n      pop\n        /* \"#utility.yul\":5700:5733   */\n      tag_145\n        /* \"#utility.yul\":5727:5732   */\n      dup2\n        /* \"#utility.yul\":5700:5733   */\n      tag_74\n      jump\t// in\n    tag_145:\n        /* \"#utility.yul\":5600:5739   */\n      swap3\n      swap2\n      pop\n      pop\n      jump\t// out\n        /* \"#utility.yul\":5745:6544   */\n    tag_20:\n        /* \"#utility.yul\":5832:5838   */\n      0x00\n        /* \"#utility.yul\":5840:5846   */\n      0x00\n        /* \"#utility.yul\":5848:5854   */\n      0x00\n        /* \"#utility.yul\":5897:5899   */\n      0x60\n        /* \"#utility.yul\":5885:5894   */\n      dup5\n        /* \"#utility.yul\":5876:5883   */\n      dup7\n        /* \"#utility.yul\":5872:5895   */\n      sub\n        /* \"#utility.yul\":5868:5900   */\n      slt\n        /* \"#utility.yul\":5865:5984   */\n      iszero\n      tag_147\n      jumpi\n        /* \"#utility.yul\":5903:5982   */\n      tag_148\n      tag_57\n      jump\t// in\n    tag_148:\n        /* \"#utility.yul\":5865:5984   */\n    tag_147:\n        /* \"#utility.yul\":6051:6052   */\n      0x00\n        /* \"#utility.yul\":6040:6049   */\n      dup5\n        /* \"#utility.yul\":6036:6053   */\n      add\n        /* \"#utility.yul\":6023:6054   */\n      calldataload\n        /* \"#utility.yul\":6081:6099   */\n      0xffffffffffffffff\n        /* \"#utility.yul\":6073:6079   */\n      dup2\n        /* \"#utility.yul\":6070:6100   */\n      gt\n        /* \"#utility.yul\":6067:6184   */\n      iszero\n      tag_149\n      jumpi\n        /* \"#utility.yul\":6103:6182   */\n      tag_150\n      tag_58\n      jump\t// in\n    tag_150:\n        /* \"#utility.yul\":6067:6184   */\n    tag_149:\n        /* \"#utility.yul\":6208:6271   */\n      tag_151\n        /* \"#utility.yul\":6263:6270   */\n      dup7\n        /* \"#utility.yul\":6254:6260   */\n      dup3\n        /* \"#utility.yul\":6243:6252   */\n      dup8\n        /* \"#utility.yul\":6239:6261   */\n      add\n        /* \"#utility.yul\":6208:6271   */\n      tag_67\n      jump\t// in\n    tag_151:\n        /* \"#utility.yul\":6198:6271   */\n      swap4\n      pop\n        /* \"#utility.yul\":5994:6281   */\n      pop\n        /* \"#utility.yul\":6320:6322   */\n      0x20\n        /* \"#utility.yul\":6346:6399   */\n      tag_152\n        /* \"#utility.yul\":6391:6398   */\n      dup7\n        /* \"#utility.yul\":6382:6388   */\n      dup3\n        /* \"#utility.yul\":6371:6380   */\n      dup8\n        /* \"#utility.yul\":6367:6389   */\n      add\n        /* \"#utility.yul\":6346:6399   */\n      tag_75\n      jump\t// in\n    tag_152:\n        /* \"#utility.yul\":6336:6399   */\n      swap3\n      pop\n        /* \"#utility.yul\":6291:6409   */\n      pop\n        /* \"#utility.yul\":6448:6450   */\n      0x40\n        /* \"#utility.yul\":6474:6527   */\n      tag_153\n        /* \"#utility.yul\":6519:6526   */\n      dup7\n        /* \"#utility.yul\":6510:6516   */\n      dup3\n        /* \"#utility.yul\":6499:6508   */\n      dup8\n        /* \"#utility.yul\":6495:6517   */\n      add\n        /* \"#utility.yul\":6474:6527   */\n      tag_75\n      jump\t// in\n    tag_153:\n        /* \"#utility.yul\":6464:6527   */\n      swap2\n      pop\n        /* \"#utility.yul\":6419:6537   */\n      pop\n        /* \"#utility.yul\":5745:6544   */\n      swap3\n      pop\n      swap3\n      pop\n      swap3\n      jump\t// out\n        /* \"#utility.yul\":6550:6698   */\n    tag_76:\n        /* \"#utility.yul\":6652:6663   */\n      0x00\n        /* \"#utility.yul\":6689:6692   */\n      dup2\n        /* \"#utility.yul\":6674:6692   */\n      swap1\n      pop\n        /* \"#utility.yul\":6550:6698   */\n      swap3\n      swap2\n      pop\n      pop\n      jump\t// out\n        /* \"#utility.yul\":6704:7094   */\n    tag_77:\n        /* \"#utility.yul\":6810:6813   */\n      0x00\n        /* \"#utility.yul\":6838:6877   */\n      tag_156\n        /* \"#utility.yul\":6871:6876   */\n      dup3\n        /* \"#utility.yul\":6838:6877   */\n      tag_70\n      jump\t// in\n    tag_156:\n        /* \"#utility.yul\":6893:6982   */\n      tag_157\n        /* \"#utility.yul\":6975:6981   */\n      dup2\n        /* \"#utility.yul\":6970:6973   */\n      dup6\n        /* \"#utility.yul\":6893:6982   */\n      tag_76\n      jump\t// in\n    tag_157:\n        /* \"#utility.yul\":6886:6982   */\n      swap4\n      pop\n        /* \"#utility.yul\":6991:7056   */\n      tag_158\n        /* \"#utility.yul\":7049:7055   */\n      dup2\n        /* \"#utility.yul\":7044:7047   */\n      dup6\n        /* \"#utility.yul\":7037:7041   */\n      0x20\n        /* \"#utility.yul\":7030:7035   */\n      dup7\n        /* \"#utility.yul\":7026:7042   */\n      add\n        /* \"#utility.yul\":6991:7056   */\n      tag_72\n      jump\t// in\n    tag_158:\n        /* \"#utility.yul\":7081:7087   */\n      dup1\n        /* \"#utility.yul\":7076:7079   */\n      dup5\n        /* \"#utility.yul\":7072:7088   */\n      add\n        /* \"#utility.yul\":7065:7088   */\n      swap2\n      pop\n        /* \"#utility.yul\":6814:7094   */\n      pop\n        /* \"#utility.yul\":6704:7094   */\n      swap3\n      swap2\n      pop\n      pop\n      jump\t// out\n        /* \"#utility.yul\":7100:7535   */\n    tag_35:\n        /* \"#utility.yul\":7280:7283   */\n      0x00\n        /* \"#utility.yul\":7302:7397   */\n      tag_160\n        /* \"#utility.yul\":7393:7396   */\n      dup3\n        /* \"#utility.yul\":7384:7390   */\n      dup6\n        /* \"#utility.yul\":7302:7397   */\n      tag_77\n      jump\t// in\n    tag_160:\n        /* \"#utility.yul\":7295:7397   */\n      swap2\n      pop\n        /* \"#utility.yul\":7414:7509   */\n      tag_161\n        /* \"#utility.yul\":7505:7508   */\n      dup3\n        /* \"#utility.yul\":7496:7502   */\n      dup5\n        /* \"#utility.yul\":7414:7509   */\n      tag_77\n      jump\t// in\n    tag_161:\n        /* \"#utility.yul\":7407:7509   */\n      swap2\n      pop\n        /* \"#utility.yul\":7526:7529   */\n      dup2\n        /* \"#utility.yul\":7519:7529   */\n      swap1\n      pop\n        /* \"#utility.yul\":7100:7535   */\n      swap4\n      swap3\n      pop\n      pop\n      pop\n      jump\t// out\n        /* \"#utility.yul\":7541:7706   */\n    tag_78:\n        /* \"#utility.yul\":7681:7698   */\n      0x496e76616c696420696e64696365730000000000000000000000000000000000\n        /* \"#utility.yul\":7677:7678   */\n      0x00\n        /* \"#utility.yul\":7669:7675   */\n      dup3\n        /* \"#utility.yul\":7665:7679   */\n      add\n        /* \"#utility.yul\":7658:7699   */\n      mstore\n        /* \"#utility.yul\":7541:7706   */\n      pop\n      jump\t// out\n        /* \"#utility.yul\":7712:8078   */\n    tag_79:\n        /* \"#utility.yul\":7854:7857   */\n      0x00\n        /* \"#utility.yul\":7875:7942   */\n      tag_164\n        /* \"#utility.yul\":7939:7941   */\n      0x0f\n        /* \"#utility.yul\":7934:7937   */\n      dup4\n        /* \"#utility.yul\":7875:7942   */\n      tag_71\n      jump\t// in\n    tag_164:\n        /* \"#utility.yul\":7868:7942   */\n      swap2\n      pop\n        /* \"#utility.yul\":7951:8044   */\n      tag_165\n        /* \"#utility.yul\":8040:8043   */\n      dup3\n        /* \"#utility.yul\":7951:8044   */\n      tag_78\n      jump\t// in\n    tag_165:\n        /* \"#utility.yul\":8069:8071   */\n      0x20\n        /* \"#utility.yul\":8064:8067   */\n      dup3\n        /* \"#utility.yul\":8060:8072   */\n      add\n        /* \"#utility.yul\":8053:8072   */\n      swap1\n      pop\n        /* \"#utility.yul\":7712:8078   */\n      swap2\n      swap1\n      pop\n      jump\t// out\n        /* \"#utility.yul\":8084:8503   */\n    tag_40:\n        /* \"#utility.yul\":8250:8254   */\n      0x00\n        /* \"#utility.yul\":8288:8290   */\n      0x20\n        /* \"#utility.yul\":8277:8286   */\n      dup3\n        /* \"#utility.yul\":8273:8291   */\n      add\n        /* \"#utility.yul\":8265:8291   */\n      swap1\n      pop\n        /* \"#utility.yul\":8337:8346   */\n      dup2\n        /* \"#utility.yul\":8331:8335   */\n      dup2\n        /* \"#utility.yul\":8327:8347   */\n      sub\n        /* \"#utility.yul\":8323:8324   */\n      0x00\n        /* \"#utility.yul\":8312:8321   */\n      dup4\n        /* \"#utility.yul\":8308:8325   */\n      add\n        /* \"#utility.yul\":8301:8348   */\n      mstore\n        /* \"#utility.yul\":8365:8496   */\n      tag_167\n        /* \"#utility.yul\":8491:8495   */\n      dup2\n        /* \"#utility.yul\":8365:8496   */\n      tag_79\n      jump\t// in\n    tag_167:\n        /* \"#utility.yul\":8357:8496   */\n      swap1\n      pop\n        /* \"#utility.yul\":8084:8503   */\n      swap2\n      swap1\n      pop\n      jump\t// out\n        /* \"#utility.yul\":8509:8689   */\n    tag_80:\n        /* \"#utility.yul\":8557:8634   */\n      0x4e487b7100000000000000000000000000000000000000000000000000000000\n        /* \"#utility.yul\":8554:8555   */\n      0x00\n        /* \"#utility.yul\":8547:8635   */\n      mstore\n        /* \"#utility.yul\":8654:8658   */\n      0x11\n        /* \"#utility.yul\":8651:8652   */\n      0x04\n        /* \"#utility.yul\":8644:8659   */\n      mstore\n        /* \"#utility.yul\":8678:8682   */\n      0x24\n        /* \"#utility.yul\":8675:8676   */\n      0x00\n        /* \"#utility.yul\":8668:8683   */\n      revert\n        /* \"#utility.yul\":8695:8889   */\n    tag_42:\n        /* \"#utility.yul\":8735:8739   */\n      0x00\n        /* \"#utility.yul\":8755:8775   */\n      tag_170\n        /* \"#utility.yul\":8773:8774   */\n      dup3\n        /* \"#utility.yul\":8755:8775   */\n      tag_68\n      jump\t// in\n    tag_170:\n        /* \"#utility.yul\":8750:8775   */\n      swap2\n      pop\n        /* \"#utility.yul\":8789:8809   */\n      tag_171\n        /* \"#utility.yul\":8807:8808   */\n      dup4\n        /* \"#utility.yul\":8789:8809   */\n      tag_68\n      jump\t// in\n    tag_171:\n        /* \"#utility.yul\":8784:8809   */\n      swap3\n      pop\n        /* \"#utility.yul\":8833:8834   */\n      dup3\n        /* \"#utility.yul\":8830:8831   */\n      dup3\n        /* \"#utility.yul\":8826:8835   */\n      sub\n        /* \"#utility.yul\":8818:8835   */\n      swap1\n      pop\n        /* \"#utility.yul\":8857:8858   */\n      dup2\n        /* \"#utility.yul\":8851:8855   */\n      dup2\n        /* \"#utility.yul\":8848:8859   */\n      gt\n        /* \"#utility.yul\":8845:8882   */\n      iszero\n      tag_172\n      jumpi\n        /* \"#utility.yul\":8862:8880   */\n      tag_173\n      tag_80\n      jump\t// in\n    tag_173:\n        /* \"#utility.yul\":8845:8882   */\n    tag_172:\n        /* \"#utility.yul\":8695:8889   */\n      swap3\n      swap2\n      pop\n      pop\n      jump\t// out\n        /* \"#utility.yul\":8895:9075   */\n    tag_52:\n        /* \"#utility.yul\":8943:9020   */\n      0x4e487b7100000000000000000000000000000000000000000000000000000000\n        /* \"#utility.yul\":8940:8941   */\n      0x00\n        /* \"#utility.yul\":8933:9021   */\n      mstore\n        /* \"#utility.yul\":9040:9044   */\n      0x32\n        /* \"#utility.yul\":9037:9038   */\n      0x04\n        /* \"#utility.yul\":9030:9045   */\n      mstore\n        /* \"#utility.yul\":9064:9068   */\n      0x24\n        /* \"#utility.yul\":9061:9062   */\n      0x00\n        /* \"#utility.yul\":9054:9069   */\n      revert\n\n    auxdata: 0xa2646970667358221220de4d298cc58092865e2a0f6fd1d47dd6eb6c3c80c63d3a20200c3e0a10d79fc964736f6c634300081e0033\n}\n",
				"bytecode": {
					"linkReferences": {},
					"object": "6080604052348015600e575f5ffd5b506107718061001c5f395ff3fe608060405234801561000f575f5ffd5b506004361061003f575f3560e01c806365c19af014610043578063df49c85114610073578063f045a522146100a3575b5f5ffd5b61005d600480360381019061005891906103e5565b6100d3565b60405161006a9190610444565b60405180910390f35b61008d6004803603810190610088919061045d565b6100e4565b60405161009a9190610533565b60405180910390f35b6100bd60048036038101906100b8919061057d565b610101565b6040516100ca9190610533565b60405180910390f35b5f6100dd82610121565b9050919050565b60606100f9828461012b90919063ffffffff16565b905092915050565b60606101188383866101579092919063ffffffff16565b90509392505050565b5f81519050919050565b60608282604051602001610140929190610623565b604051602081830303815290604052905092915050565b60605f849050828410801561016d575080518311155b6101ac576040517f08c379a00000000000000000000000000000000000000000000000000000000081526004016101a390610690565b60405180910390fd5b5f84846101b991906106db565b67ffffffffffffffff8111156101d2576101d16102c1565b5b6040519080825280601f01601f1916602001820160405280156102045781602001600182028036833780820191505090505b5090505f8590505b8481101561028b578281815181106102275761022661070e565b5b602001015160f81c60f81b82878361023f91906106db565b815181106102505761024f61070e565b5b60200101907effffffffffffffffffffffffffffffffffffffffffffffffffffffffffffff191690815f1a905350808060010191505061020c565b5080925050509392505050565b5f604051905090565b5f5ffd5b5f5ffd5b5f5ffd5b5f5ffd5b5f601f19601f8301169050919050565b7f4e487b71000000000000000000000000000000000000000000000000000000005f52604160045260245ffd5b6102f7826102b1565b810181811067ffffffffffffffff82111715610316576103156102c1565b5b80604052505050565b5f610328610298565b905061033482826102ee565b919050565b5f67ffffffffffffffff821115610353576103526102c1565b5b61035c826102b1565b9050602081019050919050565b828183375f83830152505050565b5f61038961038484610339565b61031f565b9050828152602081018484840111156103a5576103a46102ad565b5b6103b0848285610369565b509392505050565b5f82601f8301126103cc576103cb6102a9565b5b81356103dc848260208601610377565b91505092915050565b5f602082840312156103fa576103f96102a1565b5b5f82013567ffffffffffffffff811115610417576104166102a5565b5b610423848285016103b8565b91505092915050565b5f819050919050565b61043e8161042c565b82525050565b5f6020820190506104575f830184610435565b92915050565b5f5f60408385031215610473576104726102a1565b5b5f83013567ffffffffffffffff8111156104905761048f6102a5565b5b61049c858286016103b8565b925050602083013567ffffffffffffffff8111156104bd576104bc6102a5565b5b6104c9858286016103b8565b9150509250929050565b5f81519050919050565b5f82825260208201905092915050565b8281835e5f83830152505050565b5f610505826104d3565b61050f81856104dd565b935061051f8185602086016104ed565b610528816102b1565b840191505092915050565b5f6020820190508181035f83015261054b81846104fb565b905092915050565b61055c8161042c565b8114610566575f5ffd5b50565b5f8135905061057781610553565b92915050565b5f5f5f60608486031215610594576105936102a1565b5b5f84013567ffffffffffffffff8111156105b1576105b06102a5565b5b6105bd868287016103b8565b93505060206105ce86828701610569565b92505060406105df86828701610569565b9150509250925092565b5f81905092915050565b5f6105fd826104d3565b61060781856105e9565b93506106178185602086016104ed565b80840191505092915050565b5f61062e82856105f3565b915061063a82846105f3565b91508190509392505050565b7f496e76616c696420696e646963657300000000000000000000000000000000005f82015250565b5f61067a600f836104dd565b915061068582610646565b602082019050919050565b5f6020820190508181035f8301526106a78161066e565b9050919050565b7f4e487b71000000000000000000000000000000000000000000000000000000005f52601160045260245ffd5b5f6106e58261042c565b91506106f08361042c565b9250828203905081811115610708576107076106ae565b5b92915050565b7f4e487b71000000000000000000000000000000000000000000000000000000005f52603260045260245ffdfea2646970667358221220de4d298cc58092865e2a0f6fd1d47dd6eb6c3c80c63d3a20200c3e0a10d79fc964736f6c634300081e0033",
					"opcodes": "PUSH1 0x80 PUSH1 0x40 MSTORE CALLVALUE DUP1 ISZERO PUSH1 0xE JUMPI PUSH0 PUSH0 REVERT JUMPDEST POP PUSH2 0x771 DUP1 PUSH2 0x1C PUSH0 CODECOPY PUSH0 RETURN INVALID PUSH1 0x80 PUSH1 0x40 MSTORE CALLVALUE DUP1 ISZERO PUSH2 0xF JUMPI PUSH0 PUSH0 REVERT JUMPDEST POP PUSH1 0x4 CALLDATASIZE LT PUSH2 0x3F JUMPI PUSH0 CALLDATALOAD PUSH1 0xE0 SHR DUP1 PUSH4 0x65C19AF0 EQ PUSH2 0x43 JUMPI DUP1 PUSH4 0xDF49C851 EQ PUSH2 0x73 JUMPI DUP1 PUSH4 0xF045A522 EQ PUSH2 0xA3 JUMPI JUMPDEST PUSH0 PUSH0 REVERT JUMPDEST PUSH2 0x5D PUSH1 0x4 DUP1 CALLDATASIZE SUB DUP2 ADD SWAP1 PUSH2 0x58 SWAP2 SWAP1 PUSH2 0x3E5 JUMP JUMPDEST PUSH2 0xD3 JUMP JUMPDEST PUSH1 0x40 MLOAD PUSH2 0x6A SWAP2 SWAP1 PUSH2 0x444 JUMP JUMPDEST PUSH1 0x40 MLOAD DUP1 SWAP2 SUB SWAP1 RETURN JUMPDEST PUSH2 0x8D PUSH1 0x4 DUP1 CALLDATASIZE SUB DUP2 ADD SWAP1 PUSH2 0x88 SWAP2 SWAP1 PUSH2 0x45D JUMP JUMPDEST PUSH2 0xE4 JUMP JUMPDEST PUSH1 0x40 MLOAD PUSH2 0x9A SWAP2 SWAP1 PUSH2 0x533 JUMP JUMPDEST PUSH1 0x40 MLOAD DUP1 SWAP2 SUB SWAP1 RETURN JUMPDEST PUSH2 0xBD PUSH1 0x4 DUP1 CALLDATASIZE SUB DUP2 ADD SWAP1 PUSH2 0xB8 SWAP2 SWAP1 PUSH2 0x57D JUMP JUMPDEST PUSH2 0x101 JUMP JUMPDEST PUSH1 0x40 MLOAD PUSH2 0xCA SWAP2 SWAP1 PUSH2 0x533 JUMP JUMPDEST PUSH1 0x40 MLOAD DUP1 SWAP2 SUB SWAP1 RETURN JUMPDEST PUSH0 PUSH2 0xDD DUP3 PUSH2 0x121 JUMP JUMPDEST SWAP1 POP SWAP2 SWAP1 POP JUMP JUMPDEST PUSH1 0x60 PUSH2 0xF9 DUP3 DUP5 PUSH2 0x12B SWAP1 SWAP2 SWAP1 PUSH4 0xFFFFFFFF AND JUMP JUMPDEST SWAP1 POP SWAP3 SWAP2 POP POP JUMP JUMPDEST PUSH1 0x60 PUSH2 0x118 DUP4 DUP4 DUP7 PUSH2 0x157 SWAP1 SWAP3 SWAP2 SWAP1 PUSH4 0xFFFFFFFF AND JUMP JUMPDEST SWAP1 POP SWAP4 SWAP3 POP POP POP JUMP JUMPDEST PUSH0 DUP2 MLOAD SWAP1 POP SWAP2 SWAP1 POP JUMP JUMPDEST PUSH1 0x60 DUP3 DUP3 PUSH1 0x40 MLOAD PUSH1 0x20 ADD PUSH2 0x140 SWAP3 SWAP2 SWAP1 PUSH2 0x623 JUMP JUMPDEST PUSH1 0x40 MLOAD PUSH1 0x20 DUP2 DUP4 SUB SUB DUP2 MSTORE SWAP1 PUSH1 0x40 MSTORE SWAP1 POP SWAP3 SWAP2 POP POP JUMP JUMPDEST PUSH1 0x60 PUSH0 DUP5 SWAP1 POP DUP3 DUP5 LT DUP1 ISZERO PUSH2 0x16D JUMPI POP DUP1 MLOAD DUP4 GT ISZERO JUMPDEST PUSH2 0x1AC JUMPI PUSH1 0x40 MLOAD PUSH32 0x8C379A000000000000000000000000000000000000000000000000000000000 DUP2 MSTORE PUSH1 0x4 ADD PUSH2 0x1A3 SWAP1 PUSH2 0x690 JUMP JUMPDEST PUSH1 0x40 MLOAD DUP1 SWAP2 SUB SWAP1 REVERT JUMPDEST PUSH0 DUP5 DUP5 PUSH2 0x1B9 SWAP2 SWAP1 PUSH2 0x6DB JUMP JUMPDEST PUSH8 0xFFFFFFFFFFFFFFFF DUP2 GT ISZERO PUSH2 0x1D2 JUMPI PUSH2 0x1D1 PUSH2 0x2C1 JUMP JUMPDEST JUMPDEST PUSH1 0x40 MLOAD SWAP1 DUP1 DUP3 MSTORE DUP1 PUSH1 0x1F ADD PUSH1 0x1F NOT AND PUSH1 0x20 ADD DUP3 ADD PUSH1 0x40 MSTORE DUP1 ISZERO PUSH2 0x204 JUMPI DUP2 PUSH1 0x20 ADD PUSH1 0x1 DUP3 MUL DUP1 CALLDATASIZE DUP4 CALLDATACOPY DUP1 DUP3 ADD SWAP2 POP POP SWAP1 POP JUMPDEST POP SWAP1 POP PUSH0 DUP6 SWAP1 POP JUMPDEST DUP5 DUP2 LT ISZERO PUSH2 0x28B JUMPI DUP3 DUP2 DUP2 MLOAD DUP2 LT PUSH2 0x227 JUMPI PUSH2 0x226 PUSH2 0x70E JUMP JUMPDEST JUMPDEST PUSH1 0x20 ADD ADD MLOAD PUSH1 0xF8 SHR PUSH1 0xF8 SHL DUP3 DUP8 DUP4 PUSH2 0x23F SWAP2 SWAP1 PUSH2 0x6DB JUMP JUMPDEST DUP2 MLOAD DUP2 LT PUSH2 0x250 JUMPI PUSH2 0x24F PUSH2 0x70E JUMP JUMPDEST JUMPDEST PUSH1 0x20 ADD ADD SWAP1 PUSH31 0xFFFFFFFFFFFFFFFFFFFFFFFFFFFFFFFFFFFFFFFFFFFFFFFFFFFFFFFFFFFFFF NOT AND SWAP1 DUP2 PUSH0 BYTE SWAP1 MSTORE8 POP DUP1 DUP1 PUSH1 0x1 ADD SWAP2 POP POP PUSH2 0x20C JUMP JUMPDEST POP DUP1 SWAP3 POP POP POP SWAP4 SWAP3 POP POP POP JUMP JUMPDEST PUSH0 PUSH1 0x40 MLOAD SWAP1 POP SWAP1 JUMP JUMPDEST PUSH0 PUSH0 REVERT JUMPDEST PUSH0 PUSH0 REVERT JUMPDEST PUSH0 PUSH0 REVERT JUMPDEST PUSH0 PUSH0 REVERT JUMPDEST PUSH0 PUSH1 0x1F NOT PUSH1 0x1F DUP4 ADD AND SWAP1 POP SWAP2 SWAP1 POP JUMP JUMPDEST PUSH32 0x4E487B7100000000000000000000000000000000000000000000000000000000 PUSH0 MSTORE PUSH1 0x41 PUSH1 0x4 MSTORE PUSH1 0x24 PUSH0 REVERT JUMPDEST PUSH2 0x2F7 DUP3 PUSH2 0x2B1 JUMP JUMPDEST DUP2 ADD DUP2 DUP2 LT PUSH8 0xFFFFFFFFFFFFFFFF DUP3 GT OR ISZERO PUSH2 0x316 JUMPI PUSH2 0x315 PUSH2 0x2C1 JUMP JUMPDEST JUMPDEST DUP1 PUSH1 0x40 MSTORE POP POP POP JUMP JUMPDEST PUSH0 PUSH2 0x328 PUSH2 0x298 JUMP JUMPDEST SWAP1 POP PUSH2 0x334 DUP3 DUP3 PUSH2 0x2EE JUMP JUMPDEST SWAP2 SWAP1 POP JUMP JUMPDEST PUSH0 PUSH8 0xFFFFFFFFFFFFFFFF DUP3 GT ISZERO PUSH2 0x353 JUMPI PUSH2 0x352 PUSH2 0x2C1 JUMP JUMPDEST JUMPDEST PUSH2 0x35C DUP3 PUSH2 0x2B1 JUMP JUMPDEST SWAP1 POP PUSH1 0x20 DUP2 ADD SWAP1 POP SWAP2 SWAP1 POP JUMP JUMPDEST DUP3 DUP2 DUP4 CALLDATACOPY PUSH0 DUP4 DUP4 ADD MSTORE POP POP POP JUMP JUMPDEST PUSH0 PUSH2 0x389 PUSH2 0x384 DUP5 PUSH2 0x339 JUMP JUMPDEST PUSH2 0x31F JUMP JUMPDEST SWAP1 POP DUP3 DUP2 MSTORE PUSH1 0x20 DUP2 ADD DUP5 DUP5 DUP5 ADD GT ISZERO PUSH2 0x3A5 JUMPI PUSH2 0x3A4 PUSH2 0x2AD JUMP JUMPDEST JUMPDEST PUSH2 0x3B0 DUP5 DUP3 DUP6 PUSH2 0x369 JUMP JUMPDEST POP SWAP4 SWAP3 POP POP POP JUMP JUMPDEST PUSH0 DUP3 PUSH1 0x1F DUP4 ADD SLT PUSH2 0x3CC JUMPI PUSH2 0x3CB PUSH2 0x2A9 JUMP JUMPDEST JUMPDEST DUP2 CALLDATALOAD PUSH2 0x3DC DUP5 DUP3 PUSH1 0x20 DUP7 ADD PUSH2 0x377 JUMP JUMPDEST SWAP2 POP POP SWAP3 SWAP2 POP POP JUMP JUMPDEST PUSH0 PUSH1 0x20 DUP3 DUP5 SUB SLT ISZERO PUSH2 0x3FA JUMPI PUSH2 0x3F9 PUSH2 0x2A1 JUMP JUMPDEST JUMPDEST PUSH0 DUP3 ADD CALLDATALOAD PUSH8 0xFFFFFFFFFFFFFFFF DUP2 GT ISZERO PUSH2 0x417 JUMPI PUSH2 0x416 PUSH2 0x2A5 JUMP JUMPDEST JUMPDEST PUSH2 0x423 DUP5 DUP3 DUP6 ADD PUSH2 0x3B8 JUMP JUMPDEST SWAP2 POP POP SWAP3 SWAP2 POP POP JUMP JUMPDEST PUSH0 DUP2 SWAP1 POP SWAP2 SWAP1 POP JUMP JUMPDEST PUSH2 0x43E DUP2 PUSH2 0x42C JUMP JUMPDEST DUP3 MSTORE POP POP JUMP JUMPDEST PUSH0 PUSH1 0x20 DUP3 ADD SWAP1 POP PUSH2 0x457 PUSH0 DUP4 ADD DUP5 PUSH2 0x435 JUMP JUMPDEST SWAP3 SWAP2 POP POP JUMP JUMPDEST PUSH0 PUSH0 PUSH1 0x40 DUP4 DUP6 SUB SLT ISZERO PUSH2 0x473 JUMPI PUSH2 0x472 PUSH2 0x2A1 JUMP JUMPDEST JUMPDEST PUSH0 DUP4 ADD CALLDATALOAD PUSH8 0xFFFFFFFFFFFFFFFF DUP2 GT ISZERO PUSH2 0x490 JUMPI PUSH2 0x48F PUSH2 0x2A5 JUMP JUMPDEST JUMPDEST PUSH2 0x49C DUP6 DUP3 DUP7 ADD PUSH2 0x3B8 JUMP JUMPDEST SWAP3 POP POP PUSH1 0x20 DUP4 ADD CALLDATALOAD PUSH8 0xFFFFFFFFFFFFFFFF DUP2 GT ISZERO PUSH2 0x4BD JUMPI PUSH2 0x4BC PUSH2 0x2A5 JUMP JUMPDEST JUMPDEST PUSH2 0x4C9 DUP6 DUP3 DUP7 ADD PUSH2 0x3B8 JUMP JUMPDEST SWAP2 POP POP SWAP3 POP SWAP3 SWAP1 POP JUMP JUMPDEST PUSH0 DUP2 MLOAD SWAP1 POP SWAP2 SWAP1 POP JUMP JUMPDEST PUSH0 DUP3 DUP3 MSTORE PUSH1 0x20 DUP3 ADD SWAP1 POP SWAP3 SWAP2 POP POP JUMP JUMPDEST DUP3 DUP2 DUP4 MCOPY PUSH0 DUP4 DUP4 ADD MSTORE POP POP POP JUMP JUMPDEST PUSH0 PUSH2 0x505 DUP3 PUSH2 0x4D3 JUMP JUMPDEST PUSH2 0x50F DUP2 DUP6 PUSH2 0x4DD JUMP JUMPDEST SWAP4 POP PUSH2 0x51F DUP2 DUP6 PUSH1 0x20 DUP7 ADD PUSH2 0x4ED JUMP JUMPDEST PUSH2 0x528 DUP2 PUSH2 0x2B1 JUMP JUMPDEST DUP5 ADD SWAP2 POP POP SWAP3 SWAP2 POP POP JUMP JUMPDEST PUSH0 PUSH1 0x20 DUP3 ADD SWAP1 POP DUP2 DUP2 SUB PUSH0 DUP4 ADD MSTORE PUSH2 0x54B DUP2 DUP5 PUSH2 0x4FB JUMP JUMPDEST SWAP1 POP SWAP3 SWAP2 POP POP JUMP JUMPDEST PUSH2 0x55C DUP2 PUSH2 0x42C JUMP JUMPDEST DUP2 EQ PUSH2 0x566 JUMPI PUSH0 PUSH0 REVERT JUMPDEST POP JUMP JUMPDEST PUSH0 DUP2 CALLDATALOAD SWAP1 POP PUSH2 0x577 DUP2 PUSH2 0x553 JUMP JUMPDEST SWAP3 SWAP2 POP POP JUMP JUMPDEST PUSH0 PUSH0 PUSH0 PUSH1 0x60 DUP5 DUP7 SUB SLT ISZERO PUSH2 0x594 JUMPI PUSH2 0x593 PUSH2 0x2A1 JUMP JUMPDEST JUMPDEST PUSH0 DUP5 ADD CALLDATALOAD PUSH8 0xFFFFFFFFFFFFFFFF DUP2 GT ISZERO PUSH2 0x5B1 JUMPI PUSH2 0x5B0 PUSH2 0x2A5 JUMP JUMPDEST JUMPDEST PUSH2 0x5BD DUP7 DUP3 DUP8 ADD PUSH2 0x3B8 JUMP JUMPDEST SWAP4 POP POP PUSH1 0x20 PUSH2 0x5CE DUP7 DUP3 DUP8 ADD PUSH2 0x569 JUMP JUMPDEST SWAP3 POP POP PUSH1 0x40 PUSH2 0x5DF DUP7 DUP3 DUP8 ADD PUSH2 0x569 JUMP JUMPDEST SWAP2 POP POP SWAP3 POP SWAP3 POP SWAP3 JUMP JUMPDEST PUSH0 DUP2 SWAP1 POP SWAP3 SWAP2 POP POP JUMP JUMPDEST PUSH0 PUSH2 0x5FD DUP3 PUSH2 0x4D3 JUMP JUMPDEST PUSH2 0x607 DUP2 DUP6 PUSH2 0x5E9 JUMP JUMPDEST SWAP4 POP PUSH2 0x617 DUP2 DUP6 PUSH1 0x20 DUP7 ADD PUSH2 0x4ED JUMP JUMPDEST DUP1 DUP5 ADD SWAP2 POP POP SWAP3 SWAP2 POP POP JUMP JUMPDEST PUSH0 PUSH2 0x62E DUP3 DUP6 PUSH2 0x5F3 JUMP JUMPDEST SWAP2 POP PUSH2 0x63A DUP3 DUP5 PUSH2 0x5F3 JUMP JUMPDEST SWAP2 POP DUP2 SWAP1 POP SWAP4 SWAP3 POP POP POP JUMP JUMPDEST PUSH32 0x496E76616C696420696E64696365730000000000000000000000000000000000 PUSH0 DUP3 ADD MSTORE POP JUMP JUMPDEST PUSH0 PUSH2 0x67A PUSH1 0xF DUP4 PUSH2 0x4DD JUMP JUMPDEST SWAP2 POP PUSH2 0x685 DUP3 PUSH2 0x646 JUMP JUMPDEST PUSH1 0x20 DUP3 ADD SWAP1 POP SWAP2 SWAP1 POP JUMP JUMPDEST PUSH0 PUSH1 0x20 DUP3 ADD SWAP1 POP DUP2 DUP2 SUB PUSH0 DUP4 ADD MSTORE PUSH2 0x6A7 DUP2 PUSH2 0x66E JUMP JUMPDEST SWAP1 POP SWAP2 SWAP1 POP JUMP JUMPDEST PUSH32 0x4E487B7100000000000000000000000000000000000000000000000000000000 PUSH0 MSTORE PUSH1 0x11 PUSH1 0x4 MSTORE PUSH1 0x24 PUSH0 REVERT JUMPDEST PUSH0 PUSH2 0x6E5 DUP3 PUSH2 0x42C JUMP JUMPDEST SWAP2 POP PUSH2 0x6F0 DUP4 PUSH2 0x42C JUMP JUMPDEST SWAP3 POP DUP3 DUP3 SUB SWAP1 POP DUP2 DUP2 GT ISZERO PUSH2 0x708 JUMPI PUSH2 0x707 PUSH2 0x6AE JUMP JUMPDEST JUMPDEST SWAP3 SWAP2 POP POP JUMP JUMPDEST PUSH32 0x4E487B7100000000000000000000000000000000000000000000000000000000 PUSH0 MSTORE PUSH1 0x32 PUSH1 0x4 MSTORE PUSH1 0x24 PUSH0 REVERT INVALID LOG2 PUSH5 0x6970667358 0x22 SLT KECCAK256 0xDE 0x4D 0x29 DUP13 0xC5 DUP1 SWAP3 DUP7 MCOPY 0x2A 0xF PUSH16 0xD1D47DD6EB6C3C80C63D3A20200C3E0A LT 0xD7 SWAP16 0xC9 PUSH5 0x736F6C6343 STOP ADDMOD 0x1E STOP CALLER "
				},
				"gasEstimates": {
					"creation": {
						"codeDepositCost": "381000",
						"executionCost": "416",
						"totalCost": "381416"
					},
					"external": {
						"getConcatenatedString(string,string)": "infinite",
						"getSlicedString(string,uint256,uint256)": "infinite",
						"getStringLength(string)": "infinite"
					}
				},
				"methodIdentifiers": {
					"getConcatenatedString(string,string)": "df49c851",
					"getSlicedString(string,uint256,uint256)": "f045a522",
					"getStringLength(string)": "65c19af0"
				}
			},
			"storageLayout": {
				"storage": [],
				"types": null
			},
			"userdoc": {
				"kind": "user",
				"methods": {},
				"version": 1
			}
		}
	}
}