{
	"contractVisibility22.sol": {
		"DerivedVisibilityExample": {
			"abi": [
				{
					"inputs": [],
					"name": "getInternalVar",
					"outputs": [
						{
							"internalType": "uint256",
							"name": "",
							"type": "uint256"
						}
					],
					"stateMutability": "view",
					"type": "function"
				},
				{
					"inputs": [],
					"name": "getInternalVarFromBase",
					"outputs": [
						{
							"internalType": "uint256",
							"name": "",
							"type": "uint256"
						}
					],
					"stateMutability": "view",
					"type": "function"
				},
				{
					"inputs": [],
					"name": "getPrivateVar",
					"outputs": [
						{
							"internalType": "uint256",
							"name": "",
							"type": "uint256"
						}
					],
					"stateMutability": "view",
					"type": "function"
				},
				{
					"inputs": [],
					"name": "publicVar",
					"outputs": [
						{
							"internalType": "uint256",
							"name": "",
							"type": "uint256"
						}
					],
					"stateMutability": "view",
					"type": "function"
				}
			],
			"devdoc": {
				"kind": "dev",
				"methods": {},
				"version": 1
			},
			"evm": {
				"assembly": "    /* \"contractVisibility22.sol\":792:1262  contract DerivedVisibilityExample is VisibilityExample {... */\n  mstore(0x40, 0x80)\n    /* \"contractVisibility22.sol\":194:195  1 */\n  0x01\n    /* \"contractVisibility22.sol\":167:195  uint256 public publicVar = 1 */\n  0x00\n  sstore\n    /* \"contractVisibility22.sol\":326:327  2 */\n  0x02\n    /* \"contractVisibility22.sol\":295:327  uint256 internal internalVar = 2 */\n  0x01\n  sstore\n    /* \"contractVisibility22.sol\":439:440  3 */\n  0x03\n    /* \"contractVisibility22.sol\":410:440  uint256 private privateVar = 3 */\n  0x02\n  sstore\n    /* \"contractVisibility22.sol\":792:1262  contract DerivedVisibilityExample is VisibilityExample {... */\n  callvalue\n  dup1\n  iszero\n  tag_1\n  jumpi\n  revert(0x00, 0x00)\ntag_1:\n  pop\n  dataSize(sub_0)\n  dup1\n  dataOffset(sub_0)\n  0x00\n  codecopy\n  0x00\n  return\nstop\n\nsub_0: assembly {\n        /* \"contractVisibility22.sol\":792:1262  contract DerivedVisibilityExample is VisibilityExample {... */\n      mstore(0x40, 0x80)\n      callvalue\n      dup1\n      iszero\n      tag_1\n      jumpi\n      revert(0x00, 0x00)\n    tag_1:\n      pop\n      jumpi(tag_2, lt(calldatasize, 0x04))\n      shr(0xe0, calldataload(0x00))\n      dup1\n      0x1151fad8\n      eq\n      tag_3\n      jumpi\n      dup1\n      0x47375d2b\n      eq\n      tag_4\n      jumpi\n      dup1\n      0x74d47d20\n      eq\n      tag_5\n      jumpi\n      dup1\n      0x9f2080d6\n      eq\n      tag_6\n      jumpi\n    tag_2:\n      revert(0x00, 0x00)\n        /* \"contractVisibility22.sol\":167:195  uint256 public publicVar = 1 */\n    tag_3:\n      tag_7\n      tag_8\n      jump\t// in\n    tag_7:\n      mload(0x40)\n      tag_9\n      swap2\n      swap1\n      tag_10\n      jump\t// in\n    tag_9:\n      mload(0x40)\n      dup1\n      swap2\n      sub\n      swap1\n      return\n        /* \"contractVisibility22.sol\":522:615  function getInternalVar() public view returns (uint256) {... */\n    tag_4:\n      tag_11\n      tag_12\n      jump\t// in\n    tag_11:\n      mload(0x40)\n      tag_13\n      swap2\n      swap1\n      tag_10\n      jump\t// in\n    tag_13:\n      mload(0x40)\n      dup1\n      swap2\n      sub\n      swap1\n      return\n        /* \"contractVisibility22.sol\":623:714  function getPrivateVar() public view returns (uint256) {... */\n    tag_5:\n      tag_14\n      tag_15\n      jump\t// in\n    tag_14:\n      mload(0x40)\n      tag_16\n      swap2\n      swap1\n      tag_10\n      jump\t// in\n    tag_16:\n      mload(0x40)\n      dup1\n      swap2\n      sub\n      swap1\n      return\n        /* \"contractVisibility22.sol\":936:1037  function getInternalVarFromBase() public view returns (uint256) {... */\n    tag_6:\n      tag_17\n      tag_18\n      jump\t// in\n    tag_17:\n      mload(0x40)\n      tag_19\n      swap2\n      swap1\n      tag_10\n      jump\t// in\n    tag_19:\n      mload(0x40)\n      dup1\n      swap2\n      sub\n      swap1\n      return\n        /* \"contractVisibility22.sol\":167:195  uint256 public publicVar = 1 */\n    tag_8:\n      sload(0x00)\n      dup2\n      jump\t// out\n        /* \"contractVisibility22.sol\":522:615  function getInternalVar() public view returns (uint256) {... */\n    tag_12:\n        /* \"contractVisibility22.sol\":569:576  uint256 */\n      0x00\n        /* \"contractVisibility22.sol\":596:607  internalVar */\n      sload(0x01)\n        /* \"contractVisibility22.sol\":589:607  return internalVar */\n      swap1\n      pop\n        /* \"contractVisibility22.sol\":522:615  function getInternalVar() public view returns (uint256) {... */\n      swap1\n      jump\t// out\n        /* \"contractVisibility22.sol\":623:714  function getPrivateVar() public view returns (uint256) {... */\n    tag_15:\n        /* \"contractVisibility22.sol\":669:676  uint256 */\n      0x00\n        /* \"contractVisibility22.sol\":696:706  privateVar */\n      sload(0x02)\n        /* \"contractVisibility22.sol\":689:706  return privateVar */\n      swap1\n      pop\n        /* \"contractVisibility22.sol\":623:714  function getPrivateVar() public view returns (uint256) {... */\n      swap1\n      jump\t// out\n        /* \"contractVisibility22.sol\":936:1037  function getInternalVarFromBase() public view returns (uint256) {... */\n    tag_18:\n        /* \"contractVisibility22.sol\":991:998  uint256 */\n      0x00\n        /* \"contractVisibility22.sol\":1018:1029  internalVar */\n      sload(0x01)\n        /* \"contractVisibility22.sol\":1011:1029  return internalVar */\n      swap1\n      pop\n        /* \"contractVisibility22.sol\":936:1037  function getInternalVarFromBase() public view returns (uint256) {... */\n      swap1\n      jump\t// out\n        /* \"#utility.yul\":7:84   */\n    tag_23:\n        /* \"#utility.yul\":44:51   */\n      0x00\n        /* \"#utility.yul\":73:78   */\n      dup2\n        /* \"#utility.yul\":62:78   */\n      swap1\n      pop\n        /* \"#utility.yul\":7:84   */\n      swap2\n      swap1\n      pop\n      jump\t// out\n        /* \"#utility.yul\":90:208   */\n    tag_24:\n        /* \"#utility.yul\":177:201   */\n      tag_28\n        /* \"#utility.yul\":195:200   */\n      dup2\n        /* \"#utility.yul\":177:201   */\n      tag_23\n      jump\t// in\n    tag_28:\n        /* \"#utility.yul\":172:175   */\n      dup3\n        /* \"#utility.yul\":165:202   */\n      mstore\n        /* \"#utility.yul\":90:208   */\n      pop\n      pop\n      jump\t// out\n        /* \"#utility.yul\":214:436   */\n    tag_10:\n        /* \"#utility.yul\":307:311   */\n      0x00\n        /* \"#utility.yul\":345:347   */\n      0x20\n        /* \"#utility.yul\":334:343   */\n      dup3\n        /* \"#utility.yul\":330:348   */\n      add\n        /* \"#utility.yul\":322:348   */\n      swap1\n      pop\n        /* \"#utility.yul\":358:429   */\n      tag_30\n        /* \"#utility.yul\":426:427   */\n      0x00\n        /* \"#utility.yul\":415:424   */\n      dup4\n        /* \"#utility.yul\":411:428   */\n      add\n        /* \"#utility.yul\":402:408   */\n      dup5\n        /* \"#utility.yul\":358:429   */\n      tag_24\n      jump\t// in\n    tag_30:\n        /* \"#utility.yul\":214:436   */\n      swap3\n      swap2\n      pop\n      pop\n      jump\t// out\n\n    auxdata: 0xa2646970667358221220a47a3b914d0f4c583f673035ef0479d3ecdf6ac152add14737b8c0d045ba37de64736f6c634300081e0033\n}\n",
				"bytecode": {
					"linkReferences": {},
					"object": "608060405260015f5560026001556003600255348015601c575f5ffd5b506101338061002a5f395ff3fe6080604052348015600e575f5ffd5b50600436106044575f3560e01c80631151fad814604857806347375d2b14606257806374d47d2014607c5780639f2080d6146096575b5f5ffd5b604e60b0565b6040516059919060e6565b60405180910390f35b606860b5565b6040516073919060e6565b60405180910390f35b608260be565b604051608d919060e6565b60405180910390f35b609c60c7565b60405160a7919060e6565b60405180910390f35b5f5481565b5f600154905090565b5f600254905090565b5f600154905090565b5f819050919050565b60e08160d0565b82525050565b5f60208201905060f75f83018460d9565b9291505056fea2646970667358221220a47a3b914d0f4c583f673035ef0479d3ecdf6ac152add14737b8c0d045ba37de64736f6c634300081e0033",
					"opcodes": "PUSH1 0x80 PUSH1 0x40 MSTORE PUSH1 0x1 PUSH0 SSTORE PUSH1 0x2 PUSH1 0x1 SSTORE PUSH1 0x3 PUSH1 0x2 SSTORE CALLVALUE DUP1 ISZERO PUSH1 0x1C JUMPI PUSH0 PUSH0 REVERT JUMPDEST POP PUSH2 0x133 DUP1 PUSH2 0x2A PUSH0 CODECOPY PUSH0 RETURN INVALID PUSH1 0x80 PUSH1 0x40 MSTORE CALLVALUE DUP1 ISZERO PUSH1 0xE JUMPI PUSH0 PUSH0 REVERT JUMPDEST POP PUSH1 0x4 CALLDATASIZE LT PUSH1 0x44 JUMPI PUSH0 CALLDATALOAD PUSH1 0xE0 SHR DUP1 PUSH4 0x1151FAD8 EQ PUSH1 0x48 JUMPI DUP1 PUSH4 0x47375D2B EQ PUSH1 0x62 JUMPI DUP1 PUSH4 0x74D47D20 EQ PUSH1 0x7C JUMPI DUP1 PUSH4 0x9F2080D6 EQ PUSH1 0x96 JUMPI JUMPDEST PUSH0 PUSH0 REVERT JUMPDEST PUSH1 0x4E PUSH1 0xB0 JUMP JUMPDEST PUSH1 0x40 MLOAD PUSH1 0x59 SWAP2 SWAP1 PUSH1 0xE6 JUMP JUMPDEST PUSH1 0x40 MLOAD DUP1 SWAP2 SUB SWAP1 RETURN JUMPDEST PUSH1 0x68 PUSH1 0xB5 JUMP JUMPDEST PUSH1 0x40 MLOAD PUSH1 0x73 SWAP2 SWAP1 PUSH1 0xE6 JUMP JUMPDEST PUSH1 0x40 MLOAD DUP1 SWAP2 SUB SWAP1 RETURN JUMPDEST PUSH1 0x82 PUSH1 0xBE JUMP JUMPDEST PUSH1 0x40 MLOAD PUSH1 0x8D SWAP2 SWAP1 PUSH1 0xE6 JUMP JUMPDEST PUSH1 0x40 MLOAD DUP1 SWAP2 SUB SWAP1 RETURN JUMPDEST PUSH1 0x9C PUSH1 0xC7 JUMP JUMPDEST PUSH1 0x40 MLOAD PUSH1 0xA7 SWAP2 SWAP1 PUSH1 0xE6 JUMP JUMPDEST PUSH1 0x40 MLOAD DUP1 SWAP2 SUB SWAP1 RETURN JUMPDEST PUSH0 SLOAD DUP2 JUMP JUMPDEST PUSH0 PUSH1 0x1 SLOAD SWAP1 POP SWAP1 JUMP JUMPDEST PUSH0 PUSH1 0x2 SLOAD SWAP1 POP SWAP1 JUMP JUMPDEST PUSH0 PUSH1 0x1 SLOAD SWAP1 POP SWAP1 JUMP JUMPDEST PUSH0 DUP2 SWAP1 POP SWAP2 SWAP1 POP JUMP JUMPDEST PUSH1 0xE0 DUP2 PUSH1 0xD0 JUMP JUMPDEST DUP3 MSTORE POP POP JUMP JUMPDEST PUSH0 PUSH1 0x20 DUP3 ADD SWAP1 POP PUSH1 0xF7 PUSH0 DUP4 ADD DUP5 PUSH1 0xD9 JUMP JUMPDEST SWAP3 SWAP2 POP POP JUMP INVALID LOG2 PUSH5 0x6970667358 0x22 SLT KECCAK256 LOG4 PUSH27 0x3B914D0F4C583F673035EF0479D3ECDF6AC152ADD14737B8C0D045 0xBA CALLDATACOPY 0xDE PUSH5 0x736F6C6343 STOP ADDMOD 0x1E STOP CALLER "
				},
				"gasEstimates": {
					"creation": {
						"codeDepositCost": "61400",
						"executionCost": "66426",
						"totalCost": "127826"
					},
					"external": {
						"getInternalVar()": "2432",
						"getInternalVarFromBase()": "2476",
						"getPrivateVar()": "2454",
						"publicVar()": "2402"
					}
				},
				"methodIdentifiers": {
					"getInternalVar()": "47375d2b",
					"getInternalVarFromBase()": "9f2080d6",
					"getPrivateVar()": "74d47d20",
					"publicVar()": "1151fad8"
				}
			},
			"storageLayout": {
				"storage": [
					{
						"astId": 4,
						"contract": "contractVisibility22.sol:DerivedVisibilityExample",
						"label": "publicVar",
						"offset": 0,
						"slot": "0",
						"type": "t_uint256"
					},
					{
						"astId": 7,
						"contract": "contractVisibility22.sol:DerivedVisibilityExample",
						"label": "internalVar",
						"offset": 0,
						"slot": "1",
						"type": "t_uint256"
					},
					{
						"astId": 10,
						"contract": "contractVisibility22.sol:DerivedVisibilityExample",
						"label": "privateVar",
						"offset": 0,
						"slot": "2",
						"type": "t_uint256"
					}
				],
				"types": {
					"t_uint256": {
						"encoding": "inplace",
						"label": "uint256",
						"numberOfBytes": "32"
					}
				}
			},
			"userdoc": {
				"kind": "user",
				"methods": {},
				"version": 1
			}
		}
	}
}