{
	"empreview.sol": {
		"EmployeeManagement": {
			"abi": [
				{
					"inputs": [
						{
							"internalType": "uint256",
							"name": "employeeId",
							"type": "uint256"
						},
						{
							"internalType": "string",
							"name": "name",
							"type": "string"
						},
						{
							"internalType": "address",
							"name": "employeeAddress",
							"type": "address"
						},
						{
							"internalType": "uint256",
							"name": "salary",
							"type": "uint256"
						}
					],
					"name": "addEmployee",
					"outputs": [],
					"stateMutability": "nonpayable",
					"type": "function"
				},
				{
					"inputs": [
						{
							"internalType": "uint256",
							"name": "employeeId",
							"type": "uint256"
						},
						{
							"internalType": "uint256",
							"name": "year",
							"type": "uint256"
						},
						{
							"internalType": "string",
							"name": "review",
							"type": "string"
						},
						{
							"internalType": "uint8",
							"name": "rating",
							"type": "uint8"
						}
					],
					"name": "addPerformanceReview",
					"outputs": [],
					"stateMutability": "nonpayable",
					"type": "function"
				},
				{
					"inputs": [
						{
							"internalType": "uint256",
							"name": "",
							"type": "uint256"
						}
					],
					"name": "employees",
					"outputs": [
						{
							"internalType": "string",
							"name": "name",
							"type": "string"
						},
						{
							"internalType": "address",
							"name": "employeeAddress",
							"type": "address"
						},
						{
							"internalType": "uint256",
							"name": "salary",
							"type": "uint256"
						}
					],
					"stateMutability": "view",
					"type": "function"
				},
				{
					"inputs": [
						{
							"internalType": "uint256",
							"name": "employeeId",
							"type": "uint256"
						},
						{
							"internalType": "uint256",
							"name": "year",
							"type": "uint256"
						}
					],
					"name": "getPerformanceReview",
					"outputs": [
						{
							"internalType": "string",
							"name": "",
							"type": "string"
						},
						{
							"internalType": "uint8",
							"name": "",
							"type": "uint8"
						}
					],
					"stateMutability": "view",
					"type": "function"
				},
				{
					"inputs": [
						{
							"internalType": "uint256",
							"name": "",
							"type": "uint256"
						},
						{
							"internalType": "uint256",
							"name": "",
							"type": "uint256"
						}
					],
					"name": "performanceReviews",
					"outputs": [
						{
							"internalType": "string",
							"name": "review",
							"type": "string"
						},
						{
							"internalType": "uint8",
							"name": "rating",
							"type": "uint8"
						}
					],
					"stateMutability": "view",
					"type": "function"
				}
			],
			"devdoc": {
				"kind": "dev",
				"methods": {},
				"version": 1
			},
			"evm": {
				"assembly": "    /* \"empreview.sol\":60:1588  contract EmployeeManagement {... */\n  mstore(0x40, 0x80)\n  callvalue\n  dup1\n  iszero\n  tag_1\n  jumpi\n  revert(0x00, 0x00)\ntag_1:\n  pop\n  dataSize(sub_0)\n  dup1\n  dataOffset(sub_0)\n  0x00\n  codecopy\n  0x00\n  return\nstop\n\nsub_0: assembly {\n        /* \"empreview.sol\":60:1588  contract EmployeeManagement {... */\n      mstore(0x40, 0x80)\n      callvalue\n      dup1\n      iszero\n      tag_1\n      jumpi\n      revert(0x00, 0x00)\n    tag_1:\n      pop\n      jumpi(tag_2, lt(calldatasize, 0x04))\n      shr(0xe0, calldataload(0x00))\n      dup1\n      0x4739326b\n      eq\n      tag_3\n      jumpi\n      dup1\n      0x71e1a7d2\n      eq\n      tag_4\n      jumpi\n      dup1\n      0x72397537\n      eq\n      tag_5\n      jumpi\n      dup1\n      0xd6a8f93e\n      eq\n      tag_6\n      jumpi\n      dup1\n      0xeeaaa285\n      eq\n      tag_7\n      jumpi\n    tag_2:\n      revert(0x00, 0x00)\n        /* \"empreview.sol\":464:506  mapping(uint => Employee) public employees */\n    tag_3:\n      tag_8\n      0x04\n      dup1\n      calldatasize\n      sub\n      dup2\n      add\n      swap1\n      tag_9\n      swap2\n      swap1\n      tag_10\n      jump\t// in\n    tag_9:\n      tag_11\n      jump\t// in\n    tag_8:\n      mload(0x40)\n      tag_12\n      swap4\n      swap3\n      swap2\n      swap1\n      tag_13\n      jump\t// in\n    tag_12:\n      mload(0x40)\n      dup1\n      swap2\n      sub\n      swap1\n      return\n        /* \"empreview.sol\":1002:1237  function addPerformanceReview(... */\n    tag_4:\n      tag_14\n      0x04\n      dup1\n      calldatasize\n      sub\n      dup2\n      add\n      swap1\n      tag_15\n      swap2\n      swap1\n      tag_16\n      jump\t// in\n    tag_15:\n      tag_17\n      jump\t// in\n    tag_14:\n      stop\n        /* \"empreview.sol\":718:949  function addEmployee(... */\n    tag_5:\n      tag_18\n      0x04\n      dup1\n      calldatasize\n      sub\n      dup2\n      add\n      swap1\n      tag_19\n      swap2\n      swap1\n      tag_20\n      jump\t// in\n    tag_19:\n      tag_21\n      jump\t// in\n    tag_18:\n      stop\n        /* \"empreview.sol\":1322:1585  function getPerformanceReview(... */\n    tag_6:\n      tag_22\n      0x04\n      dup1\n      calldatasize\n      sub\n      dup2\n      add\n      swap1\n      tag_23\n      swap2\n      swap1\n      tag_24\n      jump\t// in\n    tag_23:\n      tag_25\n      jump\t// in\n    tag_22:\n      mload(0x40)\n      tag_26\n      swap3\n      swap2\n      swap1\n      tag_27\n      jump\t// in\n    tag_26:\n      mload(0x40)\n      dup1\n      swap2\n      sub\n      swap1\n      return\n        /* \"empreview.sol\":593:670  mapping(uint => mapping(uint => PerformanceReview)) public performanceReviews */\n    tag_7:\n      tag_28\n      0x04\n      dup1\n      calldatasize\n      sub\n      dup2\n      add\n      swap1\n      tag_29\n      swap2\n      swap1\n      tag_24\n      jump\t// in\n    tag_29:\n      tag_30\n      jump\t// in\n    tag_28:\n      mload(0x40)\n      tag_31\n      swap3\n      swap2\n      swap1\n      tag_27\n      jump\t// in\n    tag_31:\n      mload(0x40)\n      dup1\n      swap2\n      sub\n      swap1\n      return\n        /* \"empreview.sol\":464:506  mapping(uint => Employee) public employees */\n    tag_11:\n      mstore(0x20, 0x00)\n      dup1\n      0x00\n      mstore\n      keccak256(0x00, 0x40)\n      0x00\n      swap2\n      pop\n      swap1\n      pop\n      dup1\n      0x00\n      add\n      dup1\n      sload\n      tag_32\n      swap1\n      tag_33\n      jump\t// in\n    tag_32:\n      dup1\n      0x1f\n      add\n      0x20\n      dup1\n      swap2\n      div\n      mul\n      0x20\n      add\n      mload(0x40)\n      swap1\n      dup2\n      add\n      0x40\n      mstore\n      dup1\n      swap3\n      swap2\n      swap1\n      dup2\n      dup2\n      mstore\n      0x20\n      add\n      dup3\n      dup1\n      sload\n      tag_34\n      swap1\n      tag_33\n      jump\t// in\n    tag_34:\n      dup1\n      iszero\n      tag_35\n      jumpi\n      dup1\n      0x1f\n      lt\n      tag_36\n      jumpi\n      0x0100\n      dup1\n      dup4\n      sload\n      div\n      mul\n      dup4\n      mstore\n      swap2\n      0x20\n      add\n      swap2\n      jump(tag_35)\n    tag_36:\n      dup3\n      add\n      swap2\n      swap1\n      0x00\n      mstore\n      keccak256(0x00, 0x20)\n      swap1\n    tag_37:\n      dup2\n      sload\n      dup2\n      mstore\n      swap1\n      0x01\n      add\n      swap1\n      0x20\n      add\n      dup1\n      dup4\n      gt\n      tag_37\n      jumpi\n      dup3\n      swap1\n      sub\n      0x1f\n      and\n      dup3\n      add\n      swap2\n    tag_35:\n      pop\n      pop\n      pop\n      pop\n      pop\n      swap1\n      dup1\n      0x01\n      add\n      0x00\n      swap1\n      sload\n      swap1\n      0x0100\n      exp\n      swap1\n      div\n      0xffffffffffffffffffffffffffffffffffffffff\n      and\n      swap1\n      dup1\n      0x02\n      add\n      sload\n      swap1\n      pop\n      dup4\n      jump\t// out\n        /* \"empreview.sol\":1002:1237  function addPerformanceReview(... */\n    tag_17:\n        /* \"empreview.sol\":1196:1229  PerformanceReview(review, rating) */\n      mload(0x40)\n      dup1\n      0x40\n      add\n      0x40\n      mstore\n      dup1\n        /* \"empreview.sol\":1214:1220  review */\n      dup4\n        /* \"empreview.sol\":1196:1229  PerformanceReview(review, rating) */\n      dup2\n      mstore\n      0x20\n      add\n        /* \"empreview.sol\":1222:1228  rating */\n      dup3\n        /* \"empreview.sol\":1196:1229  PerformanceReview(review, rating) */\n      0xff\n      and\n      dup2\n      mstore\n      pop\n        /* \"empreview.sol\":1157:1175  performanceReviews */\n      0x01\n        /* \"empreview.sol\":1157:1187  performanceReviews[employeeId] */\n      0x00\n        /* \"empreview.sol\":1176:1186  employeeId */\n      dup7\n        /* \"empreview.sol\":1157:1187  performanceReviews[employeeId] */\n      dup2\n      mstore\n      0x20\n      add\n      swap1\n      dup2\n      mstore\n      0x20\n      add\n      0x00\n      keccak256\n        /* \"empreview.sol\":1157:1193  performanceReviews[employeeId][year] */\n      0x00\n        /* \"empreview.sol\":1188:1192  year */\n      dup6\n        /* \"empreview.sol\":1157:1193  performanceReviews[employeeId][year] */\n      dup2\n      mstore\n      0x20\n      add\n      swap1\n      dup2\n      mstore\n      0x20\n      add\n      0x00\n      keccak256\n        /* \"empreview.sol\":1157:1229  performanceReviews[employeeId][year] = PerformanceReview(review, rating) */\n      0x00\n      dup3\n      add\n      mload\n      dup2\n      0x00\n      add\n      swap1\n      dup2\n      tag_39\n      swap2\n      swap1\n      tag_40\n      jump\t// in\n    tag_39:\n      pop\n      0x20\n      dup3\n      add\n      mload\n      dup2\n      0x01\n      add\n      exp(0x0100, 0x00)\n      dup2\n      sload\n      dup2\n      0xff\n      mul\n      not\n      and\n      swap1\n      dup4\n      0xff\n      and\n      mul\n      or\n      swap1\n      sstore\n      pop\n      swap1\n      pop\n      pop\n        /* \"empreview.sol\":1002:1237  function addPerformanceReview(... */\n      pop\n      pop\n      pop\n      pop\n      jump\t// out\n        /* \"empreview.sol\":718:949  function addEmployee(... */\n    tag_21:\n        /* \"empreview.sol\":902:941  Employee(name, employeeAddress, salary) */\n      mload(0x40)\n      dup1\n      0x60\n      add\n      0x40\n      mstore\n      dup1\n        /* \"empreview.sol\":911:915  name */\n      dup5\n        /* \"empreview.sol\":902:941  Employee(name, employeeAddress, salary) */\n      dup2\n      mstore\n      0x20\n      add\n        /* \"empreview.sol\":917:932  employeeAddress */\n      dup4\n        /* \"empreview.sol\":902:941  Employee(name, employeeAddress, salary) */\n      0xffffffffffffffffffffffffffffffffffffffff\n      and\n      dup2\n      mstore\n      0x20\n      add\n        /* \"empreview.sol\":934:940  salary */\n      dup3\n        /* \"empreview.sol\":902:941  Employee(name, employeeAddress, salary) */\n      dup2\n      mstore\n      pop\n        /* \"empreview.sol\":878:887  employees */\n      0x00\n        /* \"empreview.sol\":878:899  employees[employeeId] */\n      0x00\n        /* \"empreview.sol\":888:898  employeeId */\n      dup7\n        /* \"empreview.sol\":878:899  employees[employeeId] */\n      dup2\n      mstore\n      0x20\n      add\n      swap1\n      dup2\n      mstore\n      0x20\n      add\n      0x00\n      keccak256\n        /* \"empreview.sol\":878:941  employees[employeeId] = Employee(name, employeeAddress, salary) */\n      0x00\n      dup3\n      add\n      mload\n      dup2\n      0x00\n      add\n      swap1\n      dup2\n      tag_42\n      swap2\n      swap1\n      tag_40\n      jump\t// in\n    tag_42:\n      pop\n      0x20\n      dup3\n      add\n      mload\n      dup2\n      0x01\n      add\n      exp(0x0100, 0x00)\n      dup2\n      sload\n      dup2\n      0xffffffffffffffffffffffffffffffffffffffff\n      mul\n      not\n      and\n      swap1\n      dup4\n      0xffffffffffffffffffffffffffffffffffffffff\n      and\n      mul\n      or\n      swap1\n      sstore\n      pop\n      0x40\n      dup3\n      add\n      mload\n      dup2\n      0x02\n      add\n      sstore\n      swap1\n      pop\n      pop\n        /* \"empreview.sol\":718:949  function addEmployee(... */\n      pop\n      pop\n      pop\n      pop\n      jump\t// out\n        /* \"empreview.sol\":1322:1585  function getPerformanceReview(... */\n    tag_25:\n        /* \"empreview.sol\":1426:1439  string memory */\n      0x60\n        /* \"empreview.sol\":1441:1446  uint8 */\n      0x00\n        /* \"empreview.sol\":1459:1490  PerformanceReview memory review */\n      0x00\n        /* \"empreview.sol\":1493:1511  performanceReviews */\n      0x01\n        /* \"empreview.sol\":1493:1523  performanceReviews[employeeId] */\n      0x00\n        /* \"empreview.sol\":1512:1522  employeeId */\n      dup7\n        /* \"empreview.sol\":1493:1523  performanceReviews[employeeId] */\n      dup2\n      mstore\n      0x20\n      add\n      swap1\n      dup2\n      mstore\n      0x20\n      add\n      0x00\n      keccak256\n        /* \"empreview.sol\":1493:1529  performanceReviews[employeeId][year] */\n      0x00\n        /* \"empreview.sol\":1524:1528  year */\n      dup6\n        /* \"empreview.sol\":1493:1529  performanceReviews[employeeId][year] */\n      dup2\n      mstore\n      0x20\n      add\n      swap1\n      dup2\n      mstore\n      0x20\n      add\n      0x00\n      keccak256\n        /* \"empreview.sol\":1459:1529  PerformanceReview memory review = performanceReviews[employeeId][year] */\n      mload(0x40)\n      dup1\n      0x40\n      add\n      0x40\n      mstore\n      swap1\n      dup2\n      0x00\n      dup3\n      add\n      dup1\n      sload\n      tag_44\n      swap1\n      tag_33\n      jump\t// in\n    tag_44:\n      dup1\n      0x1f\n      add\n      0x20\n      dup1\n      swap2\n      div\n      mul\n      0x20\n      add\n      mload(0x40)\n      swap1\n      dup2\n      add\n      0x40\n      mstore\n      dup1\n      swap3\n      swap2\n      swap1\n      dup2\n      dup2\n      mstore\n      0x20\n      add\n      dup3\n      dup1\n      sload\n      tag_45\n      swap1\n      tag_33\n      jump\t// in\n    tag_45:\n      dup1\n      iszero\n      tag_46\n      jumpi\n      dup1\n      0x1f\n      lt\n      tag_47\n      jumpi\n      0x0100\n      dup1\n      dup4\n      sload\n      div\n      mul\n      dup4\n      mstore\n      swap2\n      0x20\n      add\n      swap2\n      jump(tag_46)\n    tag_47:\n      dup3\n      add\n      swap2\n      swap1\n      0x00\n      mstore\n      keccak256(0x00, 0x20)\n      swap1\n    tag_48:\n      dup2\n      sload\n      dup2\n      mstore\n      swap1\n      0x01\n      add\n      swap1\n      0x20\n      add\n      dup1\n      dup4\n      gt\n      tag_48\n      jumpi\n      dup3\n      swap1\n      sub\n      0x1f\n      and\n      dup3\n      add\n      swap2\n    tag_46:\n      pop\n      pop\n      pop\n      pop\n      pop\n      dup2\n      mstore\n      0x20\n      add\n      0x01\n      dup3\n      add\n      0x00\n      swap1\n      sload\n      swap1\n      0x0100\n      exp\n      swap1\n      div\n      0xff\n      and\n      0xff\n      and\n      0xff\n      and\n      dup2\n      mstore\n      pop\n      pop\n      swap1\n      pop\n        /* \"empreview.sol\":1548:1554  review */\n      dup1\n        /* \"empreview.sol\":1548:1561  review.review */\n      0x00\n      add\n      mload\n        /* \"empreview.sol\":1563:1569  review */\n      dup2\n        /* \"empreview.sol\":1563:1576  review.rating */\n      0x20\n      add\n      mload\n        /* \"empreview.sol\":1540:1577  return (review.review, review.rating) */\n      swap3\n      pop\n      swap3\n      pop\n      pop\n        /* \"empreview.sol\":1322:1585  function getPerformanceReview(... */\n      swap3\n      pop\n      swap3\n      swap1\n      pop\n      jump\t// out\n        /* \"empreview.sol\":593:670  mapping(uint => mapping(uint => PerformanceReview)) public performanceReviews */\n    tag_30:\n      mstore(0x20, 0x01)\n      dup2\n      0x00\n      mstore\n      mstore(0x20, keccak256(0x00, 0x40))\n      dup1\n      0x00\n      mstore\n      keccak256(0x00, 0x40)\n      0x00\n      swap2\n      pop\n      swap2\n      pop\n      pop\n      dup1\n      0x00\n      add\n      dup1\n      sload\n      tag_49\n      swap1\n      tag_33\n      jump\t// in\n    tag_49:\n      dup1\n      0x1f\n      add\n      0x20\n      dup1\n      swap2\n      div\n      mul\n      0x20\n      add\n      mload(0x40)\n      swap1\n      dup2\n      add\n      0x40\n      mstore\n      dup1\n      swap3\n      swap2\n      swap1\n      dup2\n      dup2\n      mstore\n      0x20\n      add\n      dup3\n      dup1\n      sload\n      tag_50\n      swap1\n      tag_33\n      jump\t// in\n    tag_50:\n      dup1\n      iszero\n      tag_51\n      jumpi\n      dup1\n      0x1f\n      lt\n      tag_52\n      jumpi\n      0x0100\n      dup1\n      dup4\n      sload\n      div\n      mul\n      dup4\n      mstore\n      swap2\n      0x20\n      add\n      swap2\n      jump(tag_51)\n    tag_52:\n      dup3\n      add\n      swap2\n      swap1\n      0x00\n      mstore\n      keccak256(0x00, 0x20)\n      swap1\n    tag_53:\n      dup2\n      sload\n      dup2\n      mstore\n      swap1\n      0x01\n      add\n      swap1\n      0x20\n      add\n      dup1\n      dup4\n      gt\n      tag_53\n      jumpi\n      dup3\n      swap1\n      sub\n      0x1f\n      and\n      dup3\n      add\n      swap2\n    tag_51:\n      pop\n      pop\n      pop\n      pop\n      pop\n      swap1\n      dup1\n      0x01\n      add\n      0x00\n      swap1\n      sload\n      swap1\n      0x0100\n      exp\n      swap1\n      div\n      0xff\n      and\n      swap1\n      pop\n      dup3\n      jump\t// out\n        /* \"#utility.yul\":7:82   */\n    tag_54:\n        /* \"#utility.yul\":40:46   */\n      0x00\n        /* \"#utility.yul\":73:75   */\n      0x40\n        /* \"#utility.yul\":67:76   */\n      mload\n        /* \"#utility.yul\":57:76   */\n      swap1\n      pop\n        /* \"#utility.yul\":7:82   */\n      swap1\n      jump\t// out\n        /* \"#utility.yul\":88:205   */\n    tag_55:\n        /* \"#utility.yul\":197:198   */\n      0x00\n        /* \"#utility.yul\":194:195   */\n      0x00\n        /* \"#utility.yul\":187:199   */\n      revert\n        /* \"#utility.yul\":211:328   */\n    tag_56:\n        /* \"#utility.yul\":320:321   */\n      0x00\n        /* \"#utility.yul\":317:318   */\n      0x00\n        /* \"#utility.yul\":310:322   */\n      revert\n        /* \"#utility.yul\":334:411   */\n    tag_57:\n        /* \"#utility.yul\":371:378   */\n      0x00\n        /* \"#utility.yul\":400:405   */\n      dup2\n        /* \"#utility.yul\":389:405   */\n      swap1\n      pop\n        /* \"#utility.yul\":334:411   */\n      swap2\n      swap1\n      pop\n      jump\t// out\n        /* \"#utility.yul\":417:539   */\n    tag_58:\n        /* \"#utility.yul\":490:514   */\n      tag_106\n        /* \"#utility.yul\":508:513   */\n      dup2\n        /* \"#utility.yul\":490:514   */\n      tag_57\n      jump\t// in\n    tag_106:\n        /* \"#utility.yul\":483:488   */\n      dup2\n        /* \"#utility.yul\":480:515   */\n      eq\n        /* \"#utility.yul\":470:533   */\n      tag_107\n      jumpi\n        /* \"#utility.yul\":529:530   */\n      0x00\n        /* \"#utility.yul\":526:527   */\n      0x00\n        /* \"#utility.yul\":519:531   */\n      revert\n        /* \"#utility.yul\":470:533   */\n    tag_107:\n        /* \"#utility.yul\":417:539   */\n      pop\n      jump\t// out\n        /* \"#utility.yul\":545:684   */\n    tag_59:\n        /* \"#utility.yul\":591:596   */\n      0x00\n        /* \"#utility.yul\":629:635   */\n      dup2\n        /* \"#utility.yul\":616:636   */\n      calldataload\n        /* \"#utility.yul\":607:636   */\n      swap1\n      pop\n        /* \"#utility.yul\":645:678   */\n      tag_109\n        /* \"#utility.yul\":672:677   */\n      dup2\n        /* \"#utility.yul\":645:678   */\n      tag_58\n      jump\t// in\n    tag_109:\n        /* \"#utility.yul\":545:684   */\n      swap3\n      swap2\n      pop\n      pop\n      jump\t// out\n        /* \"#utility.yul\":690:1019   */\n    tag_10:\n        /* \"#utility.yul\":749:755   */\n      0x00\n        /* \"#utility.yul\":798:800   */\n      0x20\n        /* \"#utility.yul\":786:795   */\n      dup3\n        /* \"#utility.yul\":777:784   */\n      dup5\n        /* \"#utility.yul\":773:796   */\n      sub\n        /* \"#utility.yul\":769:801   */\n      slt\n        /* \"#utility.yul\":766:885   */\n      iszero\n      tag_111\n      jumpi\n        /* \"#utility.yul\":804:883   */\n      tag_112\n      tag_55\n      jump\t// in\n    tag_112:\n        /* \"#utility.yul\":766:885   */\n    tag_111:\n        /* \"#utility.yul\":924:925   */\n      0x00\n        /* \"#utility.yul\":949:1002   */\n      tag_113\n        /* \"#utility.yul\":994:1001   */\n      dup5\n        /* \"#utility.yul\":985:991   */\n      dup3\n        /* \"#utility.yul\":974:983   */\n      dup6\n        /* \"#utility.yul\":970:992   */\n      add\n        /* \"#utility.yul\":949:1002   */\n      tag_59\n      jump\t// in\n    tag_113:\n        /* \"#utility.yul\":939:1002   */\n      swap2\n      pop\n        /* \"#utility.yul\":895:1012   */\n      pop\n        /* \"#utility.yul\":690:1019   */\n      swap3\n      swap2\n      pop\n      pop\n      jump\t// out\n        /* \"#utility.yul\":1025:1124   */\n    tag_60:\n        /* \"#utility.yul\":1077:1083   */\n      0x00\n        /* \"#utility.yul\":1111:1116   */\n      dup2\n        /* \"#utility.yul\":1105:1117   */\n      mload\n        /* \"#utility.yul\":1095:1117   */\n      swap1\n      pop\n        /* \"#utility.yul\":1025:1124   */\n      swap2\n      swap1\n      pop\n      jump\t// out\n        /* \"#utility.yul\":1130:1299   */\n    tag_61:\n        /* \"#utility.yul\":1214:1225   */\n      0x00\n        /* \"#utility.yul\":1248:1254   */\n      dup3\n        /* \"#utility.yul\":1243:1246   */\n      dup3\n        /* \"#utility.yul\":1236:1255   */\n      mstore\n        /* \"#utility.yul\":1288:1292   */\n      0x20\n        /* \"#utility.yul\":1283:1286   */\n      dup3\n        /* \"#utility.yul\":1279:1293   */\n      add\n        /* \"#utility.yul\":1264:1293   */\n      swap1\n      pop\n        /* \"#utility.yul\":1130:1299   */\n      swap3\n      swap2\n      pop\n      pop\n      jump\t// out\n        /* \"#utility.yul\":1305:1444   */\n    tag_62:\n        /* \"#utility.yul\":1394:1400   */\n      dup3\n        /* \"#utility.yul\":1389:1392   */\n      dup2\n        /* \"#utility.yul\":1384:1387   */\n      dup4\n        /* \"#utility.yul\":1378:1401   */\n      mcopy\n        /* \"#utility.yul\":1435:1436   */\n      0x00\n        /* \"#utility.yul\":1426:1432   */\n      dup4\n        /* \"#utility.yul\":1421:1424   */\n      dup4\n        /* \"#utility.yul\":1417:1433   */\n      add\n        /* \"#utility.yul\":1410:1437   */\n      mstore\n        /* \"#utility.yul\":1305:1444   */\n      pop\n      pop\n      pop\n      jump\t// out\n        /* \"#utility.yul\":1450:1552   */\n    tag_63:\n        /* \"#utility.yul\":1491:1497   */\n      0x00\n        /* \"#utility.yul\":1542:1544   */\n      0x1f\n        /* \"#utility.yul\":1538:1545   */\n      not\n        /* \"#utility.yul\":1533:1535   */\n      0x1f\n        /* \"#utility.yul\":1526:1531   */\n      dup4\n        /* \"#utility.yul\":1522:1536   */\n      add\n        /* \"#utility.yul\":1518:1546   */\n      and\n        /* \"#utility.yul\":1508:1546   */\n      swap1\n      pop\n        /* \"#utility.yul\":1450:1552   */\n      swap2\n      swap1\n      pop\n      jump\t// out\n        /* \"#utility.yul\":1558:1935   */\n    tag_64:\n        /* \"#utility.yul\":1646:1649   */\n      0x00\n        /* \"#utility.yul\":1674:1713   */\n      tag_119\n        /* \"#utility.yul\":1707:1712   */\n      dup3\n        /* \"#utility.yul\":1674:1713   */\n      tag_60\n      jump\t// in\n    tag_119:\n        /* \"#utility.yul\":1729:1800   */\n      tag_120\n        /* \"#utility.yul\":1793:1799   */\n      dup2\n        /* \"#utility.yul\":1788:1791   */\n      dup6\n        /* \"#utility.yul\":1729:1800   */\n      tag_61\n      jump\t// in\n    tag_120:\n        /* \"#utility.yul\":1722:1800   */\n      swap4\n      pop\n        /* \"#utility.yul\":1809:1874   */\n      tag_121\n        /* \"#utility.yul\":1867:1873   */\n      dup2\n        /* \"#utility.yul\":1862:1865   */\n      dup6\n        /* \"#utility.yul\":1855:1859   */\n      0x20\n        /* \"#utility.yul\":1848:1853   */\n      dup7\n        /* \"#utility.yul\":1844:1860   */\n      add\n        /* \"#utility.yul\":1809:1874   */\n      tag_62\n      jump\t// in\n    tag_121:\n        /* \"#utility.yul\":1899:1928   */\n      tag_122\n        /* \"#utility.yul\":1921:1927   */\n      dup2\n        /* \"#utility.yul\":1899:1928   */\n      tag_63\n      jump\t// in\n    tag_122:\n        /* \"#utility.yul\":1894:1897   */\n      dup5\n        /* \"#utility.yul\":1890:1929   */\n      add\n        /* \"#utility.yul\":1883:1929   */\n      swap2\n      pop\n        /* \"#utility.yul\":1650:1935   */\n      pop\n        /* \"#utility.yul\":1558:1935   */\n      swap3\n      swap2\n      pop\n      pop\n      jump\t// out\n        /* \"#utility.yul\":1941:2067   */\n    tag_65:\n        /* \"#utility.yul\":1978:1985   */\n      0x00\n        /* \"#utility.yul\":2018:2060   */\n      0xffffffffffffffffffffffffffffffffffffffff\n        /* \"#utility.yul\":2011:2016   */\n      dup3\n        /* \"#utility.yul\":2007:2061   */\n      and\n        /* \"#utility.yul\":1996:2061   */\n      swap1\n      pop\n        /* \"#utility.yul\":1941:2067   */\n      swap2\n      swap1\n      pop\n      jump\t// out\n        /* \"#utility.yul\":2073:2169   */\n    tag_66:\n        /* \"#utility.yul\":2110:2117   */\n      0x00\n        /* \"#utility.yul\":2139:2163   */\n      tag_125\n        /* \"#utility.yul\":2157:2162   */\n      dup3\n        /* \"#utility.yul\":2139:2163   */\n      tag_65\n      jump\t// in\n    tag_125:\n        /* \"#utility.yul\":2128:2163   */\n      swap1\n      pop\n        /* \"#utility.yul\":2073:2169   */\n      swap2\n      swap1\n      pop\n      jump\t// out\n        /* \"#utility.yul\":2175:2293   */\n    tag_67:\n        /* \"#utility.yul\":2262:2286   */\n      tag_127\n        /* \"#utility.yul\":2280:2285   */\n      dup2\n        /* \"#utility.yul\":2262:2286   */\n      tag_66\n      jump\t// in\n    tag_127:\n        /* \"#utility.yul\":2257:2260   */\n      dup3\n        /* \"#utility.yul\":2250:2287   */\n      mstore\n        /* \"#utility.yul\":2175:2293   */\n      pop\n      pop\n      jump\t// out\n        /* \"#utility.yul\":2299:2417   */\n    tag_68:\n        /* \"#utility.yul\":2386:2410   */\n      tag_129\n        /* \"#utility.yul\":2404:2409   */\n      dup2\n        /* \"#utility.yul\":2386:2410   */\n      tag_57\n      jump\t// in\n    tag_129:\n        /* \"#utility.yul\":2381:2384   */\n      dup3\n        /* \"#utility.yul\":2374:2411   */\n      mstore\n        /* \"#utility.yul\":2299:2417   */\n      pop\n      pop\n      jump\t// out\n        /* \"#utility.yul\":2423:2956   */\n    tag_13:\n        /* \"#utility.yul\":2592:2596   */\n      0x00\n        /* \"#utility.yul\":2630:2632   */\n      0x60\n        /* \"#utility.yul\":2619:2628   */\n      dup3\n        /* \"#utility.yul\":2615:2633   */\n      add\n        /* \"#utility.yul\":2607:2633   */\n      swap1\n      pop\n        /* \"#utility.yul\":2679:2688   */\n      dup2\n        /* \"#utility.yul\":2673:2677   */\n      dup2\n        /* \"#utility.yul\":2669:2689   */\n      sub\n        /* \"#utility.yul\":2665:2666   */\n      0x00\n        /* \"#utility.yul\":2654:2663   */\n      dup4\n        /* \"#utility.yul\":2650:2667   */\n      add\n        /* \"#utility.yul\":2643:2690   */\n      mstore\n        /* \"#utility.yul\":2707:2785   */\n      tag_131\n        /* \"#utility.yul\":2780:2784   */\n      dup2\n        /* \"#utility.yul\":2771:2777   */\n      dup7\n        /* \"#utility.yul\":2707:2785   */\n      tag_64\n      jump\t// in\n    tag_131:\n        /* \"#utility.yul\":2699:2785   */\n      swap1\n      pop\n        /* \"#utility.yul\":2795:2867   */\n      tag_132\n        /* \"#utility.yul\":2863:2865   */\n      0x20\n        /* \"#utility.yul\":2852:2861   */\n      dup4\n        /* \"#utility.yul\":2848:2866   */\n      add\n        /* \"#utility.yul\":2839:2845   */\n      dup6\n        /* \"#utility.yul\":2795:2867   */\n      tag_67\n      jump\t// in\n    tag_132:\n        /* \"#utility.yul\":2877:2949   */\n      tag_133\n        /* \"#utility.yul\":2945:2947   */\n      0x40\n        /* \"#utility.yul\":2934:2943   */\n      dup4\n        /* \"#utility.yul\":2930:2948   */\n      add\n        /* \"#utility.yul\":2921:2927   */\n      dup5\n        /* \"#utility.yul\":2877:2949   */\n      tag_68\n      jump\t// in\n    tag_133:\n        /* \"#utility.yul\":2423:2956   */\n      swap5\n      swap4\n      pop\n      pop\n      pop\n      pop\n      jump\t// out\n        /* \"#utility.yul\":2962:3079   */\n    tag_69:\n        /* \"#utility.yul\":3071:3072   */\n      0x00\n        /* \"#utility.yul\":3068:3069   */\n      0x00\n        /* \"#utility.yul\":3061:3073   */\n      revert\n        /* \"#utility.yul\":3085:3202   */\n    tag_70:\n        /* \"#utility.yul\":3194:3195   */\n      0x00\n        /* \"#utility.yul\":3191:3192   */\n      0x00\n        /* \"#utility.yul\":3184:3196   */\n      revert\n        /* \"#utility.yul\":3208:3388   */\n    tag_71:\n        /* \"#utility.yul\":3256:3333   */\n      0x4e487b7100000000000000000000000000000000000000000000000000000000\n        /* \"#utility.yul\":3253:3254   */\n      0x00\n        /* \"#utility.yul\":3246:3334   */\n      mstore\n        /* \"#utility.yul\":3353:3357   */\n      0x41\n        /* \"#utility.yul\":3350:3351   */\n      0x04\n        /* \"#utility.yul\":3343:3358   */\n      mstore\n        /* \"#utility.yul\":3377:3381   */\n      0x24\n        /* \"#utility.yul\":3374:3375   */\n      0x00\n        /* \"#utility.yul\":3367:3382   */\n      revert\n        /* \"#utility.yul\":3394:3675   */\n    tag_72:\n        /* \"#utility.yul\":3477:3504   */\n      tag_138\n        /* \"#utility.yul\":3499:3503   */\n      dup3\n        /* \"#utility.yul\":3477:3504   */\n      tag_63\n      jump\t// in\n    tag_138:\n        /* \"#utility.yul\":3469:3475   */\n      dup2\n        /* \"#utility.yul\":3465:3505   */\n      add\n        /* \"#utility.yul\":3607:3613   */\n      dup2\n        /* \"#utility.yul\":3595:3605   */\n      dup2\n        /* \"#utility.yul\":3592:3614   */\n      lt\n        /* \"#utility.yul\":3571:3589   */\n      0xffffffffffffffff\n        /* \"#utility.yul\":3559:3569   */\n      dup3\n        /* \"#utility.yul\":3556:3590   */\n      gt\n        /* \"#utility.yul\":3553:3615   */\n      or\n        /* \"#utility.yul\":3550:3638   */\n      iszero\n      tag_139\n      jumpi\n        /* \"#utility.yul\":3618:3636   */\n      tag_140\n      tag_71\n      jump\t// in\n    tag_140:\n        /* \"#utility.yul\":3550:3638   */\n    tag_139:\n        /* \"#utility.yul\":3658:3668   */\n      dup1\n        /* \"#utility.yul\":3654:3656   */\n      0x40\n        /* \"#utility.yul\":3647:3669   */\n      mstore\n        /* \"#utility.yul\":3437:3675   */\n      pop\n        /* \"#utility.yul\":3394:3675   */\n      pop\n      pop\n      jump\t// out\n        /* \"#utility.yul\":3681:3810   */\n    tag_73:\n        /* \"#utility.yul\":3715:3721   */\n      0x00\n        /* \"#utility.yul\":3742:3762   */\n      tag_142\n      tag_54\n      jump\t// in\n    tag_142:\n        /* \"#utility.yul\":3732:3762   */\n      swap1\n      pop\n        /* \"#utility.yul\":3771:3804   */\n      tag_143\n        /* \"#utility.yul\":3799:3803   */\n      dup3\n        /* \"#utility.yul\":3791:3797   */\n      dup3\n        /* \"#utility.yul\":3771:3804   */\n      tag_72\n      jump\t// in\n    tag_143:\n        /* \"#utility.yul\":3681:3810   */\n      swap2\n      swap1\n      pop\n      jump\t// out\n        /* \"#utility.yul\":3816:4124   */\n    tag_74:\n        /* \"#utility.yul\":3878:3882   */\n      0x00\n        /* \"#utility.yul\":3968:3986   */\n      0xffffffffffffffff\n        /* \"#utility.yul\":3960:3966   */\n      dup3\n        /* \"#utility.yul\":3957:3987   */\n      gt\n        /* \"#utility.yul\":3954:4010   */\n      iszero\n      tag_145\n      jumpi\n        /* \"#utility.yul\":3990:4008   */\n      tag_146\n      tag_71\n      jump\t// in\n    tag_146:\n        /* \"#utility.yul\":3954:4010   */\n    tag_145:\n        /* \"#utility.yul\":4028:4057   */\n      tag_147\n        /* \"#utility.yul\":4050:4056   */\n      dup3\n        /* \"#utility.yul\":4028:4057   */\n      tag_63\n      jump\t// in\n    tag_147:\n        /* \"#utility.yul\":4020:4057   */\n      swap1\n      pop\n        /* \"#utility.yul\":4112:4116   */\n      0x20\n        /* \"#utility.yul\":4106:4110   */\n      dup2\n        /* \"#utility.yul\":4102:4117   */\n      add\n        /* \"#utility.yul\":4094:4117   */\n      swap1\n      pop\n        /* \"#utility.yul\":3816:4124   */\n      swap2\n      swap1\n      pop\n      jump\t// out\n        /* \"#utility.yul\":4130:4278   */\n    tag_75:\n        /* \"#utility.yul\":4228:4234   */\n      dup3\n        /* \"#utility.yul\":4223:4226   */\n      dup2\n        /* \"#utility.yul\":4218:4221   */\n      dup4\n        /* \"#utility.yul\":4205:4235   */\n      calldatacopy\n        /* \"#utility.yul\":4269:4270   */\n      0x00\n        /* \"#utility.yul\":4260:4266   */\n      dup4\n        /* \"#utility.yul\":4255:4258   */\n      dup4\n        /* \"#utility.yul\":4251:4267   */\n      add\n        /* \"#utility.yul\":4244:4271   */\n      mstore\n        /* \"#utility.yul\":4130:4278   */\n      pop\n      pop\n      pop\n      jump\t// out\n        /* \"#utility.yul\":4284:4709   */\n    tag_76:\n        /* \"#utility.yul\":4362:4367   */\n      0x00\n        /* \"#utility.yul\":4387:4453   */\n      tag_150\n        /* \"#utility.yul\":4403:4452   */\n      tag_151\n        /* \"#utility.yul\":4445:4451   */\n      dup5\n        /* \"#utility.yul\":4403:4452   */\n      tag_74\n      jump\t// in\n    tag_151:\n        /* \"#utility.yul\":4387:4453   */\n      tag_73\n      jump\t// in\n    tag_150:\n        /* \"#utility.yul\":4378:4453   */\n      swap1\n      pop\n        /* \"#utility.yul\":4476:4482   */\n      dup3\n        /* \"#utility.yul\":4469:4474   */\n      dup2\n        /* \"#utility.yul\":4462:4483   */\n      mstore\n        /* \"#utility.yul\":4514:4518   */\n      0x20\n        /* \"#utility.yul\":4507:4512   */\n      dup2\n        /* \"#utility.yul\":4503:4519   */\n      add\n        /* \"#utility.yul\":4552:4555   */\n      dup5\n        /* \"#utility.yul\":4543:4549   */\n      dup5\n        /* \"#utility.yul\":4538:4541   */\n      dup5\n        /* \"#utility.yul\":4534:4550   */\n      add\n        /* \"#utility.yul\":4531:4556   */\n      gt\n        /* \"#utility.yul\":4528:4640   */\n      iszero\n      tag_152\n      jumpi\n        /* \"#utility.yul\":4559:4638   */\n      tag_153\n      tag_70\n      jump\t// in\n    tag_153:\n        /* \"#utility.yul\":4528:4640   */\n    tag_152:\n        /* \"#utility.yul\":4649:4703   */\n      tag_154\n        /* \"#utility.yul\":4696:4702   */\n      dup5\n        /* \"#utility.yul\":4691:4694   */\n      dup3\n        /* \"#utility.yul\":4686:4689   */\n      dup6\n        /* \"#utility.yul\":4649:4703   */\n      tag_75\n      jump\t// in\n    tag_154:\n        /* \"#utility.yul\":4368:4709   */\n      pop\n        /* \"#utility.yul\":4284:4709   */\n      swap4\n      swap3\n      pop\n      pop\n      pop\n      jump\t// out\n        /* \"#utility.yul\":4729:5069   */\n    tag_77:\n        /* \"#utility.yul\":4785:4790   */\n      0x00\n        /* \"#utility.yul\":4834:4837   */\n      dup3\n        /* \"#utility.yul\":4827:4831   */\n      0x1f\n        /* \"#utility.yul\":4819:4825   */\n      dup4\n        /* \"#utility.yul\":4815:4832   */\n      add\n        /* \"#utility.yul\":4811:4838   */\n      slt\n        /* \"#utility.yul\":4801:4923   */\n      tag_156\n      jumpi\n        /* \"#utility.yul\":4842:4921   */\n      tag_157\n      tag_69\n      jump\t// in\n    tag_157:\n        /* \"#utility.yul\":4801:4923   */\n    tag_156:\n        /* \"#utility.yul\":4959:4965   */\n      dup2\n        /* \"#utility.yul\":4946:4966   */\n      calldataload\n        /* \"#utility.yul\":4984:5063   */\n      tag_158\n        /* \"#utility.yul\":5059:5062   */\n      dup5\n        /* \"#utility.yul\":5051:5057   */\n      dup3\n        /* \"#utility.yul\":5044:5048   */\n      0x20\n        /* \"#utility.yul\":5036:5042   */\n      dup7\n        /* \"#utility.yul\":5032:5049   */\n      add\n        /* \"#utility.yul\":4984:5063   */\n      tag_76\n      jump\t// in\n    tag_158:\n        /* \"#utility.yul\":4975:5063   */\n      swap2\n      pop\n        /* \"#utility.yul\":4791:5069   */\n      pop\n        /* \"#utility.yul\":4729:5069   */\n      swap3\n      swap2\n      pop\n      pop\n      jump\t// out\n        /* \"#utility.yul\":5075:5161   */\n    tag_78:\n        /* \"#utility.yul\":5110:5117   */\n      0x00\n        /* \"#utility.yul\":5150:5154   */\n      0xff\n        /* \"#utility.yul\":5143:5148   */\n      dup3\n        /* \"#utility.yul\":5139:5155   */\n      and\n        /* \"#utility.yul\":5128:5155   */\n      swap1\n      pop\n        /* \"#utility.yul\":5075:5161   */\n      swap2\n      swap1\n      pop\n      jump\t// out\n        /* \"#utility.yul\":5167:5285   */\n    tag_79:\n        /* \"#utility.yul\":5238:5260   */\n      tag_161\n        /* \"#utility.yul\":5254:5259   */\n      dup2\n        /* \"#utility.yul\":5238:5260   */\n      tag_78\n      jump\t// in\n    tag_161:\n        /* \"#utility.yul\":5231:5236   */\n      dup2\n        /* \"#utility.yul\":5228:5261   */\n      eq\n        /* \"#utility.yul\":5218:5279   */\n      tag_162\n      jumpi\n        /* \"#utility.yul\":5275:5276   */\n      0x00\n        /* \"#utility.yul\":5272:5273   */\n      0x00\n        /* \"#utility.yul\":5265:5277   */\n      revert\n        /* \"#utility.yul\":5218:5279   */\n    tag_162:\n        /* \"#utility.yul\":5167:5285   */\n      pop\n      jump\t// out\n        /* \"#utility.yul\":5291:5426   */\n    tag_80:\n        /* \"#utility.yul\":5335:5340   */\n      0x00\n        /* \"#utility.yul\":5373:5379   */\n      dup2\n        /* \"#utility.yul\":5360:5380   */\n      calldataload\n        /* \"#utility.yul\":5351:5380   */\n      swap1\n      pop\n        /* \"#utility.yul\":5389:5420   */\n      tag_164\n        /* \"#utility.yul\":5414:5419   */\n      dup2\n        /* \"#utility.yul\":5389:5420   */\n      tag_79\n      jump\t// in\n    tag_164:\n        /* \"#utility.yul\":5291:5426   */\n      swap3\n      swap2\n      pop\n      pop\n      jump\t// out\n        /* \"#utility.yul\":5432:6373   */\n    tag_16:\n        /* \"#utility.yul\":5526:5532   */\n      0x00\n        /* \"#utility.yul\":5534:5540   */\n      0x00\n        /* \"#utility.yul\":5542:5548   */\n      0x00\n        /* \"#utility.yul\":5550:5556   */\n      0x00\n        /* \"#utility.yul\":5599:5602   */\n      0x80\n        /* \"#utility.yul\":5587:5596   */\n      dup6\n        /* \"#utility.yul\":5578:5585   */\n      dup8\n        /* \"#utility.yul\":5574:5597   */\n      sub\n        /* \"#utility.yul\":5570:5603   */\n      slt\n        /* \"#utility.yul\":5567:5687   */\n      iszero\n      tag_166\n      jumpi\n        /* \"#utility.yul\":5606:5685   */\n      tag_167\n      tag_55\n      jump\t// in\n    tag_167:\n        /* \"#utility.yul\":5567:5687   */\n    tag_166:\n        /* \"#utility.yul\":5726:5727   */\n      0x00\n        /* \"#utility.yul\":5751:5804   */\n      tag_168\n        /* \"#utility.yul\":5796:5803   */\n      dup8\n        /* \"#utility.yul\":5787:5793   */\n      dup3\n        /* \"#utility.yul\":5776:5785   */\n      dup9\n        /* \"#utility.yul\":5772:5794   */\n      add\n        /* \"#utility.yul\":5751:5804   */\n      tag_59\n      jump\t// in\n    tag_168:\n        /* \"#utility.yul\":5741:5804   */\n      swap5\n      pop\n        /* \"#utility.yul\":5697:5814   */\n      pop\n        /* \"#utility.yul\":5853:5855   */\n      0x20\n        /* \"#utility.yul\":5879:5932   */\n      tag_169\n        /* \"#utility.yul\":5924:5931   */\n      dup8\n        /* \"#utility.yul\":5915:5921   */\n      dup3\n        /* \"#utility.yul\":5904:5913   */\n      dup9\n        /* \"#utility.yul\":5900:5922   */\n      add\n        /* \"#utility.yul\":5879:5932   */\n      tag_59\n      jump\t// in\n    tag_169:\n        /* \"#utility.yul\":5869:5932   */\n      swap4\n      pop\n        /* \"#utility.yul\":5824:5942   */\n      pop\n        /* \"#utility.yul\":6009:6011   */\n      0x40\n        /* \"#utility.yul\":5998:6007   */\n      dup6\n        /* \"#utility.yul\":5994:6012   */\n      add\n        /* \"#utility.yul\":5981:6013   */\n      calldataload\n        /* \"#utility.yul\":6040:6058   */\n      0xffffffffffffffff\n        /* \"#utility.yul\":6032:6038   */\n      dup2\n        /* \"#utility.yul\":6029:6059   */\n      gt\n        /* \"#utility.yul\":6026:6143   */\n      iszero\n      tag_170\n      jumpi\n        /* \"#utility.yul\":6062:6141   */\n      tag_171\n      tag_56\n      jump\t// in\n    tag_171:\n        /* \"#utility.yul\":6026:6143   */\n    tag_170:\n        /* \"#utility.yul\":6167:6230   */\n      tag_172\n        /* \"#utility.yul\":6222:6229   */\n      dup8\n        /* \"#utility.yul\":6213:6219   */\n      dup3\n        /* \"#utility.yul\":6202:6211   */\n      dup9\n        /* \"#utility.yul\":6198:6220   */\n      add\n        /* \"#utility.yul\":6167:6230   */\n      tag_77\n      jump\t// in\n    tag_172:\n        /* \"#utility.yul\":6157:6230   */\n      swap3\n      pop\n        /* \"#utility.yul\":5952:6240   */\n      pop\n        /* \"#utility.yul\":6279:6281   */\n      0x60\n        /* \"#utility.yul\":6305:6356   */\n      tag_173\n        /* \"#utility.yul\":6348:6355   */\n      dup8\n        /* \"#utility.yul\":6339:6345   */\n      dup3\n        /* \"#utility.yul\":6328:6337   */\n      dup9\n        /* \"#utility.yul\":6324:6346   */\n      add\n        /* \"#utility.yul\":6305:6356   */\n      tag_80\n      jump\t// in\n    tag_173:\n        /* \"#utility.yul\":6295:6356   */\n      swap2\n      pop\n        /* \"#utility.yul\":6250:6366   */\n      pop\n        /* \"#utility.yul\":5432:6373   */\n      swap3\n      swap6\n      swap2\n      swap5\n      pop\n      swap3\n      pop\n      jump\t// out\n        /* \"#utility.yul\":6379:6501   */\n    tag_81:\n        /* \"#utility.yul\":6452:6476   */\n      tag_175\n        /* \"#utility.yul\":6470:6475   */\n      dup2\n        /* \"#utility.yul\":6452:6476   */\n      tag_66\n      jump\t// in\n    tag_175:\n        /* \"#utility.yul\":6445:6450   */\n      dup2\n        /* \"#utility.yul\":6442:6477   */\n      eq\n        /* \"#utility.yul\":6432:6495   */\n      tag_176\n      jumpi\n        /* \"#utility.yul\":6491:6492   */\n      0x00\n        /* \"#utility.yul\":6488:6489   */\n      0x00\n        /* \"#utility.yul\":6481:6493   */\n      revert\n        /* \"#utility.yul\":6432:6495   */\n    tag_176:\n        /* \"#utility.yul\":6379:6501   */\n      pop\n      jump\t// out\n        /* \"#utility.yul\":6507:6646   */\n    tag_82:\n        /* \"#utility.yul\":6553:6558   */\n      0x00\n        /* \"#utility.yul\":6591:6597   */\n      dup2\n        /* \"#utility.yul\":6578:6598   */\n      calldataload\n        /* \"#utility.yul\":6569:6598   */\n      swap1\n      pop\n        /* \"#utility.yul\":6607:6640   */\n      tag_178\n        /* \"#utility.yul\":6634:6639   */\n      dup2\n        /* \"#utility.yul\":6607:6640   */\n      tag_81\n      jump\t// in\n    tag_178:\n        /* \"#utility.yul\":6507:6646   */\n      swap3\n      swap2\n      pop\n      pop\n      jump\t// out\n        /* \"#utility.yul\":6652:7597   */\n    tag_20:\n        /* \"#utility.yul\":6748:6754   */\n      0x00\n        /* \"#utility.yul\":6756:6762   */\n      0x00\n        /* \"#utility.yul\":6764:6770   */\n      0x00\n        /* \"#utility.yul\":6772:6778   */\n      0x00\n        /* \"#utility.yul\":6821:6824   */\n      0x80\n        /* \"#utility.yul\":6809:6818   */\n      dup6\n        /* \"#utility.yul\":6800:6807   */\n      dup8\n        /* \"#utility.yul\":6796:6819   */\n      sub\n        /* \"#utility.yul\":6792:6825   */\n      slt\n        /* \"#utility.yul\":6789:6909   */\n      iszero\n      tag_180\n      jumpi\n        /* \"#utility.yul\":6828:6907   */\n      tag_181\n      tag_55\n      jump\t// in\n    tag_181:\n        /* \"#utility.yul\":6789:6909   */\n    tag_180:\n        /* \"#utility.yul\":6948:6949   */\n      0x00\n        /* \"#utility.yul\":6973:7026   */\n      tag_182\n        /* \"#utility.yul\":7018:7025   */\n      dup8\n        /* \"#utility.yul\":7009:7015   */\n      dup3\n        /* \"#utility.yul\":6998:7007   */\n      dup9\n        /* \"#utility.yul\":6994:7016   */\n      add\n        /* \"#utility.yul\":6973:7026   */\n      tag_59\n      jump\t// in\n    tag_182:\n        /* \"#utility.yul\":6963:7026   */\n      swap5\n      pop\n        /* \"#utility.yul\":6919:7036   */\n      pop\n        /* \"#utility.yul\":7103:7105   */\n      0x20\n        /* \"#utility.yul\":7092:7101   */\n      dup6\n        /* \"#utility.yul\":7088:7106   */\n      add\n        /* \"#utility.yul\":7075:7107   */\n      calldataload\n        /* \"#utility.yul\":7134:7152   */\n      0xffffffffffffffff\n        /* \"#utility.yul\":7126:7132   */\n      dup2\n        /* \"#utility.yul\":7123:7153   */\n      gt\n        /* \"#utility.yul\":7120:7237   */\n      iszero\n      tag_183\n      jumpi\n        /* \"#utility.yul\":7156:7235   */\n      tag_184\n      tag_56\n      jump\t// in\n    tag_184:\n        /* \"#utility.yul\":7120:7237   */\n    tag_183:\n        /* \"#utility.yul\":7261:7324   */\n      tag_185\n        /* \"#utility.yul\":7316:7323   */\n      dup8\n        /* \"#utility.yul\":7307:7313   */\n      dup3\n        /* \"#utility.yul\":7296:7305   */\n      dup9\n        /* \"#utility.yul\":7292:7314   */\n      add\n        /* \"#utility.yul\":7261:7324   */\n      tag_77\n      jump\t// in\n    tag_185:\n        /* \"#utility.yul\":7251:7324   */\n      swap4\n      pop\n        /* \"#utility.yul\":7046:7334   */\n      pop\n        /* \"#utility.yul\":7373:7375   */\n      0x40\n        /* \"#utility.yul\":7399:7452   */\n      tag_186\n        /* \"#utility.yul\":7444:7451   */\n      dup8\n        /* \"#utility.yul\":7435:7441   */\n      dup3\n        /* \"#utility.yul\":7424:7433   */\n      dup9\n        /* \"#utility.yul\":7420:7442   */\n      add\n        /* \"#utility.yul\":7399:7452   */\n      tag_82\n      jump\t// in\n    tag_186:\n        /* \"#utility.yul\":7389:7452   */\n      swap3\n      pop\n        /* \"#utility.yul\":7344:7462   */\n      pop\n        /* \"#utility.yul\":7501:7503   */\n      0x60\n        /* \"#utility.yul\":7527:7580   */\n      tag_187\n        /* \"#utility.yul\":7572:7579   */\n      dup8\n        /* \"#utility.yul\":7563:7569   */\n      dup3\n        /* \"#utility.yul\":7552:7561   */\n      dup9\n        /* \"#utility.yul\":7548:7570   */\n      add\n        /* \"#utility.yul\":7527:7580   */\n      tag_59\n      jump\t// in\n    tag_187:\n        /* \"#utility.yul\":7517:7580   */\n      swap2\n      pop\n        /* \"#utility.yul\":7472:7590   */\n      pop\n        /* \"#utility.yul\":6652:7597   */\n      swap3\n      swap6\n      swap2\n      swap5\n      pop\n      swap3\n      pop\n      jump\t// out\n        /* \"#utility.yul\":7603:8077   */\n    tag_24:\n        /* \"#utility.yul\":7671:7677   */\n      0x00\n        /* \"#utility.yul\":7679:7685   */\n      0x00\n        /* \"#utility.yul\":7728:7730   */\n      0x40\n        /* \"#utility.yul\":7716:7725   */\n      dup4\n        /* \"#utility.yul\":7707:7714   */\n      dup6\n        /* \"#utility.yul\":7703:7726   */\n      sub\n        /* \"#utility.yul\":7699:7731   */\n      slt\n        /* \"#utility.yul\":7696:7815   */\n      iszero\n      tag_189\n      jumpi\n        /* \"#utility.yul\":7734:7813   */\n      tag_190\n      tag_55\n      jump\t// in\n    tag_190:\n        /* \"#utility.yul\":7696:7815   */\n    tag_189:\n        /* \"#utility.yul\":7854:7855   */\n      0x00\n        /* \"#utility.yul\":7879:7932   */\n      tag_191\n        /* \"#utility.yul\":7924:7931   */\n      dup6\n        /* \"#utility.yul\":7915:7921   */\n      dup3\n        /* \"#utility.yul\":7904:7913   */\n      dup7\n        /* \"#utility.yul\":7900:7922   */\n      add\n        /* \"#utility.yul\":7879:7932   */\n      tag_59\n      jump\t// in\n    tag_191:\n        /* \"#utility.yul\":7869:7932   */\n      swap3\n      pop\n        /* \"#utility.yul\":7825:7942   */\n      pop\n        /* \"#utility.yul\":7981:7983   */\n      0x20\n        /* \"#utility.yul\":8007:8060   */\n      tag_192\n        /* \"#utility.yul\":8052:8059   */\n      dup6\n        /* \"#utility.yul\":8043:8049   */\n      dup3\n        /* \"#utility.yul\":8032:8041   */\n      dup7\n        /* \"#utility.yul\":8028:8050   */\n      add\n        /* \"#utility.yul\":8007:8060   */\n      tag_59\n      jump\t// in\n    tag_192:\n        /* \"#utility.yul\":7997:8060   */\n      swap2\n      pop\n        /* \"#utility.yul\":7952:8070   */\n      pop\n        /* \"#utility.yul\":7603:8077   */\n      swap3\n      pop\n      swap3\n      swap1\n      pop\n      jump\t// out\n        /* \"#utility.yul\":8083:8195   */\n    tag_83:\n        /* \"#utility.yul\":8166:8188   */\n      tag_194\n        /* \"#utility.yul\":8182:8187   */\n      dup2\n        /* \"#utility.yul\":8166:8188   */\n      tag_78\n      jump\t// in\n    tag_194:\n        /* \"#utility.yul\":8161:8164   */\n      dup3\n        /* \"#utility.yul\":8154:8189   */\n      mstore\n        /* \"#utility.yul\":8083:8195   */\n      pop\n      pop\n      jump\t// out\n        /* \"#utility.yul\":8201:8616   */\n    tag_27:\n        /* \"#utility.yul\":8338:8342   */\n      0x00\n        /* \"#utility.yul\":8376:8378   */\n      0x40\n        /* \"#utility.yul\":8365:8374   */\n      dup3\n        /* \"#utility.yul\":8361:8379   */\n      add\n        /* \"#utility.yul\":8353:8379   */\n      swap1\n      pop\n        /* \"#utility.yul\":8425:8434   */\n      dup2\n        /* \"#utility.yul\":8419:8423   */\n      dup2\n        /* \"#utility.yul\":8415:8435   */\n      sub\n        /* \"#utility.yul\":8411:8412   */\n      0x00\n        /* \"#utility.yul\":8400:8409   */\n      dup4\n        /* \"#utility.yul\":8396:8413   */\n      add\n        /* \"#utility.yul\":8389:8436   */\n      mstore\n        /* \"#utility.yul\":8453:8531   */\n      tag_196\n        /* \"#utility.yul\":8526:8530   */\n      dup2\n        /* \"#utility.yul\":8517:8523   */\n      dup6\n        /* \"#utility.yul\":8453:8531   */\n      tag_64\n      jump\t// in\n    tag_196:\n        /* \"#utility.yul\":8445:8531   */\n      swap1\n      pop\n        /* \"#utility.yul\":8541:8609   */\n      tag_197\n        /* \"#utility.yul\":8605:8607   */\n      0x20\n        /* \"#utility.yul\":8594:8603   */\n      dup4\n        /* \"#utility.yul\":8590:8608   */\n      add\n        /* \"#utility.yul\":8581:8587   */\n      dup5\n        /* \"#utility.yul\":8541:8609   */\n      tag_83\n      jump\t// in\n    tag_197:\n        /* \"#utility.yul\":8201:8616   */\n      swap4\n      swap3\n      pop\n      pop\n      pop\n      jump\t// out\n        /* \"#utility.yul\":8622:8802   */\n    tag_84:\n        /* \"#utility.yul\":8670:8747   */\n      0x4e487b7100000000000000000000000000000000000000000000000000000000\n        /* \"#utility.yul\":8667:8668   */\n      0x00\n        /* \"#utility.yul\":8660:8748   */\n      mstore\n        /* \"#utility.yul\":8767:8771   */\n      0x22\n        /* \"#utility.yul\":8764:8765   */\n      0x04\n        /* \"#utility.yul\":8757:8772   */\n      mstore\n        /* \"#utility.yul\":8791:8795   */\n      0x24\n        /* \"#utility.yul\":8788:8789   */\n      0x00\n        /* \"#utility.yul\":8781:8796   */\n      revert\n        /* \"#utility.yul\":8808:9128   */\n    tag_33:\n        /* \"#utility.yul\":8852:8858   */\n      0x00\n        /* \"#utility.yul\":8889:8890   */\n      0x02\n        /* \"#utility.yul\":8883:8887   */\n      dup3\n        /* \"#utility.yul\":8879:8891   */\n      div\n        /* \"#utility.yul\":8869:8891   */\n      swap1\n      pop\n        /* \"#utility.yul\":8936:8937   */\n      0x01\n        /* \"#utility.yul\":8930:8934   */\n      dup3\n        /* \"#utility.yul\":8926:8938   */\n      and\n        /* \"#utility.yul\":8957:8975   */\n      dup1\n        /* \"#utility.yul\":8947:9028   */\n      tag_200\n      jumpi\n        /* \"#utility.yul\":9013:9017   */\n      0x7f\n        /* \"#utility.yul\":9005:9011   */\n      dup3\n        /* \"#utility.yul\":9001:9018   */\n      and\n        /* \"#utility.yul\":8991:9018   */\n      swap2\n      pop\n        /* \"#utility.yul\":8947:9028   */\n    tag_200:\n        /* \"#utility.yul\":9075:9077   */\n      0x20\n        /* \"#utility.yul\":9067:9073   */\n      dup3\n        /* \"#utility.yul\":9064:9078   */\n      lt\n        /* \"#utility.yul\":9044:9062   */\n      dup2\n        /* \"#utility.yul\":9041:9079   */\n      sub\n        /* \"#utility.yul\":9038:9122   */\n      tag_201\n      jumpi\n        /* \"#utility.yul\":9094:9112   */\n      tag_202\n      tag_84\n      jump\t// in\n    tag_202:\n        /* \"#utility.yul\":9038:9122   */\n    tag_201:\n        /* \"#utility.yul\":8859:9128   */\n      pop\n        /* \"#utility.yul\":8808:9128   */\n      swap2\n      swap1\n      pop\n      jump\t// out\n        /* \"#utility.yul\":9134:9275   */\n    tag_85:\n        /* \"#utility.yul\":9183:9187   */\n      0x00\n        /* \"#utility.yul\":9206:9209   */\n      dup2\n        /* \"#utility.yul\":9198:9209   */\n      swap1\n      pop\n        /* \"#utility.yul\":9229:9232   */\n      dup2\n        /* \"#utility.yul\":9226:9227   */\n      0x00\n        /* \"#utility.yul\":9219:9233   */\n      mstore\n        /* \"#utility.yul\":9263:9267   */\n      0x20\n        /* \"#utility.yul\":9260:9261   */\n      0x00\n        /* \"#utility.yul\":9250:9268   */\n      keccak256\n        /* \"#utility.yul\":9242:9268   */\n      swap1\n      pop\n        /* \"#utility.yul\":9134:9275   */\n      swap2\n      swap1\n      pop\n      jump\t// out\n        /* \"#utility.yul\":9281:9374   */\n    tag_86:\n        /* \"#utility.yul\":9318:9324   */\n      0x00\n        /* \"#utility.yul\":9365:9367   */\n      0x20\n        /* \"#utility.yul\":9360:9362   */\n      0x1f\n        /* \"#utility.yul\":9353:9358   */\n      dup4\n        /* \"#utility.yul\":9349:9363   */\n      add\n        /* \"#utility.yul\":9345:9368   */\n      div\n        /* \"#utility.yul\":9335:9368   */\n      swap1\n      pop\n        /* \"#utility.yul\":9281:9374   */\n      swap2\n      swap1\n      pop\n      jump\t// out\n        /* \"#utility.yul\":9380:9487   */\n    tag_87:\n        /* \"#utility.yul\":9424:9432   */\n      0x00\n        /* \"#utility.yul\":9474:9479   */\n      dup3\n        /* \"#utility.yul\":9468:9472   */\n      dup3\n        /* \"#utility.yul\":9464:9480   */\n      shl\n        /* \"#utility.yul\":9443:9480   */\n      swap1\n      pop\n        /* \"#utility.yul\":9380:9487   */\n      swap3\n      swap2\n      pop\n      pop\n      jump\t// out\n        /* \"#utility.yul\":9493:9886   */\n    tag_88:\n        /* \"#utility.yul\":9562:9568   */\n      0x00\n        /* \"#utility.yul\":9612:9613   */\n      0x08\n        /* \"#utility.yul\":9600:9610   */\n      dup4\n        /* \"#utility.yul\":9596:9614   */\n      mul\n        /* \"#utility.yul\":9635:9732   */\n      tag_207\n        /* \"#utility.yul\":9665:9731   */\n      0xffffffffffffffffffffffffffffffffffffffffffffffffffffffffffffffff\n        /* \"#utility.yul\":9654:9663   */\n      dup3\n        /* \"#utility.yul\":9635:9732   */\n      tag_87\n      jump\t// in\n    tag_207:\n        /* \"#utility.yul\":9753:9792   */\n      tag_208\n        /* \"#utility.yul\":9783:9791   */\n      dup7\n        /* \"#utility.yul\":9772:9781   */\n      dup4\n        /* \"#utility.yul\":9753:9792   */\n      tag_87\n      jump\t// in\n    tag_208:\n        /* \"#utility.yul\":9741:9792   */\n      swap6\n      pop\n        /* \"#utility.yul\":9825:9829   */\n      dup1\n        /* \"#utility.yul\":9821:9830   */\n      not\n        /* \"#utility.yul\":9814:9819   */\n      dup5\n        /* \"#utility.yul\":9810:9831   */\n      and\n        /* \"#utility.yul\":9801:9831   */\n      swap4\n      pop\n        /* \"#utility.yul\":9874:9878   */\n      dup1\n        /* \"#utility.yul\":9864:9872   */\n      dup7\n        /* \"#utility.yul\":9860:9879   */\n      and\n        /* \"#utility.yul\":9853:9858   */\n      dup5\n        /* \"#utility.yul\":9850:9880   */\n      or\n        /* \"#utility.yul\":9840:9880   */\n      swap3\n      pop\n        /* \"#utility.yul\":9569:9886   */\n      pop\n      pop\n        /* \"#utility.yul\":9493:9886   */\n      swap4\n      swap3\n      pop\n      pop\n      pop\n      jump\t// out\n        /* \"#utility.yul\":9892:9952   */\n    tag_89:\n        /* \"#utility.yul\":9920:9923   */\n      0x00\n        /* \"#utility.yul\":9941:9946   */\n      dup2\n        /* \"#utility.yul\":9934:9946   */\n      swap1\n      pop\n        /* \"#utility.yul\":9892:9952   */\n      swap2\n      swap1\n      pop\n      jump\t// out\n        /* \"#utility.yul\":9958:10100   */\n    tag_90:\n        /* \"#utility.yul\":10008:10017   */\n      0x00\n        /* \"#utility.yul\":10041:10094   */\n      tag_211\n        /* \"#utility.yul\":10059:10093   */\n      tag_212\n        /* \"#utility.yul\":10068:10092   */\n      tag_213\n        /* \"#utility.yul\":10086:10091   */\n      dup5\n        /* \"#utility.yul\":10068:10092   */\n      tag_57\n      jump\t// in\n    tag_213:\n        /* \"#utility.yul\":10059:10093   */\n      tag_89\n      jump\t// in\n    tag_212:\n        /* \"#utility.yul\":10041:10094   */\n      tag_57\n      jump\t// in\n    tag_211:\n        /* \"#utility.yul\":10028:10094   */\n      swap1\n      pop\n        /* \"#utility.yul\":9958:10100   */\n      swap2\n      swap1\n      pop\n      jump\t// out\n        /* \"#utility.yul\":10106:10181   */\n    tag_91:\n        /* \"#utility.yul\":10149:10152   */\n      0x00\n        /* \"#utility.yul\":10170:10175   */\n      dup2\n        /* \"#utility.yul\":10163:10175   */\n      swap1\n      pop\n        /* \"#utility.yul\":10106:10181   */\n      swap2\n      swap1\n      pop\n      jump\t// out\n        /* \"#utility.yul\":10187:10456   */\n    tag_92:\n        /* \"#utility.yul\":10297:10336   */\n      tag_216\n        /* \"#utility.yul\":10328:10335   */\n      dup4\n        /* \"#utility.yul\":10297:10336   */\n      tag_90\n      jump\t// in\n    tag_216:\n        /* \"#utility.yul\":10358:10449   */\n      tag_217\n        /* \"#utility.yul\":10407:10448   */\n      tag_218\n        /* \"#utility.yul\":10431:10447   */\n      dup3\n        /* \"#utility.yul\":10407:10448   */\n      tag_91\n      jump\t// in\n    tag_218:\n        /* \"#utility.yul\":10399:10405   */\n      dup5\n        /* \"#utility.yul\":10392:10396   */\n      dup5\n        /* \"#utility.yul\":10386:10397   */\n      sload\n        /* \"#utility.yul\":10358:10449   */\n      tag_88\n      jump\t// in\n    tag_217:\n        /* \"#utility.yul\":10352:10356   */\n      dup3\n        /* \"#utility.yul\":10345:10450   */\n      sstore\n        /* \"#utility.yul\":10263:10456   */\n      pop\n        /* \"#utility.yul\":10187:10456   */\n      pop\n      pop\n      pop\n      jump\t// out\n        /* \"#utility.yul\":10462:10535   */\n    tag_93:\n        /* \"#utility.yul\":10507:10510   */\n      0x00\n        /* \"#utility.yul\":10528:10529   */\n      0x00\n        /* \"#utility.yul\":10521:10529   */\n      swap1\n      pop\n        /* \"#utility.yul\":10462:10535   */\n      swap1\n      jump\t// out\n        /* \"#utility.yul\":10541:10730   */\n    tag_94:\n        /* \"#utility.yul\":10618:10650   */\n      tag_221\n      tag_93\n      jump\t// in\n    tag_221:\n        /* \"#utility.yul\":10659:10724   */\n      tag_222\n        /* \"#utility.yul\":10717:10723   */\n      dup2\n        /* \"#utility.yul\":10709:10715   */\n      dup5\n        /* \"#utility.yul\":10703:10707   */\n      dup5\n        /* \"#utility.yul\":10659:10724   */\n      tag_92\n      jump\t// in\n    tag_222:\n        /* \"#utility.yul\":10594:10730   */\n      pop\n        /* \"#utility.yul\":10541:10730   */\n      pop\n      pop\n      jump\t// out\n        /* \"#utility.yul\":10736:10922   */\n    tag_95:\n        /* \"#utility.yul\":10796:10916   */\n    tag_224:\n        /* \"#utility.yul\":10813:10816   */\n      dup2\n        /* \"#utility.yul\":10806:10811   */\n      dup2\n        /* \"#utility.yul\":10803:10817   */\n      lt\n        /* \"#utility.yul\":10796:10916   */\n      iszero\n      tag_226\n      jumpi\n        /* \"#utility.yul\":10867:10906   */\n      tag_227\n        /* \"#utility.yul\":10904:10905   */\n      0x00\n        /* \"#utility.yul\":10897:10902   */\n      dup3\n        /* \"#utility.yul\":10867:10906   */\n      tag_94\n      jump\t// in\n    tag_227:\n        /* \"#utility.yul\":10840:10841   */\n      0x01\n        /* \"#utility.yul\":10833:10838   */\n      dup2\n        /* \"#utility.yul\":10829:10842   */\n      add\n        /* \"#utility.yul\":10820:10842   */\n      swap1\n      pop\n        /* \"#utility.yul\":10796:10916   */\n      jump(tag_224)\n    tag_226:\n        /* \"#utility.yul\":10736:10922   */\n      pop\n      pop\n      jump\t// out\n        /* \"#utility.yul\":10928:11471   */\n    tag_96:\n        /* \"#utility.yul\":11029:11031   */\n      0x1f\n        /* \"#utility.yul\":11024:11027   */\n      dup3\n        /* \"#utility.yul\":11021:11032   */\n      gt\n        /* \"#utility.yul\":11018:11464   */\n      iszero\n      tag_229\n      jumpi\n        /* \"#utility.yul\":11063:11101   */\n      tag_230\n        /* \"#utility.yul\":11095:11100   */\n      dup2\n        /* \"#utility.yul\":11063:11101   */\n      tag_85\n      jump\t// in\n    tag_230:\n        /* \"#utility.yul\":11147:11176   */\n      tag_231\n        /* \"#utility.yul\":11165:11175   */\n      dup5\n        /* \"#utility.yul\":11147:11176   */\n      tag_86\n      jump\t// in\n    tag_231:\n        /* \"#utility.yul\":11137:11145   */\n      dup2\n        /* \"#utility.yul\":11133:11177   */\n      add\n        /* \"#utility.yul\":11330:11332   */\n      0x20\n        /* \"#utility.yul\":11318:11328   */\n      dup6\n        /* \"#utility.yul\":11315:11333   */\n      lt\n        /* \"#utility.yul\":11312:11361   */\n      iszero\n      tag_232\n      jumpi\n        /* \"#utility.yul\":11351:11359   */\n      dup2\n        /* \"#utility.yul\":11336:11359   */\n      swap1\n      pop\n        /* \"#utility.yul\":11312:11361   */\n    tag_232:\n        /* \"#utility.yul\":11374:11454   */\n      tag_233\n        /* \"#utility.yul\":11430:11452   */\n      tag_234\n        /* \"#utility.yul\":11448:11451   */\n      dup6\n        /* \"#utility.yul\":11430:11452   */\n      tag_86\n      jump\t// in\n    tag_234:\n        /* \"#utility.yul\":11420:11428   */\n      dup4\n        /* \"#utility.yul\":11416:11453   */\n      add\n        /* \"#utility.yul\":11403:11414   */\n      dup3\n        /* \"#utility.yul\":11374:11454   */\n      tag_95\n      jump\t// in\n    tag_233:\n        /* \"#utility.yul\":11033:11464   */\n      pop\n      pop\n        /* \"#utility.yul\":11018:11464   */\n    tag_229:\n        /* \"#utility.yul\":10928:11471   */\n      pop\n      pop\n      pop\n      jump\t// out\n        /* \"#utility.yul\":11477:11594   */\n    tag_97:\n        /* \"#utility.yul\":11531:11539   */\n      0x00\n        /* \"#utility.yul\":11581:11586   */\n      dup3\n        /* \"#utility.yul\":11575:11579   */\n      dup3\n        /* \"#utility.yul\":11571:11587   */\n      shr\n        /* \"#utility.yul\":11550:11587   */\n      swap1\n      pop\n        /* \"#utility.yul\":11477:11594   */\n      swap3\n      swap2\n      pop\n      pop\n      jump\t// out\n        /* \"#utility.yul\":11600:11769   */\n    tag_98:\n        /* \"#utility.yul\":11644:11650   */\n      0x00\n        /* \"#utility.yul\":11677:11728   */\n      tag_237\n        /* \"#utility.yul\":11725:11726   */\n      0x00\n        /* \"#utility.yul\":11721:11727   */\n      not\n        /* \"#utility.yul\":11713:11718   */\n      dup5\n        /* \"#utility.yul\":11710:11711   */\n      0x08\n        /* \"#utility.yul\":11706:11719   */\n      mul\n        /* \"#utility.yul\":11677:11728   */\n      tag_97\n      jump\t// in\n    tag_237:\n        /* \"#utility.yul\":11673:11729   */\n      not\n        /* \"#utility.yul\":11758:11762   */\n      dup1\n        /* \"#utility.yul\":11752:11756   */\n      dup4\n        /* \"#utility.yul\":11748:11763   */\n      and\n        /* \"#utility.yul\":11738:11763   */\n      swap2\n      pop\n        /* \"#utility.yul\":11651:11769   */\n      pop\n        /* \"#utility.yul\":11600:11769   */\n      swap3\n      swap2\n      pop\n      pop\n      jump\t// out\n        /* \"#utility.yul\":11774:12069   */\n    tag_99:\n        /* \"#utility.yul\":11850:11854   */\n      0x00\n        /* \"#utility.yul\":11996:12025   */\n      tag_239\n        /* \"#utility.yul\":12021:12024   */\n      dup4\n        /* \"#utility.yul\":12015:12019   */\n      dup4\n        /* \"#utility.yul\":11996:12025   */\n      tag_98\n      jump\t// in\n    tag_239:\n        /* \"#utility.yul\":11988:12025   */\n      swap2\n      pop\n        /* \"#utility.yul\":12058:12061   */\n      dup3\n        /* \"#utility.yul\":12055:12056   */\n      0x02\n        /* \"#utility.yul\":12051:12062   */\n      mul\n        /* \"#utility.yul\":12045:12049   */\n      dup3\n        /* \"#utility.yul\":12042:12063   */\n      or\n        /* \"#utility.yul\":12034:12063   */\n      swap1\n      pop\n        /* \"#utility.yul\":11774:12069   */\n      swap3\n      swap2\n      pop\n      pop\n      jump\t// out\n        /* \"#utility.yul\":12074:13469   */\n    tag_40:\n        /* \"#utility.yul\":12191:12228   */\n      tag_241\n        /* \"#utility.yul\":12224:12227   */\n      dup3\n        /* \"#utility.yul\":12191:12228   */\n      tag_60\n      jump\t// in\n    tag_241:\n        /* \"#utility.yul\":12293:12311   */\n      0xffffffffffffffff\n        /* \"#utility.yul\":12285:12291   */\n      dup2\n        /* \"#utility.yul\":12282:12312   */\n      gt\n        /* \"#utility.yul\":12279:12335   */\n      iszero\n      tag_242\n      jumpi\n        /* \"#utility.yul\":12315:12333   */\n      tag_243\n      tag_71\n      jump\t// in\n    tag_243:\n        /* \"#utility.yul\":12279:12335   */\n    tag_242:\n        /* \"#utility.yul\":12359:12397   */\n      tag_244\n        /* \"#utility.yul\":12391:12395   */\n      dup3\n        /* \"#utility.yul\":12385:12396   */\n      sload\n        /* \"#utility.yul\":12359:12397   */\n      tag_33\n      jump\t// in\n    tag_244:\n        /* \"#utility.yul\":12444:12511   */\n      tag_245\n        /* \"#utility.yul\":12504:12510   */\n      dup3\n        /* \"#utility.yul\":12496:12502   */\n      dup3\n        /* \"#utility.yul\":12490:12494   */\n      dup6\n        /* \"#utility.yul\":12444:12511   */\n      tag_96\n      jump\t// in\n    tag_245:\n        /* \"#utility.yul\":12538:12539   */\n      0x00\n        /* \"#utility.yul\":12562:12566   */\n      0x20\n        /* \"#utility.yul\":12549:12566   */\n      swap1\n      pop\n        /* \"#utility.yul\":12594:12596   */\n      0x1f\n        /* \"#utility.yul\":12586:12592   */\n      dup4\n        /* \"#utility.yul\":12583:12597   */\n      gt\n        /* \"#utility.yul\":12611:12612   */\n      0x01\n        /* \"#utility.yul\":12606:13224   */\n      dup2\n      eq\n      tag_247\n      jumpi\n        /* \"#utility.yul\":13268:13269   */\n      0x00\n        /* \"#utility.yul\":13285:13291   */\n      dup5\n        /* \"#utility.yul\":13282:13359   */\n      iszero\n      tag_248\n      jumpi\n        /* \"#utility.yul\":13334:13343   */\n      dup3\n        /* \"#utility.yul\":13329:13332   */\n      dup8\n        /* \"#utility.yul\":13325:13344   */\n      add\n        /* \"#utility.yul\":13319:13345   */\n      mload\n        /* \"#utility.yul\":13310:13345   */\n      swap1\n      pop\n        /* \"#utility.yul\":13282:13359   */\n    tag_248:\n        /* \"#utility.yul\":13385:13452   */\n      tag_249\n        /* \"#utility.yul\":13445:13451   */\n      dup6\n        /* \"#utility.yul\":13438:13443   */\n      dup3\n        /* \"#utility.yul\":13385:13452   */\n      tag_99\n      jump\t// in\n    tag_249:\n        /* \"#utility.yul\":13379:13383   */\n      dup7\n        /* \"#utility.yul\":13372:13453   */\n      sstore\n        /* \"#utility.yul\":13241:13463   */\n      pop\n        /* \"#utility.yul\":12576:13463   */\n      jump(tag_246)\n        /* \"#utility.yul\":12606:13224   */\n    tag_247:\n        /* \"#utility.yul\":12658:12662   */\n      0x1f\n        /* \"#utility.yul\":12654:12663   */\n      not\n        /* \"#utility.yul\":12646:12652   */\n      dup5\n        /* \"#utility.yul\":12642:12664   */\n      and\n        /* \"#utility.yul\":12692:12729   */\n      tag_250\n        /* \"#utility.yul\":12724:12728   */\n      dup7\n        /* \"#utility.yul\":12692:12729   */\n      tag_85\n      jump\t// in\n    tag_250:\n        /* \"#utility.yul\":12751:12752   */\n      0x00\n        /* \"#utility.yul\":12765:12973   */\n    tag_251:\n        /* \"#utility.yul\":12779:12786   */\n      dup3\n        /* \"#utility.yul\":12776:12777   */\n      dup2\n        /* \"#utility.yul\":12773:12787   */\n      lt\n        /* \"#utility.yul\":12765:12973   */\n      iszero\n      tag_253\n      jumpi\n        /* \"#utility.yul\":12858:12867   */\n      dup5\n        /* \"#utility.yul\":12853:12856   */\n      dup10\n        /* \"#utility.yul\":12849:12868   */\n      add\n        /* \"#utility.yul\":12843:12869   */\n      mload\n        /* \"#utility.yul\":12835:12841   */\n      dup3\n        /* \"#utility.yul\":12828:12870   */\n      sstore\n        /* \"#utility.yul\":12909:12910   */\n      0x01\n        /* \"#utility.yul\":12901:12907   */\n      dup3\n        /* \"#utility.yul\":12897:12911   */\n      add\n        /* \"#utility.yul\":12887:12911   */\n      swap2\n      pop\n        /* \"#utility.yul\":12956:12958   */\n      0x20\n        /* \"#utility.yul\":12945:12954   */\n      dup6\n        /* \"#utility.yul\":12941:12959   */\n      add\n        /* \"#utility.yul\":12928:12959   */\n      swap5\n      pop\n        /* \"#utility.yul\":12802:12806   */\n      0x20\n        /* \"#utility.yul\":12799:12800   */\n      dup2\n        /* \"#utility.yul\":12795:12807   */\n      add\n        /* \"#utility.yul\":12790:12807   */\n      swap1\n      pop\n        /* \"#utility.yul\":12765:12973   */\n      jump(tag_251)\n    tag_253:\n        /* \"#utility.yul\":13001:13007   */\n      dup7\n        /* \"#utility.yul\":12992:12999   */\n      dup4\n        /* \"#utility.yul\":12989:13008   */\n      lt\n        /* \"#utility.yul\":12986:13165   */\n      iszero\n      tag_254\n      jumpi\n        /* \"#utility.yul\":13059:13068   */\n      dup5\n        /* \"#utility.yul\":13054:13057   */\n      dup10\n        /* \"#utility.yul\":13050:13069   */\n      add\n        /* \"#utility.yul\":13044:13070   */\n      mload\n        /* \"#utility.yul\":13102:13150   */\n      tag_255\n        /* \"#utility.yul\":13144:13148   */\n      0x1f\n        /* \"#utility.yul\":13136:13142   */\n      dup10\n        /* \"#utility.yul\":13132:13149   */\n      and\n        /* \"#utility.yul\":13121:13130   */\n      dup3\n        /* \"#utility.yul\":13102:13150   */\n      tag_98\n      jump\t// in\n    tag_255:\n        /* \"#utility.yul\":13094:13100   */\n      dup4\n        /* \"#utility.yul\":13087:13151   */\n      sstore\n        /* \"#utility.yul\":13009:13165   */\n      pop\n        /* \"#utility.yul\":12986:13165   */\n    tag_254:\n        /* \"#utility.yul\":13211:13212   */\n      0x01\n        /* \"#utility.yul\":13207:13208   */\n      0x02\n        /* \"#utility.yul\":13199:13205   */\n      dup9\n        /* \"#utility.yul\":13195:13209   */\n      mul\n        /* \"#utility.yul\":13191:13213   */\n      add\n        /* \"#utility.yul\":13185:13189   */\n      dup9\n        /* \"#utility.yul\":13178:13214   */\n      sstore\n        /* \"#utility.yul\":12613:13224   */\n      pop\n      pop\n      pop\n        /* \"#utility.yul\":12576:13463   */\n    tag_246:\n      pop\n        /* \"#utility.yul\":12166:13469   */\n      pop\n      pop\n      pop\n        /* \"#utility.yul\":12074:13469   */\n      pop\n      pop\n      jump\t// out\n\n    auxdata: 0xa264697066735822122064f34caaaa77a13e4242c3cf08a98d4ddf58b43ed32cedca466dfe13bd844cc964736f6c634300081e0033\n}\n",
				"bytecode": {
					"linkReferences": {},
					"object": "6080604052348015600e575f5ffd5b50610c328061001c5f395ff3fe608060405234801561000f575f5ffd5b5060043610610055575f3560e01c80634739326b1461005957806371e1a7d21461008b57806372397537146100a7578063d6a8f93e146100c3578063eeaaa285146100f4575b5f5ffd5b610073600480360381019061006e9190610504565b610125565b604051610082939291906105ed565b60405180910390f35b6100a560048036038101906100a0919061078b565b6101ef565b005b6100c160048036038101906100bc9190610835565b610264565b005b6100dd60048036038101906100d891906108b5565b610312565b6040516100eb929190610902565b60405180910390f35b61010e600480360381019061010991906108b5565b610403565b60405161011c929190610902565b60405180910390f35b5f602052805f5260405f205f91509050805f0180546101439061095d565b80601f016020809104026020016040519081016040528092919081815260200182805461016f9061095d565b80156101ba5780601f10610191576101008083540402835291602001916101ba565b820191905f5260205f20905b81548152906001019060200180831161019d57829003601f168201915b505050505090806001015f9054906101000a900473ffffffffffffffffffffffffffffffffffffffff16908060020154905083565b60405180604001604052808381526020018260ff1681525060015f8681526020019081526020015f205f8581526020019081526020015f205f820151815f01908161023a9190610b2d565b506020820151816001015f6101000a81548160ff021916908360ff16021790555090505050505050565b60405180606001604052808481526020018373ffffffffffffffffffffffffffffffffffffffff168152602001828152505f5f8681526020019081526020015f205f820151815f0190816102b89190610b2d565b506020820151816001015f6101000a81548173ffffffffffffffffffffffffffffffffffffffff021916908373ffffffffffffffffffffffffffffffffffffffff1602179055506040820151816002015590505050505050565b60605f5f60015f8681526020019081526020015f205f8581526020019081526020015f206040518060400160405290815f820180546103509061095d565b80601f016020809104026020016040519081016040528092919081815260200182805461037c9061095d565b80156103c75780601f1061039e576101008083540402835291602001916103c7565b820191905f5260205f20905b8154815290600101906020018083116103aa57829003601f168201915b50505050508152602001600182015f9054906101000a900460ff1660ff1660ff16815250509050805f0151816020015192509250509250929050565b6001602052815f5260405f20602052805f5260405f205f9150915050805f01805461042d9061095d565b80601f01602080910402602001604051908101604052809291908181526020018280546104599061095d565b80156104a45780601f1061047b576101008083540402835291602001916104a4565b820191905f5260205f20905b81548152906001019060200180831161048757829003601f168201915b505050505090806001015f9054906101000a900460ff16905082565b5f604051905090565b5f5ffd5b5f5ffd5b5f819050919050565b6104e3816104d1565b81146104ed575f5ffd5b50565b5f813590506104fe816104da565b92915050565b5f60208284031215610519576105186104c9565b5b5f610526848285016104f0565b91505092915050565b5f81519050919050565b5f82825260208201905092915050565b8281835e5f83830152505050565b5f601f19601f8301169050919050565b5f6105718261052f565b61057b8185610539565b935061058b818560208601610549565b61059481610557565b840191505092915050565b5f73ffffffffffffffffffffffffffffffffffffffff82169050919050565b5f6105c88261059f565b9050919050565b6105d8816105be565b82525050565b6105e7816104d1565b82525050565b5f6060820190508181035f8301526106058186610567565b905061061460208301856105cf565b61062160408301846105de565b949350505050565b5f5ffd5b5f5ffd5b7f4e487b71000000000000000000000000000000000000000000000000000000005f52604160045260245ffd5b61066782610557565b810181811067ffffffffffffffff8211171561068657610685610631565b5b80604052505050565b5f6106986104c0565b90506106a4828261065e565b919050565b5f67ffffffffffffffff8211156106c3576106c2610631565b5b6106cc82610557565b9050602081019050919050565b828183375f83830152505050565b5f6106f96106f4846106a9565b61068f565b9050828152602081018484840111156107155761071461062d565b5b6107208482856106d9565b509392505050565b5f82601f83011261073c5761073b610629565b5b813561074c8482602086016106e7565b91505092915050565b5f60ff82169050919050565b61076a81610755565b8114610774575f5ffd5b50565b5f8135905061078581610761565b92915050565b5f5f5f5f608085870312156107a3576107a26104c9565b5b5f6107b0878288016104f0565b94505060206107c1878288016104f0565b935050604085013567ffffffffffffffff8111156107e2576107e16104cd565b5b6107ee87828801610728565b92505060606107ff87828801610777565b91505092959194509250565b610814816105be565b811461081e575f5ffd5b50565b5f8135905061082f8161080b565b92915050565b5f5f5f5f6080858703121561084d5761084c6104c9565b5b5f61085a878288016104f0565b945050602085013567ffffffffffffffff81111561087b5761087a6104cd565b5b61088787828801610728565b935050604061089887828801610821565b92505060606108a9878288016104f0565b91505092959194509250565b5f5f604083850312156108cb576108ca6104c9565b5b5f6108d8858286016104f0565b92505060206108e9858286016104f0565b9150509250929050565b6108fc81610755565b82525050565b5f6040820190508181035f83015261091a8185610567565b905061092960208301846108f3565b9392505050565b7f4e487b71000000000000000000000000000000000000000000000000000000005f52602260045260245ffd5b5f600282049050600182168061097457607f821691505b60208210810361098757610986610930565b5b50919050565b5f819050815f5260205f209050919050565b5f6020601f8301049050919050565b5f82821b905092915050565b5f600883026109e97fffffffffffffffffffffffffffffffffffffffffffffffffffffffffffffffff826109ae565b6109f386836109ae565b95508019841693508086168417925050509392505050565b5f819050919050565b5f610a2e610a29610a24846104d1565b610a0b565b6104d1565b9050919050565b5f819050919050565b610a4783610a14565b610a5b610a5382610a35565b8484546109ba565b825550505050565b5f5f905090565b610a72610a63565b610a7d818484610a3e565b505050565b5b81811015610aa057610a955f82610a6a565b600181019050610a83565b5050565b601f821115610ae557610ab68161098d565b610abf8461099f565b81016020851015610ace578190505b610ae2610ada8561099f565b830182610a82565b50505b505050565b5f82821c905092915050565b5f610b055f1984600802610aea565b1980831691505092915050565b5f610b1d8383610af6565b9150826002028217905092915050565b610b368261052f565b67ffffffffffffffff811115610b4f57610b4e610631565b5b610b59825461095d565b610b64828285610aa4565b5f60209050601f831160018114610b95575f8415610b83578287015190505b610b8d8582610b12565b865550610bf4565b601f198416610ba38661098d565b5f5b82811015610bca57848901518255600182019150602085019450602081019050610ba5565b86831015610be75784890151610be3601f891682610af6565b8355505b6001600288020188555050505b50505050505056fea264697066735822122064f34caaaa77a13e4242c3cf08a98d4ddf58b43ed32cedca466dfe13bd844cc964736f6c634300081e0033",
					"opcodes": "PUSH1 0x80 PUSH1 0x40 MSTORE CALLVALUE DUP1 ISZERO PUSH1 0xE JUMPI PUSH0 PUSH0 REVERT JUMPDEST POP PUSH2 0xC32 DUP1 PUSH2 0x1C PUSH0 CODECOPY PUSH0 RETURN INVALID PUSH1 0x80 PUSH1 0x40 MSTORE CALLVALUE DUP1 ISZERO PUSH2 0xF JUMPI PUSH0 PUSH0 REVERT JUMPDEST POP PUSH1 0x4 CALLDATASIZE LT PUSH2 0x55 JUMPI PUSH0 CALLDATALOAD PUSH1 0xE0 SHR DUP1 PUSH4 0x4739326B EQ PUSH2 0x59 JUMPI DUP1 PUSH4 0x71E1A7D2 EQ PUSH2 0x8B JUMPI DUP1 PUSH4 0x72397537 EQ PUSH2 0xA7 JUMPI DUP1 PUSH4 0xD6A8F93E EQ PUSH2 0xC3 JUMPI DUP1 PUSH4 0xEEAAA285 EQ PUSH2 0xF4 JUMPI JUMPDEST PUSH0 PUSH0 REVERT JUMPDEST PUSH2 0x73 PUSH1 0x4 DUP1 CALLDATASIZE SUB DUP2 ADD SWAP1 PUSH2 0x6E SWAP2 SWAP1 PUSH2 0x504 JUMP JUMPDEST PUSH2 0x125 JUMP JUMPDEST PUSH1 0x40 MLOAD PUSH2 0x82 SWAP4 SWAP3 SWAP2 SWAP1 PUSH2 0x5ED JUMP JUMPDEST PUSH1 0x40 MLOAD DUP1 SWAP2 SUB SWAP1 RETURN JUMPDEST PUSH2 0xA5 PUSH1 0x4 DUP1 CALLDATASIZE SUB DUP2 ADD SWAP1 PUSH2 0xA0 SWAP2 SWAP1 PUSH2 0x78B JUMP JUMPDEST PUSH2 0x1EF JUMP JUMPDEST STOP JUMPDEST PUSH2 0xC1 PUSH1 0x4 DUP1 CALLDATASIZE SUB DUP2 ADD SWAP1 PUSH2 0xBC SWAP2 SWAP1 PUSH2 0x835 JUMP JUMPDEST PUSH2 0x264 JUMP JUMPDEST STOP JUMPDEST PUSH2 0xDD PUSH1 0x4 DUP1 CALLDATASIZE SUB DUP2 ADD SWAP1 PUSH2 0xD8 SWAP2 SWAP1 PUSH2 0x8B5 JUMP JUMPDEST PUSH2 0x312 JUMP JUMPDEST PUSH1 0x40 MLOAD PUSH2 0xEB SWAP3 SWAP2 SWAP1 PUSH2 0x902 JUMP JUMPDEST PUSH1 0x40 MLOAD DUP1 SWAP2 SUB SWAP1 RETURN JUMPDEST PUSH2 0x10E PUSH1 0x4 DUP1 CALLDATASIZE SUB DUP2 ADD SWAP1 PUSH2 0x109 SWAP2 SWAP1 PUSH2 0x8B5 JUMP JUMPDEST PUSH2 0x403 JUMP JUMPDEST PUSH1 0x40 MLOAD PUSH2 0x11C SWAP3 SWAP2 SWAP1 PUSH2 0x902 JUMP JUMPDEST PUSH1 0x40 MLOAD DUP1 SWAP2 SUB SWAP1 RETURN JUMPDEST PUSH0 PUSH1 0x20 MSTORE DUP1 PUSH0 MSTORE PUSH1 0x40 PUSH0 KECCAK256 PUSH0 SWAP2 POP SWAP1 POP DUP1 PUSH0 ADD DUP1 SLOAD PUSH2 0x143 SWAP1 PUSH2 0x95D JUMP JUMPDEST DUP1 PUSH1 0x1F ADD PUSH1 0x20 DUP1 SWAP2 DIV MUL PUSH1 0x20 ADD PUSH1 0x40 MLOAD SWAP1 DUP2 ADD PUSH1 0x40 MSTORE DUP1 SWAP3 SWAP2 SWAP1 DUP2 DUP2 MSTORE PUSH1 0x20 ADD DUP3 DUP1 SLOAD PUSH2 0x16F SWAP1 PUSH2 0x95D JUMP JUMPDEST DUP1 ISZERO PUSH2 0x1BA JUMPI DUP1 PUSH1 0x1F LT PUSH2 0x191 JUMPI PUSH2 0x100 DUP1 DUP4 SLOAD DIV MUL DUP4 MSTORE SWAP2 PUSH1 0x20 ADD SWAP2 PUSH2 0x1BA JUMP JUMPDEST DUP3 ADD SWAP2 SWAP1 PUSH0 MSTORE PUSH1 0x20 PUSH0 KECCAK256 SWAP1 JUMPDEST DUP2 SLOAD DUP2 MSTORE SWAP1 PUSH1 0x1 ADD SWAP1 PUSH1 0x20 ADD DUP1 DUP4 GT PUSH2 0x19D JUMPI DUP3 SWAP1 SUB PUSH1 0x1F AND DUP3 ADD SWAP2 JUMPDEST POP POP POP POP POP SWAP1 DUP1 PUSH1 0x1 ADD PUSH0 SWAP1 SLOAD SWAP1 PUSH2 0x100 EXP SWAP1 DIV PUSH20 0xFFFFFFFFFFFFFFFFFFFFFFFFFFFFFFFFFFFFFFFF AND SWAP1 DUP1 PUSH1 0x2 ADD SLOAD SWAP1 POP DUP4 JUMP JUMPDEST PUSH1 0x40 MLOAD DUP1 PUSH1 0x40 ADD PUSH1 0x40 MSTORE DUP1 DUP4 DUP2 MSTORE PUSH1 0x20 ADD DUP3 PUSH1 0xFF AND DUP2 MSTORE POP PUSH1 0x1 PUSH0 DUP7 DUP2 MSTORE PUSH1 0x20 ADD SWAP1 DUP2 MSTORE PUSH1 0x20 ADD PUSH0 KECCAK256 PUSH0 DUP6 DUP2 MSTORE PUSH1 0x20 ADD SWAP1 DUP2 MSTORE PUSH1 0x20 ADD PUSH0 KECCAK256 PUSH0 DUP3 ADD MLOAD DUP2 PUSH0 ADD SWAP1 DUP2 PUSH2 0x23A SWAP2 SWAP1 PUSH2 0xB2D JUMP JUMPDEST POP PUSH1 0x20 DUP3 ADD MLOAD DUP2 PUSH1 0x1 ADD PUSH0 PUSH2 0x100 EXP DUP2 SLOAD DUP2 PUSH1 0xFF MUL NOT AND SWAP1 DUP4 PUSH1 0xFF AND MUL OR SWAP1 SSTORE POP SWAP1 POP POP POP POP POP POP JUMP JUMPDEST PUSH1 0x40 MLOAD DUP1 PUSH1 0x60 ADD PUSH1 0x40 MSTORE DUP1 DUP5 DUP2 MSTORE PUSH1 0x20 ADD DUP4 PUSH20 0xFFFFFFFFFFFFFFFFFFFFFFFFFFFFFFFFFFFFFFFF AND DUP2 MSTORE PUSH1 0x20 ADD DUP3 DUP2 MSTORE POP PUSH0 PUSH0 DUP7 DUP2 MSTORE PUSH1 0x20 ADD SWAP1 DUP2 MSTORE PUSH1 0x20 ADD PUSH0 KECCAK256 PUSH0 DUP3 ADD MLOAD DUP2 PUSH0 ADD SWAP1 DUP2 PUSH2 0x2B8 SWAP2 SWAP1 PUSH2 0xB2D JUMP JUMPDEST POP PUSH1 0x20 DUP3 ADD MLOAD DUP2 PUSH1 0x1 ADD PUSH0 PUSH2 0x100 EXP DUP2 SLOAD DUP2 PUSH20 0xFFFFFFFFFFFFFFFFFFFFFFFFFFFFFFFFFFFFFFFF MUL NOT AND SWAP1 DUP4 PUSH20 0xFFFFFFFFFFFFFFFFFFFFFFFFFFFFFFFFFFFFFFFF AND MUL OR SWAP1 SSTORE POP PUSH1 0x40 DUP3 ADD MLOAD DUP2 PUSH1 0x2 ADD SSTORE SWAP1 POP POP POP POP POP POP JUMP JUMPDEST PUSH1 0x60 PUSH0 PUSH0 PUSH1 0x1 PUSH0 DUP7 DUP2 MSTORE PUSH1 0x20 ADD SWAP1 DUP2 MSTORE PUSH1 0x20 ADD PUSH0 KECCAK256 PUSH0 DUP6 DUP2 MSTORE PUSH1 0x20 ADD SWAP1 DUP2 MSTORE PUSH1 0x20 ADD PUSH0 KECCAK256 PUSH1 0x40 MLOAD DUP1 PUSH1 0x40 ADD PUSH1 0x40 MSTORE SWAP1 DUP2 PUSH0 DUP3 ADD DUP1 SLOAD PUSH2 0x350 SWAP1 PUSH2 0x95D JUMP JUMPDEST DUP1 PUSH1 0x1F ADD PUSH1 0x20 DUP1 SWAP2 DIV MUL PUSH1 0x20 ADD PUSH1 0x40 MLOAD SWAP1 DUP2 ADD PUSH1 0x40 MSTORE DUP1 SWAP3 SWAP2 SWAP1 DUP2 DUP2 MSTORE PUSH1 0x20 ADD DUP3 DUP1 SLOAD PUSH2 0x37C SWAP1 PUSH2 0x95D JUMP JUMPDEST DUP1 ISZERO PUSH2 0x3C7 JUMPI DUP1 PUSH1 0x1F LT PUSH2 0x39E JUMPI PUSH2 0x100 DUP1 DUP4 SLOAD DIV MUL DUP4 MSTORE SWAP2 PUSH1 0x20 ADD SWAP2 PUSH2 0x3C7 JUMP JUMPDEST DUP3 ADD SWAP2 SWAP1 PUSH0 MSTORE PUSH1 0x20 PUSH0 KECCAK256 SWAP1 JUMPDEST DUP2 SLOAD DUP2 MSTORE SWAP1 PUSH1 0x1 ADD SWAP1 PUSH1 0x20 ADD DUP1 DUP4 GT PUSH2 0x3AA JUMPI DUP3 SWAP1 SUB PUSH1 0x1F AND DUP3 ADD SWAP2 JUMPDEST POP POP POP POP POP DUP2 MSTORE PUSH1 0x20 ADD PUSH1 0x1 DUP3 ADD PUSH0 SWAP1 SLOAD SWAP1 PUSH2 0x100 EXP SWAP1 DIV PUSH1 0xFF AND PUSH1 0xFF AND PUSH1 0xFF AND DUP2 MSTORE POP POP SWAP1 POP DUP1 PUSH0 ADD MLOAD DUP2 PUSH1 0x20 ADD MLOAD SWAP3 POP SWAP3 POP POP SWAP3 POP SWAP3 SWAP1 POP JUMP JUMPDEST PUSH1 0x1 PUSH1 0x20 MSTORE DUP2 PUSH0 MSTORE PUSH1 0x40 PUSH0 KECCAK256 PUSH1 0x20 MSTORE DUP1 PUSH0 MSTORE PUSH1 0x40 PUSH0 KECCAK256 PUSH0 SWAP2 POP SWAP2 POP POP DUP1 PUSH0 ADD DUP1 SLOAD PUSH2 0x42D SWAP1 PUSH2 0x95D JUMP JUMPDEST DUP1 PUSH1 0x1F ADD PUSH1 0x20 DUP1 SWAP2 DIV MUL PUSH1 0x20 ADD PUSH1 0x40 MLOAD SWAP1 DUP2 ADD PUSH1 0x40 MSTORE DUP1 SWAP3 SWAP2 SWAP1 DUP2 DUP2 MSTORE PUSH1 0x20 ADD DUP3 DUP1 SLOAD PUSH2 0x459 SWAP1 PUSH2 0x95D JUMP JUMPDEST DUP1 ISZERO PUSH2 0x4A4 JUMPI DUP1 PUSH1 0x1F LT PUSH2 0x47B JUMPI PUSH2 0x100 DUP1 DUP4 SLOAD DIV MUL DUP4 MSTORE SWAP2 PUSH1 0x20 ADD SWAP2 PUSH2 0x4A4 JUMP JUMPDEST DUP3 ADD SWAP2 SWAP1 PUSH0 MSTORE PUSH1 0x20 PUSH0 KECCAK256 SWAP1 JUMPDEST DUP2 SLOAD DUP2 MSTORE SWAP1 PUSH1 0x1 ADD SWAP1 PUSH1 0x20 ADD DUP1 DUP4 GT PUSH2 0x487 JUMPI DUP3 SWAP1 SUB PUSH1 0x1F AND DUP3 ADD SWAP2 JUMPDEST POP POP POP POP POP SWAP1 DUP1 PUSH1 0x1 ADD PUSH0 SWAP1 SLOAD SWAP1 PUSH2 0x100 EXP SWAP1 DIV PUSH1 0xFF AND SWAP1 POP DUP3 JUMP JUMPDEST PUSH0 PUSH1 0x40 MLOAD SWAP1 POP SWAP1 JUMP JUMPDEST PUSH0 PUSH0 REVERT JUMPDEST PUSH0 PUSH0 REVERT JUMPDEST PUSH0 DUP2 SWAP1 POP SWAP2 SWAP1 POP JUMP JUMPDEST PUSH2 0x4E3 DUP2 PUSH2 0x4D1 JUMP JUMPDEST DUP2 EQ PUSH2 0x4ED JUMPI PUSH0 PUSH0 REVERT JUMPDEST POP JUMP JUMPDEST PUSH0 DUP2 CALLDATALOAD SWAP1 POP PUSH2 0x4FE DUP2 PUSH2 0x4DA JUMP JUMPDEST SWAP3 SWAP2 POP POP JUMP JUMPDEST PUSH0 PUSH1 0x20 DUP3 DUP5 SUB SLT ISZERO PUSH2 0x519 JUMPI PUSH2 0x518 PUSH2 0x4C9 JUMP JUMPDEST JUMPDEST PUSH0 PUSH2 0x526 DUP5 DUP3 DUP6 ADD PUSH2 0x4F0 JUMP JUMPDEST SWAP2 POP POP SWAP3 SWAP2 POP POP JUMP JUMPDEST PUSH0 DUP2 MLOAD SWAP1 POP SWAP2 SWAP1 POP JUMP JUMPDEST PUSH0 DUP3 DUP3 MSTORE PUSH1 0x20 DUP3 ADD SWAP1 POP SWAP3 SWAP2 POP POP JUMP JUMPDEST DUP3 DUP2 DUP4 MCOPY PUSH0 DUP4 DUP4 ADD MSTORE POP POP POP JUMP JUMPDEST PUSH0 PUSH1 0x1F NOT PUSH1 0x1F DUP4 ADD AND SWAP1 POP SWAP2 SWAP1 POP JUMP JUMPDEST PUSH0 PUSH2 0x571 DUP3 PUSH2 0x52F JUMP JUMPDEST PUSH2 0x57B DUP2 DUP6 PUSH2 0x539 JUMP JUMPDEST SWAP4 POP PUSH2 0x58B DUP2 DUP6 PUSH1 0x20 DUP7 ADD PUSH2 0x549 JUMP JUMPDEST PUSH2 0x594 DUP2 PUSH2 0x557 JUMP JUMPDEST DUP5 ADD SWAP2 POP POP SWAP3 SWAP2 POP POP JUMP JUMPDEST PUSH0 PUSH20 0xFFFFFFFFFFFFFFFFFFFFFFFFFFFFFFFFFFFFFFFF DUP3 AND SWAP1 POP SWAP2 SWAP1 POP JUMP JUMPDEST PUSH0 PUSH2 0x5C8 DUP3 PUSH2 0x59F JUMP JUMPDEST SWAP1 POP SWAP2 SWAP1 POP JUMP JUMPDEST PUSH2 0x5D8 DUP2 PUSH2 0x5BE JUMP JUMPDEST DUP3 MSTORE POP POP JUMP JUMPDEST PUSH2 0x5E7 DUP2 PUSH2 0x4D1 JUMP JUMPDEST DUP3 MSTORE POP POP JUMP JUMPDEST PUSH0 PUSH1 0x60 DUP3 ADD SWAP1 POP DUP2 DUP2 SUB PUSH0 DUP4 ADD MSTORE PUSH2 0x605 DUP2 DUP7 PUSH2 0x567 JUMP JUMPDEST SWAP1 POP PUSH2 0x614 PUSH1 0x20 DUP4 ADD DUP6 PUSH2 0x5CF JUMP JUMPDEST PUSH2 0x621 PUSH1 0x40 DUP4 ADD DUP5 PUSH2 0x5DE JUMP JUMPDEST SWAP5 SWAP4 POP POP POP POP JUMP JUMPDEST PUSH0 PUSH0 REVERT JUMPDEST PUSH0 PUSH0 REVERT JUMPDEST PUSH32 0x4E487B7100000000000000000000000000000000000000000000000000000000 PUSH0 MSTORE PUSH1 0x41 PUSH1 0x4 MSTORE PUSH1 0x24 PUSH0 REVERT JUMPDEST PUSH2 0x667 DUP3 PUSH2 0x557 JUMP JUMPDEST DUP2 ADD DUP2 DUP2 LT PUSH8 0xFFFFFFFFFFFFFFFF DUP3 GT OR ISZERO PUSH2 0x686 JUMPI PUSH2 0x685 PUSH2 0x631 JUMP JUMPDEST JUMPDEST DUP1 PUSH1 0x40 MSTORE POP POP POP JUMP JUMPDEST PUSH0 PUSH2 0x698 PUSH2 0x4C0 JUMP JUMPDEST SWAP1 POP PUSH2 0x6A4 DUP3 DUP3 PUSH2 0x65E JUMP JUMPDEST SWAP2 SWAP1 POP JUMP JUMPDEST PUSH0 PUSH8 0xFFFFFFFFFFFFFFFF DUP3 GT ISZERO PUSH2 0x6C3 JUMPI PUSH2 0x6C2 PUSH2 0x631 JUMP JUMPDEST JUMPDEST PUSH2 0x6CC DUP3 PUSH2 0x557 JUMP JUMPDEST SWAP1 POP PUSH1 0x20 DUP2 ADD SWAP1 POP SWAP2 SWAP1 POP JUMP JUMPDEST DUP3 DUP2 DUP4 CALLDATACOPY PUSH0 DUP4 DUP4 ADD MSTORE POP POP POP JUMP JUMPDEST PUSH0 PUSH2 0x6F9 PUSH2 0x6F4 DUP5 PUSH2 0x6A9 JUMP JUMPDEST PUSH2 0x68F JUMP JUMPDEST SWAP1 POP DUP3 DUP2 MSTORE PUSH1 0x20 DUP2 ADD DUP5 DUP5 DUP5 ADD GT ISZERO PUSH2 0x715 JUMPI PUSH2 0x714 PUSH2 0x62D JUMP JUMPDEST JUMPDEST PUSH2 0x720 DUP5 DUP3 DUP6 PUSH2 0x6D9 JUMP JUMPDEST POP SWAP4 SWAP3 POP POP POP JUMP JUMPDEST PUSH0 DUP3 PUSH1 0x1F DUP4 ADD SLT PUSH2 0x73C JUMPI PUSH2 0x73B PUSH2 0x629 JUMP JUMPDEST JUMPDEST DUP2 CALLDATALOAD PUSH2 0x74C DUP5 DUP3 PUSH1 0x20 DUP7 ADD PUSH2 0x6E7 JUMP JUMPDEST SWAP2 POP POP SWAP3 SWAP2 POP POP JUMP JUMPDEST PUSH0 PUSH1 0xFF DUP3 AND SWAP1 POP SWAP2 SWAP1 POP JUMP JUMPDEST PUSH2 0x76A DUP2 PUSH2 0x755 JUMP JUMPDEST DUP2 EQ PUSH2 0x774 JUMPI PUSH0 PUSH0 REVERT JUMPDEST POP JUMP JUMPDEST PUSH0 DUP2 CALLDATALOAD SWAP1 POP PUSH2 0x785 DUP2 PUSH2 0x761 JUMP JUMPDEST SWAP3 SWAP2 POP POP JUMP JUMPDEST PUSH0 PUSH0 PUSH0 PUSH0 PUSH1 0x80 DUP6 DUP8 SUB SLT ISZERO PUSH2 0x7A3 JUMPI PUSH2 0x7A2 PUSH2 0x4C9 JUMP JUMPDEST JUMPDEST PUSH0 PUSH2 0x7B0 DUP8 DUP3 DUP9 ADD PUSH2 0x4F0 JUMP JUMPDEST SWAP5 POP POP PUSH1 0x20 PUSH2 0x7C1 DUP8 DUP3 DUP9 ADD PUSH2 0x4F0 JUMP JUMPDEST SWAP4 POP POP PUSH1 0x40 DUP6 ADD CALLDATALOAD PUSH8 0xFFFFFFFFFFFFFFFF DUP2 GT ISZERO PUSH2 0x7E2 JUMPI PUSH2 0x7E1 PUSH2 0x4CD JUMP JUMPDEST JUMPDEST PUSH2 0x7EE DUP8 DUP3 DUP9 ADD PUSH2 0x728 JUMP JUMPDEST SWAP3 POP POP PUSH1 0x60 PUSH2 0x7FF DUP8 DUP3 DUP9 ADD PUSH2 0x777 JUMP JUMPDEST SWAP2 POP POP SWAP3 SWAP6 SWAP2 SWAP5 POP SWAP3 POP JUMP JUMPDEST PUSH2 0x814 DUP2 PUSH2 0x5BE JUMP JUMPDEST DUP2 EQ PUSH2 0x81E JUMPI PUSH0 PUSH0 REVERT JUMPDEST POP JUMP JUMPDEST PUSH0 DUP2 CALLDATALOAD SWAP1 POP PUSH2 0x82F DUP2 PUSH2 0x80B JUMP JUMPDEST SWAP3 SWAP2 POP POP JUMP JUMPDEST PUSH0 PUSH0 PUSH0 PUSH0 PUSH1 0x80 DUP6 DUP8 SUB SLT ISZERO PUSH2 0x84D JUMPI PUSH2 0x84C PUSH2 0x4C9 JUMP JUMPDEST JUMPDEST PUSH0 PUSH2 0x85A DUP8 DUP3 DUP9 ADD PUSH2 0x4F0 JUMP JUMPDEST SWAP5 POP POP PUSH1 0x20 DUP6 ADD CALLDATALOAD PUSH8 0xFFFFFFFFFFFFFFFF DUP2 GT ISZERO PUSH2 0x87B JUMPI PUSH2 0x87A PUSH2 0x4CD JUMP JUMPDEST JUMPDEST PUSH2 0x887 DUP8 DUP3 DUP9 ADD PUSH2 0x728 JUMP JUMPDEST SWAP4 POP POP PUSH1 0x40 PUSH2 0x898 DUP8 DUP3 DUP9 ADD PUSH2 0x821 JUMP JUMPDEST SWAP3 POP POP PUSH1 0x60 PUSH2 0x8A9 DUP8 DUP3 DUP9 ADD PUSH2 0x4F0 JUMP JUMPDEST SWAP2 POP POP SWAP3 SWAP6 SWAP2 SWAP5 POP SWAP3 POP JUMP JUMPDEST PUSH0 PUSH0 PUSH1 0x40 DUP4 DUP6 SUB SLT ISZERO PUSH2 0x8CB JUMPI PUSH2 0x8CA PUSH2 0x4C9 JUMP JUMPDEST JUMPDEST PUSH0 PUSH2 0x8D8 DUP6 DUP3 DUP7 ADD PUSH2 0x4F0 JUMP JUMPDEST SWAP3 POP POP PUSH1 0x20 PUSH2 0x8E9 DUP6 DUP3 DUP7 ADD PUSH2 0x4F0 JUMP JUMPDEST SWAP2 POP POP SWAP3 POP SWAP3 SWAP1 POP JUMP JUMPDEST PUSH2 0x8FC DUP2 PUSH2 0x755 JUMP JUMPDEST DUP3 MSTORE POP POP JUMP JUMPDEST PUSH0 PUSH1 0x40 DUP3 ADD SWAP1 POP DUP2 DUP2 SUB PUSH0 DUP4 ADD MSTORE PUSH2 0x91A DUP2 DUP6 PUSH2 0x567 JUMP JUMPDEST SWAP1 POP PUSH2 0x929 PUSH1 0x20 DUP4 ADD DUP5 PUSH2 0x8F3 JUMP JUMPDEST SWAP4 SWAP3 POP POP POP JUMP JUMPDEST PUSH32 0x4E487B7100000000000000000000000000000000000000000000000000000000 PUSH0 MSTORE PUSH1 0x22 PUSH1 0x4 MSTORE PUSH1 0x24 PUSH0 REVERT JUMPDEST PUSH0 PUSH1 0x2 DUP3 DIV SWAP1 POP PUSH1 0x1 DUP3 AND DUP1 PUSH2 0x974 JUMPI PUSH1 0x7F DUP3 AND SWAP2 POP JUMPDEST PUSH1 0x20 DUP3 LT DUP2 SUB PUSH2 0x987 JUMPI PUSH2 0x986 PUSH2 0x930 JUMP JUMPDEST JUMPDEST POP SWAP2 SWAP1 POP JUMP JUMPDEST PUSH0 DUP2 SWAP1 POP DUP2 PUSH0 MSTORE PUSH1 0x20 PUSH0 KECCAK256 SWAP1 POP SWAP2 SWAP1 POP JUMP JUMPDEST PUSH0 PUSH1 0x20 PUSH1 0x1F DUP4 ADD DIV SWAP1 POP SWAP2 SWAP1 POP JUMP JUMPDEST PUSH0 DUP3 DUP3 SHL SWAP1 POP SWAP3 SWAP2 POP POP JUMP JUMPDEST PUSH0 PUSH1 0x8 DUP4 MUL PUSH2 0x9E9 PUSH32 0xFFFFFFFFFFFFFFFFFFFFFFFFFFFFFFFFFFFFFFFFFFFFFFFFFFFFFFFFFFFFFFFF DUP3 PUSH2 0x9AE JUMP JUMPDEST PUSH2 0x9F3 DUP7 DUP4 PUSH2 0x9AE JUMP JUMPDEST SWAP6 POP DUP1 NOT DUP5 AND SWAP4 POP DUP1 DUP7 AND DUP5 OR SWAP3 POP POP POP SWAP4 SWAP3 POP POP POP JUMP JUMPDEST PUSH0 DUP2 SWAP1 POP SWAP2 SWAP1 POP JUMP JUMPDEST PUSH0 PUSH2 0xA2E PUSH2 0xA29 PUSH2 0xA24 DUP5 PUSH2 0x4D1 JUMP JUMPDEST PUSH2 0xA0B JUMP JUMPDEST PUSH2 0x4D1 JUMP JUMPDEST SWAP1 POP SWAP2 SWAP1 POP JUMP JUMPDEST PUSH0 DUP2 SWAP1 POP SWAP2 SWAP1 POP JUMP JUMPDEST PUSH2 0xA47 DUP4 PUSH2 0xA14 JUMP JUMPDEST PUSH2 0xA5B PUSH2 0xA53 DUP3 PUSH2 0xA35 JUMP JUMPDEST DUP5 DUP5 SLOAD PUSH2 0x9BA JUMP JUMPDEST DUP3 SSTORE POP POP POP POP JUMP JUMPDEST PUSH0 PUSH0 SWAP1 POP SWAP1 JUMP JUMPDEST PUSH2 0xA72 PUSH2 0xA63 JUMP JUMPDEST PUSH2 0xA7D DUP2 DUP5 DUP5 PUSH2 0xA3E JUMP JUMPDEST POP POP POP JUMP JUMPDEST JUMPDEST DUP2 DUP2 LT ISZERO PUSH2 0xAA0 JUMPI PUSH2 0xA95 PUSH0 DUP3 PUSH2 0xA6A JUMP JUMPDEST PUSH1 0x1 DUP2 ADD SWAP1 POP PUSH2 0xA83 JUMP JUMPDEST POP POP JUMP JUMPDEST PUSH1 0x1F DUP3 GT ISZERO PUSH2 0xAE5 JUMPI PUSH2 0xAB6 DUP2 PUSH2 0x98D JUMP JUMPDEST PUSH2 0xABF DUP5 PUSH2 0x99F JUMP JUMPDEST DUP2 ADD PUSH1 0x20 DUP6 LT ISZERO PUSH2 0xACE JUMPI DUP2 SWAP1 POP JUMPDEST PUSH2 0xAE2 PUSH2 0xADA DUP6 PUSH2 0x99F JUMP JUMPDEST DUP4 ADD DUP3 PUSH2 0xA82 JUMP JUMPDEST POP POP JUMPDEST POP POP POP JUMP JUMPDEST PUSH0 DUP3 DUP3 SHR SWAP1 POP SWAP3 SWAP2 POP POP JUMP JUMPDEST PUSH0 PUSH2 0xB05 PUSH0 NOT DUP5 PUSH1 0x8 MUL PUSH2 0xAEA JUMP JUMPDEST NOT DUP1 DUP4 AND SWAP2 POP POP SWAP3 SWAP2 POP POP JUMP JUMPDEST PUSH0 PUSH2 0xB1D DUP4 DUP4 PUSH2 0xAF6 JUMP JUMPDEST SWAP2 POP DUP3 PUSH1 0x2 MUL DUP3 OR SWAP1 POP SWAP3 SWAP2 POP POP JUMP JUMPDEST PUSH2 0xB36 DUP3 PUSH2 0x52F JUMP JUMPDEST PUSH8 0xFFFFFFFFFFFFFFFF DUP2 GT ISZERO PUSH2 0xB4F JUMPI PUSH2 0xB4E PUSH2 0x631 JUMP JUMPDEST JUMPDEST PUSH2 0xB59 DUP3 SLOAD PUSH2 0x95D JUMP JUMPDEST PUSH2 0xB64 DUP3 DUP3 DUP6 PUSH2 0xAA4 JUMP JUMPDEST PUSH0 PUSH1 0x20 SWAP1 POP PUSH1 0x1F DUP4 GT PUSH1 0x1 DUP2 EQ PUSH2 0xB95 JUMPI PUSH0 DUP5 ISZERO PUSH2 0xB83 JUMPI DUP3 DUP8 ADD MLOAD SWAP1 POP JUMPDEST PUSH2 0xB8D DUP6 DUP3 PUSH2 0xB12 JUMP JUMPDEST DUP7 SSTORE POP PUSH2 0xBF4 JUMP JUMPDEST PUSH1 0x1F NOT DUP5 AND PUSH2 0xBA3 DUP7 PUSH2 0x98D JUMP JUMPDEST PUSH0 JUMPDEST DUP3 DUP2 LT ISZERO PUSH2 0xBCA JUMPI DUP5 DUP10 ADD MLOAD DUP3 SSTORE PUSH1 0x1 DUP3 ADD SWAP2 POP PUSH1 0x20 DUP6 ADD SWAP5 POP PUSH1 0x20 DUP2 ADD SWAP1 POP PUSH2 0xBA5 JUMP JUMPDEST DUP7 DUP4 LT ISZERO PUSH2 0xBE7 JUMPI DUP5 DUP10 ADD MLOAD PUSH2 0xBE3 PUSH1 0x1F DUP10 AND DUP3 PUSH2 0xAF6 JUMP JUMPDEST DUP4 SSTORE POP JUMPDEST PUSH1 0x1 PUSH1 0x2 DUP9 MUL ADD DUP9 SSTORE POP POP POP JUMPDEST POP POP POP POP POP POP JUMP INVALID LOG2 PUSH5 0x6970667358 0x22 SLT KECCAK256 PUSH5 0xF34CAAAA77 LOG1 RETURNDATACOPY TIMESTAMP TIMESTAMP 0xC3 0xCF ADDMOD 0xA9 DUP14 0x4D 0xDF PC 0xB4 RETURNDATACOPY 0xD3 0x2C 0xED 0xCA CHAINID PUSH14 0xFE13BD844CC964736F6C63430008 0x1E STOP CALLER "
				},
				"gasEstimates": {
					"creation": {
						"codeDepositCost": "624400",
						"executionCost": "655",
						"totalCost": "625055"
					},
					"external": {
						"addEmployee(uint256,string,address,uint256)": "infinite",
						"addPerformanceReview(uint256,uint256,string,uint8)": "infinite",
						"employees(uint256)": "infinite",
						"getPerformanceReview(uint256,uint256)": "infinite",
						"performanceReviews(uint256,uint256)": "infinite"
					}
				},
				"methodIdentifiers": {
					"addEmployee(uint256,string,address,uint256)": "72397537",
					"addPerformanceReview(uint256,uint256,string,uint8)": "71e1a7d2",
					"employees(uint256)": "4739326b",
					"getPerformanceReview(uint256,uint256)": "d6a8f93e",
					"performanceReviews(uint256,uint256)": "eeaaa285"
				}
			},
			"storageLayout": {
				"storage": [
					{
						"astId": 18,
						"contract": "empreview.sol:EmployeeManagement",
						"label": "employees",
						"offset": 0,
						"slot": "0",
						"type": "t_mapping(t_uint256,t_struct(Employee)8_storage)"
					},
					{
						"astId": 25,
						"contract": "empreview.sol:EmployeeManagement",
						"label": "performanceReviews",
						"offset": 0,
						"slot": "1",
						"type": "t_mapping(t_uint256,t_mapping(t_uint256,t_struct(PerformanceReview)13_storage))"
					}
				],
				"types": {
					"t_address": {
						"encoding": "inplace",
						"label": "address",
						"numberOfBytes": "20"
					},
					"t_mapping(t_uint256,t_mapping(t_uint256,t_struct(PerformanceReview)13_storage))": {
						"encoding": "mapping",
						"key": "t_uint256",
						"label": "mapping(uint256 => mapping(uint256 => struct EmployeeManagement.PerformanceReview))",
						"numberOfBytes": "32",
						"value": "t_mapping(t_uint256,t_struct(PerformanceReview)13_storage)"
					},
					"t_mapping(t_uint256,t_struct(Employee)8_storage)": {
						"encoding": "mapping",
						"key": "t_uint256",
						"label": "mapping(uint256 => struct EmployeeManagement.Employee)",
						"numberOfBytes": "32",
						"value": "t_struct(Employee)8_storage"
					},
					"t_mapping(t_uint256,t_struct(PerformanceReview)13_storage)": {
						"encoding": "mapping",
						"key": "t_uint256",
						"label": "mapping(uint256 => struct EmployeeManagement.PerformanceReview)",
						"numberOfBytes": "32",
						"value": "t_struct(PerformanceReview)13_storage"
					},
					"t_string_storage": {
						"encoding": "bytes",
						"label": "string",
						"numberOfBytes": "32"
					},
					"t_struct(Employee)8_storage": {
						"encoding": "inplace",
						"label": "struct EmployeeManagement.Employee",
						"members": [
							{
								"astId": 3,
								"contract": "empreview.sol:EmployeeManagement",
								"label": "name",
								"offset": 0,
								"slot": "0",
								"type": "t_string_storage"
							},
							{
								"astId": 5,
								"contract": "empreview.sol:EmployeeManagement",
								"label": "employeeAddress",
								"offset": 0,
								"slot": "1",
								"type": "t_address"
							},
							{
								"astId": 7,
								"contract": "empreview.sol:EmployeeManagement",
								"label": "salary",
								"offset": 0,
								"slot": "2",
								"type": "t_uint256"
							}
						],
						"numberOfBytes": "96"
					},
					"t_struct(PerformanceReview)13_storage": {
						"encoding": "inplace",
						"label": "struct EmployeeManagement.PerformanceReview",
						"members": [
							{
								"astId": 10,
								"contract": "empreview.sol:EmployeeManagement",
								"label": "review",
								"offset": 0,
								"slot": "0",
								"type": "t_string_storage"
							},
							{
								"astId": 12,
								"contract": "empreview.sol:EmployeeManagement",
								"label": "rating",
								"offset": 0,
								"slot": "1",
								"type": "t_uint8"
							}
						],
						"numberOfBytes": "64"
					},
					"t_uint256": {
						"encoding": "inplace",
						"label": "uint256",
						"numberOfBytes": "32"
					},
					"t_uint8": {
						"encoding": "inplace",
						"label": "uint8",
						"numberOfBytes": "1"
					}
				}
			},
			"userdoc": {
				"kind": "user",
				"methods": {},
				"version": 1
			}
		}
	}
}