{
	"defaultvalue.sol": {
		"DefaultValues": {
			"abi": [
				{
					"inputs": [],
					"name": "A",
					"outputs": [
						{
							"internalType": "uint256",
							"name": "",
							"type": "uint256"
						}
					],
					"stateMutability": "view",
					"type": "function"
				},
				{
					"inputs": [],
					"name": "B",
					"outputs": [
						{
							"internalType": "bool",
							"name": "",
							"type": "bool"
						}
					],
					"stateMutability": "view",
					"type": "function"
				},
				{
					"inputs": [],
					"name": "C",
					"outputs": [
						{
							"internalType": "string",
							"name": "",
							"type": "string"
						}
					],
					"stateMutability": "view",
					"type": "function"
				},
				{
					"inputs": [],
					"name": "D",
					"outputs": [
						{
							"internalType": "address",
							"name": "",
							"type": "address"
						}
					],
					"stateMutability": "view",
					"type": "function"
				},
				{
					"inputs": [],
					"name": "E",
					"outputs": [
						{
							"internalType": "bytes32",
							"name": "",
							"type": "bytes32"
						}
					],
					"stateMutability": "view",
					"type": "function"
				},
				{
					"inputs": [],
					"name": "F",
					"outputs": [
						{
							"internalType": "enum DefaultValues.Status",
							"name": "",
							"type": "uint8"
						}
					],
					"stateMutability": "view",
					"type": "function"
				},
				{
					"inputs": [],
					"name": "getDefaultValues",
					"outputs": [
						{
							"internalType": "uint256",
							"name": "",
							"type": "uint256"
						},
						{
							"internalType": "bool",
							"name": "",
							"type": "bool"
						},
						{
							"internalType": "string",
							"name": "",
							"type": "string"
						},
						{
							"internalType": "address",
							"name": "",
							"type": "address"
						},
						{
							"internalType": "bytes32",
							"name": "",
							"type": "bytes32"
						},
						{
							"internalType": "enum DefaultValues.Status",
							"name": "",
							"type": "uint8"
						}
					],
					"stateMutability": "view",
					"type": "function"
				}
			],
			"devdoc": {
				"kind": "dev",
				"methods": {},
				"version": 1
			},
			"evm": {
				"assembly": "    /* \"defaultvalue.sol\":57:659  contract DefaultValues {... */\n  mstore(0x40, 0x80)\n  callvalue\n  dup1\n  iszero\n  tag_1\n  jumpi\n  revert(0x00, 0x00)\ntag_1:\n  pop\n  dataSize(sub_0)\n  dup1\n  dataOffset(sub_0)\n  0x00\n  codecopy\n  0x00\n  return\nstop\n\nsub_0: assembly {\n        /* \"defaultvalue.sol\":57:659  contract DefaultValues {... */\n      mstore(0x40, 0x80)\n      callvalue\n      dup1\n      iszero\n      tag_1\n      jumpi\n      revert(0x00, 0x00)\n    tag_1:\n      pop\n      jumpi(tag_2, lt(calldatasize, 0x04))\n      shr(0xe0, calldataload(0x00))\n      dup1\n      0x83dfe5fd\n      gt\n      tag_10\n      jumpi\n      dup1\n      0x83dfe5fd\n      eq\n      tag_6\n      jumpi\n      dup1\n      0x92bbf6e8\n      eq\n      tag_7\n      jumpi\n      dup1\n      0xe313e125\n      eq\n      tag_8\n      jumpi\n      dup1\n      0xf446c1d0\n      eq\n      tag_9\n      jumpi\n      jump(tag_2)\n    tag_10:\n      dup1\n      0x0f529ba2\n      eq\n      tag_3\n      jumpi\n      dup1\n      0x28811f59\n      eq\n      tag_4\n      jumpi\n      dup1\n      0x32e7c5bf\n      eq\n      tag_5\n      jumpi\n    tag_2:\n      revert(0x00, 0x00)\n        /* \"defaultvalue.sol\":232:248  address public D */\n    tag_3:\n      tag_11\n      tag_12\n      jump\t// in\n    tag_11:\n      mload(0x40)\n      tag_13\n      swap2\n      swap1\n      tag_14\n      jump\t// in\n    tag_13:\n      mload(0x40)\n      dup1\n      swap2\n      sub\n      swap1\n      return\n        /* \"defaultvalue.sol\":391:406  Status public F */\n    tag_4:\n      tag_15\n      tag_16\n      jump\t// in\n    tag_15:\n      mload(0x40)\n      tag_17\n      swap2\n      swap1\n      tag_18\n      jump\t// in\n    tag_17:\n      mload(0x40)\n      dup1\n      swap2\n      sub\n      swap1\n      return\n        /* \"defaultvalue.sol\":133:146  bool public B */\n    tag_5:\n      tag_19\n      tag_20\n      jump\t// in\n    tag_19:\n      mload(0x40)\n      tag_21\n      swap2\n      swap1\n      tag_22\n      jump\t// in\n    tag_21:\n      mload(0x40)\n      dup1\n      swap2\n      sub\n      swap1\n      return\n        /* \"defaultvalue.sol\":184:199  string public C */\n    tag_6:\n      tag_23\n      tag_24\n      jump\t// in\n    tag_23:\n      mload(0x40)\n      tag_25\n      swap2\n      swap1\n      tag_26\n      jump\t// in\n    tag_25:\n      mload(0x40)\n      dup1\n      swap2\n      sub\n      swap1\n      return\n        /* \"defaultvalue.sol\":288:304  bytes32 public E */\n    tag_7:\n      tag_27\n      tag_28\n      jump\t// in\n    tag_27:\n      mload(0x40)\n      tag_29\n      swap2\n      swap1\n      tag_30\n      jump\t// in\n    tag_29:\n      mload(0x40)\n      dup1\n      swap2\n      sub\n      swap1\n      return\n        /* \"defaultvalue.sol\":481:657  function getDefaultValues() ... */\n    tag_8:\n      tag_31\n      tag_32\n      jump\t// in\n    tag_31:\n      mload(0x40)\n      tag_33\n      swap7\n      swap6\n      swap5\n      swap4\n      swap3\n      swap2\n      swap1\n      tag_34\n      jump\t// in\n    tag_33:\n      mload(0x40)\n      dup1\n      swap2\n      sub\n      swap1\n      return\n        /* \"defaultvalue.sol\":86:99  uint public A */\n    tag_9:\n      tag_35\n      tag_36\n      jump\t// in\n    tag_35:\n      mload(0x40)\n      tag_37\n      swap2\n      swap1\n      tag_38\n      jump\t// in\n    tag_37:\n      mload(0x40)\n      dup1\n      swap2\n      sub\n      swap1\n      return\n        /* \"defaultvalue.sol\":232:248  address public D */\n    tag_12:\n      0x03\n      0x00\n      swap1\n      sload\n      swap1\n      0x0100\n      exp\n      swap1\n      div\n      0xffffffffffffffffffffffffffffffffffffffff\n      and\n      dup2\n      jump\t// out\n        /* \"defaultvalue.sol\":391:406  Status public F */\n    tag_16:\n      0x05\n      0x00\n      swap1\n      sload\n      swap1\n      0x0100\n      exp\n      swap1\n      div\n      0xff\n      and\n      dup2\n      jump\t// out\n        /* \"defaultvalue.sol\":133:146  bool public B */\n    tag_20:\n      0x01\n      0x00\n      swap1\n      sload\n      swap1\n      0x0100\n      exp\n      swap1\n      div\n      0xff\n      and\n      dup2\n      jump\t// out\n        /* \"defaultvalue.sol\":184:199  string public C */\n    tag_24:\n      0x02\n      dup1\n      sload\n      tag_39\n      swap1\n      tag_40\n      jump\t// in\n    tag_39:\n      dup1\n      0x1f\n      add\n      0x20\n      dup1\n      swap2\n      div\n      mul\n      0x20\n      add\n      mload(0x40)\n      swap1\n      dup2\n      add\n      0x40\n      mstore\n      dup1\n      swap3\n      swap2\n      swap1\n      dup2\n      dup2\n      mstore\n      0x20\n      add\n      dup3\n      dup1\n      sload\n      tag_41\n      swap1\n      tag_40\n      jump\t// in\n    tag_41:\n      dup1\n      iszero\n      tag_42\n      jumpi\n      dup1\n      0x1f\n      lt\n      tag_43\n      jumpi\n      0x0100\n      dup1\n      dup4\n      sload\n      div\n      mul\n      dup4\n      mstore\n      swap2\n      0x20\n      add\n      swap2\n      jump(tag_42)\n    tag_43:\n      dup3\n      add\n      swap2\n      swap1\n      0x00\n      mstore\n      keccak256(0x00, 0x20)\n      swap1\n    tag_44:\n      dup2\n      sload\n      dup2\n      mstore\n      swap1\n      0x01\n      add\n      swap1\n      0x20\n      add\n      dup1\n      dup4\n      gt\n      tag_44\n      jumpi\n      dup3\n      swap1\n      sub\n      0x1f\n      and\n      dup3\n      add\n      swap2\n    tag_42:\n      pop\n      pop\n      pop\n      pop\n      pop\n      dup2\n      jump\t// out\n        /* \"defaultvalue.sol\":288:304  bytes32 public E */\n    tag_28:\n      sload(0x04)\n      dup2\n      jump\t// out\n        /* \"defaultvalue.sol\":481:657  function getDefaultValues() ... */\n    tag_32:\n        /* \"defaultvalue.sol\":557:561  uint */\n      0x00\n        /* \"defaultvalue.sol\":563:567  bool */\n      0x00\n        /* \"defaultvalue.sol\":569:582  string memory */\n      0x60\n        /* \"defaultvalue.sol\":584:591  address */\n      0x00\n        /* \"defaultvalue.sol\":593:600  bytes32 */\n      0x00\n        /* \"defaultvalue.sol\":602:608  Status */\n      0x00\n        /* \"defaultvalue.sol\":633:634  A */\n      sload(0x00)\n        /* \"defaultvalue.sol\":636:637  B */\n      0x01\n      0x00\n      swap1\n      sload\n      swap1\n      0x0100\n      exp\n      swap1\n      div\n      0xff\n      and\n        /* \"defaultvalue.sol\":639:640  C */\n      0x02\n        /* \"defaultvalue.sol\":642:643  D */\n      0x03\n      0x00\n      swap1\n      sload\n      swap1\n      0x0100\n      exp\n      swap1\n      div\n      0xffffffffffffffffffffffffffffffffffffffff\n      and\n        /* \"defaultvalue.sol\":645:646  E */\n      sload(0x04)\n        /* \"defaultvalue.sol\":648:649  F */\n      0x05\n      0x00\n      swap1\n      sload\n      swap1\n      0x0100\n      exp\n      swap1\n      div\n      0xff\n      and\n        /* \"defaultvalue.sol\":625:650  return (A, B, C, D, E, F) */\n      dup4\n      dup1\n      sload\n      tag_46\n      swap1\n      tag_40\n      jump\t// in\n    tag_46:\n      dup1\n      0x1f\n      add\n      0x20\n      dup1\n      swap2\n      div\n      mul\n      0x20\n      add\n      mload(0x40)\n      swap1\n      dup2\n      add\n      0x40\n      mstore\n      dup1\n      swap3\n      swap2\n      swap1\n      dup2\n      dup2\n      mstore\n      0x20\n      add\n      dup3\n      dup1\n      sload\n      tag_47\n      swap1\n      tag_40\n      jump\t// in\n    tag_47:\n      dup1\n      iszero\n      tag_48\n      jumpi\n      dup1\n      0x1f\n      lt\n      tag_49\n      jumpi\n      0x0100\n      dup1\n      dup4\n      sload\n      div\n      mul\n      dup4\n      mstore\n      swap2\n      0x20\n      add\n      swap2\n      jump(tag_48)\n    tag_49:\n      dup3\n      add\n      swap2\n      swap1\n      0x00\n      mstore\n      keccak256(0x00, 0x20)\n      swap1\n    tag_50:\n      dup2\n      sload\n      dup2\n      mstore\n      swap1\n      0x01\n      add\n      swap1\n      0x20\n      add\n      dup1\n      dup4\n      gt\n      tag_50\n      jumpi\n      dup3\n      swap1\n      sub\n      0x1f\n      and\n      dup3\n      add\n      swap2\n    tag_48:\n      pop\n      pop\n      pop\n      pop\n      pop\n      swap4\n      pop\n      swap6\n      pop\n      swap6\n      pop\n      swap6\n      pop\n      swap6\n      pop\n      swap6\n      pop\n      swap6\n      pop\n        /* \"defaultvalue.sol\":481:657  function getDefaultValues() ... */\n      swap1\n      swap2\n      swap3\n      swap4\n      swap5\n      swap6\n      jump\t// out\n        /* \"defaultvalue.sol\":86:99  uint public A */\n    tag_36:\n      sload(0x00)\n      dup2\n      jump\t// out\n        /* \"#utility.yul\":7:133   */\n    tag_51:\n        /* \"#utility.yul\":44:51   */\n      0x00\n        /* \"#utility.yul\":84:126   */\n      0xffffffffffffffffffffffffffffffffffffffff\n        /* \"#utility.yul\":77:82   */\n      dup3\n        /* \"#utility.yul\":73:127   */\n      and\n        /* \"#utility.yul\":62:127   */\n      swap1\n      pop\n        /* \"#utility.yul\":7:133   */\n      swap2\n      swap1\n      pop\n      jump\t// out\n        /* \"#utility.yul\":139:235   */\n    tag_52:\n        /* \"#utility.yul\":176:183   */\n      0x00\n        /* \"#utility.yul\":205:229   */\n      tag_74\n        /* \"#utility.yul\":223:228   */\n      dup3\n        /* \"#utility.yul\":205:229   */\n      tag_51\n      jump\t// in\n    tag_74:\n        /* \"#utility.yul\":194:229   */\n      swap1\n      pop\n        /* \"#utility.yul\":139:235   */\n      swap2\n      swap1\n      pop\n      jump\t// out\n        /* \"#utility.yul\":241:359   */\n    tag_53:\n        /* \"#utility.yul\":328:352   */\n      tag_76\n        /* \"#utility.yul\":346:351   */\n      dup2\n        /* \"#utility.yul\":328:352   */\n      tag_52\n      jump\t// in\n    tag_76:\n        /* \"#utility.yul\":323:326   */\n      dup3\n        /* \"#utility.yul\":316:353   */\n      mstore\n        /* \"#utility.yul\":241:359   */\n      pop\n      pop\n      jump\t// out\n        /* \"#utility.yul\":365:587   */\n    tag_14:\n        /* \"#utility.yul\":458:462   */\n      0x00\n        /* \"#utility.yul\":496:498   */\n      0x20\n        /* \"#utility.yul\":485:494   */\n      dup3\n        /* \"#utility.yul\":481:499   */\n      add\n        /* \"#utility.yul\":473:499   */\n      swap1\n      pop\n        /* \"#utility.yul\":509:580   */\n      tag_78\n        /* \"#utility.yul\":577:578   */\n      0x00\n        /* \"#utility.yul\":566:575   */\n      dup4\n        /* \"#utility.yul\":562:579   */\n      add\n        /* \"#utility.yul\":553:559   */\n      dup5\n        /* \"#utility.yul\":509:580   */\n      tag_53\n      jump\t// in\n    tag_78:\n        /* \"#utility.yul\":365:587   */\n      swap3\n      swap2\n      pop\n      pop\n      jump\t// out\n        /* \"#utility.yul\":593:773   */\n    tag_54:\n        /* \"#utility.yul\":641:718   */\n      0x4e487b7100000000000000000000000000000000000000000000000000000000\n        /* \"#utility.yul\":638:639   */\n      0x00\n        /* \"#utility.yul\":631:719   */\n      mstore\n        /* \"#utility.yul\":738:742   */\n      0x21\n        /* \"#utility.yul\":735:736   */\n      0x04\n        /* \"#utility.yul\":728:743   */\n      mstore\n        /* \"#utility.yul\":762:766   */\n      0x24\n        /* \"#utility.yul\":759:760   */\n      0x00\n        /* \"#utility.yul\":752:767   */\n      revert\n        /* \"#utility.yul\":779:893   */\n    tag_55:\n        /* \"#utility.yul\":861:862   */\n      0x03\n        /* \"#utility.yul\":854:859   */\n      dup2\n        /* \"#utility.yul\":851:863   */\n      lt\n        /* \"#utility.yul\":841:887   */\n      tag_81\n      jumpi\n        /* \"#utility.yul\":867:885   */\n      tag_82\n      tag_54\n      jump\t// in\n    tag_82:\n        /* \"#utility.yul\":841:887   */\n    tag_81:\n        /* \"#utility.yul\":779:893   */\n      pop\n      jump\t// out\n        /* \"#utility.yul\":899:1028   */\n    tag_56:\n        /* \"#utility.yul\":945:952   */\n      0x00\n        /* \"#utility.yul\":974:979   */\n      dup2\n        /* \"#utility.yul\":963:979   */\n      swap1\n      pop\n        /* \"#utility.yul\":980:1022   */\n      tag_84\n        /* \"#utility.yul\":1016:1021   */\n      dup3\n        /* \"#utility.yul\":980:1022   */\n      tag_55\n      jump\t// in\n    tag_84:\n        /* \"#utility.yul\":899:1028   */\n      swap2\n      swap1\n      pop\n      jump\t// out\n        /* \"#utility.yul\":1034:1163   */\n    tag_57:\n        /* \"#utility.yul\":1091:1100   */\n      0x00\n        /* \"#utility.yul\":1124:1157   */\n      tag_86\n        /* \"#utility.yul\":1151:1156   */\n      dup3\n        /* \"#utility.yul\":1124:1157   */\n      tag_56\n      jump\t// in\n    tag_86:\n        /* \"#utility.yul\":1111:1157   */\n      swap1\n      pop\n        /* \"#utility.yul\":1034:1163   */\n      swap2\n      swap1\n      pop\n      jump\t// out\n        /* \"#utility.yul\":1169:1314   */\n    tag_58:\n        /* \"#utility.yul\":1263:1307   */\n      tag_88\n        /* \"#utility.yul\":1301:1306   */\n      dup2\n        /* \"#utility.yul\":1263:1307   */\n      tag_57\n      jump\t// in\n    tag_88:\n        /* \"#utility.yul\":1258:1261   */\n      dup3\n        /* \"#utility.yul\":1251:1308   */\n      mstore\n        /* \"#utility.yul\":1169:1314   */\n      pop\n      pop\n      jump\t// out\n        /* \"#utility.yul\":1320:1556   */\n    tag_18:\n        /* \"#utility.yul\":1420:1424   */\n      0x00\n        /* \"#utility.yul\":1458:1460   */\n      0x20\n        /* \"#utility.yul\":1447:1456   */\n      dup3\n        /* \"#utility.yul\":1443:1461   */\n      add\n        /* \"#utility.yul\":1435:1461   */\n      swap1\n      pop\n        /* \"#utility.yul\":1471:1549   */\n      tag_90\n        /* \"#utility.yul\":1546:1547   */\n      0x00\n        /* \"#utility.yul\":1535:1544   */\n      dup4\n        /* \"#utility.yul\":1531:1548   */\n      add\n        /* \"#utility.yul\":1522:1528   */\n      dup5\n        /* \"#utility.yul\":1471:1549   */\n      tag_58\n      jump\t// in\n    tag_90:\n        /* \"#utility.yul\":1320:1556   */\n      swap3\n      swap2\n      pop\n      pop\n      jump\t// out\n        /* \"#utility.yul\":1562:1652   */\n    tag_59:\n        /* \"#utility.yul\":1596:1603   */\n      0x00\n        /* \"#utility.yul\":1639:1644   */\n      dup2\n        /* \"#utility.yul\":1632:1645   */\n      iszero\n        /* \"#utility.yul\":1625:1646   */\n      iszero\n        /* \"#utility.yul\":1614:1646   */\n      swap1\n      pop\n        /* \"#utility.yul\":1562:1652   */\n      swap2\n      swap1\n      pop\n      jump\t// out\n        /* \"#utility.yul\":1658:1767   */\n    tag_60:\n        /* \"#utility.yul\":1739:1760   */\n      tag_93\n        /* \"#utility.yul\":1754:1759   */\n      dup2\n        /* \"#utility.yul\":1739:1760   */\n      tag_59\n      jump\t// in\n    tag_93:\n        /* \"#utility.yul\":1734:1737   */\n      dup3\n        /* \"#utility.yul\":1727:1761   */\n      mstore\n        /* \"#utility.yul\":1658:1767   */\n      pop\n      pop\n      jump\t// out\n        /* \"#utility.yul\":1773:1983   */\n    tag_22:\n        /* \"#utility.yul\":1860:1864   */\n      0x00\n        /* \"#utility.yul\":1898:1900   */\n      0x20\n        /* \"#utility.yul\":1887:1896   */\n      dup3\n        /* \"#utility.yul\":1883:1901   */\n      add\n        /* \"#utility.yul\":1875:1901   */\n      swap1\n      pop\n        /* \"#utility.yul\":1911:1976   */\n      tag_95\n        /* \"#utility.yul\":1973:1974   */\n      0x00\n        /* \"#utility.yul\":1962:1971   */\n      dup4\n        /* \"#utility.yul\":1958:1975   */\n      add\n        /* \"#utility.yul\":1949:1955   */\n      dup5\n        /* \"#utility.yul\":1911:1976   */\n      tag_60\n      jump\t// in\n    tag_95:\n        /* \"#utility.yul\":1773:1983   */\n      swap3\n      swap2\n      pop\n      pop\n      jump\t// out\n        /* \"#utility.yul\":1989:2088   */\n    tag_61:\n        /* \"#utility.yul\":2041:2047   */\n      0x00\n        /* \"#utility.yul\":2075:2080   */\n      dup2\n        /* \"#utility.yul\":2069:2081   */\n      mload\n        /* \"#utility.yul\":2059:2081   */\n      swap1\n      pop\n        /* \"#utility.yul\":1989:2088   */\n      swap2\n      swap1\n      pop\n      jump\t// out\n        /* \"#utility.yul\":2094:2263   */\n    tag_62:\n        /* \"#utility.yul\":2178:2189   */\n      0x00\n        /* \"#utility.yul\":2212:2218   */\n      dup3\n        /* \"#utility.yul\":2207:2210   */\n      dup3\n        /* \"#utility.yul\":2200:2219   */\n      mstore\n        /* \"#utility.yul\":2252:2256   */\n      0x20\n        /* \"#utility.yul\":2247:2250   */\n      dup3\n        /* \"#utility.yul\":2243:2257   */\n      add\n        /* \"#utility.yul\":2228:2257   */\n      swap1\n      pop\n        /* \"#utility.yul\":2094:2263   */\n      swap3\n      swap2\n      pop\n      pop\n      jump\t// out\n        /* \"#utility.yul\":2269:2408   */\n    tag_63:\n        /* \"#utility.yul\":2358:2364   */\n      dup3\n        /* \"#utility.yul\":2353:2356   */\n      dup2\n        /* \"#utility.yul\":2348:2351   */\n      dup4\n        /* \"#utility.yul\":2342:2365   */\n      mcopy\n        /* \"#utility.yul\":2399:2400   */\n      0x00\n        /* \"#utility.yul\":2390:2396   */\n      dup4\n        /* \"#utility.yul\":2385:2388   */\n      dup4\n        /* \"#utility.yul\":2381:2397   */\n      add\n        /* \"#utility.yul\":2374:2401   */\n      mstore\n        /* \"#utility.yul\":2269:2408   */\n      pop\n      pop\n      pop\n      jump\t// out\n        /* \"#utility.yul\":2414:2516   */\n    tag_64:\n        /* \"#utility.yul\":2455:2461   */\n      0x00\n        /* \"#utility.yul\":2506:2508   */\n      0x1f\n        /* \"#utility.yul\":2502:2509   */\n      not\n        /* \"#utility.yul\":2497:2499   */\n      0x1f\n        /* \"#utility.yul\":2490:2495   */\n      dup4\n        /* \"#utility.yul\":2486:2500   */\n      add\n        /* \"#utility.yul\":2482:2510   */\n      and\n        /* \"#utility.yul\":2472:2510   */\n      swap1\n      pop\n        /* \"#utility.yul\":2414:2516   */\n      swap2\n      swap1\n      pop\n      jump\t// out\n        /* \"#utility.yul\":2522:2899   */\n    tag_65:\n        /* \"#utility.yul\":2610:2613   */\n      0x00\n        /* \"#utility.yul\":2638:2677   */\n      tag_101\n        /* \"#utility.yul\":2671:2676   */\n      dup3\n        /* \"#utility.yul\":2638:2677   */\n      tag_61\n      jump\t// in\n    tag_101:\n        /* \"#utility.yul\":2693:2764   */\n      tag_102\n        /* \"#utility.yul\":2757:2763   */\n      dup2\n        /* \"#utility.yul\":2752:2755   */\n      dup6\n        /* \"#utility.yul\":2693:2764   */\n      tag_62\n      jump\t// in\n    tag_102:\n        /* \"#utility.yul\":2686:2764   */\n      swap4\n      pop\n        /* \"#utility.yul\":2773:2838   */\n      tag_103\n        /* \"#utility.yul\":2831:2837   */\n      dup2\n        /* \"#utility.yul\":2826:2829   */\n      dup6\n        /* \"#utility.yul\":2819:2823   */\n      0x20\n        /* \"#utility.yul\":2812:2817   */\n      dup7\n        /* \"#utility.yul\":2808:2824   */\n      add\n        /* \"#utility.yul\":2773:2838   */\n      tag_63\n      jump\t// in\n    tag_103:\n        /* \"#utility.yul\":2863:2892   */\n      tag_104\n        /* \"#utility.yul\":2885:2891   */\n      dup2\n        /* \"#utility.yul\":2863:2892   */\n      tag_64\n      jump\t// in\n    tag_104:\n        /* \"#utility.yul\":2858:2861   */\n      dup5\n        /* \"#utility.yul\":2854:2893   */\n      add\n        /* \"#utility.yul\":2847:2893   */\n      swap2\n      pop\n        /* \"#utility.yul\":2614:2899   */\n      pop\n        /* \"#utility.yul\":2522:2899   */\n      swap3\n      swap2\n      pop\n      pop\n      jump\t// out\n        /* \"#utility.yul\":2905:3218   */\n    tag_26:\n        /* \"#utility.yul\":3018:3022   */\n      0x00\n        /* \"#utility.yul\":3056:3058   */\n      0x20\n        /* \"#utility.yul\":3045:3054   */\n      dup3\n        /* \"#utility.yul\":3041:3059   */\n      add\n        /* \"#utility.yul\":3033:3059   */\n      swap1\n      pop\n        /* \"#utility.yul\":3105:3114   */\n      dup2\n        /* \"#utility.yul\":3099:3103   */\n      dup2\n        /* \"#utility.yul\":3095:3115   */\n      sub\n        /* \"#utility.yul\":3091:3092   */\n      0x00\n        /* \"#utility.yul\":3080:3089   */\n      dup4\n        /* \"#utility.yul\":3076:3093   */\n      add\n        /* \"#utility.yul\":3069:3116   */\n      mstore\n        /* \"#utility.yul\":3133:3211   */\n      tag_106\n        /* \"#utility.yul\":3206:3210   */\n      dup2\n        /* \"#utility.yul\":3197:3203   */\n      dup5\n        /* \"#utility.yul\":3133:3211   */\n      tag_65\n      jump\t// in\n    tag_106:\n        /* \"#utility.yul\":3125:3211   */\n      swap1\n      pop\n        /* \"#utility.yul\":2905:3218   */\n      swap3\n      swap2\n      pop\n      pop\n      jump\t// out\n        /* \"#utility.yul\":3224:3301   */\n    tag_66:\n        /* \"#utility.yul\":3261:3268   */\n      0x00\n        /* \"#utility.yul\":3290:3295   */\n      dup2\n        /* \"#utility.yul\":3279:3295   */\n      swap1\n      pop\n        /* \"#utility.yul\":3224:3301   */\n      swap2\n      swap1\n      pop\n      jump\t// out\n        /* \"#utility.yul\":3307:3425   */\n    tag_67:\n        /* \"#utility.yul\":3394:3418   */\n      tag_109\n        /* \"#utility.yul\":3412:3417   */\n      dup2\n        /* \"#utility.yul\":3394:3418   */\n      tag_66\n      jump\t// in\n    tag_109:\n        /* \"#utility.yul\":3389:3392   */\n      dup3\n        /* \"#utility.yul\":3382:3419   */\n      mstore\n        /* \"#utility.yul\":3307:3425   */\n      pop\n      pop\n      jump\t// out\n        /* \"#utility.yul\":3431:3653   */\n    tag_30:\n        /* \"#utility.yul\":3524:3528   */\n      0x00\n        /* \"#utility.yul\":3562:3564   */\n      0x20\n        /* \"#utility.yul\":3551:3560   */\n      dup3\n        /* \"#utility.yul\":3547:3565   */\n      add\n        /* \"#utility.yul\":3539:3565   */\n      swap1\n      pop\n        /* \"#utility.yul\":3575:3646   */\n      tag_111\n        /* \"#utility.yul\":3643:3644   */\n      0x00\n        /* \"#utility.yul\":3632:3641   */\n      dup4\n        /* \"#utility.yul\":3628:3645   */\n      add\n        /* \"#utility.yul\":3619:3625   */\n      dup5\n        /* \"#utility.yul\":3575:3646   */\n      tag_67\n      jump\t// in\n    tag_111:\n        /* \"#utility.yul\":3431:3653   */\n      swap3\n      swap2\n      pop\n      pop\n      jump\t// out\n        /* \"#utility.yul\":3659:3736   */\n    tag_68:\n        /* \"#utility.yul\":3696:3703   */\n      0x00\n        /* \"#utility.yul\":3725:3730   */\n      dup2\n        /* \"#utility.yul\":3714:3730   */\n      swap1\n      pop\n        /* \"#utility.yul\":3659:3736   */\n      swap2\n      swap1\n      pop\n      jump\t// out\n        /* \"#utility.yul\":3742:3860   */\n    tag_69:\n        /* \"#utility.yul\":3829:3853   */\n      tag_114\n        /* \"#utility.yul\":3847:3852   */\n      dup2\n        /* \"#utility.yul\":3829:3853   */\n      tag_68\n      jump\t// in\n    tag_114:\n        /* \"#utility.yul\":3824:3827   */\n      dup3\n        /* \"#utility.yul\":3817:3854   */\n      mstore\n        /* \"#utility.yul\":3742:3860   */\n      pop\n      pop\n      jump\t// out\n        /* \"#utility.yul\":3866:4734   */\n    tag_34:\n        /* \"#utility.yul\":4120:4124   */\n      0x00\n        /* \"#utility.yul\":4158:4161   */\n      0xc0\n        /* \"#utility.yul\":4147:4156   */\n      dup3\n        /* \"#utility.yul\":4143:4162   */\n      add\n        /* \"#utility.yul\":4135:4162   */\n      swap1\n      pop\n        /* \"#utility.yul\":4172:4243   */\n      tag_116\n        /* \"#utility.yul\":4240:4241   */\n      0x00\n        /* \"#utility.yul\":4229:4238   */\n      dup4\n        /* \"#utility.yul\":4225:4242   */\n      add\n        /* \"#utility.yul\":4216:4222   */\n      dup10\n        /* \"#utility.yul\":4172:4243   */\n      tag_69\n      jump\t// in\n    tag_116:\n        /* \"#utility.yul\":4253:4319   */\n      tag_117\n        /* \"#utility.yul\":4315:4317   */\n      0x20\n        /* \"#utility.yul\":4304:4313   */\n      dup4\n        /* \"#utility.yul\":4300:4318   */\n      add\n        /* \"#utility.yul\":4291:4297   */\n      dup9\n        /* \"#utility.yul\":4253:4319   */\n      tag_60\n      jump\t// in\n    tag_117:\n        /* \"#utility.yul\":4366:4375   */\n      dup2\n        /* \"#utility.yul\":4360:4364   */\n      dup2\n        /* \"#utility.yul\":4356:4376   */\n      sub\n        /* \"#utility.yul\":4351:4353   */\n      0x40\n        /* \"#utility.yul\":4340:4349   */\n      dup4\n        /* \"#utility.yul\":4336:4354   */\n      add\n        /* \"#utility.yul\":4329:4377   */\n      mstore\n        /* \"#utility.yul\":4394:4472   */\n      tag_118\n        /* \"#utility.yul\":4467:4471   */\n      dup2\n        /* \"#utility.yul\":4458:4464   */\n      dup8\n        /* \"#utility.yul\":4394:4472   */\n      tag_65\n      jump\t// in\n    tag_118:\n        /* \"#utility.yul\":4386:4472   */\n      swap1\n      pop\n        /* \"#utility.yul\":4482:4554   */\n      tag_119\n        /* \"#utility.yul\":4550:4552   */\n      0x60\n        /* \"#utility.yul\":4539:4548   */\n      dup4\n        /* \"#utility.yul\":4535:4553   */\n      add\n        /* \"#utility.yul\":4526:4532   */\n      dup7\n        /* \"#utility.yul\":4482:4554   */\n      tag_53\n      jump\t// in\n    tag_119:\n        /* \"#utility.yul\":4564:4637   */\n      tag_120\n        /* \"#utility.yul\":4632:4635   */\n      0x80\n        /* \"#utility.yul\":4621:4630   */\n      dup4\n        /* \"#utility.yul\":4617:4636   */\n      add\n        /* \"#utility.yul\":4608:4614   */\n      dup6\n        /* \"#utility.yul\":4564:4637   */\n      tag_67\n      jump\t// in\n    tag_120:\n        /* \"#utility.yul\":4647:4727   */\n      tag_121\n        /* \"#utility.yul\":4722:4725   */\n      0xa0\n        /* \"#utility.yul\":4711:4720   */\n      dup4\n        /* \"#utility.yul\":4707:4726   */\n      add\n        /* \"#utility.yul\":4698:4704   */\n      dup5\n        /* \"#utility.yul\":4647:4727   */\n      tag_58\n      jump\t// in\n    tag_121:\n        /* \"#utility.yul\":3866:4734   */\n      swap8\n      swap7\n      pop\n      pop\n      pop\n      pop\n      pop\n      pop\n      pop\n      jump\t// out\n        /* \"#utility.yul\":4740:4962   */\n    tag_38:\n        /* \"#utility.yul\":4833:4837   */\n      0x00\n        /* \"#utility.yul\":4871:4873   */\n      0x20\n        /* \"#utility.yul\":4860:4869   */\n      dup3\n        /* \"#utility.yul\":4856:4874   */\n      add\n        /* \"#utility.yul\":4848:4874   */\n      swap1\n      pop\n        /* \"#utility.yul\":4884:4955   */\n      tag_123\n        /* \"#utility.yul\":4952:4953   */\n      0x00\n        /* \"#utility.yul\":4941:4950   */\n      dup4\n        /* \"#utility.yul\":4937:4954   */\n      add\n        /* \"#utility.yul\":4928:4934   */\n      dup5\n        /* \"#utility.yul\":4884:4955   */\n      tag_69\n      jump\t// in\n    tag_123:\n        /* \"#utility.yul\":4740:4962   */\n      swap3\n      swap2\n      pop\n      pop\n      jump\t// out\n        /* \"#utility.yul\":4968:5148   */\n    tag_70:\n        /* \"#utility.yul\":5016:5093   */\n      0x4e487b7100000000000000000000000000000000000000000000000000000000\n        /* \"#utility.yul\":5013:5014   */\n      0x00\n        /* \"#utility.yul\":5006:5094   */\n      mstore\n        /* \"#utility.yul\":5113:5117   */\n      0x22\n        /* \"#utility.yul\":5110:5111   */\n      0x04\n        /* \"#utility.yul\":5103:5118   */\n      mstore\n        /* \"#utility.yul\":5137:5141   */\n      0x24\n        /* \"#utility.yul\":5134:5135   */\n      0x00\n        /* \"#utility.yul\":5127:5142   */\n      revert\n        /* \"#utility.yul\":5154:5474   */\n    tag_40:\n        /* \"#utility.yul\":5198:5204   */\n      0x00\n        /* \"#utility.yul\":5235:5236   */\n      0x02\n        /* \"#utility.yul\":5229:5233   */\n      dup3\n        /* \"#utility.yul\":5225:5237   */\n      div\n        /* \"#utility.yul\":5215:5237   */\n      swap1\n      pop\n        /* \"#utility.yul\":5282:5283   */\n      0x01\n        /* \"#utility.yul\":5276:5280   */\n      dup3\n        /* \"#utility.yul\":5272:5284   */\n      and\n        /* \"#utility.yul\":5303:5321   */\n      dup1\n        /* \"#utility.yul\":5293:5374   */\n      tag_126\n      jumpi\n        /* \"#utility.yul\":5359:5363   */\n      0x7f\n        /* \"#utility.yul\":5351:5357   */\n      dup3\n        /* \"#utility.yul\":5347:5364   */\n      and\n        /* \"#utility.yul\":5337:5364   */\n      swap2\n      pop\n        /* \"#utility.yul\":5293:5374   */\n    tag_126:\n        /* \"#utility.yul\":5421:5423   */\n      0x20\n        /* \"#utility.yul\":5413:5419   */\n      dup3\n        /* \"#utility.yul\":5410:5424   */\n      lt\n        /* \"#utility.yul\":5390:5408   */\n      dup2\n        /* \"#utility.yul\":5387:5425   */\n      sub\n        /* \"#utility.yul\":5384:5468   */\n      tag_127\n      jumpi\n        /* \"#utility.yul\":5440:5458   */\n      tag_128\n      tag_70\n      jump\t// in\n    tag_128:\n        /* \"#utility.yul\":5384:5468   */\n    tag_127:\n        /* \"#utility.yul\":5205:5474   */\n      pop\n        /* \"#utility.yul\":5154:5474   */\n      swap2\n      swap1\n      pop\n      jump\t// out\n\n    auxdata: 0xa2646970667358221220bc1e504442ceb34adaeec4ea721344869fc974fefbc2b6ef4ec32a4380bf820464736f6c634300081e0033\n}\n",
				"bytecode": {
					"linkReferences": {},
					"object": "6080604052348015600e575f5ffd5b506106248061001c5f395ff3fe608060405234801561000f575f5ffd5b506004361061007b575f3560e01c806383dfe5fd1161005957806383dfe5fd146100d957806392bbf6e8146100f7578063e313e12514610115578063f446c1d0146101385761007b565b80630f529ba21461007f57806328811f591461009d57806332e7c5bf146100bb575b5f5ffd5b610087610156565b6040516100949190610361565b60405180910390f35b6100a561017b565b6040516100b291906103ed565b60405180910390f35b6100c361018d565b6040516100d09190610420565b60405180910390f35b6100e161019f565b6040516100ee91906104a9565b60405180910390f35b6100ff61022b565b60405161010c91906104e1565b60405180910390f35b61011d610231565b60405161012f96959493929190610512565b60405180910390f35b61014061031d565b60405161014d9190610578565b60405180910390f35b60035f9054906101000a900473ffffffffffffffffffffffffffffffffffffffff1681565b60055f9054906101000a900460ff1681565b60015f9054906101000a900460ff1681565b600280546101ac906105be565b80601f01602080910402602001604051908101604052809291908181526020018280546101d8906105be565b80156102235780601f106101fa57610100808354040283529160200191610223565b820191905f5260205f20905b81548152906001019060200180831161020657829003601f168201915b505050505081565b60045481565b5f5f60605f5f5f5f5460015f9054906101000a900460ff16600260035f9054906101000a900473ffffffffffffffffffffffffffffffffffffffff1660045460055f9054906101000a900460ff1683805461028b906105be565b80601f01602080910402602001604051908101604052809291908181526020018280546102b7906105be565b80156103025780601f106102d957610100808354040283529160200191610302565b820191905f5260205f20905b8154815290600101906020018083116102e557829003601f168201915b50505050509350955095509550955095509550909192939495565b5f5481565b5f73ffffffffffffffffffffffffffffffffffffffff82169050919050565b5f61034b82610322565b9050919050565b61035b81610341565b82525050565b5f6020820190506103745f830184610352565b92915050565b7f4e487b71000000000000000000000000000000000000000000000000000000005f52602160045260245ffd5b600381106103b8576103b761037a565b5b50565b5f8190506103c8826103a7565b919050565b5f6103d7826103bb565b9050919050565b6103e7816103cd565b82525050565b5f6020820190506104005f8301846103de565b92915050565b5f8115159050919050565b61041a81610406565b82525050565b5f6020820190506104335f830184610411565b92915050565b5f81519050919050565b5f82825260208201905092915050565b8281835e5f83830152505050565b5f601f19601f8301169050919050565b5f61047b82610439565b6104858185610443565b9350610495818560208601610453565b61049e81610461565b840191505092915050565b5f6020820190508181035f8301526104c18184610471565b905092915050565b5f819050919050565b6104db816104c9565b82525050565b5f6020820190506104f45f8301846104d2565b92915050565b5f819050919050565b61050c816104fa565b82525050565b5f60c0820190506105255f830189610503565b6105326020830188610411565b81810360408301526105448187610471565b90506105536060830186610352565b61056060808301856104d2565b61056d60a08301846103de565b979650505050505050565b5f60208201905061058b5f830184610503565b92915050565b7f4e487b71000000000000000000000000000000000000000000000000000000005f52602260045260245ffd5b5f60028204905060018216806105d557607f821691505b6020821081036105e8576105e7610591565b5b5091905056fea2646970667358221220bc1e504442ceb34adaeec4ea721344869fc974fefbc2b6ef4ec32a4380bf820464736f6c634300081e0033",
					"opcodes": "PUSH1 0x80 PUSH1 0x40 MSTORE CALLVALUE DUP1 ISZERO PUSH1 0xE JUMPI PUSH0 PUSH0 REVERT JUMPDEST POP PUSH2 0x624 DUP1 PUSH2 0x1C PUSH0 CODECOPY PUSH0 RETURN INVALID PUSH1 0x80 PUSH1 0x40 MSTORE CALLVALUE DUP1 ISZERO PUSH2 0xF JUMPI PUSH0 PUSH0 REVERT JUMPDEST POP PUSH1 0x4 CALLDATASIZE LT PUSH2 0x7B JUMPI PUSH0 CALLDATALOAD PUSH1 0xE0 SHR DUP1 PUSH4 0x83DFE5FD GT PUSH2 0x59 JUMPI DUP1 PUSH4 0x83DFE5FD EQ PUSH2 0xD9 JUMPI DUP1 PUSH4 0x92BBF6E8 EQ PUSH2 0xF7 JUMPI DUP1 PUSH4 0xE313E125 EQ PUSH2 0x115 JUMPI DUP1 PUSH4 0xF446C1D0 EQ PUSH2 0x138 JUMPI PUSH2 0x7B JUMP JUMPDEST DUP1 PUSH4 0xF529BA2 EQ PUSH2 0x7F JUMPI DUP1 PUSH4 0x28811F59 EQ PUSH2 0x9D JUMPI DUP1 PUSH4 0x32E7C5BF EQ PUSH2 0xBB JUMPI JUMPDEST PUSH0 PUSH0 REVERT JUMPDEST PUSH2 0x87 PUSH2 0x156 JUMP JUMPDEST PUSH1 0x40 MLOAD PUSH2 0x94 SWAP2 SWAP1 PUSH2 0x361 JUMP JUMPDEST PUSH1 0x40 MLOAD DUP1 SWAP2 SUB SWAP1 RETURN JUMPDEST PUSH2 0xA5 PUSH2 0x17B JUMP JUMPDEST PUSH1 0x40 MLOAD PUSH2 0xB2 SWAP2 SWAP1 PUSH2 0x3ED JUMP JUMPDEST PUSH1 0x40 MLOAD DUP1 SWAP2 SUB SWAP1 RETURN JUMPDEST PUSH2 0xC3 PUSH2 0x18D JUMP JUMPDEST PUSH1 0x40 MLOAD PUSH2 0xD0 SWAP2 SWAP1 PUSH2 0x420 JUMP JUMPDEST PUSH1 0x40 MLOAD DUP1 SWAP2 SUB SWAP1 RETURN JUMPDEST PUSH2 0xE1 PUSH2 0x19F JUMP JUMPDEST PUSH1 0x40 MLOAD PUSH2 0xEE SWAP2 SWAP1 PUSH2 0x4A9 JUMP JUMPDEST PUSH1 0x40 MLOAD DUP1 SWAP2 SUB SWAP1 RETURN JUMPDEST PUSH2 0xFF PUSH2 0x22B JUMP JUMPDEST PUSH1 0x40 MLOAD PUSH2 0x10C SWAP2 SWAP1 PUSH2 0x4E1 JUMP JUMPDEST PUSH1 0x40 MLOAD DUP1 SWAP2 SUB SWAP1 RETURN JUMPDEST PUSH2 0x11D PUSH2 0x231 JUMP JUMPDEST PUSH1 0x40 MLOAD PUSH2 0x12F SWAP7 SWAP6 SWAP5 SWAP4 SWAP3 SWAP2 SWAP1 PUSH2 0x512 JUMP JUMPDEST PUSH1 0x40 MLOAD DUP1 SWAP2 SUB SWAP1 RETURN JUMPDEST PUSH2 0x140 PUSH2 0x31D JUMP JUMPDEST PUSH1 0x40 MLOAD PUSH2 0x14D SWAP2 SWAP1 PUSH2 0x578 JUMP JUMPDEST PUSH1 0x40 MLOAD DUP1 SWAP2 SUB SWAP1 RETURN JUMPDEST PUSH1 0x3 PUSH0 SWAP1 SLOAD SWAP1 PUSH2 0x100 EXP SWAP1 DIV PUSH20 0xFFFFFFFFFFFFFFFFFFFFFFFFFFFFFFFFFFFFFFFF AND DUP2 JUMP JUMPDEST PUSH1 0x5 PUSH0 SWAP1 SLOAD SWAP1 PUSH2 0x100 EXP SWAP1 DIV PUSH1 0xFF AND DUP2 JUMP JUMPDEST PUSH1 0x1 PUSH0 SWAP1 SLOAD SWAP1 PUSH2 0x100 EXP SWAP1 DIV PUSH1 0xFF AND DUP2 JUMP JUMPDEST PUSH1 0x2 DUP1 SLOAD PUSH2 0x1AC SWAP1 PUSH2 0x5BE JUMP JUMPDEST DUP1 PUSH1 0x1F ADD PUSH1 0x20 DUP1 SWAP2 DIV MUL PUSH1 0x20 ADD PUSH1 0x40 MLOAD SWAP1 DUP2 ADD PUSH1 0x40 MSTORE DUP1 SWAP3 SWAP2 SWAP1 DUP2 DUP2 MSTORE PUSH1 0x20 ADD DUP3 DUP1 SLOAD PUSH2 0x1D8 SWAP1 PUSH2 0x5BE JUMP JUMPDEST DUP1 ISZERO PUSH2 0x223 JUMPI DUP1 PUSH1 0x1F LT PUSH2 0x1FA JUMPI PUSH2 0x100 DUP1 DUP4 SLOAD DIV MUL DUP4 MSTORE SWAP2 PUSH1 0x20 ADD SWAP2 PUSH2 0x223 JUMP JUMPDEST DUP3 ADD SWAP2 SWAP1 PUSH0 MSTORE PUSH1 0x20 PUSH0 KECCAK256 SWAP1 JUMPDEST DUP2 SLOAD DUP2 MSTORE SWAP1 PUSH1 0x1 ADD SWAP1 PUSH1 0x20 ADD DUP1 DUP4 GT PUSH2 0x206 JUMPI DUP3 SWAP1 SUB PUSH1 0x1F AND DUP3 ADD SWAP2 JUMPDEST POP POP POP POP POP DUP2 JUMP JUMPDEST PUSH1 0x4 SLOAD DUP2 JUMP JUMPDEST PUSH0 PUSH0 PUSH1 0x60 PUSH0 PUSH0 PUSH0 PUSH0 SLOAD PUSH1 0x1 PUSH0 SWAP1 SLOAD SWAP1 PUSH2 0x100 EXP SWAP1 DIV PUSH1 0xFF AND PUSH1 0x2 PUSH1 0x3 PUSH0 SWAP1 SLOAD SWAP1 PUSH2 0x100 EXP SWAP1 DIV PUSH20 0xFFFFFFFFFFFFFFFFFFFFFFFFFFFFFFFFFFFFFFFF AND PUSH1 0x4 SLOAD PUSH1 0x5 PUSH0 SWAP1 SLOAD SWAP1 PUSH2 0x100 EXP SWAP1 DIV PUSH1 0xFF AND DUP4 DUP1 SLOAD PUSH2 0x28B SWAP1 PUSH2 0x5BE JUMP JUMPDEST DUP1 PUSH1 0x1F ADD PUSH1 0x20 DUP1 SWAP2 DIV MUL PUSH1 0x20 ADD PUSH1 0x40 MLOAD SWAP1 DUP2 ADD PUSH1 0x40 MSTORE DUP1 SWAP3 SWAP2 SWAP1 DUP2 DUP2 MSTORE PUSH1 0x20 ADD DUP3 DUP1 SLOAD PUSH2 0x2B7 SWAP1 PUSH2 0x5BE JUMP JUMPDEST DUP1 ISZERO PUSH2 0x302 JUMPI DUP1 PUSH1 0x1F LT PUSH2 0x2D9 JUMPI PUSH2 0x100 DUP1 DUP4 SLOAD DIV MUL DUP4 MSTORE SWAP2 PUSH1 0x20 ADD SWAP2 PUSH2 0x302 JUMP JUMPDEST DUP3 ADD SWAP2 SWAP1 PUSH0 MSTORE PUSH1 0x20 PUSH0 KECCAK256 SWAP1 JUMPDEST DUP2 SLOAD DUP2 MSTORE SWAP1 PUSH1 0x1 ADD SWAP1 PUSH1 0x20 ADD DUP1 DUP4 GT PUSH2 0x2E5 JUMPI DUP3 SWAP1 SUB PUSH1 0x1F AND DUP3 ADD SWAP2 JUMPDEST POP POP POP POP POP SWAP4 POP SWAP6 POP SWAP6 POP SWAP6 POP SWAP6 POP SWAP6 POP SWAP6 POP SWAP1 SWAP2 SWAP3 SWAP4 SWAP5 SWAP6 JUMP JUMPDEST PUSH0 SLOAD DUP2 JUMP JUMPDEST PUSH0 PUSH20 0xFFFFFFFFFFFFFFFFFFFFFFFFFFFFFFFFFFFFFFFF DUP3 AND SWAP1 POP SWAP2 SWAP1 POP JUMP JUMPDEST PUSH0 PUSH2 0x34B DUP3 PUSH2 0x322 JUMP JUMPDEST SWAP1 POP SWAP2 SWAP1 POP JUMP JUMPDEST PUSH2 0x35B DUP2 PUSH2 0x341 JUMP JUMPDEST DUP3 MSTORE POP POP JUMP JUMPDEST PUSH0 PUSH1 0x20 DUP3 ADD SWAP1 POP PUSH2 0x374 PUSH0 DUP4 ADD DUP5 PUSH2 0x352 JUMP JUMPDEST SWAP3 SWAP2 POP POP JUMP JUMPDEST PUSH32 0x4E487B7100000000000000000000000000000000000000000000000000000000 PUSH0 MSTORE PUSH1 0x21 PUSH1 0x4 MSTORE PUSH1 0x24 PUSH0 REVERT JUMPDEST PUSH1 0x3 DUP2 LT PUSH2 0x3B8 JUMPI PUSH2 0x3B7 PUSH2 0x37A JUMP JUMPDEST JUMPDEST POP JUMP JUMPDEST PUSH0 DUP2 SWAP1 POP PUSH2 0x3C8 DUP3 PUSH2 0x3A7 JUMP JUMPDEST SWAP2 SWAP1 POP JUMP JUMPDEST PUSH0 PUSH2 0x3D7 DUP3 PUSH2 0x3BB JUMP JUMPDEST SWAP1 POP SWAP2 SWAP1 POP JUMP JUMPDEST PUSH2 0x3E7 DUP2 PUSH2 0x3CD JUMP JUMPDEST DUP3 MSTORE POP POP JUMP JUMPDEST PUSH0 PUSH1 0x20 DUP3 ADD SWAP1 POP PUSH2 0x400 PUSH0 DUP4 ADD DUP5 PUSH2 0x3DE JUMP JUMPDEST SWAP3 SWAP2 POP POP JUMP JUMPDEST PUSH0 DUP2 ISZERO ISZERO SWAP1 POP SWAP2 SWAP1 POP JUMP JUMPDEST PUSH2 0x41A DUP2 PUSH2 0x406 JUMP JUMPDEST DUP3 MSTORE POP POP JUMP JUMPDEST PUSH0 PUSH1 0x20 DUP3 ADD SWAP1 POP PUSH2 0x433 PUSH0 DUP4 ADD DUP5 PUSH2 0x411 JUMP JUMPDEST SWAP3 SWAP2 POP POP JUMP JUMPDEST PUSH0 DUP2 MLOAD SWAP1 POP SWAP2 SWAP1 POP JUMP JUMPDEST PUSH0 DUP3 DUP3 MSTORE PUSH1 0x20 DUP3 ADD SWAP1 POP SWAP3 SWAP2 POP POP JUMP JUMPDEST DUP3 DUP2 DUP4 MCOPY PUSH0 DUP4 DUP4 ADD MSTORE POP POP POP JUMP JUMPDEST PUSH0 PUSH1 0x1F NOT PUSH1 0x1F DUP4 ADD AND SWAP1 POP SWAP2 SWAP1 POP JUMP JUMPDEST PUSH0 PUSH2 0x47B DUP3 PUSH2 0x439 JUMP JUMPDEST PUSH2 0x485 DUP2 DUP6 PUSH2 0x443 JUMP JUMPDEST SWAP4 POP PUSH2 0x495 DUP2 DUP6 PUSH1 0x20 DUP7 ADD PUSH2 0x453 JUMP JUMPDEST PUSH2 0x49E DUP2 PUSH2 0x461 JUMP JUMPDEST DUP5 ADD SWAP2 POP POP SWAP3 SWAP2 POP POP JUMP JUMPDEST PUSH0 PUSH1 0x20 DUP3 ADD SWAP1 POP DUP2 DUP2 SUB PUSH0 DUP4 ADD MSTORE PUSH2 0x4C1 DUP2 DUP5 PUSH2 0x471 JUMP JUMPDEST SWAP1 POP SWAP3 SWAP2 POP POP JUMP JUMPDEST PUSH0 DUP2 SWAP1 POP SWAP2 SWAP1 POP JUMP JUMPDEST PUSH2 0x4DB DUP2 PUSH2 0x4C9 JUMP JUMPDEST DUP3 MSTORE POP POP JUMP JUMPDEST PUSH0 PUSH1 0x20 DUP3 ADD SWAP1 POP PUSH2 0x4F4 PUSH0 DUP4 ADD DUP5 PUSH2 0x4D2 JUMP JUMPDEST SWAP3 SWAP2 POP POP JUMP JUMPDEST PUSH0 DUP2 SWAP1 POP SWAP2 SWAP1 POP JUMP JUMPDEST PUSH2 0x50C DUP2 PUSH2 0x4FA JUMP JUMPDEST DUP3 MSTORE POP POP JUMP JUMPDEST PUSH0 PUSH1 0xC0 DUP3 ADD SWAP1 POP PUSH2 0x525 PUSH0 DUP4 ADD DUP10 PUSH2 0x503 JUMP JUMPDEST PUSH2 0x532 PUSH1 0x20 DUP4 ADD DUP9 PUSH2 0x411 JUMP JUMPDEST DUP2 DUP2 SUB PUSH1 0x40 DUP4 ADD MSTORE PUSH2 0x544 DUP2 DUP8 PUSH2 0x471 JUMP JUMPDEST SWAP1 POP PUSH2 0x553 PUSH1 0x60 DUP4 ADD DUP7 PUSH2 0x352 JUMP JUMPDEST PUSH2 0x560 PUSH1 0x80 DUP4 ADD DUP6 PUSH2 0x4D2 JUMP JUMPDEST PUSH2 0x56D PUSH1 0xA0 DUP4 ADD DUP5 PUSH2 0x3DE JUMP JUMPDEST SWAP8 SWAP7 POP POP POP POP POP POP POP JUMP JUMPDEST PUSH0 PUSH1 0x20 DUP3 ADD SWAP1 POP PUSH2 0x58B PUSH0 DUP4 ADD DUP5 PUSH2 0x503 JUMP JUMPDEST SWAP3 SWAP2 POP POP JUMP JUMPDEST PUSH32 0x4E487B7100000000000000000000000000000000000000000000000000000000 PUSH0 MSTORE PUSH1 0x22 PUSH1 0x4 MSTORE PUSH1 0x24 PUSH0 REVERT JUMPDEST PUSH0 PUSH1 0x2 DUP3 DIV SWAP1 POP PUSH1 0x1 DUP3 AND DUP1 PUSH2 0x5D5 JUMPI PUSH1 0x7F DUP3 AND SWAP2 POP JUMPDEST PUSH1 0x20 DUP3 LT DUP2 SUB PUSH2 0x5E8 JUMPI PUSH2 0x5E7 PUSH2 0x591 JUMP JUMPDEST JUMPDEST POP SWAP2 SWAP1 POP JUMP INVALID LOG2 PUSH5 0x6970667358 0x22 SLT KECCAK256 0xBC 0x1E POP PREVRANDAO TIMESTAMP 0xCE 0xB3 BLOBBASEFEE 0xDA RETURNCONTRACT 0xC4 0xEA PUSH19 0x1344869FC974FEFBC2B6EF4EC32A4380BF8204 PUSH5 0x736F6C6343 STOP ADDMOD 0x1E STOP CALLER "
				},
				"gasEstimates": {
					"creation": {
						"codeDepositCost": "314400",
						"executionCost": "353",
						"totalCost": "314753"
					},
					"external": {
						"A()": "2490",
						"B()": "2511",
						"C()": "infinite",
						"D()": "2509",
						"E()": "2447",
						"F()": "2577",
						"getDefaultValues()": "infinite"
					}
				},
				"methodIdentifiers": {
					"A()": "f446c1d0",
					"B()": "32e7c5bf",
					"C()": "83dfe5fd",
					"D()": "0f529ba2",
					"E()": "92bbf6e8",
					"F()": "28811f59",
					"getDefaultValues()": "e313e125"
				}
			},
			"storageLayout": {
				"storage": [
					{
						"astId": 3,
						"contract": "defaultvalue.sol:DefaultValues",
						"label": "A",
						"offset": 0,
						"slot": "0",
						"type": "t_uint256"
					},
					{
						"astId": 5,
						"contract": "defaultvalue.sol:DefaultValues",
						"label": "B",
						"offset": 0,
						"slot": "1",
						"type": "t_bool"
					},
					{
						"astId": 7,
						"contract": "defaultvalue.sol:DefaultValues",
						"label": "C",
						"offset": 0,
						"slot": "2",
						"type": "t_string_storage"
					},
					{
						"astId": 9,
						"contract": "defaultvalue.sol:DefaultValues",
						"label": "D",
						"offset": 0,
						"slot": "3",
						"type": "t_address"
					},
					{
						"astId": 11,
						"contract": "defaultvalue.sol:DefaultValues",
						"label": "E",
						"offset": 0,
						"slot": "4",
						"type": "t_bytes32"
					},
					{
						"astId": 18,
						"contract": "defaultvalue.sol:DefaultValues",
						"label": "F",
						"offset": 0,
						"slot": "5",
						"type": "t_enum(Status)15"
					}
				],
				"types": {
					"t_address": {
						"encoding": "inplace",
						"label": "address",
						"numberOfBytes": "20"
					},
					"t_bool": {
						"encoding": "inplace",
						"label": "bool",
						"numberOfBytes": "1"
					},
					"t_bytes32": {
						"encoding": "inplace",
						"label": "bytes32",
						"numberOfBytes": "32"
					},
					"t_enum(Status)15": {
						"encoding": "inplace",
						"label": "enum DefaultValues.Status",
						"numberOfBytes": "1"
					},
					"t_string_storage": {
						"encoding": "bytes",
						"label": "string",
						"numberOfBytes": "32"
					},
					"t_uint256": {
						"encoding": "inplace",
						"label": "uint256",
						"numberOfBytes": "32"
					}
				}
			},
			"userdoc": {
				"kind": "user",
				"methods": {},
				"version": 1
			}
		}
	}
}