{
	"data": {
		"bytecode": {
			"linkReferences": {},
			"object": "6080604052348015600e575f5ffd5b5061041f8061001c5f395ff3fe608060405234801561000f575f5ffd5b5060043610610055575f3560e01c80630ff4c916146100595780635b9af12b146100895780639a9bdca7146100a5578063be1c766b146100d5578063d092e186146100f3575b5f5ffd5b610073600480360381019061006e919061025c565b6100fd565b6040516100809190610296565b60405180910390f35b6100a3600480360381019061009e919061025c565b610167565b005b6100bf60048036038101906100ba919061025c565b61018f565b6040516100cc9190610296565b60405180910390f35b6100dd6101ae565b6040516100ea9190610296565b60405180910390f35b6100fb6101b9565b005b5f5f805490508210610144576040517f08c379a000000000000000000000000000000000000000000000000000000000815260040161013b90610309565b60405180910390fd5b5f828154811061015757610156610327565b5b905f5260205f2001549050919050565b5f81908060018154018082558091505060019003905f5260205f20015f909190919091505550565b5f818154811061019d575f80fd5b905f5260205f20015f915090505481565b5f5f80549050905090565b5f5f80549050116101ff576040517f08c379a00000000000000000000000000000000000000000000000000000000081526004016101f69061039e565b60405180910390fd5b5f8054806102105761020f6103bc565b5b600190038181905f5260205f20015f90559055565b5f5ffd5b5f819050919050565b61023b81610229565b8114610245575f5ffd5b50565b5f8135905061025681610232565b92915050565b5f6020828403121561027157610270610225565b5b5f61027e84828501610248565b91505092915050565b61029081610229565b82525050565b5f6020820190506102a95f830184610287565b92915050565b5f82825260208201905092915050565b7f496e646578206f7574206f6620626f756e6473000000000000000000000000005f82015250565b5f6102f36013836102af565b91506102fe826102bf565b602082019050919050565b5f6020820190508181035f830152610320816102e7565b9050919050565b7f4e487b71000000000000000000000000000000000000000000000000000000005f52603260045260245ffd5b7f417272617920697320656d7074790000000000000000000000000000000000005f82015250565b5f610388600e836102af565b915061039382610354565b602082019050919050565b5f6020820190508181035f8301526103b58161037c565b9050919050565b7f4e487b71000000000000000000000000000000000000000000000000000000005f52603160045260245ffdfea26469706673582212200d810a187177ddd021885c27ee127a2d789773299ca6d30667b4769caa2a0c6464736f6c634300081e0033",
			"opcodes": "PUSH1 0x80 PUSH1 0x40 MSTORE CALLVALUE DUP1 ISZERO PUSH1 0xE JUMPI PUSH0 PUSH0 REVERT JUMPDEST POP PUSH2 0x41F DUP1 PUSH2 0x1C PUSH0 CODECOPY PUSH0 RETURN INVALID PUSH1 0x80 PUSH1 0x40 MSTORE CALLVALUE DUP1 ISZERO PUSH2 0xF JUMPI PUSH0 PUSH0 REVERT JUMPDEST POP PUSH1 0x4 CALLDATASIZE LT PUSH2 0x55 JUMPI PUSH0 CALLDATALOAD PUSH1 0xE0 SHR DUP1 PUSH4 0xFF4C916 EQ PUSH2 0x59 JUMPI DUP1 PUSH4 0x5B9AF12B EQ PUSH2 0x89 JUMPI DUP1 PUSH4 0x9A9BDCA7 EQ PUSH2 0xA5 JUMPI DUP1 PUSH4 0xBE1C766B EQ PUSH2 0xD5 JUMPI DUP1 PUSH4 0xD092E186 EQ PUSH2 0xF3 JUMPI JUMPDEST PUSH0 PUSH0 REVERT JUMPDEST PUSH2 0x73 PUSH1 0x4 DUP1 CALLDATASIZE SUB DUP2 ADD SWAP1 PUSH2 0x6E SWAP2 SWAP1 PUSH2 0x25C JUMP JUMPDEST PUSH2 0xFD JUMP JUMPDEST PUSH1 0x40 MLOAD PUSH2 0x80 SWAP2 SWAP1 PUSH2 0x296 JUMP JUMPDEST PUSH1 0x40 MLOAD DUP1 SWAP2 SUB SWAP1 RETURN JUMPDEST PUSH2 0xA3 PUSH1 0x4 DUP1 CALLDATASIZE SUB DUP2 ADD SWAP1 PUSH2 0x9E SWAP2 SWAP1 PUSH2 0x25C JUMP JUMPDEST PUSH2 0x167 JUMP JUMPDEST STOP JUMPDEST PUSH2 0xBF PUSH1 0x4 DUP1 CALLDATASIZE SUB DUP2 ADD SWAP1 PUSH2 0xBA SWAP2 SWAP1 PUSH2 0x25C JUMP JUMPDEST PUSH2 0x18F JUMP JUMPDEST PUSH1 0x40 MLOAD PUSH2 0xCC SWAP2 SWAP1 PUSH2 0x296 JUMP JUMPDEST PUSH1 0x40 MLOAD DUP1 SWAP2 SUB SWAP1 RETURN JUMPDEST PUSH2 0xDD PUSH2 0x1AE JUMP JUMPDEST PUSH1 0x40 MLOAD PUSH2 0xEA SWAP2 SWAP1 PUSH2 0x296 JUMP JUMPDEST PUSH1 0x40 MLOAD DUP1 SWAP2 SUB SWAP1 RETURN JUMPDEST PUSH2 0xFB PUSH2 0x1B9 JUMP JUMPDEST STOP JUMPDEST PUSH0 PUSH0 DUP1 SLOAD SWAP1 POP DUP3 LT PUSH2 0x144 JUMPI PUSH1 0x40 MLOAD PUSH32 0x8C379A000000000000000000000000000000000000000000000000000000000 DUP2 MSTORE PUSH1 0x4 ADD PUSH2 0x13B SWAP1 PUSH2 0x309 JUMP JUMPDEST PUSH1 0x40 MLOAD DUP1 SWAP2 SUB SWAP1 REVERT JUMPDEST PUSH0 DUP3 DUP2 SLOAD DUP2 LT PUSH2 0x157 JUMPI PUSH2 0x156 PUSH2 0x327 JUMP JUMPDEST JUMPDEST SWAP1 PUSH0 MSTORE PUSH1 0x20 PUSH0 KECCAK256 ADD SLOAD SWAP1 POP SWAP2 SWAP1 POP JUMP JUMPDEST PUSH0 DUP2 SWAP1 DUP1 PUSH1 0x1 DUP2 SLOAD ADD DUP1 DUP3 SSTORE DUP1 SWAP2 POP POP PUSH1 0x1 SWAP1 SUB SWAP1 PUSH0 MSTORE PUSH1 0x20 PUSH0 KECCAK256 ADD PUSH0 SWAP1 SWAP2 SWAP1 SWAP2 SWAP1 SWAP2 POP SSTORE POP JUMP JUMPDEST PUSH0 DUP2 DUP2 SLOAD DUP2 LT PUSH2 0x19D JUMPI PUSH0 DUP1 REVERT JUMPDEST SWAP1 PUSH0 MSTORE PUSH1 0x20 PUSH0 KECCAK256 ADD PUSH0 SWAP2 POP SWAP1 POP SLOAD DUP2 JUMP JUMPDEST PUSH0 PUSH0 DUP1 SLOAD SWAP1 POP SWAP1 POP SWAP1 JUMP JUMPDEST PUSH0 PUSH0 DUP1 SLOAD SWAP1 POP GT PUSH2 0x1FF JUMPI PUSH1 0x40 MLOAD PUSH32 0x8C379A000000000000000000000000000000000000000000000000000000000 DUP2 MSTORE PUSH1 0x4 ADD PUSH2 0x1F6 SWAP1 PUSH2 0x39E JUMP JUMPDEST PUSH1 0x40 MLOAD DUP1 SWAP2 SUB SWAP1 REVERT JUMPDEST PUSH0 DUP1 SLOAD DUP1 PUSH2 0x210 JUMPI PUSH2 0x20F PUSH2 0x3BC JUMP JUMPDEST JUMPDEST PUSH1 0x1 SWAP1 SUB DUP2 DUP2 SWAP1 PUSH0 MSTORE PUSH1 0x20 PUSH0 KECCAK256 ADD PUSH0 SWAP1 SSTORE SWAP1 SSTORE JUMP JUMPDEST PUSH0 PUSH0 REVERT JUMPDEST PUSH0 DUP2 SWAP1 POP SWAP2 SWAP1 POP JUMP JUMPDEST PUSH2 0x23B DUP2 PUSH2 0x229 JUMP JUMPDEST DUP2 EQ PUSH2 0x245 JUMPI PUSH0 PUSH0 REVERT JUMPDEST POP JUMP JUMPDEST PUSH0 DUP2 CALLDATALOAD SWAP1 POP PUSH2 0x256 DUP2 PUSH2 0x232 JUMP JUMPDEST SWAP3 SWAP2 POP POP JUMP JUMPDEST PUSH0 PUSH1 0x20 DUP3 DUP5 SUB SLT ISZERO PUSH2 0x271 JUMPI PUSH2 0x270 PUSH2 0x225 JUMP JUMPDEST JUMPDEST PUSH0 PUSH2 0x27E DUP5 DUP3 DUP6 ADD PUSH2 0x248 JUMP JUMPDEST SWAP2 POP POP SWAP3 SWAP2 POP POP JUMP JUMPDEST PUSH2 0x290 DUP2 PUSH2 0x229 JUMP JUMPDEST DUP3 MSTORE POP POP JUMP JUMPDEST PUSH0 PUSH1 0x20 DUP3 ADD SWAP1 POP PUSH2 0x2A9 PUSH0 DUP4 ADD DUP5 PUSH2 0x287 JUMP JUMPDEST SWAP3 SWAP2 POP POP JUMP JUMPDEST PUSH0 DUP3 DUP3 MSTORE PUSH1 0x20 DUP3 ADD SWAP1 POP SWAP3 SWAP2 POP POP JUMP JUMPDEST PUSH32 0x496E646578206F7574206F6620626F756E647300000000000000000000000000 PUSH0 DUP3 ADD MSTORE POP JUMP JUMPDEST PUSH0 PUSH2 0x2F3 PUSH1 0x13 DUP4 PUSH2 0x2AF JUMP JUMPDEST SWAP2 POP PUSH2 0x2FE DUP3 PUSH2 0x2BF JUMP JUMPDEST PUSH1 0x20 DUP3 ADD SWAP1 POP SWAP2 SWAP1 POP JUMP JUMPDEST PUSH0 PUSH1 0x20 DUP3 ADD SWAP1 POP DUP2 DUP2 SUB PUSH0 DUP4 ADD MSTORE PUSH2 0x320 DUP2 PUSH2 0x2E7 JUMP JUMPDEST SWAP1 POP SWAP2 SWAP1 POP JUMP JUMPDEST PUSH32 0x4E487B7100000000000000000000000000000000000000000000000000000000 PUSH0 MSTORE PUSH1 0x32 PUSH1 0x4 MSTORE PUSH1 0x24 PUSH0 REVERT JUMPDEST PUSH32 0x417272617920697320656D707479000000000000000000000000000000000000 PUSH0 DUP3 ADD MSTORE POP JUMP JUMPDEST PUSH0 PUSH2 0x388 PUSH1 0xE DUP4 PUSH2 0x2AF JUMP JUMPDEST SWAP2 POP PUSH2 0x393 DUP3 PUSH2 0x354 JUMP JUMPDEST PUSH1 0x20 DUP3 ADD SWAP1 POP SWAP2 SWAP1 POP JUMP JUMPDEST PUSH0 PUSH1 0x20 DUP3 ADD SWAP1 POP DUP2 DUP2 SUB PUSH0 DUP4 ADD MSTORE PUSH2 0x3B5 DUP2 PUSH2 0x37C JUMP JUMPDEST SWAP1 POP SWAP2 SWAP1 POP JUMP JUMPDEST PUSH32 0x4E487B7100000000000000000000000000000000000000000000000000000000 PUSH0 MSTORE PUSH1 0x31 PUSH1 0x4 MSTORE PUSH1 0x24 PUSH0 REVERT INVALID LOG2 PUSH5 0x6970667358 0x22 SLT KECCAK256 0xD DUP2 EXP XOR PUSH18 0x77DDD021885C27EE127A2D789773299CA6D3 MOD PUSH8 0xB4769CAA2A0C6464 PUSH20 0x6F6C634300081E00330000000000000000000000 "
		},
		"gasEstimates": {
			"creation": {
				"codeDepositCost": "211000",
				"executionCost": "249",
				"totalCost": "211249"
			},
			"external": {
				"addValue(uint256)": "46820",
				"dynamicArray(uint256)": "infinite",
				"getLength()": "2483",
				"getValue(uint256)": "infinite",
				"removeLast()": "31635"
			}
		},
		"methodIdentifiers": {
			"addValue(uint256)": "5b9af12b",
			"dynamicArray(uint256)": "9a9bdca7",
			"getLength()": "be1c766b",
			"getValue(uint256)": "0ff4c916",
			"removeLast()": "d092e186"
		}
	},
	"abi": [
		{
			"inputs": [
				{
					"internalType": "uint256",
					"name": "value",
					"type": "uint256"
				}
			],
			"name": "addValue",
			"outputs": [],
			"stateMutability": "nonpayable",
			"type": "function"
		},
		{
			"inputs": [
				{
					"internalType": "uint256",
					"name": "",
					"type": "uint256"
				}
			],
			"name": "dynamicArray",
			"outputs": [
				{
					"internalType": "uint256",
					"name": "",
					"type": "uint256"
				}
			],
			"stateMutability": "view",
			"type": "function"
		},
		{
			"inputs": [],
			"name": "getLength",
			"outputs": [
				{
					"internalType": "uint256",
					"name": "",
					"type": "uint256"
				}
			],
			"stateMutability": "view",
			"type": "function"
		},
		{
			"inputs": [
				{
					"internalType": "uint256",
					"name": "index",
					"type": "uint256"
				}
			],
			"name": "getValue",
			"outputs": [
				{
					"internalType": "uint256",
					"name": "",
					"type": "uint256"
				}
			],
			"stateMutability": "view",
			"type": "function"
		},
		{
			"inputs": [],
			"name": "removeLast",
			"outputs": [],
			"stateMutability": "nonpayable",
			"type": "function"
		}
	]
}