{
	"data": {
		"bytecode": {
			"linkReferences": {},
			"object": "6080604052348015600e575f5ffd5b50610ef78061001c5f395ff3fe608060405234801561000f575f5ffd5b506004361061003f575f3560e01c806310abbf8414610043578063266001d314610073578063f4311138146100a3575b5f5ffd5b61005d60048036038101906100589190610984565b6100d3565b60405161006a9190610a14565b60405180910390f35b61008d60048036038101906100889190610984565b6100ff565b60405161009a9190610a8d565b60405180910390f35b6100bd60048036038101906100b89190610984565b61012c565b6040516100ca9190610bb0565b60405180910390f35b5f6100f76100e083610216565b6100e985610216565b61024390919063ffffffff16565b905092915050565b606061012461010d83610216565b61011685610216565b61026d90919063ffffffff16565b905092915050565b60605f61013884610216565b90505f61014484610216565b90505f600161015c838561031490919063ffffffff16565b6101669190610c06565b67ffffffffffffffff81111561017f5761017e610860565b5b6040519080825280602002602001820160405280156101b257816020015b606081526020019060019003908161019d5790505b5090505f5f90505b8151811015610209576101de6101d984866103b490919063ffffffff16565b6103ce565b8282815181106101f1576101f0610c39565b5b602002602001018190525080806001019150506101ba565b5080935050505092915050565b61021e61081f565b5f60208301905060405180604001604052808451815260200182815250915050919050565b5f8260200151610263845f01518560200151855f01518660200151610446565b1415905092915050565b60605f825f0151845f01516102829190610c06565b67ffffffffffffffff81111561029b5761029a610860565b5b6040519080825280601f01601f1916602001820160405280156102cd5781602001600182028036833780820191505090505b5090505f6020820190506102e9818660200151875f0151610577565b610309855f0151826102fb9190610c06565b8560200151865f0151610577565b819250505092915050565b5f5f825f0151610334855f01518660200151865f01518760200151610621565b61033e9190610c06565b90505b835f015184602001516103549190610c06565b81116103ad57818061036590610c66565b925050825f015161039c85602001518361037f9190610cad565b865f015161038d9190610cad565b83865f01518760200151610621565b6103a69190610c06565b9050610341565b5092915050565b6103bc61081f565b6103c7838383610760565b5092915050565b60605f825f015167ffffffffffffffff8111156103ee576103ed610860565b5b6040519080825280601f01601f1916602001820160405280156104205781602001600182028036833780820191505090505b5090505f60208201905061043c818560200151865f0151610577565b8192505050919050565b5f5f85841161056a5760208411610509575f5f85111561049757600185602061046f9190610cad565b600861047b9190610ce0565b60026104879190610e50565b6104919190610cad565b195f1b90505b5f8185511690508588886104ab9190610c06565b6104b59190610cad565b92505f8284511690505b8181146104f2578784116104d9578794505050505061056f565b83806104e490610e9a565b9450508284511690506104bf565b86846104fe9190610c06565b94505050505061056f565b5f8484209050848761051b9190610cad565b866105269190610c06565b91505b858210610568575f85832090508082036105535785836105499190610c06565b935050505061056f565b6001836105609190610cad565b925050610529565b505b849150505b949350505050565b5b602081106105b657815183526020836105919190610c06565b92506020826105a09190610c06565b91506020816105af9190610cad565b9050610578565b5f7fffffffffffffffffffffffffffffffffffffffffffffffffffffffffffffffff90505f82111561060b5760018260206105f19190610cad565b6101006105fe9190610e50565b6106089190610cad565b90505b8019835116818551168181178652505050505050565b5f5f8490505f86851161074757602085116106ed575f5f86111561067657600186602061064e9190610cad565b600861065a9190610ce0565b60026106669190610e50565b6106709190610cad565b195f1b90505b5f8186511690505f878a8a61068b9190610c06565b6106959190610cad565b90505f8386511690505b8281146106df578186106106c6578a8a6106b99190610c06565b9650505050505050610758565b85806106d190610c66565b96505083865116905061069f565b859650505050505050610758565b5f85852090505f91505b85886107039190610cad565b8211610745575f86842090508082036107225783945050505050610758565b60018461072f9190610c06565b935050818061073d90610c66565b9250506106f7565b505b86866107539190610c06565b925050505b949350505050565b61076861081f565b5f610783855f01518660200151865f01518760200151610621565b905084602001518360200181815250508460200151816107a39190610cad565b835f018181525050845f015185602001516107be9190610c06565b81036107d2575f855f018181525050610814565b835f0151835f01516107e49190610c06565b855f018181516107f49190610cad565b91508181525050835f01518161080a9190610c06565b8560200181815250505b829150509392505050565b60405180604001604052805f81526020015f81525090565b5f604051905090565b5f5ffd5b5f5ffd5b5f5ffd5b5f5ffd5b5f601f19601f8301169050919050565b7f4e487b71000000000000000000000000000000000000000000000000000000005f52604160045260245ffd5b61089682610850565b810181811067ffffffffffffffff821117156108b5576108b4610860565b5b80604052505050565b5f6108c7610837565b90506108d3828261088d565b919050565b5f67ffffffffffffffff8211156108f2576108f1610860565b5b6108fb82610850565b9050602081019050919050565b828183375f83830152505050565b5f610928610923846108d8565b6108be565b9050828152602081018484840111156109445761094361084c565b5b61094f848285610908565b509392505050565b5f82601f83011261096b5761096a610848565b5b813561097b848260208601610916565b91505092915050565b5f5f6040838503121561099a57610999610840565b5b5f83013567ffffffffffffffff8111156109b7576109b6610844565b5b6109c385828601610957565b925050602083013567ffffffffffffffff8111156109e4576109e3610844565b5b6109f085828601610957565b9150509250929050565b5f8115159050919050565b610a0e816109fa565b82525050565b5f602082019050610a275f830184610a05565b92915050565b5f81519050919050565b5f82825260208201905092915050565b8281835e5f83830152505050565b5f610a5f82610a2d565b610a698185610a37565b9350610a79818560208601610a47565b610a8281610850565b840191505092915050565b5f6020820190508181035f830152610aa58184610a55565b905092915050565b5f81519050919050565b5f82825260208201905092915050565b5f819050602082019050919050565b5f82825260208201905092915050565b5f610af082610a2d565b610afa8185610ad6565b9350610b0a818560208601610a47565b610b1381610850565b840191505092915050565b5f610b298383610ae6565b905092915050565b5f602082019050919050565b5f610b4782610aad565b610b518185610ab7565b935083602082028501610b6385610ac7565b805f5b85811015610b9e5784840389528151610b7f8582610b1e565b9450610b8a83610b31565b925060208a01995050600181019050610b66565b50829750879550505050505092915050565b5f6020820190508181035f830152610bc88184610b3d565b905092915050565b5f819050919050565b7f4e487b71000000000000000000000000000000000000000000000000000000005f52601160045260245ffd5b5f610c1082610bd0565b9150610c1b83610bd0565b9250828201905080821115610c3357610c32610bd9565b5b92915050565b7f4e487b71000000000000000000000000000000000000000000000000000000005f52603260045260245ffd5b5f610c7082610bd0565b91507fffffffffffffffffffffffffffffffffffffffffffffffffffffffffffffffff8203610ca257610ca1610bd9565b5b600182019050919050565b5f610cb782610bd0565b9150610cc283610bd0565b9250828203905081811115610cda57610cd9610bd9565b5b92915050565b5f610cea82610bd0565b9150610cf583610bd0565b9250828202610d0381610bd0565b91508282048414831517610d1a57610d19610bd9565b5b5092915050565b5f8160011c9050919050565b5f5f8291508390505b6001851115610d7657808604811115610d5257610d51610bd9565b5b6001851615610d615780820291505b8081029050610d6f85610d21565b9450610d36565b94509492505050565b5f82610d8e5760019050610e49565b81610d9b575f9050610e49565b8160018114610db15760028114610dbb57610dea565b6001915050610e49565b60ff841115610dcd57610dcc610bd9565b5b8360020a915084821115610de457610de3610bd9565b5b50610e49565b5060208310610133831016604e8410600b8410161715610e1f5782820a905083811115610e1a57610e19610bd9565b5b610e49565b610e2c8484846001610d2d565b92509050818404811115610e4357610e42610bd9565b5b81810290505b9392505050565b5f610e5a82610bd0565b9150610e6583610bd0565b9250610e927fffffffffffffffffffffffffffffffffffffffffffffffffffffffffffffffff8484610d7f565b905092915050565b5f610ea482610bd0565b91505f8203610eb657610eb5610bd9565b5b60018203905091905056fea2646970667358221220d64472ffc89165193f6e5d68647f92063d9166a69146578806ba3169d6de8b5364736f6c634300081e0033",
			"opcodes": "PUSH1 0x80 PUSH1 0x40 MSTORE CALLVALUE DUP1 ISZERO PUSH1 0xE JUMPI PUSH0 PUSH0 REVERT JUMPDEST POP PUSH2 0xEF7 DUP1 PUSH2 0x1C PUSH0 CODECOPY PUSH0 RETURN INVALID PUSH1 0x80 PUSH1 0x40 MSTORE CALLVALUE DUP1 ISZERO PUSH2 0xF JUMPI PUSH0 PUSH0 REVERT JUMPDEST POP PUSH1 0x4 CALLDATASIZE LT PUSH2 0x3F JUMPI PUSH0 CALLDATALOAD PUSH1 0xE0 SHR DUP1 PUSH4 0x10ABBF84 EQ PUSH2 0x43 JUMPI DUP1 PUSH4 0x266001D3 EQ PUSH2 0x73 JUMPI DUP1 PUSH4 0xF4311138 EQ PUSH2 0xA3 JUMPI JUMPDEST PUSH0 PUSH0 REVERT JUMPDEST PUSH2 0x5D PUSH1 0x4 DUP1 CALLDATASIZE SUB DUP2 ADD SWAP1 PUSH2 0x58 SWAP2 SWAP1 PUSH2 0x984 JUMP JUMPDEST PUSH2 0xD3 JUMP JUMPDEST PUSH1 0x40 MLOAD PUSH2 0x6A SWAP2 SWAP1 PUSH2 0xA14 JUMP JUMPDEST PUSH1 0x40 MLOAD DUP1 SWAP2 SUB SWAP1 RETURN JUMPDEST PUSH2 0x8D PUSH1 0x4 DUP1 CALLDATASIZE SUB DUP2 ADD SWAP1 PUSH2 0x88 SWAP2 SWAP1 PUSH2 0x984 JUMP JUMPDEST PUSH2 0xFF JUMP JUMPDEST PUSH1 0x40 MLOAD PUSH2 0x9A SWAP2 SWAP1 PUSH2 0xA8D JUMP JUMPDEST PUSH1 0x40 MLOAD DUP1 SWAP2 SUB SWAP1 RETURN JUMPDEST PUSH2 0xBD PUSH1 0x4 DUP1 CALLDATASIZE SUB DUP2 ADD SWAP1 PUSH2 0xB8 SWAP2 SWAP1 PUSH2 0x984 JUMP JUMPDEST PUSH2 0x12C JUMP JUMPDEST PUSH1 0x40 MLOAD PUSH2 0xCA SWAP2 SWAP1 PUSH2 0xBB0 JUMP JUMPDEST PUSH1 0x40 MLOAD DUP1 SWAP2 SUB SWAP1 RETURN JUMPDEST PUSH0 PUSH2 0xF7 PUSH2 0xE0 DUP4 PUSH2 0x216 JUMP JUMPDEST PUSH2 0xE9 DUP6 PUSH2 0x216 JUMP JUMPDEST PUSH2 0x243 SWAP1 SWAP2 SWAP1 PUSH4 0xFFFFFFFF AND JUMP JUMPDEST SWAP1 POP SWAP3 SWAP2 POP POP JUMP JUMPDEST PUSH1 0x60 PUSH2 0x124 PUSH2 0x10D DUP4 PUSH2 0x216 JUMP JUMPDEST PUSH2 0x116 DUP6 PUSH2 0x216 JUMP JUMPDEST PUSH2 0x26D SWAP1 SWAP2 SWAP1 PUSH4 0xFFFFFFFF AND JUMP JUMPDEST SWAP1 POP SWAP3 SWAP2 POP POP JUMP JUMPDEST PUSH1 0x60 PUSH0 PUSH2 0x138 DUP5 PUSH2 0x216 JUMP JUMPDEST SWAP1 POP PUSH0 PUSH2 0x144 DUP5 PUSH2 0x216 JUMP JUMPDEST SWAP1 POP PUSH0 PUSH1 0x1 PUSH2 0x15C DUP4 DUP6 PUSH2 0x314 SWAP1 SWAP2 SWAP1 PUSH4 0xFFFFFFFF AND JUMP JUMPDEST PUSH2 0x166 SWAP2 SWAP1 PUSH2 0xC06 JUMP JUMPDEST PUSH8 0xFFFFFFFFFFFFFFFF DUP2 GT ISZERO PUSH2 0x17F JUMPI PUSH2 0x17E PUSH2 0x860 JUMP JUMPDEST JUMPDEST PUSH1 0x40 MLOAD SWAP1 DUP1 DUP3 MSTORE DUP1 PUSH1 0x20 MUL PUSH1 0x20 ADD DUP3 ADD PUSH1 0x40 MSTORE DUP1 ISZERO PUSH2 0x1B2 JUMPI DUP2 PUSH1 0x20 ADD JUMPDEST PUSH1 0x60 DUP2 MSTORE PUSH1 0x20 ADD SWAP1 PUSH1 0x1 SWAP1 SUB SWAP1 DUP2 PUSH2 0x19D JUMPI SWAP1 POP JUMPDEST POP SWAP1 POP PUSH0 PUSH0 SWAP1 POP JUMPDEST DUP2 MLOAD DUP2 LT ISZERO PUSH2 0x209 JUMPI PUSH2 0x1DE PUSH2 0x1D9 DUP5 DUP7 PUSH2 0x3B4 SWAP1 SWAP2 SWAP1 PUSH4 0xFFFFFFFF AND JUMP JUMPDEST PUSH2 0x3CE JUMP JUMPDEST DUP3 DUP3 DUP2 MLOAD DUP2 LT PUSH2 0x1F1 JUMPI PUSH2 0x1F0 PUSH2 0xC39 JUMP JUMPDEST JUMPDEST PUSH1 0x20 MUL PUSH1 0x20 ADD ADD DUP2 SWAP1 MSTORE POP DUP1 DUP1 PUSH1 0x1 ADD SWAP2 POP POP PUSH2 0x1BA JUMP JUMPDEST POP DUP1 SWAP4 POP POP POP POP SWAP3 SWAP2 POP POP JUMP JUMPDEST PUSH2 0x21E PUSH2 0x81F JUMP JUMPDEST PUSH0 PUSH1 0x20 DUP4 ADD SWAP1 POP PUSH1 0x40 MLOAD DUP1 PUSH1 0x40 ADD PUSH1 0x40 MSTORE DUP1 DUP5 MLOAD DUP2 MSTORE PUSH1 0x20 ADD DUP3 DUP2 MSTORE POP SWAP2 POP POP SWAP2 SWAP1 POP JUMP JUMPDEST PUSH0 DUP3 PUSH1 0x20 ADD MLOAD PUSH2 0x263 DUP5 PUSH0 ADD MLOAD DUP6 PUSH1 0x20 ADD MLOAD DUP6 PUSH0 ADD MLOAD DUP7 PUSH1 0x20 ADD MLOAD PUSH2 0x446 JUMP JUMPDEST EQ ISZERO SWAP1 POP SWAP3 SWAP2 POP POP JUMP JUMPDEST PUSH1 0x60 PUSH0 DUP3 PUSH0 ADD MLOAD DUP5 PUSH0 ADD MLOAD PUSH2 0x282 SWAP2 SWAP1 PUSH2 0xC06 JUMP JUMPDEST PUSH8 0xFFFFFFFFFFFFFFFF DUP2 GT ISZERO PUSH2 0x29B JUMPI PUSH2 0x29A PUSH2 0x860 JUMP JUMPDEST JUMPDEST PUSH1 0x40 MLOAD SWAP1 DUP1 DUP3 MSTORE DUP1 PUSH1 0x1F ADD PUSH1 0x1F NOT AND PUSH1 0x20 ADD DUP3 ADD PUSH1 0x40 MSTORE DUP1 ISZERO PUSH2 0x2CD JUMPI DUP2 PUSH1 0x20 ADD PUSH1 0x1 DUP3 MUL DUP1 CALLDATASIZE DUP4 CALLDATACOPY DUP1 DUP3 ADD SWAP2 POP POP SWAP1 POP JUMPDEST POP SWAP1 POP PUSH0 PUSH1 0x20 DUP3 ADD SWAP1 POP PUSH2 0x2E9 DUP2 DUP7 PUSH1 0x20 ADD MLOAD DUP8 PUSH0 ADD MLOAD PUSH2 0x577 JUMP JUMPDEST PUSH2 0x309 DUP6 PUSH0 ADD MLOAD DUP3 PUSH2 0x2FB SWAP2 SWAP1 PUSH2 0xC06 JUMP JUMPDEST DUP6 PUSH1 0x20 ADD MLOAD DUP7 PUSH0 ADD MLOAD PUSH2 0x577 JUMP JUMPDEST DUP2 SWAP3 POP POP POP SWAP3 SWAP2 POP POP JUMP JUMPDEST PUSH0 PUSH0 DUP3 PUSH0 ADD MLOAD PUSH2 0x334 DUP6 PUSH0 ADD MLOAD DUP7 PUSH1 0x20 ADD MLOAD DUP7 PUSH0 ADD MLOAD DUP8 PUSH1 0x20 ADD MLOAD PUSH2 0x621 JUMP JUMPDEST PUSH2 0x33E SWAP2 SWAP1 PUSH2 0xC06 JUMP JUMPDEST SWAP1 POP JUMPDEST DUP4 PUSH0 ADD MLOAD DUP5 PUSH1 0x20 ADD MLOAD PUSH2 0x354 SWAP2 SWAP1 PUSH2 0xC06 JUMP JUMPDEST DUP2 GT PUSH2 0x3AD JUMPI DUP2 DUP1 PUSH2 0x365 SWAP1 PUSH2 0xC66 JUMP JUMPDEST SWAP3 POP POP DUP3 PUSH0 ADD MLOAD PUSH2 0x39C DUP6 PUSH1 0x20 ADD MLOAD DUP4 PUSH2 0x37F SWAP2 SWAP1 PUSH2 0xCAD JUMP JUMPDEST DUP7 PUSH0 ADD MLOAD PUSH2 0x38D SWAP2 SWAP1 PUSH2 0xCAD JUMP JUMPDEST DUP4 DUP7 PUSH0 ADD MLOAD DUP8 PUSH1 0x20 ADD MLOAD PUSH2 0x621 JUMP JUMPDEST PUSH2 0x3A6 SWAP2 SWAP1 PUSH2 0xC06 JUMP JUMPDEST SWAP1 POP PUSH2 0x341 JUMP JUMPDEST POP SWAP3 SWAP2 POP POP JUMP JUMPDEST PUSH2 0x3BC PUSH2 0x81F JUMP JUMPDEST PUSH2 0x3C7 DUP4 DUP4 DUP4 PUSH2 0x760 JUMP JUMPDEST POP SWAP3 SWAP2 POP POP JUMP JUMPDEST PUSH1 0x60 PUSH0 DUP3 PUSH0 ADD MLOAD PUSH8 0xFFFFFFFFFFFFFFFF DUP2 GT ISZERO PUSH2 0x3EE JUMPI PUSH2 0x3ED PUSH2 0x860 JUMP JUMPDEST JUMPDEST PUSH1 0x40 MLOAD SWAP1 DUP1 DUP3 MSTORE DUP1 PUSH1 0x1F ADD PUSH1 0x1F NOT AND PUSH1 0x20 ADD DUP3 ADD PUSH1 0x40 MSTORE DUP1 ISZERO PUSH2 0x420 JUMPI DUP2 PUSH1 0x20 ADD PUSH1 0x1 DUP3 MUL DUP1 CALLDATASIZE DUP4 CALLDATACOPY DUP1 DUP3 ADD SWAP2 POP POP SWAP1 POP JUMPDEST POP SWAP1 POP PUSH0 PUSH1 0x20 DUP3 ADD SWAP1 POP PUSH2 0x43C DUP2 DUP6 PUSH1 0x20 ADD MLOAD DUP7 PUSH0 ADD MLOAD PUSH2 0x577 JUMP JUMPDEST DUP2 SWAP3 POP POP POP SWAP2 SWAP1 POP JUMP JUMPDEST PUSH0 PUSH0 DUP6 DUP5 GT PUSH2 0x56A JUMPI PUSH1 0x20 DUP5 GT PUSH2 0x509 JUMPI PUSH0 PUSH0 DUP6 GT ISZERO PUSH2 0x497 JUMPI PUSH1 0x1 DUP6 PUSH1 0x20 PUSH2 0x46F SWAP2 SWAP1 PUSH2 0xCAD JUMP JUMPDEST PUSH1 0x8 PUSH2 0x47B SWAP2 SWAP1 PUSH2 0xCE0 JUMP JUMPDEST PUSH1 0x2 PUSH2 0x487 SWAP2 SWAP1 PUSH2 0xE50 JUMP JUMPDEST PUSH2 0x491 SWAP2 SWAP1 PUSH2 0xCAD JUMP JUMPDEST NOT PUSH0 SHL SWAP1 POP JUMPDEST PUSH0 DUP2 DUP6 MLOAD AND SWAP1 POP DUP6 DUP9 DUP9 PUSH2 0x4AB SWAP2 SWAP1 PUSH2 0xC06 JUMP JUMPDEST PUSH2 0x4B5 SWAP2 SWAP1 PUSH2 0xCAD JUMP JUMPDEST SWAP3 POP PUSH0 DUP3 DUP5 MLOAD AND SWAP1 POP JUMPDEST DUP2 DUP2 EQ PUSH2 0x4F2 JUMPI DUP8 DUP5 GT PUSH2 0x4D9 JUMPI DUP8 SWAP5 POP POP POP POP POP PUSH2 0x56F JUMP JUMPDEST DUP4 DUP1 PUSH2 0x4E4 SWAP1 PUSH2 0xE9A JUMP JUMPDEST SWAP5 POP POP DUP3 DUP5 MLOAD AND SWAP1 POP PUSH2 0x4BF JUMP JUMPDEST DUP7 DUP5 PUSH2 0x4FE SWAP2 SWAP1 PUSH2 0xC06 JUMP JUMPDEST SWAP5 POP POP POP POP POP PUSH2 0x56F JUMP JUMPDEST PUSH0 DUP5 DUP5 KECCAK256 SWAP1 POP DUP5 DUP8 PUSH2 0x51B SWAP2 SWAP1 PUSH2 0xCAD JUMP JUMPDEST DUP7 PUSH2 0x526 SWAP2 SWAP1 PUSH2 0xC06 JUMP JUMPDEST SWAP2 POP JUMPDEST DUP6 DUP3 LT PUSH2 0x568 JUMPI PUSH0 DUP6 DUP4 KECCAK256 SWAP1 POP DUP1 DUP3 SUB PUSH2 0x553 JUMPI DUP6 DUP4 PUSH2 0x549 SWAP2 SWAP1 PUSH2 0xC06 JUMP JUMPDEST SWAP4 POP POP POP POP PUSH2 0x56F JUMP JUMPDEST PUSH1 0x1 DUP4 PUSH2 0x560 SWAP2 SWAP1 PUSH2 0xCAD JUMP JUMPDEST SWAP3 POP POP PUSH2 0x529 JUMP JUMPDEST POP JUMPDEST DUP5 SWAP2 POP POP JUMPDEST SWAP5 SWAP4 POP POP POP POP JUMP JUMPDEST JUMPDEST PUSH1 0x20 DUP2 LT PUSH2 0x5B6 JUMPI DUP2 MLOAD DUP4 MSTORE PUSH1 0x20 DUP4 PUSH2 0x591 SWAP2 SWAP1 PUSH2 0xC06 JUMP JUMPDEST SWAP3 POP PUSH1 0x20 DUP3 PUSH2 0x5A0 SWAP2 SWAP1 PUSH2 0xC06 JUMP JUMPDEST SWAP2 POP PUSH1 0x20 DUP2 PUSH2 0x5AF SWAP2 SWAP1 PUSH2 0xCAD JUMP JUMPDEST SWAP1 POP PUSH2 0x578 JUMP JUMPDEST PUSH0 PUSH32 0xFFFFFFFFFFFFFFFFFFFFFFFFFFFFFFFFFFFFFFFFFFFFFFFFFFFFFFFFFFFFFFFF SWAP1 POP PUSH0 DUP3 GT ISZERO PUSH2 0x60B JUMPI PUSH1 0x1 DUP3 PUSH1 0x20 PUSH2 0x5F1 SWAP2 SWAP1 PUSH2 0xCAD JUMP JUMPDEST PUSH2 0x100 PUSH2 0x5FE SWAP2 SWAP1 PUSH2 0xE50 JUMP JUMPDEST PUSH2 0x608 SWAP2 SWAP1 PUSH2 0xCAD JUMP JUMPDEST SWAP1 POP JUMPDEST DUP1 NOT DUP4 MLOAD AND DUP2 DUP6 MLOAD AND DUP2 DUP2 OR DUP7 MSTORE POP POP POP POP POP POP JUMP JUMPDEST PUSH0 PUSH0 DUP5 SWAP1 POP PUSH0 DUP7 DUP6 GT PUSH2 0x747 JUMPI PUSH1 0x20 DUP6 GT PUSH2 0x6ED JUMPI PUSH0 PUSH0 DUP7 GT ISZERO PUSH2 0x676 JUMPI PUSH1 0x1 DUP7 PUSH1 0x20 PUSH2 0x64E SWAP2 SWAP1 PUSH2 0xCAD JUMP JUMPDEST PUSH1 0x8 PUSH2 0x65A SWAP2 SWAP1 PUSH2 0xCE0 JUMP JUMPDEST PUSH1 0x2 PUSH2 0x666 SWAP2 SWAP1 PUSH2 0xE50 JUMP JUMPDEST PUSH2 0x670 SWAP2 SWAP1 PUSH2 0xCAD JUMP JUMPDEST NOT PUSH0 SHL SWAP1 POP JUMPDEST PUSH0 DUP2 DUP7 MLOAD AND SWAP1 POP PUSH0 DUP8 DUP11 DUP11 PUSH2 0x68B SWAP2 SWAP1 PUSH2 0xC06 JUMP JUMPDEST PUSH2 0x695 SWAP2 SWAP1 PUSH2 0xCAD JUMP JUMPDEST SWAP1 POP PUSH0 DUP4 DUP7 MLOAD AND SWAP1 POP JUMPDEST DUP3 DUP2 EQ PUSH2 0x6DF JUMPI DUP2 DUP7 LT PUSH2 0x6C6 JUMPI DUP11 DUP11 PUSH2 0x6B9 SWAP2 SWAP1 PUSH2 0xC06 JUMP JUMPDEST SWAP7 POP POP POP POP POP POP POP PUSH2 0x758 JUMP JUMPDEST DUP6 DUP1 PUSH2 0x6D1 SWAP1 PUSH2 0xC66 JUMP JUMPDEST SWAP7 POP POP DUP4 DUP7 MLOAD AND SWAP1 POP PUSH2 0x69F JUMP JUMPDEST DUP6 SWAP7 POP POP POP POP POP POP POP PUSH2 0x758 JUMP JUMPDEST PUSH0 DUP6 DUP6 KECCAK256 SWAP1 POP PUSH0 SWAP2 POP JUMPDEST DUP6 DUP9 PUSH2 0x703 SWAP2 SWAP1 PUSH2 0xCAD JUMP JUMPDEST DUP3 GT PUSH2 0x745 JUMPI PUSH0 DUP7 DUP5 KECCAK256 SWAP1 POP DUP1 DUP3 SUB PUSH2 0x722 JUMPI DUP4 SWAP5 POP POP POP POP POP PUSH2 0x758 JUMP JUMPDEST PUSH1 0x1 DUP5 PUSH2 0x72F SWAP2 SWAP1 PUSH2 0xC06 JUMP JUMPDEST SWAP4 POP POP DUP2 DUP1 PUSH2 0x73D SWAP1 PUSH2 0xC66 JUMP JUMPDEST SWAP3 POP POP PUSH2 0x6F7 JUMP JUMPDEST POP JUMPDEST DUP7 DUP7 PUSH2 0x753 SWAP2 SWAP1 PUSH2 0xC06 JUMP JUMPDEST SWAP3 POP POP POP JUMPDEST SWAP5 SWAP4 POP POP POP POP JUMP JUMPDEST PUSH2 0x768 PUSH2 0x81F JUMP JUMPDEST PUSH0 PUSH2 0x783 DUP6 PUSH0 ADD MLOAD DUP7 PUSH1 0x20 ADD MLOAD DUP7 PUSH0 ADD MLOAD DUP8 PUSH1 0x20 ADD MLOAD PUSH2 0x621 JUMP JUMPDEST SWAP1 POP DUP5 PUSH1 0x20 ADD MLOAD DUP4 PUSH1 0x20 ADD DUP2 DUP2 MSTORE POP POP DUP5 PUSH1 0x20 ADD MLOAD DUP2 PUSH2 0x7A3 SWAP2 SWAP1 PUSH2 0xCAD JUMP JUMPDEST DUP4 PUSH0 ADD DUP2 DUP2 MSTORE POP POP DUP5 PUSH0 ADD MLOAD DUP6 PUSH1 0x20 ADD MLOAD PUSH2 0x7BE SWAP2 SWAP1 PUSH2 0xC06 JUMP JUMPDEST DUP2 SUB PUSH2 0x7D2 JUMPI PUSH0 DUP6 PUSH0 ADD DUP2 DUP2 MSTORE POP POP PUSH2 0x814 JUMP JUMPDEST DUP4 PUSH0 ADD MLOAD DUP4 PUSH0 ADD MLOAD PUSH2 0x7E4 SWAP2 SWAP1 PUSH2 0xC06 JUMP JUMPDEST DUP6 PUSH0 ADD DUP2 DUP2 MLOAD PUSH2 0x7F4 SWAP2 SWAP1 PUSH2 0xCAD JUMP JUMPDEST SWAP2 POP DUP2 DUP2 MSTORE POP POP DUP4 PUSH0 ADD MLOAD DUP2 PUSH2 0x80A SWAP2 SWAP1 PUSH2 0xC06 JUMP JUMPDEST DUP6 PUSH1 0x20 ADD DUP2 DUP2 MSTORE POP POP JUMPDEST DUP3 SWAP2 POP POP SWAP4 SWAP3 POP POP POP JUMP JUMPDEST PUSH1 0x40 MLOAD DUP1 PUSH1 0x40 ADD PUSH1 0x40 MSTORE DUP1 PUSH0 DUP2 MSTORE PUSH1 0x20 ADD PUSH0 DUP2 MSTORE POP SWAP1 JUMP JUMPDEST PUSH0 PUSH1 0x40 MLOAD SWAP1 POP SWAP1 JUMP JUMPDEST PUSH0 PUSH0 REVERT JUMPDEST PUSH0 PUSH0 REVERT JUMPDEST PUSH0 PUSH0 REVERT JUMPDEST PUSH0 PUSH0 REVERT JUMPDEST PUSH0 PUSH1 0x1F NOT PUSH1 0x1F DUP4 ADD AND SWAP1 POP SWAP2 SWAP1 POP JUMP JUMPDEST PUSH32 0x4E487B7100000000000000000000000000000000000000000000000000000000 PUSH0 MSTORE PUSH1 0x41 PUSH1 0x4 MSTORE PUSH1 0x24 PUSH0 REVERT JUMPDEST PUSH2 0x896 DUP3 PUSH2 0x850 JUMP JUMPDEST DUP2 ADD DUP2 DUP2 LT PUSH8 0xFFFFFFFFFFFFFFFF DUP3 GT OR ISZERO PUSH2 0x8B5 JUMPI PUSH2 0x8B4 PUSH2 0x860 JUMP JUMPDEST JUMPDEST DUP1 PUSH1 0x40 MSTORE POP POP POP JUMP JUMPDEST PUSH0 PUSH2 0x8C7 PUSH2 0x837 JUMP JUMPDEST SWAP1 POP PUSH2 0x8D3 DUP3 DUP3 PUSH2 0x88D JUMP JUMPDEST SWAP2 SWAP1 POP JUMP JUMPDEST PUSH0 PUSH8 0xFFFFFFFFFFFFFFFF DUP3 GT ISZERO PUSH2 0x8F2 JUMPI PUSH2 0x8F1 PUSH2 0x860 JUMP JUMPDEST JUMPDEST PUSH2 0x8FB DUP3 PUSH2 0x850 JUMP JUMPDEST SWAP1 POP PUSH1 0x20 DUP2 ADD SWAP1 POP SWAP2 SWAP1 POP JUMP JUMPDEST DUP3 DUP2 DUP4 CALLDATACOPY PUSH0 DUP4 DUP4 ADD MSTORE POP POP POP JUMP JUMPDEST PUSH0 PUSH2 0x928 PUSH2 0x923 DUP5 PUSH2 0x8D8 JUMP JUMPDEST PUSH2 0x8BE JUMP JUMPDEST SWAP1 POP DUP3 DUP2 MSTORE PUSH1 0x20 DUP2 ADD DUP5 DUP5 DUP5 ADD GT ISZERO PUSH2 0x944 JUMPI PUSH2 0x943 PUSH2 0x84C JUMP JUMPDEST JUMPDEST PUSH2 0x94F DUP5 DUP3 DUP6 PUSH2 0x908 JUMP JUMPDEST POP SWAP4 SWAP3 POP POP POP JUMP JUMPDEST PUSH0 DUP3 PUSH1 0x1F DUP4 ADD SLT PUSH2 0x96B JUMPI PUSH2 0x96A PUSH2 0x848 JUMP JUMPDEST JUMPDEST DUP2 CALLDATALOAD PUSH2 0x97B DUP5 DUP3 PUSH1 0x20 DUP7 ADD PUSH2 0x916 JUMP JUMPDEST SWAP2 POP POP SWAP3 SWAP2 POP POP JUMP JUMPDEST PUSH0 PUSH0 PUSH1 0x40 DUP4 DUP6 SUB SLT ISZERO PUSH2 0x99A JUMPI PUSH2 0x999 PUSH2 0x840 JUMP JUMPDEST JUMPDEST PUSH0 DUP4 ADD CALLDATALOAD PUSH8 0xFFFFFFFFFFFFFFFF DUP2 GT ISZERO PUSH2 0x9B7 JUMPI PUSH2 0x9B6 PUSH2 0x844 JUMP JUMPDEST JUMPDEST PUSH2 0x9C3 DUP6 DUP3 DUP7 ADD PUSH2 0x957 JUMP JUMPDEST SWAP3 POP POP PUSH1 0x20 DUP4 ADD CALLDATALOAD PUSH8 0xFFFFFFFFFFFFFFFF DUP2 GT ISZERO PUSH2 0x9E4 JUMPI PUSH2 0x9E3 PUSH2 0x844 JUMP JUMPDEST JUMPDEST PUSH2 0x9F0 DUP6 DUP3 DUP7 ADD PUSH2 0x957 JUMP JUMPDEST SWAP2 POP POP SWAP3 POP SWAP3 SWAP1 POP JUMP JUMPDEST PUSH0 DUP2 ISZERO ISZERO SWAP1 POP SWAP2 SWAP1 POP JUMP JUMPDEST PUSH2 0xA0E DUP2 PUSH2 0x9FA JUMP JUMPDEST DUP3 MSTORE POP POP JUMP JUMPDEST PUSH0 PUSH1 0x20 DUP3 ADD SWAP1 POP PUSH2 0xA27 PUSH0 DUP4 ADD DUP5 PUSH2 0xA05 JUMP JUMPDEST SWAP3 SWAP2 POP POP JUMP JUMPDEST PUSH0 DUP2 MLOAD SWAP1 POP SWAP2 SWAP1 POP JUMP JUMPDEST PUSH0 DUP3 DUP3 MSTORE PUSH1 0x20 DUP3 ADD SWAP1 POP SWAP3 SWAP2 POP POP JUMP JUMPDEST DUP3 DUP2 DUP4 MCOPY PUSH0 DUP4 DUP4 ADD MSTORE POP POP POP JUMP JUMPDEST PUSH0 PUSH2 0xA5F DUP3 PUSH2 0xA2D JUMP JUMPDEST PUSH2 0xA69 DUP2 DUP6 PUSH2 0xA37 JUMP JUMPDEST SWAP4 POP PUSH2 0xA79 DUP2 DUP6 PUSH1 0x20 DUP7 ADD PUSH2 0xA47 JUMP JUMPDEST PUSH2 0xA82 DUP2 PUSH2 0x850 JUMP JUMPDEST DUP5 ADD SWAP2 POP POP SWAP3 SWAP2 POP POP JUMP JUMPDEST PUSH0 PUSH1 0x20 DUP3 ADD SWAP1 POP DUP2 DUP2 SUB PUSH0 DUP4 ADD MSTORE PUSH2 0xAA5 DUP2 DUP5 PUSH2 0xA55 JUMP JUMPDEST SWAP1 POP SWAP3 SWAP2 POP POP JUMP JUMPDEST PUSH0 DUP2 MLOAD SWAP1 POP SWAP2 SWAP1 POP JUMP JUMPDEST PUSH0 DUP3 DUP3 MSTORE PUSH1 0x20 DUP3 ADD SWAP1 POP SWAP3 SWAP2 POP POP JUMP JUMPDEST PUSH0 DUP2 SWAP1 POP PUSH1 0x20 DUP3 ADD SWAP1 POP SWAP2 SWAP1 POP JUMP JUMPDEST PUSH0 DUP3 DUP3 MSTORE PUSH1 0x20 DUP3 ADD SWAP1 POP SWAP3 SWAP2 POP POP JUMP JUMPDEST PUSH0 PUSH2 0xAF0 DUP3 PUSH2 0xA2D JUMP JUMPDEST PUSH2 0xAFA DUP2 DUP6 PUSH2 0xAD6 JUMP JUMPDEST SWAP4 POP PUSH2 0xB0A DUP2 DUP6 PUSH1 0x20 DUP7 ADD PUSH2 0xA47 JUMP JUMPDEST PUSH2 0xB13 DUP2 PUSH2 0x850 JUMP JUMPDEST DUP5 ADD SWAP2 POP POP SWAP3 SWAP2 POP POP JUMP JUMPDEST PUSH0 PUSH2 0xB29 DUP4 DUP4 PUSH2 0xAE6 JUMP JUMPDEST SWAP1 POP SWAP3 SWAP2 POP POP JUMP JUMPDEST PUSH0 PUSH1 0x20 DUP3 ADD SWAP1 POP SWAP2 SWAP1 POP JUMP JUMPDEST PUSH0 PUSH2 0xB47 DUP3 PUSH2 0xAAD JUMP JUMPDEST PUSH2 0xB51 DUP2 DUP6 PUSH2 0xAB7 JUMP JUMPDEST SWAP4 POP DUP4 PUSH1 0x20 DUP3 MUL DUP6 ADD PUSH2 0xB63 DUP6 PUSH2 0xAC7 JUMP JUMPDEST DUP1 PUSH0 JUMPDEST DUP6 DUP2 LT ISZERO PUSH2 0xB9E JUMPI DUP5 DUP5 SUB DUP10 MSTORE DUP2 MLOAD PUSH2 0xB7F DUP6 DUP3 PUSH2 0xB1E JUMP JUMPDEST SWAP5 POP PUSH2 0xB8A DUP4 PUSH2 0xB31 JUMP JUMPDEST SWAP3 POP PUSH1 0x20 DUP11 ADD SWAP10 POP POP PUSH1 0x1 DUP2 ADD SWAP1 POP PUSH2 0xB66 JUMP JUMPDEST POP DUP3 SWAP8 POP DUP8 SWAP6 POP POP POP POP POP POP SWAP3 SWAP2 POP POP JUMP JUMPDEST PUSH0 PUSH1 0x20 DUP3 ADD SWAP1 POP DUP2 DUP2 SUB PUSH0 DUP4 ADD MSTORE PUSH2 0xBC8 DUP2 DUP5 PUSH2 0xB3D JUMP JUMPDEST SWAP1 POP SWAP3 SWAP2 POP POP JUMP JUMPDEST PUSH0 DUP2 SWAP1 POP SWAP2 SWAP1 POP JUMP JUMPDEST PUSH32 0x4E487B7100000000000000000000000000000000000000000000000000000000 PUSH0 MSTORE PUSH1 0x11 PUSH1 0x4 MSTORE PUSH1 0x24 PUSH0 REVERT JUMPDEST PUSH0 PUSH2 0xC10 DUP3 PUSH2 0xBD0 JUMP JUMPDEST SWAP2 POP PUSH2 0xC1B DUP4 PUSH2 0xBD0 JUMP JUMPDEST SWAP3 POP DUP3 DUP3 ADD SWAP1 POP DUP1 DUP3 GT ISZERO PUSH2 0xC33 JUMPI PUSH2 0xC32 PUSH2 0xBD9 JUMP JUMPDEST JUMPDEST SWAP3 SWAP2 POP POP JUMP JUMPDEST PUSH32 0x4E487B7100000000000000000000000000000000000000000000000000000000 PUSH0 MSTORE PUSH1 0x32 PUSH1 0x4 MSTORE PUSH1 0x24 PUSH0 REVERT JUMPDEST PUSH0 PUSH2 0xC70 DUP3 PUSH2 0xBD0 JUMP JUMPDEST SWAP2 POP PUSH32 0xFFFFFFFFFFFFFFFFFFFFFFFFFFFFFFFFFFFFFFFFFFFFFFFFFFFFFFFFFFFFFFFF DUP3 SUB PUSH2 0xCA2 JUMPI PUSH2 0xCA1 PUSH2 0xBD9 JUMP JUMPDEST JUMPDEST PUSH1 0x1 DUP3 ADD SWAP1 POP SWAP2 SWAP1 POP JUMP JUMPDEST PUSH0 PUSH2 0xCB7 DUP3 PUSH2 0xBD0 JUMP JUMPDEST SWAP2 POP PUSH2 0xCC2 DUP4 PUSH2 0xBD0 JUMP JUMPDEST SWAP3 POP DUP3 DUP3 SUB SWAP1 POP DUP2 DUP2 GT ISZERO PUSH2 0xCDA JUMPI PUSH2 0xCD9 PUSH2 0xBD9 JUMP JUMPDEST JUMPDEST SWAP3 SWAP2 POP POP JUMP JUMPDEST PUSH0 PUSH2 0xCEA DUP3 PUSH2 0xBD0 JUMP JUMPDEST SWAP2 POP PUSH2 0xCF5 DUP4 PUSH2 0xBD0 JUMP JUMPDEST SWAP3 POP DUP3 DUP3 MUL PUSH2 0xD03 DUP2 PUSH2 0xBD0 JUMP JUMPDEST SWAP2 POP DUP3 DUP3 DIV DUP5 EQ DUP4 ISZERO OR PUSH2 0xD1A JUMPI PUSH2 0xD19 PUSH2 0xBD9 JUMP JUMPDEST JUMPDEST POP SWAP3 SWAP2 POP POP JUMP JUMPDEST PUSH0 DUP2 PUSH1 0x1 SHR SWAP1 POP SWAP2 SWAP1 POP JUMP JUMPDEST PUSH0 PUSH0 DUP3 SWAP2 POP DUP4 SWAP1 POP JUMPDEST PUSH1 0x1 DUP6 GT ISZERO PUSH2 0xD76 JUMPI DUP1 DUP7 DIV DUP2 GT ISZERO PUSH2 0xD52 JUMPI PUSH2 0xD51 PUSH2 0xBD9 JUMP JUMPDEST JUMPDEST PUSH1 0x1 DUP6 AND ISZERO PUSH2 0xD61 JUMPI DUP1 DUP3 MUL SWAP2 POP JUMPDEST DUP1 DUP2 MUL SWAP1 POP PUSH2 0xD6F DUP6 PUSH2 0xD21 JUMP JUMPDEST SWAP5 POP PUSH2 0xD36 JUMP JUMPDEST SWAP5 POP SWAP5 SWAP3 POP POP POP JUMP JUMPDEST PUSH0 DUP3 PUSH2 0xD8E JUMPI PUSH1 0x1 SWAP1 POP PUSH2 0xE49 JUMP JUMPDEST DUP2 PUSH2 0xD9B JUMPI PUSH0 SWAP1 POP PUSH2 0xE49 JUMP JUMPDEST DUP2 PUSH1 0x1 DUP2 EQ PUSH2 0xDB1 JUMPI PUSH1 0x2 DUP2 EQ PUSH2 0xDBB JUMPI PUSH2 0xDEA JUMP JUMPDEST PUSH1 0x1 SWAP2 POP POP PUSH2 0xE49 JUMP JUMPDEST PUSH1 0xFF DUP5 GT ISZERO PUSH2 0xDCD JUMPI PUSH2 0xDCC PUSH2 0xBD9 JUMP JUMPDEST JUMPDEST DUP4 PUSH1 0x2 EXP SWAP2 POP DUP5 DUP3 GT ISZERO PUSH2 0xDE4 JUMPI PUSH2 0xDE3 PUSH2 0xBD9 JUMP JUMPDEST JUMPDEST POP PUSH2 0xE49 JUMP JUMPDEST POP PUSH1 0x20 DUP4 LT PUSH2 0x133 DUP4 LT AND PUSH1 0x4E DUP5 LT PUSH1 0xB DUP5 LT AND OR ISZERO PUSH2 0xE1F JUMPI DUP3 DUP3 EXP SWAP1 POP DUP4 DUP2 GT ISZERO PUSH2 0xE1A JUMPI PUSH2 0xE19 PUSH2 0xBD9 JUMP JUMPDEST JUMPDEST PUSH2 0xE49 JUMP JUMPDEST PUSH2 0xE2C DUP5 DUP5 DUP5 PUSH1 0x1 PUSH2 0xD2D JUMP JUMPDEST SWAP3 POP SWAP1 POP DUP2 DUP5 DIV DUP2 GT ISZERO PUSH2 0xE43 JUMPI PUSH2 0xE42 PUSH2 0xBD9 JUMP JUMPDEST JUMPDEST DUP2 DUP2 MUL SWAP1 POP JUMPDEST SWAP4 SWAP3 POP POP POP JUMP JUMPDEST PUSH0 PUSH2 0xE5A DUP3 PUSH2 0xBD0 JUMP JUMPDEST SWAP2 POP PUSH2 0xE65 DUP4 PUSH2 0xBD0 JUMP JUMPDEST SWAP3 POP PUSH2 0xE92 PUSH32 0xFFFFFFFFFFFFFFFFFFFFFFFFFFFFFFFFFFFFFFFFFFFFFFFFFFFFFFFFFFFFFFFF DUP5 DUP5 PUSH2 0xD7F JUMP JUMPDEST SWAP1 POP SWAP3 SWAP2 POP POP JUMP JUMPDEST PUSH0 PUSH2 0xEA4 DUP3 PUSH2 0xBD0 JUMP JUMPDEST SWAP2 POP PUSH0 DUP3 SUB PUSH2 0xEB6 JUMPI PUSH2 0xEB5 PUSH2 0xBD9 JUMP JUMPDEST JUMPDEST PUSH1 0x1 DUP3 SUB SWAP1 POP SWAP2 SWAP1 POP JUMP INVALID LOG2 PUSH5 0x6970667358 0x22 SLT KECCAK256 0xD6 PREVRANDAO PUSH19 0xFFC89165193F6E5D68647F92063D9166A69146 JUMPI DUP9 MOD 0xBA BALANCE PUSH10 0xD6DE8B5364736F6C6343 STOP ADDMOD 0x1E STOP CALLER "
		},
		"gasEstimates": {
			"creation": {
				"codeDepositCost": "766200",
				"executionCost": "797",
				"totalCost": "766997"
			},
			"external": {
				"concatenate(string,string)": "infinite",
				"splitString(string,string)": "infinite",
				"substringExists(string,string)": "infinite"
			}
		},
		"methodIdentifiers": {
			"concatenate(string,string)": "266001d3",
			"splitString(string,string)": "f4311138",
			"substringExists(string,string)": "10abbf84"
		}
	},
	"abi": [
		{
			"inputs": [
				{
					"internalType": "string",
					"name": "a",
					"type": "string"
				},
				{
					"internalType": "string",
					"name": "b",
					"type": "string"
				}
			],
			"name": "concatenate",
			"outputs": [
				{
					"internalType": "string",
					"name": "",
					"type": "string"
				}
			],
			"stateMutability": "pure",
			"type": "function"
		},
		{
			"inputs": [
				{
					"internalType": "string",
					"name": "str",
					"type": "string"
				},
				{
					"internalType": "string",
					"name": "delimiter",
					"type": "string"
				}
			],
			"name": "splitString",
			"outputs": [
				{
					"internalType": "string[]",
					"name": "",
					"type": "string[]"
				}
			],
			"stateMutability": "pure",
			"type": "function"
		},
		{
			"inputs": [
				{
					"internalType": "string",
					"name": "str",
					"type": "string"
				},
				{
					"internalType": "string",
					"name": "substring",
					"type": "string"
				}
			],
			"name": "substringExists",
			"outputs": [
				{
					"internalType": "bool",
					"name": "",
					"type": "bool"
				}
			],
			"stateMutability": "pure",
			"type": "function"
		}
	]
}