{
	"data": {
		"bytecode": {
			"linkReferences": {},
			"object": "608060405260645f553480156012575f5ffd5b50610129806100205f395ff3fe6080604052348015600e575f5ffd5b50600436106030575f3560e01c8063343c3b91146034578063f816fd44146050575b5f5ffd5b603a606a565b60405160479392919060ad565b60405180910390f35b60566092565b6040516061919060dc565b60405180910390f35b5f5f5f5f600a90505f5f60059050809150505f8290505f548282955095509550505050909192565b5f5481565b5f819050919050565b60a7816097565b82525050565b5f60608201905060be5f83018660a0565b60c9602083018560a0565b60d4604083018460a0565b949350505050565b5f60208201905060ed5f83018460a0565b9291505056fea2646970667358221220a591be2d01f506c3ecb714e9fc20869a62d7067331d90fc8a366564412bea26864736f6c634300081e0033",
			"opcodes": "PUSH1 0x80 PUSH1 0x40 MSTORE PUSH1 0x64 PUSH0 SSTORE CALLVALUE DUP1 ISZERO PUSH1 0x12 JUMPI PUSH0 PUSH0 REVERT JUMPDEST POP PUSH2 0x129 DUP1 PUSH2 0x20 PUSH0 CODECOPY PUSH0 RETURN INVALID PUSH1 0x80 PUSH1 0x40 MSTORE CALLVALUE DUP1 ISZERO PUSH1 0xE JUMPI PUSH0 PUSH0 REVERT JUMPDEST POP PUSH1 0x4 CALLDATASIZE LT PUSH1 0x30 JUMPI PUSH0 CALLDATALOAD PUSH1 0xE0 SHR DUP1 PUSH4 0x343C3B91 EQ PUSH1 0x34 JUMPI DUP1 PUSH4 0xF816FD44 EQ PUSH1 0x50 JUMPI JUMPDEST PUSH0 PUSH0 REVERT JUMPDEST PUSH1 0x3A PUSH1 0x6A JUMP JUMPDEST PUSH1 0x40 MLOAD PUSH1 0x47 SWAP4 SWAP3 SWAP2 SWAP1 PUSH1 0xAD JUMP JUMPDEST PUSH1 0x40 MLOAD DUP1 SWAP2 SUB SWAP1 RETURN JUMPDEST PUSH1 0x56 PUSH1 0x92 JUMP JUMPDEST PUSH1 0x40 MLOAD PUSH1 0x61 SWAP2 SWAP1 PUSH1 0xDC JUMP JUMPDEST PUSH1 0x40 MLOAD DUP1 SWAP2 SUB SWAP1 RETURN JUMPDEST PUSH0 PUSH0 PUSH0 PUSH0 PUSH1 0xA SWAP1 POP PUSH0 PUSH0 PUSH1 0x5 SWAP1 POP DUP1 SWAP2 POP POP PUSH0 DUP3 SWAP1 POP PUSH0 SLOAD DUP3 DUP3 SWAP6 POP SWAP6 POP SWAP6 POP POP POP POP SWAP1 SWAP2 SWAP3 JUMP JUMPDEST PUSH0 SLOAD DUP2 JUMP JUMPDEST PUSH0 DUP2 SWAP1 POP SWAP2 SWAP1 POP JUMP JUMPDEST PUSH1 0xA7 DUP2 PUSH1 0x97 JUMP JUMPDEST DUP3 MSTORE POP POP JUMP JUMPDEST PUSH0 PUSH1 0x60 DUP3 ADD SWAP1 POP PUSH1 0xBE PUSH0 DUP4 ADD DUP7 PUSH1 0xA0 JUMP JUMPDEST PUSH1 0xC9 PUSH1 0x20 DUP4 ADD DUP6 PUSH1 0xA0 JUMP JUMPDEST PUSH1 0xD4 PUSH1 0x40 DUP4 ADD DUP5 PUSH1 0xA0 JUMP JUMPDEST SWAP5 SWAP4 POP POP POP POP JUMP JUMPDEST PUSH0 PUSH1 0x20 DUP3 ADD SWAP1 POP PUSH1 0xED PUSH0 DUP4 ADD DUP5 PUSH1 0xA0 JUMP JUMPDEST SWAP3 SWAP2 POP POP JUMP INVALID LOG2 PUSH5 0x6970667358 0x22 SLT KECCAK256 0xA5 SWAP2 0xBE 0x2D ADD CREATE2 MOD 0xC3 EOFCREATE 0xB7 EQ 0xE9 0xFC KECCAK256 DUP7 SWAP11 PUSH3 0xD70673 BALANCE 0xD9 0xF 0xC8 LOG3 PUSH7 0x564412BEA26864 PUSH20 0x6F6C634300081E00330000000000000000000000 "
		},
		"gasEstimates": {
			"creation": {
				"codeDepositCost": "59400",
				"executionCost": "22214",
				"totalCost": "81614"
			},
			"external": {
				"globalVar()": "2424",
				"variableScoping()": "infinite"
			}
		},
		"methodIdentifiers": {
			"globalVar()": "f816fd44",
			"variableScoping()": "343c3b91"
		}
	},
	"abi": [
		{
			"inputs": [],
			"name": "globalVar",
			"outputs": [
				{
					"internalType": "uint256",
					"name": "",
					"type": "uint256"
				}
			],
			"stateMutability": "view",
			"type": "function"
		},
		{
			"inputs": [],
			"name": "variableScoping",
			"outputs": [
				{
					"internalType": "uint256",
					"name": "",
					"type": "uint256"
				},
				{
					"internalType": "uint256",
					"name": "",
					"type": "uint256"
				},
				{
					"internalType": "uint256",
					"name": "",
					"type": "uint256"
				}
			],
			"stateMutability": "view",
			"type": "function"
		}
	]
}